{
  "contractName": "ApprovalFollowModule",
  "abi": [
    {
      "inputs": [
        {
          "internalType": "address",
          "name": "hub",
          "type": "address"
        }
      ],
      "stateMutability": "nonpayable",
      "type": "constructor"
    },
    {
      "inputs": [],
      "name": "FollowNotApproved",
      "type": "error"
    },
    {
      "inputs": [],
      "name": "InitParamsInvalid",
      "type": "error"
    },
    {
      "inputs": [],
      "name": "NotHub",
      "type": "error"
    },
    {
      "inputs": [],
      "name": "NotProfileOwner",
      "type": "error"
    },
    {
      "inputs": [],
      "name": "HUB",
      "outputs": [
        {
          "internalType": "address",
          "name": "",
          "type": "address"
        }
      ],
      "stateMutability": "view",
      "type": "function"
    },
    {
      "inputs": [
        {
          "internalType": "uint256",
          "name": "profileId",
          "type": "uint256"
        },
        {
          "internalType": "address",
          "name": "follower",
          "type": "address"
        },
        {
          "internalType": "uint256",
          "name": "followNFTTokenId",
          "type": "uint256"
        }
      ],
      "name": "isFollowing",
      "outputs": [
        {
          "internalType": "bool",
          "name": "",
          "type": "bool"
        }
      ],
      "stateMutability": "view",
      "type": "function"
    },
    {
      "inputs": [
        {
          "internalType": "uint256",
          "name": "profileId",
          "type": "uint256"
        },
        {
          "internalType": "address[]",
          "name": "addresses",
          "type": "address[]"
        },
        {
          "internalType": "bool[]",
          "name": "toApprove",
          "type": "bool[]"
        }
      ],
      "name": "approve",
      "outputs": [],
      "stateMutability": "nonpayable",
      "type": "function"
    },
    {
      "inputs": [
        {
          "internalType": "uint256",
          "name": "profileId",
          "type": "uint256"
        },
        {
          "internalType": "bytes",
          "name": "data",
          "type": "bytes"
        }
      ],
      "name": "initializeFollowModule",
      "outputs": [
        {
          "internalType": "bytes",
          "name": "",
          "type": "bytes"
        }
      ],
      "stateMutability": "nonpayable",
      "type": "function"
    },
    {
      "inputs": [
        {
          "internalType": "address",
          "name": "follower",
          "type": "address"
        },
        {
          "internalType": "uint256",
          "name": "profileId",
          "type": "uint256"
        },
        {
          "internalType": "bytes",
          "name": "data",
          "type": "bytes"
        }
      ],
      "name": "processFollow",
      "outputs": [],
      "stateMutability": "nonpayable",
      "type": "function"
    },
    {
      "inputs": [
        {
          "internalType": "uint256",
          "name": "profileId",
          "type": "uint256"
        },
        {
          "internalType": "address",
          "name": "from",
          "type": "address"
        },
        {
          "internalType": "address",
          "name": "to",
          "type": "address"
        },
        {
          "internalType": "uint256",
          "name": "followNFTTokenId",
          "type": "uint256"
        }
      ],
      "name": "followModuleTransferHook",
      "outputs": [],
      "stateMutability": "nonpayable",
      "type": "function"
    },
    {
      "inputs": [
        {
          "internalType": "address",
          "name": "profileOwner",
          "type": "address"
        },
        {
          "internalType": "uint256",
          "name": "profileId",
          "type": "uint256"
        },
        {
          "internalType": "address",
          "name": "toCheck",
          "type": "address"
        }
      ],
      "name": "isApproved",
      "outputs": [
        {
          "internalType": "bool",
          "name": "",
          "type": "bool"
        }
      ],
      "stateMutability": "view",
      "type": "function"
    },
    {
      "inputs": [
        {
          "internalType": "address",
          "name": "profileOwner",
          "type": "address"
        },
        {
          "internalType": "uint256",
          "name": "profileId",
          "type": "uint256"
        },
        {
          "internalType": "address[]",
          "name": "toCheck",
          "type": "address[]"
        }
      ],
      "name": "isApprovedArray",
      "outputs": [
        {
          "internalType": "bool[]",
          "name": "",
          "type": "bool[]"
        }
      ],
      "stateMutability": "view",
      "type": "function"
    }
  ],
  "bytecode": "0x60a06040523480156200001157600080fd5b5060405162001b6e38038062001b6e833981810160405281019062000037919062000196565b80600073ffffffffffffffffffffffffffffffffffffffff168173ffffffffffffffffffffffffffffffffffffffff161415620000a0576040517f48be0eb300000000000000000000000000000000000000000000000000000000815260040160405180910390fd5b8073ffffffffffffffffffffffffffffffffffffffff1660808173ffffffffffffffffffffffffffffffffffffffff16815250508073ffffffffffffffffffffffffffffffffffffffff167ff1a1fa6b64aa95186f5a1285e76198d0da80d9c5a88062641d447f1d7c54e56c426040516200011c9190620001e3565b60405180910390a2505062000200565b600080fd5b600073ffffffffffffffffffffffffffffffffffffffff82169050919050565b60006200015e8262000131565b9050919050565b620001708162000151565b81146200017c57600080fd5b50565b600081519050620001908162000165565b92915050565b600060208284031215620001af57620001ae6200012c565b5b6000620001bf848285016200017f565b91505092915050565b6000819050919050565b620001dd81620001c8565b82525050565b6000602082019050620001fa6000830184620001d2565b92915050565b60805161192862000246600039600081816101c101528181610248015281816104690152818161072a015281816107b10152818161099a01526109ff01526119286000f3fe608060405234801561001057600080fd5b50600436106100885760003560e01c80639713958a1161005b5780639713958a14610125578063a4c52b8614610155578063b47d869b14610173578063f16466cf1461018f57610088565b80630e096ae11461008d5780633cb22cc4146100a9578063451c3d0c146100c557806351615fee146100f5575b600080fd5b6100a760048036038101906100a29190610ee0565b6101bf565b005b6100c360048036038101906100be9190610f54565b61045e565b005b6100df60048036038101906100da9190610fbb565b610464565b6040516100ec9190611029565b60405180910390f35b61010f600480360381019061010a9190611044565b610681565b60405161011c9190611029565b60405180910390f35b61013f600480360381019061013a9190611097565b610726565b60405161014c9190611190565b60405180910390f35b61015d610998565b60405161016a91906111c1565b60405180910390f35b61018d60048036038101906101889190611288565b6109bc565b005b6101a960048036038101906101a4919061131d565b610c6f565b6040516101b6919061144f565b60405180910390f35b7f000000000000000000000000000000000000000000000000000000000000000073ffffffffffffffffffffffffffffffffffffffff163373ffffffffffffffffffffffffffffffffffffffff1614610244576040517f9de9741800000000000000000000000000000000000000000000000000000000815260040160405180910390fd5b60007f000000000000000000000000000000000000000000000000000000000000000073ffffffffffffffffffffffffffffffffffffffff16636352211e856040518263ffffffff1660e01b815260040161029f9190611480565b602060405180830381865afa1580156102bc573d6000803e3d6000fd5b505050506040513d601f19601f820116820180604052508101906102e091906114b0565b90506000808273ffffffffffffffffffffffffffffffffffffffff1673ffffffffffffffffffffffffffffffffffffffff168152602001908152602001600020600085815260200190815260200160002060008673ffffffffffffffffffffffffffffffffffffffff1673ffffffffffffffffffffffffffffffffffffffff16815260200190815260200160002060009054906101000a900460ff166103b2576040517fb3c1497e00000000000000000000000000000000000000000000000000000000815260040160405180910390fd5b60008060008373ffffffffffffffffffffffffffffffffffffffff1673ffffffffffffffffffffffffffffffffffffffff168152602001908152602001600020600086815260200190815260200160002060008773ffffffffffffffffffffffffffffffffffffffff1673ffffffffffffffffffffffffffffffffffffffff16815260200190815260200160002060006101000a81548160ff0219169083151502179055505050505050565b50505050565b6000807f000000000000000000000000000000000000000000000000000000000000000073ffffffffffffffffffffffffffffffffffffffff1663a9ec6563866040518263ffffffff1660e01b81526004016104c09190611480565b602060405180830381865afa1580156104dd573d6000803e3d6000fd5b505050506040513d601f19601f8201168201806040525081019061050191906114b0565b9050600073ffffffffffffffffffffffffffffffffffffffff168173ffffffffffffffffffffffffffffffffffffffff16141561054257600091505061067a565b600083146105f7578373ffffffffffffffffffffffffffffffffffffffff168173ffffffffffffffffffffffffffffffffffffffff16636352211e856040518263ffffffff1660e01b815260040161059a9190611480565b602060405180830381865afa1580156105b7573d6000803e3d6000fd5b505050506040513d601f19601f820116820180604052508101906105db91906114b0565b73ffffffffffffffffffffffffffffffffffffffff1614610676565b60008173ffffffffffffffffffffffffffffffffffffffff166370a08231866040518263ffffffff1660e01b815260040161063291906111c1565b602060405180830381865afa15801561064f573d6000803e3d6000fd5b505050506040513d601f19601f8201168201806040525081019061067391906114f2565b14155b9150505b9392505050565b60008060008573ffffffffffffffffffffffffffffffffffffffff1673ffffffffffffffffffffffffffffffffffffffff168152602001908152602001600020600084815260200190815260200160002060008373ffffffffffffffffffffffffffffffffffffffff1673ffffffffffffffffffffffffffffffffffffffff16815260200190815260200160002060009054906101000a900460ff1690509392505050565b60607f000000000000000000000000000000000000000000000000000000000000000073ffffffffffffffffffffffffffffffffffffffff163373ffffffffffffffffffffffffffffffffffffffff16146107ad576040517f9de9741800000000000000000000000000000000000000000000000000000000815260040160405180910390fd5b60007f000000000000000000000000000000000000000000000000000000000000000073ffffffffffffffffffffffffffffffffffffffff16636352211e866040518263ffffffff1660e01b81526004016108089190611480565b602060405180830381865afa158015610825573d6000803e3d6000fd5b505050506040513d601f19601f8201168201806040525081019061084991906114b0565b905060008484905011156109495760008484810190610868919061165d565b905060008151905060005b818110156109455760016000808673ffffffffffffffffffffffffffffffffffffffff1673ffffffffffffffffffffffffffffffffffffffff16815260200190815260200160002060008a815260200190815260200160002060008584815181106108e1576108e06116a6565b5b602002602001015173ffffffffffffffffffffffffffffffffffffffff1673ffffffffffffffffffffffffffffffffffffffff16815260200190815260200160002060006101000a81548160ff021916908315150217905550806001019050610873565b5050505b83838080601f016020809104026020016040519081016040528093929190818152602001838380828437600081840152601f19601f820116905080830192505050505050509150509392505050565b7f000000000000000000000000000000000000000000000000000000000000000081565b8181905084849050146109fb576040517f48be0eb300000000000000000000000000000000000000000000000000000000815260040160405180910390fd5b60007f000000000000000000000000000000000000000000000000000000000000000073ffffffffffffffffffffffffffffffffffffffff16636352211e876040518263ffffffff1660e01b8152600401610a569190611480565b602060405180830381865afa158015610a73573d6000803e3d6000fd5b505050506040513d601f19601f82011682018060405250810190610a9791906114b0565b90508073ffffffffffffffffffffffffffffffffffffffff163373ffffffffffffffffffffffffffffffffffffffff1614610afe576040517ff194fae500000000000000000000000000000000000000000000000000000000815260040160405180910390fd5b600085859050905060005b81811015610c0e57848482818110610b2457610b236116a6565b5b9050602002016020810190610b399190611701565b6000808573ffffffffffffffffffffffffffffffffffffffff1673ffffffffffffffffffffffffffffffffffffffff16815260200190815260200160002060008a81526020019081526020016000206000898985818110610b9d57610b9c6116a6565b5b9050602002016020810190610bb2919061172e565b73ffffffffffffffffffffffffffffffffffffffff1673ffffffffffffffffffffffffffffffffffffffff16815260200190815260200160002060006101000a81548160ff021916908315150217905550806001019050610b09565b50868273ffffffffffffffffffffffffffffffffffffffff167fc67fc3972da5d6434ab7b796ba133c240d40ee4e69129963c5aa0f2a6f7c3ad68888888842604051610c5e9594939291906118a9565b60405180910390a350505050505050565b606060008383905067ffffffffffffffff811115610c9057610c8f61151f565b5b604051908082528060200260200182016040528015610cbe5781602001602082028036833780820191505090505b509050600084849050905060005b81811015610dc5576000808973ffffffffffffffffffffffffffffffffffffffff1673ffffffffffffffffffffffffffffffffffffffff16815260200190815260200160002060008881526020019081526020016000206000878784818110610d3857610d376116a6565b5b9050602002016020810190610d4d919061172e565b73ffffffffffffffffffffffffffffffffffffffff1673ffffffffffffffffffffffffffffffffffffffff16815260200190815260200160002060009054906101000a900460ff16838281518110610da857610da76116a6565b5b602002602001019015159081151581525050806001019050610ccc565b508192505050949350505050565b6000604051905090565b600080fd5b600080fd5b600073ffffffffffffffffffffffffffffffffffffffff82169050919050565b6000610e1282610de7565b9050919050565b610e2281610e07565b8114610e2d57600080fd5b50565b600081359050610e3f81610e19565b92915050565b6000819050919050565b610e5881610e45565b8114610e6357600080fd5b50565b600081359050610e7581610e4f565b92915050565b600080fd5b600080fd5b600080fd5b60008083601f840112610ea057610e9f610e7b565b5b8235905067ffffffffffffffff811115610ebd57610ebc610e80565b5b602083019150836001820283011115610ed957610ed8610e85565b5b9250929050565b60008060008060608587031215610efa57610ef9610ddd565b5b6000610f0887828801610e30565b9450506020610f1987828801610e66565b935050604085013567ffffffffffffffff811115610f3a57610f39610de2565b5b610f4687828801610e8a565b925092505092959194509250565b60008060008060808587031215610f6e57610f6d610ddd565b5b6000610f7c87828801610e66565b9450506020610f8d87828801610e30565b9350506040610f9e87828801610e30565b9250506060610faf87828801610e66565b91505092959194509250565b600080600060608486031215610fd457610fd3610ddd565b5b6000610fe286828701610e66565b9350506020610ff386828701610e30565b925050604061100486828701610e66565b9150509250925092565b60008115159050919050565b6110238161100e565b82525050565b600060208201905061103e600083018461101a565b92915050565b60008060006060848603121561105d5761105c610ddd565b5b600061106b86828701610e30565b935050602061107c86828701610e66565b925050604061108d86828701610e30565b9150509250925092565b6000806000604084860312156110b0576110af610ddd565b5b60006110be86828701610e66565b935050602084013567ffffffffffffffff8111156110df576110de610de2565b5b6110eb86828701610e8a565b92509250509250925092565b600081519050919050565b600082825260208201905092915050565b60005b83811015611131578082015181840152602081019050611116565b83811115611140576000848401525b50505050565b6000601f19601f8301169050919050565b6000611162826110f7565b61116c8185611102565b935061117c818560208601611113565b61118581611146565b840191505092915050565b600060208201905081810360008301526111aa8184611157565b905092915050565b6111bb81610e07565b82525050565b60006020820190506111d660008301846111b2565b92915050565b60008083601f8401126111f2576111f1610e7b565b5b8235905067ffffffffffffffff81111561120f5761120e610e80565b5b60208301915083602082028301111561122b5761122a610e85565b5b9250929050565b60008083601f84011261124857611247610e7b565b5b8235905067ffffffffffffffff81111561126557611264610e80565b5b60208301915083602082028301111561128157611280610e85565b5b9250929050565b6000806000806000606086880312156112a4576112a3610ddd565b5b60006112b288828901610e66565b955050602086013567ffffffffffffffff8111156112d3576112d2610de2565b5b6112df888289016111dc565b9450945050604086013567ffffffffffffffff81111561130257611301610de2565b5b61130e88828901611232565b92509250509295509295909350565b6000806000806060858703121561133757611336610ddd565b5b600061134587828801610e30565b945050602061135687828801610e66565b935050604085013567ffffffffffffffff81111561137757611376610de2565b5b611383878288016111dc565b925092505092959194509250565b600081519050919050565b600082825260208201905092915050565b6000819050602082019050919050565b6113c68161100e565b82525050565b60006113d883836113bd565b60208301905092915050565b6000602082019050919050565b60006113fc82611391565b611406818561139c565b9350611411836113ad565b8060005b8381101561144257815161142988826113cc565b9750611434836113e4565b925050600181019050611415565b5085935050505092915050565b6000602082019050818103600083015261146981846113f1565b905092915050565b61147a81610e45565b82525050565b60006020820190506114956000830184611471565b92915050565b6000815190506114aa81610e19565b92915050565b6000602082840312156114c6576114c5610ddd565b5b60006114d48482850161149b565b91505092915050565b6000815190506114ec81610e4f565b92915050565b60006020828403121561150857611507610ddd565b5b6000611516848285016114dd565b91505092915050565b7f4e487b7100000000000000000000000000000000000000000000000000000000600052604160045260246000fd5b61155782611146565b810181811067ffffffffffffffff821117156115765761157561151f565b5b80604052505050565b6000611589610dd3565b9050611595828261154e565b919050565b600067ffffffffffffffff8211156115b5576115b461151f565b5b602082029050602081019050919050565b60006115d96115d48461159a565b61157f565b905080838252602082019050602084028301858111156115fc576115fb610e85565b5b835b8181101561162557806116118882610e30565b8452602084019350506020810190506115fe565b5050509392505050565b600082601f83011261164457611643610e7b565b5b81356116548482602086016115c6565b91505092915050565b60006020828403121561167357611672610ddd565b5b600082013567ffffffffffffffff81111561169157611690610de2565b5b61169d8482850161162f565b91505092915050565b7f4e487b7100000000000000000000000000000000000000000000000000000000600052603260045260246000fd5b6116de8161100e565b81146116e957600080fd5b50565b6000813590506116fb816116d5565b92915050565b60006020828403121561171757611716610ddd565b5b6000611725848285016116ec565b91505092915050565b60006020828403121561174457611743610ddd565b5b600061175284828501610e30565b91505092915050565b600082825260208201905092915050565b6000819050919050565b61177f81610e07565b82525050565b60006117918383611776565b60208301905092915050565b60006117ac6020840184610e30565b905092915050565b6000602082019050919050565b60006117cd838561175b565b93506117d88261176c565b8060005b85811015611811576117ee828461179d565b6117f88882611785565b9750611803836117b4565b9250506001810190506117dc565b5085925050509392505050565b6000819050919050565b600061183760208401846116ec565b905092915050565b6000602082019050919050565b6000611858838561139c565b93506118638261181e565b8060005b8581101561189c576118798284611828565b61188388826113cc565b975061188e8361183f565b925050600181019050611867565b5085925050509392505050565b600060608201905081810360008301526118c48187896117c1565b905081810360208301526118d981858761184c565b90506118e86040830184611471565b969550505050505056fea26469706673582212207433b4e1424af6e8b78ca6cc9ac34dc3ec13e1b4f76bbefd48414e2143d80d7464736f6c634300080a0033",
  "immutableReferences": {
    "7695": [
      {
        "length": 32,
        "start": 449
      },
      {
        "length": 32,
        "start": 584
      },
      {
        "length": 32,
        "start": 1129
      },
      {
        "length": 32,
        "start": 1834
      },
      {
        "length": 32,
        "start": 1969
      },
      {
        "length": 32,
        "start": 2458
      },
      {
        "length": 32,
        "start": 2559
      }
    ]
  },
  "source": "// SPDX-License-Identifier: AGPL-3.0-only\n\npragma solidity 0.8.10;\n\nimport {IFollowModule} from '../../../interfaces/IFollowModule.sol';\nimport {Errors} from '../../../libraries/Errors.sol';\nimport {Events} from '../../../libraries/Events.sol';\nimport {ModuleBase} from '../ModuleBase.sol';\nimport {FollowValidatorFollowModuleBase} from './FollowValidatorFollowModuleBase.sol';\nimport {IERC721} from '@openzeppelin/contracts/token/ERC721/IERC721.sol';\n\n/**\n * @title ApprovalFollowModule\n * @author Lens Protocol\n *\n * @notice This follow module only allows addresses that are approved for a profile by the profile owner to follow.\n */\ncontract ApprovalFollowModule is FollowValidatorFollowModuleBase {\n    // We use a triple nested mapping so that, on profile transfer, the previous approved address list is invalid;\n    mapping(address => mapping(uint256 => mapping(address => bool)))\n        internal _approvedByProfileByOwner;\n\n    constructor(address hub) ModuleBase(hub) {}\n\n    /**\n     * @notice A custom function that allows profile owners to customize approved addresses.\n     *\n     * @param profileId The profile ID to approve/disapprove follower addresses for.\n     * @param addresses The addresses to approve/disapprove for following the profile.\n     * @param toApprove Whether to approve or disapprove the addresses for following the profile.\n     */\n    function approve(\n        uint256 profileId,\n        address[] calldata addresses,\n        bool[] calldata toApprove\n    ) external {\n        if (addresses.length != toApprove.length) revert Errors.InitParamsInvalid();\n        address owner = IERC721(HUB).ownerOf(profileId);\n        if (msg.sender != owner) revert Errors.NotProfileOwner();\n\n        uint256 addressesLength = addresses.length;\n        for (uint256 i = 0; i < addressesLength; ) {\n            _approvedByProfileByOwner[owner][profileId][addresses[i]] = toApprove[i];\n            unchecked {\n                ++i;\n            }\n        }\n\n        emit Events.FollowsApproved(owner, profileId, addresses, toApprove, block.timestamp);\n    }\n\n    /**\n     * @notice This follow module works on custom profile owner approvals.\n     *\n     * @param profileId The profile ID of the profile to initialize this module for.\n     * @param data The arbitrary data parameter, decoded into:\n     *      address[] addresses: The array of addresses to approve initially.\n     *\n     * @return bytes An abi encoded bytes parameter, which is the same as the passed data parameter.\n     */\n    function initializeFollowModule(uint256 profileId, bytes calldata data)\n        external\n        override\n        onlyHub\n        returns (bytes memory)\n    {\n        address owner = IERC721(HUB).ownerOf(profileId);\n\n        if (data.length > 0) {\n            address[] memory addresses = abi.decode(data, (address[]));\n            uint256 addressesLength = addresses.length;\n            for (uint256 i = 0; i < addressesLength; ) {\n                _approvedByProfileByOwner[owner][profileId][addresses[i]] = true;\n                unchecked {\n                    ++i;\n                }\n            }\n        }\n        return data;\n    }\n\n    /**\n     * @dev Processes a follow by:\n     *  1. Validating that the follower has been approved for that profile by the profile owner\n     */\n    function processFollow(\n        address follower,\n        uint256 profileId,\n        bytes calldata data\n    ) external override onlyHub {\n        address owner = IERC721(HUB).ownerOf(profileId);\n        if (!_approvedByProfileByOwner[owner][profileId][follower])\n            revert Errors.FollowNotApproved();\n        _approvedByProfileByOwner[owner][profileId][follower] = false; // prevents repeat follows\n    }\n\n    /**\n     * @dev We don't need to execute any additional logic on transfers in this follow module.\n     */\n    function followModuleTransferHook(\n        uint256 profileId,\n        address from,\n        address to,\n        uint256 followNFTTokenId\n    ) external override {}\n\n    /**\n     * @notice Returns whether the given address is approved for the profile owned by a given address.\n     *\n     * @param profileOwner The profile owner of the profile to query the approval with.\n     * @param profileId The token ID of the profile to query approval with.\n     * @param toCheck The address to query approval for.\n     *\n     * @return bool True if the address is approved and false otherwise.\n     */\n    function isApproved(\n        address profileOwner,\n        uint256 profileId,\n        address toCheck\n    ) external view returns (bool) {\n        return _approvedByProfileByOwner[profileOwner][profileId][toCheck];\n    }\n\n    /**\n     * @notice Returns whether the given addresses are approved for the profile owned by a given address.\n     *\n     * @param profileOwner The profile owner of the profile to query the approvals with.\n     * @param profileId The token ID of the profile to query approvals with.\n     * @param toCheck The address array to query approvals for.\n     *\n     * @return bool[] true if the address at the specified index is approved and false otherwise.\n     */\n    function isApprovedArray(\n        address profileOwner,\n        uint256 profileId,\n        address[] calldata toCheck\n    ) external view returns (bool[] memory) {\n        bool[] memory approved = new bool[](toCheck.length);\n        uint256 toCheckLength = toCheck.length;\n        for (uint256 i = 0; i < toCheckLength; ) {\n            approved[i] = _approvedByProfileByOwner[profileOwner][profileId][toCheck[i]];\n            unchecked {\n                ++i;\n            }\n        }\n        return approved;\n    }\n}\n",
  "sourcePath": "/Users/korbinianabstreiter/crytoprojects/primetime/contracts/core/modules/follow/ApprovalFollowModule.sol",
  "compiler": {
    "name": "solc",
    "version": "0.8.10+commit.fc410830.Emscripten.clang"
  },
  "schemaVersion": "3.4.5",
  "updatedAt": "2022-04-22T14:49:53.850Z",
  "devdoc": {
    "author": "Lens Protocol",
    "kind": "dev",
    "methods": {
      "approve(uint256,address[],bool[])": {
        "params": {
          "addresses": "The addresses to approve/disapprove for following the profile.",
          "profileId": "The profile ID to approve/disapprove follower addresses for.",
          "toApprove": "Whether to approve or disapprove the addresses for following the profile."
        }
      },
      "followModuleTransferHook(uint256,address,address,uint256)": {
        "details": "We don't need to execute any additional logic on transfers in this follow module."
      },
      "initializeFollowModule(uint256,bytes)": {
        "params": {
          "data": "The arbitrary data parameter, decoded into:      address[] addresses: The array of addresses to approve initially.",
          "profileId": "The profile ID of the profile to initialize this module for."
        },
        "returns": {
          "_0": "bytes An abi encoded bytes parameter, which is the same as the passed data parameter."
        }
      },
      "isApproved(address,uint256,address)": {
        "params": {
          "profileId": "The token ID of the profile to query approval with.",
          "profileOwner": "The profile owner of the profile to query the approval with.",
          "toCheck": "The address to query approval for."
        },
        "returns": {
          "_0": "bool True if the address is approved and false otherwise."
        }
      },
      "isApprovedArray(address,uint256,address[])": {
        "params": {
          "profileId": "The token ID of the profile to query approvals with.",
          "profileOwner": "The profile owner of the profile to query the approvals with.",
          "toCheck": "The address array to query approvals for."
        },
        "returns": {
          "_0": "bool[] true if the address at the specified index is approved and false otherwise."
        }
      },
      "processFollow(address,uint256,bytes)": {
        "details": "Processes a follow by:  1. Validating that the follower has been approved for that profile by the profile owner"
      }
    },
    "title": "ApprovalFollowModule",
    "version": 1
  },
  "userdoc": {
    "kind": "user",
    "methods": {
      "approve(uint256,address[],bool[])": {
        "notice": "A custom function that allows profile owners to customize approved addresses."
      },
      "initializeFollowModule(uint256,bytes)": {
        "notice": "This follow module works on custom profile owner approvals."
      },
      "isApproved(address,uint256,address)": {
        "notice": "Returns whether the given address is approved for the profile owned by a given address."
      },
      "isApprovedArray(address,uint256,address[])": {
        "notice": "Returns whether the given addresses are approved for the profile owned by a given address."
      },
      "isFollowing(uint256,address,uint256)": {
        "notice": "Standard function to validate follow NFT ownership. This module is agnostic to follow NFT token IDs and other properties."
      }
    },
    "notice": "This follow module only allows addresses that are approved for a profile by the profile owner to follow.",
    "version": 1
  }
}