{
  "contractName": "CollectNFT",
  "abi": [
    {
      "inputs": [
        {
          "internalType": "address",
          "name": "hub",
          "type": "address"
        }
      ],
      "stateMutability": "nonpayable",
      "type": "constructor"
    },
    {
      "inputs": [],
      "name": "InitParamsInvalid",
      "type": "error"
    },
    {
      "inputs": [],
      "name": "Initialized",
      "type": "error"
    },
    {
      "inputs": [],
      "name": "NotHub",
      "type": "error"
    },
    {
      "inputs": [],
      "name": "NotOwnerOrApproved",
      "type": "error"
    },
    {
      "inputs": [],
      "name": "SignatureExpired",
      "type": "error"
    },
    {
      "inputs": [],
      "name": "SignatureInvalid",
      "type": "error"
    },
    {
      "inputs": [],
      "name": "TokenDoesNotExist",
      "type": "error"
    },
    {
      "inputs": [],
      "name": "ZeroSpender",
      "type": "error"
    },
    {
      "anonymous": false,
      "inputs": [
        {
          "indexed": true,
          "internalType": "address",
          "name": "owner",
          "type": "address"
        },
        {
          "indexed": true,
          "internalType": "address",
          "name": "approved",
          "type": "address"
        },
        {
          "indexed": true,
          "internalType": "uint256",
          "name": "tokenId",
          "type": "uint256"
        }
      ],
      "name": "Approval",
      "type": "event"
    },
    {
      "anonymous": false,
      "inputs": [
        {
          "indexed": true,
          "internalType": "address",
          "name": "owner",
          "type": "address"
        },
        {
          "indexed": true,
          "internalType": "address",
          "name": "operator",
          "type": "address"
        },
        {
          "indexed": false,
          "internalType": "bool",
          "name": "approved",
          "type": "bool"
        }
      ],
      "name": "ApprovalForAll",
      "type": "event"
    },
    {
      "anonymous": false,
      "inputs": [
        {
          "indexed": true,
          "internalType": "address",
          "name": "from",
          "type": "address"
        },
        {
          "indexed": true,
          "internalType": "address",
          "name": "to",
          "type": "address"
        },
        {
          "indexed": true,
          "internalType": "uint256",
          "name": "tokenId",
          "type": "uint256"
        }
      ],
      "name": "Transfer",
      "type": "event"
    },
    {
      "inputs": [],
      "name": "HUB",
      "outputs": [
        {
          "internalType": "address",
          "name": "",
          "type": "address"
        }
      ],
      "stateMutability": "view",
      "type": "function"
    },
    {
      "inputs": [
        {
          "internalType": "address",
          "name": "to",
          "type": "address"
        },
        {
          "internalType": "uint256",
          "name": "tokenId",
          "type": "uint256"
        }
      ],
      "name": "approve",
      "outputs": [],
      "stateMutability": "nonpayable",
      "type": "function"
    },
    {
      "inputs": [
        {
          "internalType": "address",
          "name": "owner",
          "type": "address"
        }
      ],
      "name": "balanceOf",
      "outputs": [
        {
          "internalType": "uint256",
          "name": "",
          "type": "uint256"
        }
      ],
      "stateMutability": "view",
      "type": "function"
    },
    {
      "inputs": [
        {
          "internalType": "uint256",
          "name": "tokenId",
          "type": "uint256"
        }
      ],
      "name": "burn",
      "outputs": [],
      "stateMutability": "nonpayable",
      "type": "function"
    },
    {
      "inputs": [
        {
          "internalType": "uint256",
          "name": "tokenId",
          "type": "uint256"
        },
        {
          "components": [
            {
              "internalType": "uint8",
              "name": "v",
              "type": "uint8"
            },
            {
              "internalType": "bytes32",
              "name": "r",
              "type": "bytes32"
            },
            {
              "internalType": "bytes32",
              "name": "s",
              "type": "bytes32"
            },
            {
              "internalType": "uint256",
              "name": "deadline",
              "type": "uint256"
            }
          ],
          "internalType": "struct DataTypes.EIP712Signature",
          "name": "sig",
          "type": "tuple"
        }
      ],
      "name": "burnWithSig",
      "outputs": [],
      "stateMutability": "nonpayable",
      "type": "function"
    },
    {
      "inputs": [
        {
          "internalType": "uint256",
          "name": "tokenId",
          "type": "uint256"
        }
      ],
      "name": "exists",
      "outputs": [
        {
          "internalType": "bool",
          "name": "",
          "type": "bool"
        }
      ],
      "stateMutability": "view",
      "type": "function"
    },
    {
      "inputs": [
        {
          "internalType": "uint256",
          "name": "tokenId",
          "type": "uint256"
        }
      ],
      "name": "getApproved",
      "outputs": [
        {
          "internalType": "address",
          "name": "",
          "type": "address"
        }
      ],
      "stateMutability": "view",
      "type": "function"
    },
    {
      "inputs": [],
      "name": "getDomainSeparator",
      "outputs": [
        {
          "internalType": "bytes32",
          "name": "",
          "type": "bytes32"
        }
      ],
      "stateMutability": "view",
      "type": "function"
    },
    {
      "inputs": [
        {
          "internalType": "address",
          "name": "owner",
          "type": "address"
        },
        {
          "internalType": "address",
          "name": "operator",
          "type": "address"
        }
      ],
      "name": "isApprovedForAll",
      "outputs": [
        {
          "internalType": "bool",
          "name": "",
          "type": "bool"
        }
      ],
      "stateMutability": "view",
      "type": "function"
    },
    {
      "inputs": [
        {
          "internalType": "uint256",
          "name": "tokenId",
          "type": "uint256"
        }
      ],
      "name": "mintTimestampOf",
      "outputs": [
        {
          "internalType": "uint256",
          "name": "",
          "type": "uint256"
        }
      ],
      "stateMutability": "view",
      "type": "function"
    },
    {
      "inputs": [],
      "name": "name",
      "outputs": [
        {
          "internalType": "string",
          "name": "",
          "type": "string"
        }
      ],
      "stateMutability": "view",
      "type": "function"
    },
    {
      "inputs": [
        {
          "internalType": "uint256",
          "name": "tokenId",
          "type": "uint256"
        }
      ],
      "name": "ownerOf",
      "outputs": [
        {
          "internalType": "address",
          "name": "",
          "type": "address"
        }
      ],
      "stateMutability": "view",
      "type": "function"
    },
    {
      "inputs": [
        {
          "internalType": "address",
          "name": "spender",
          "type": "address"
        },
        {
          "internalType": "uint256",
          "name": "tokenId",
          "type": "uint256"
        },
        {
          "components": [
            {
              "internalType": "uint8",
              "name": "v",
              "type": "uint8"
            },
            {
              "internalType": "bytes32",
              "name": "r",
              "type": "bytes32"
            },
            {
              "internalType": "bytes32",
              "name": "s",
              "type": "bytes32"
            },
            {
              "internalType": "uint256",
              "name": "deadline",
              "type": "uint256"
            }
          ],
          "internalType": "struct DataTypes.EIP712Signature",
          "name": "sig",
          "type": "tuple"
        }
      ],
      "name": "permit",
      "outputs": [],
      "stateMutability": "nonpayable",
      "type": "function"
    },
    {
      "inputs": [
        {
          "internalType": "address",
          "name": "owner",
          "type": "address"
        },
        {
          "internalType": "address",
          "name": "operator",
          "type": "address"
        },
        {
          "internalType": "bool",
          "name": "approved",
          "type": "bool"
        },
        {
          "components": [
            {
              "internalType": "uint8",
              "name": "v",
              "type": "uint8"
            },
            {
              "internalType": "bytes32",
              "name": "r",
              "type": "bytes32"
            },
            {
              "internalType": "bytes32",
              "name": "s",
              "type": "bytes32"
            },
            {
              "internalType": "uint256",
              "name": "deadline",
              "type": "uint256"
            }
          ],
          "internalType": "struct DataTypes.EIP712Signature",
          "name": "sig",
          "type": "tuple"
        }
      ],
      "name": "permitForAll",
      "outputs": [],
      "stateMutability": "nonpayable",
      "type": "function"
    },
    {
      "inputs": [
        {
          "internalType": "address",
          "name": "from",
          "type": "address"
        },
        {
          "internalType": "address",
          "name": "to",
          "type": "address"
        },
        {
          "internalType": "uint256",
          "name": "tokenId",
          "type": "uint256"
        }
      ],
      "name": "safeTransferFrom",
      "outputs": [],
      "stateMutability": "nonpayable",
      "type": "function"
    },
    {
      "inputs": [
        {
          "internalType": "address",
          "name": "from",
          "type": "address"
        },
        {
          "internalType": "address",
          "name": "to",
          "type": "address"
        },
        {
          "internalType": "uint256",
          "name": "tokenId",
          "type": "uint256"
        },
        {
          "internalType": "bytes",
          "name": "_data",
          "type": "bytes"
        }
      ],
      "name": "safeTransferFrom",
      "outputs": [],
      "stateMutability": "nonpayable",
      "type": "function"
    },
    {
      "inputs": [
        {
          "internalType": "address",
          "name": "operator",
          "type": "address"
        },
        {
          "internalType": "bool",
          "name": "approved",
          "type": "bool"
        }
      ],
      "name": "setApprovalForAll",
      "outputs": [],
      "stateMutability": "nonpayable",
      "type": "function"
    },
    {
      "inputs": [
        {
          "internalType": "address",
          "name": "",
          "type": "address"
        }
      ],
      "name": "sigNonces",
      "outputs": [
        {
          "internalType": "uint256",
          "name": "",
          "type": "uint256"
        }
      ],
      "stateMutability": "view",
      "type": "function"
    },
    {
      "inputs": [
        {
          "internalType": "bytes4",
          "name": "interfaceId",
          "type": "bytes4"
        }
      ],
      "name": "supportsInterface",
      "outputs": [
        {
          "internalType": "bool",
          "name": "",
          "type": "bool"
        }
      ],
      "stateMutability": "view",
      "type": "function"
    },
    {
      "inputs": [],
      "name": "symbol",
      "outputs": [
        {
          "internalType": "string",
          "name": "",
          "type": "string"
        }
      ],
      "stateMutability": "view",
      "type": "function"
    },
    {
      "inputs": [
        {
          "internalType": "uint256",
          "name": "index",
          "type": "uint256"
        }
      ],
      "name": "tokenByIndex",
      "outputs": [
        {
          "internalType": "uint256",
          "name": "",
          "type": "uint256"
        }
      ],
      "stateMutability": "view",
      "type": "function"
    },
    {
      "inputs": [
        {
          "internalType": "uint256",
          "name": "tokenId",
          "type": "uint256"
        }
      ],
      "name": "tokenDataOf",
      "outputs": [
        {
          "components": [
            {
              "internalType": "address",
              "name": "owner",
              "type": "address"
            },
            {
              "internalType": "uint96",
              "name": "mintTimestamp",
              "type": "uint96"
            }
          ],
          "internalType": "struct IERC721Time.TokenData",
          "name": "",
          "type": "tuple"
        }
      ],
      "stateMutability": "view",
      "type": "function"
    },
    {
      "inputs": [
        {
          "internalType": "address",
          "name": "owner",
          "type": "address"
        },
        {
          "internalType": "uint256",
          "name": "index",
          "type": "uint256"
        }
      ],
      "name": "tokenOfOwnerByIndex",
      "outputs": [
        {
          "internalType": "uint256",
          "name": "",
          "type": "uint256"
        }
      ],
      "stateMutability": "view",
      "type": "function"
    },
    {
      "inputs": [],
      "name": "totalSupply",
      "outputs": [
        {
          "internalType": "uint256",
          "name": "",
          "type": "uint256"
        }
      ],
      "stateMutability": "view",
      "type": "function"
    },
    {
      "inputs": [
        {
          "internalType": "address",
          "name": "from",
          "type": "address"
        },
        {
          "internalType": "address",
          "name": "to",
          "type": "address"
        },
        {
          "internalType": "uint256",
          "name": "tokenId",
          "type": "uint256"
        }
      ],
      "name": "transferFrom",
      "outputs": [],
      "stateMutability": "nonpayable",
      "type": "function"
    },
    {
      "inputs": [
        {
          "internalType": "uint256",
          "name": "profileId",
          "type": "uint256"
        },
        {
          "internalType": "uint256",
          "name": "pubId",
          "type": "uint256"
        },
        {
          "internalType": "string",
          "name": "name",
          "type": "string"
        },
        {
          "internalType": "string",
          "name": "symbol",
          "type": "string"
        }
      ],
      "name": "initialize",
      "outputs": [],
      "stateMutability": "nonpayable",
      "type": "function"
    },
    {
      "inputs": [
        {
          "internalType": "address",
          "name": "to",
          "type": "address"
        }
      ],
      "name": "mint",
      "outputs": [
        {
          "internalType": "uint256",
          "name": "",
          "type": "uint256"
        }
      ],
      "stateMutability": "nonpayable",
      "type": "function"
    },
    {
      "inputs": [],
      "name": "getSourcePublicationPointer",
      "outputs": [
        {
          "internalType": "uint256",
          "name": "",
          "type": "uint256"
        },
        {
          "internalType": "uint256",
          "name": "",
          "type": "uint256"
        }
      ],
      "stateMutability": "view",
      "type": "function"
    },
    {
      "inputs": [
        {
          "internalType": "uint256",
          "name": "tokenId",
          "type": "uint256"
        }
      ],
      "name": "tokenURI",
      "outputs": [
        {
          "internalType": "string",
          "name": "",
          "type": "string"
        }
      ],
      "stateMutability": "view",
      "type": "function"
    }
  ],
  "bytecode": "0x60a06040523480156200001157600080fd5b50604051620044c0380380620044c083398181016040528101906200003791906200015f565b600073ffffffffffffffffffffffffffffffffffffffff168173ffffffffffffffffffffffffffffffffffffffff1614156200009f576040517f48be0eb300000000000000000000000000000000000000000000000000000000815260040160405180910390fd5b8073ffffffffffffffffffffffffffffffffffffffff1660808173ffffffffffffffffffffffffffffffffffffffff16815250506001600e60006101000a81548160ff0219169083151502179055505062000191565b600080fd5b600073ffffffffffffffffffffffffffffffffffffffff82169050919050565b60006200012782620000fa565b9050919050565b62000139816200011a565b81146200014557600080fd5b50565b60008151905062000159816200012e565b92915050565b600060208284031215620001785762000177620000f5565b5b6000620001888482850162000148565b91505092915050565b6080516142fe620001c260003960008181610cdf015281816111c201528181611392015261229101526142fe6000f3fe608060405234801561001057600080fd5b50600436106101cf5760003560e01c80636352211e11610104578063a4c52b86116100a2578063dd69cdb111610071578063dd69cdb114610577578063e985e9c514610593578063ed24911d146105c3578063f990ccd7146105e1576101cf565b8063a4c52b86146104dd578063b88d4fde146104fb578063c0da9bcd14610517578063c87b56dd14610547576101cf565b80637ef67f99116100de5780637ef67f991461046b57806389028a131461048757806395d89b41146104a3578063a22cb465146104c1576101cf565b80636352211e146103db5780636a6278421461040b57806370a082311461043b576101cf565b80633a755ed11161017157806342966c681161014b57806342966c681461032f5780634f558e791461034b5780634f6ccce71461037b57806350ddf35c146103ab576101cf565b80633a755ed1146102d85780633fa78c0a146102f757806342842e0e14610313576101cf565b8063095ea7b3116101ad578063095ea7b31461025257806318160ddd1461026e57806323b872dd1461028c5780632f745c59146102a8576101cf565b806301ffc9a7146101d457806306fdde0314610204578063081812fc14610222575b600080fd5b6101ee60048036038101906101e99190612a6c565b610611565b6040516101fb9190612ab4565b60405180910390f35b61020c61068b565b6040516102199190612b68565b60405180910390f35b61023c60048036038101906102379190612bc0565b61071d565b6040516102499190612c2e565b60405180910390f35b61026c60048036038101906102679190612c75565b6107a2565b005b6102766108ba565b6040516102839190612cc4565b60405180910390f35b6102a660048036038101906102a19190612cdf565b6108c7565b005b6102c260048036038101906102bd9190612c75565b610927565b6040516102cf9190612cc4565b60405180910390f35b6102e06109cc565b6040516102ee929190612d32565b60405180910390f35b610311600480360381019061030c9190612dc0565b6109dd565b005b61032d60048036038101906103289190612cdf565b610a9a565b005b61034960048036038101906103449190612bc0565b610aba565b005b61036560048036038101906103609190612bc0565b610b06565b6040516103729190612ab4565b60405180910390f35b61039560048036038101906103909190612bc0565b610b18565b6040516103a29190612cc4565b60405180910390f35b6103c560048036038101906103c09190612bc0565b610b89565b6040516103d29190612cc4565b60405180910390f35b6103f560048036038101906103f09190612bc0565b610c26565b6040516104029190612c2e565b60405180910390f35b61042560048036038101906104209190612e67565b610cdb565b6040516104329190612cc4565b60405180910390f35b61045560048036038101906104509190612e67565b610d88565b6040516104629190612cc4565b60405180910390f35b61048560048036038101906104809190612eb8565b610e40565b005b6104a1600480360381019061049c9190612f37565b610f76565b005b6104ab6110a2565b6040516104b89190612b68565b60405180910390f35b6104db60048036038101906104d69190612f9e565b611134565b005b6104e56111c0565b6040516104f29190612c2e565b60405180910390f35b6105156004803603810190610510919061310e565b6111e4565b005b610531600480360381019061052c9190612bc0565b611246565b60405161053e91906131f6565b60405180910390f35b610561600480360381019061055c9190612bc0565b61134f565b60405161056e9190612b68565b60405180910390f35b610591600480360381019061058c9190613211565b61143c565b005b6105ad60048036038101906105a89190613251565b611507565b6040516105ba9190612ab4565b60405180910390f35b6105cb61159b565b6040516105d891906132aa565b60405180910390f35b6105fb60048036038101906105f69190612e67565b6115aa565b6040516106089190612cc4565b60405180910390f35b60007f780e9d63000000000000000000000000000000000000000000000000000000007bffffffffffffffffffffffffffffffffffffffffffffffffffffffff1916827bffffffffffffffffffffffffffffffffffffffffffffffffffffffff191614806106845750610683826115c2565b5b9050919050565b60606000805461069a906132f4565b80601f01602080910402602001604051908101604052809291908181526020018280546106c6906132f4565b80156107135780601f106106e857610100808354040283529160200191610713565b820191906000526020600020905b8154815290600101906020018083116106f657829003601f168201915b5050505050905090565b6000610728826116a4565b610767576040517f08c379a000000000000000000000000000000000000000000000000000000000815260040161075e90613398565b60405180910390fd5b6004600083815260200190815260200160002060009054906101000a900473ffffffffffffffffffffffffffffffffffffffff169050919050565b60006107ad82610c26565b90508073ffffffffffffffffffffffffffffffffffffffff168373ffffffffffffffffffffffffffffffffffffffff16141561081e576040517f08c379a00000000000000000000000000000000000000000000000000000000081526004016108159061342a565b60405180910390fd5b8073ffffffffffffffffffffffffffffffffffffffff1661083d611713565b73ffffffffffffffffffffffffffffffffffffffff16148061086c575061086b81610866611713565b611507565b5b6108ab576040517f08c379a00000000000000000000000000000000000000000000000000000000081526004016108a2906134bc565b60405180910390fd5b6108b5838361171b565b505050565b6000600880549050905090565b6108d86108d2611713565b826117d4565b610917576040517f08c379a000000000000000000000000000000000000000000000000000000000815260040161090e9061354e565b60405180910390fd5b6109228383836118b2565b505050565b600061093283610d88565b8210610973576040517f08c379a000000000000000000000000000000000000000000000000000000000815260040161096a906135e0565b60405180910390fd5b600660008473ffffffffffffffffffffffffffffffffffffffff1673ffffffffffffffffffffffffffffffffffffffff168152602001908152602001600020600083815260200190815260200160002054905092915050565b600080600b54600c54915091509091565b600e60009054906101000a900460ff1615610a24576040517f5daa87a000000000000000000000000000000000000000000000000000000000815260040160405180910390fd5b6001600e60006101000a81548160ff02191690831515021790555085600b8190555084600c81905550610a5984848484611b11565b84867f898a2dec95856255977a0fb48cebc30051d50c0d8d33f93dea1e3ddb2e34244242604051610a8a9190612cc4565b60405180910390a3505050505050565b610ab5838383604051806020016040528060008152506111e4565b505050565b610ac433826117d4565b610afa576040517fdb1453ce00000000000000000000000000000000000000000000000000000000815260040160405180910390fd5b610b0381611b62565b50565b6000610b11826116a4565b9050919050565b6000610b226108ba565b8210610b63576040517f08c379a0000000000000000000000000000000000000000000000000000000008152600401610b5a90613672565b60405180910390fd5b60088281548110610b7757610b76613692565b5b90600052602060002001549050919050565b6000806002600084815260200190815260200160002060000160149054906101000a90046bffffffffffffffffffffffff1690506000816bffffffffffffffffffffffff161415610c0f576040517f08c379a0000000000000000000000000000000000000000000000000000000008152600401610c0690613733565b60405180910390fd5b806bffffffffffffffffffffffff16915050919050565b6000806002600084815260200190815260200160002060000160009054906101000a900473ffffffffffffffffffffffffffffffffffffffff169050600073ffffffffffffffffffffffffffffffffffffffff168173ffffffffffffffffffffffffffffffffffffffff161415610cd2576040517f08c379a0000000000000000000000000000000000000000000000000000000008152600401610cc9906137c5565b60405180910390fd5b80915050919050565b60007f000000000000000000000000000000000000000000000000000000000000000073ffffffffffffffffffffffffffffffffffffffff163373ffffffffffffffffffffffffffffffffffffffff1614610d62576040517f9de9741800000000000000000000000000000000000000000000000000000000815260040160405180910390fd5b6000600d600081546001019190508190559050610d7f8382611c99565b80915050919050565b60008073ffffffffffffffffffffffffffffffffffffffff168273ffffffffffffffffffffffffffffffffffffffff161415610df9576040517f08c379a0000000000000000000000000000000000000000000000000000000008152600401610df090613857565b60405180910390fd5b600360008373ffffffffffffffffffffffffffffffffffffffff1673ffffffffffffffffffffffffffffffffffffffff168152602001908152602001600020549050919050565b600073ffffffffffffffffffffffffffffffffffffffff168373ffffffffffffffffffffffffffffffffffffffff161415610ea7576040517f1fac5b7400000000000000000000000000000000000000000000000000000000815260040160405180910390fd5b6000610eb283610c26565b9050610f66610f5f7f49ecf333e5b8c95c40fdafc95c1ad136e8914a8fb55e9dc8bb01eaa83a2df9ad8686600a60008773ffffffffffffffffffffffffffffffffffffffff1673ffffffffffffffffffffffffffffffffffffffff1681526020019081526020016000206000815480929190600101919050558760600135604051602001610f44959493929190613877565b60405160208183030381529060405280519060200120611eaf565b8284611eed565b610f70848461171b565b50505050565b600073ffffffffffffffffffffffffffffffffffffffff168373ffffffffffffffffffffffffffffffffffffffff161415610fdd576040517f1fac5b7400000000000000000000000000000000000000000000000000000000815260040160405180910390fd5b61109161108a7f47ab88482c90e4bb94b82a947ae78fa91fb25de1469ab491f4c15b9a0a2677ee868686600a60008b73ffffffffffffffffffffffffffffffffffffffff1673ffffffffffffffffffffffffffffffffffffffff168152602001908152602001600020600081548092919060010191905055876060013560405160200161106f969594939291906138ca565b60405160208183030381529060405280519060200120611eaf565b8583611eed565b61109c84848461203c565b50505050565b6060600180546110b1906132f4565b80601f01602080910402602001604051908101604052809291908181526020018280546110dd906132f4565b801561112a5780601f106110ff5761010080835404028352916020019161112a565b820191906000526020600020905b81548152906001019060200180831161110d57829003601f168201915b5050505050905090565b61113c611713565b73ffffffffffffffffffffffffffffffffffffffff168273ffffffffffffffffffffffffffffffffffffffff1614156111aa576040517f08c379a00000000000000000000000000000000000000000000000000000000081526004016111a190613977565b60405180910390fd5b6111bc6111b5611713565b838361203c565b5050565b7f000000000000000000000000000000000000000000000000000000000000000081565b6111f56111ef611713565b836117d4565b611234576040517f08c379a000000000000000000000000000000000000000000000000000000000815260040161122b9061354e565b60405180910390fd5b6112408484848461213a565b50505050565b61124e61291f565b611257826116a4565b611296576040517f08c379a000000000000000000000000000000000000000000000000000000000815260040161128d90613a09565b60405180910390fd5b600260008381526020019081526020016000206040518060400160405290816000820160009054906101000a900473ffffffffffffffffffffffffffffffffffffffff1673ffffffffffffffffffffffffffffffffffffffff1673ffffffffffffffffffffffffffffffffffffffff1681526020016000820160149054906101000a90046bffffffffffffffffffffffff166bffffffffffffffffffffffff166bffffffffffffffffffffffff16815250509050919050565b606061135a826116a4565b611390576040517fceea21b600000000000000000000000000000000000000000000000000000000815260040160405180910390fd5b7f000000000000000000000000000000000000000000000000000000000000000073ffffffffffffffffffffffffffffffffffffffff1663b5a31496600b54600c546040518363ffffffff1660e01b81526004016113ef929190612d32565b600060405180830381865afa15801561140c573d6000803e3d6000fd5b505050506040513d6000823e3d601f19601f820116820180604052508101906114359190613aca565b9050919050565b600061144783610c26565b90506114f96114f27f108ccda6d7331b00561a3eea66a2ae331622356585681c62731e4a01aae2261a85600a60008673ffffffffffffffffffffffffffffffffffffffff1673ffffffffffffffffffffffffffffffffffffffff16815260200190815260200160002060008154809291906001019190505586606001356040516020016114d79493929190613b13565b60405160208183030381529060405280519060200120611eaf565b8284611eed565b61150283611b62565b505050565b6000600560008473ffffffffffffffffffffffffffffffffffffffff1673ffffffffffffffffffffffffffffffffffffffff16815260200190815260200160002060008373ffffffffffffffffffffffffffffffffffffffff1673ffffffffffffffffffffffffffffffffffffffff16815260200190815260200160002060009054906101000a900460ff16905092915050565b60006115a5612196565b905090565b600a6020528060005260406000206000915090505481565b60007f80ac58cd000000000000000000000000000000000000000000000000000000007bffffffffffffffffffffffffffffffffffffffffffffffffffffffff1916827bffffffffffffffffffffffffffffffffffffffffffffffffffffffff1916148061168d57507f5b5e139f000000000000000000000000000000000000000000000000000000007bffffffffffffffffffffffffffffffffffffffffffffffffffffffff1916827bffffffffffffffffffffffffffffffffffffffffffffffffffffffff1916145b8061169d575061169c8261221a565b5b9050919050565b60008073ffffffffffffffffffffffffffffffffffffffff166002600084815260200190815260200160002060000160009054906101000a900473ffffffffffffffffffffffffffffffffffffffff1673ffffffffffffffffffffffffffffffffffffffff1614159050919050565b600033905090565b816004600083815260200190815260200160002060006101000a81548173ffffffffffffffffffffffffffffffffffffffff021916908373ffffffffffffffffffffffffffffffffffffffff160217905550808273ffffffffffffffffffffffffffffffffffffffff1661178e83610c26565b73ffffffffffffffffffffffffffffffffffffffff167f8c5be1e5ebec7d5bd14f71427d1e84f3dd0314c0f7b2291e5b200ac8c7c3b92560405160405180910390a45050565b60006117df826116a4565b61181e576040517f08c379a000000000000000000000000000000000000000000000000000000000815260040161181590613bca565b60405180910390fd5b600061182983610c26565b90508073ffffffffffffffffffffffffffffffffffffffff168473ffffffffffffffffffffffffffffffffffffffff16148061189857508373ffffffffffffffffffffffffffffffffffffffff166118808461071d565b73ffffffffffffffffffffffffffffffffffffffff16145b806118a957506118a88185611507565b5b91505092915050565b8273ffffffffffffffffffffffffffffffffffffffff166118d282610c26565b73ffffffffffffffffffffffffffffffffffffffff1614611928576040517f08c379a000000000000000000000000000000000000000000000000000000000815260040161191f90613c5c565b60405180910390fd5b600073ffffffffffffffffffffffffffffffffffffffff168273ffffffffffffffffffffffffffffffffffffffff161415611998576040517f08c379a000000000000000000000000000000000000000000000000000000000815260040161198f90613cee565b60405180910390fd5b6119a3838383612284565b6119ae60008261171b565b6001600360008573ffffffffffffffffffffffffffffffffffffffff1673ffffffffffffffffffffffffffffffffffffffff16815260200190815260200160002060008282546119fe9190613d3d565b925050819055506001600360008473ffffffffffffffffffffffffffffffffffffffff1673ffffffffffffffffffffffffffffffffffffffff1681526020019081526020016000206000828254611a559190613d71565b92505081905550816002600083815260200190815260200160002060000160006101000a81548173ffffffffffffffffffffffffffffffffffffffff021916908373ffffffffffffffffffffffffffffffffffffffff160217905550808273ffffffffffffffffffffffffffffffffffffffff168473ffffffffffffffffffffffffffffffffffffffff167fddf252ad1be2c89b69c2b068fc378daa952ba7f163c4a11628f55a4df523b3ef60405160405180910390a4505050565b611b1d8484848461232b565b7f414cd0b34676984f09a5f76ce9718d4062e50283abe0e7e274a9a5b4e0c99c308484848442604051611b54959493929190613df4565b60405180910390a150505050565b6000611b6d82610c26565b9050611b7b81600084612284565b611b8660008361171b565b6001600360008373ffffffffffffffffffffffffffffffffffffffff1673ffffffffffffffffffffffffffffffffffffffff1681526020019081526020016000206000828254611bd69190613d3d565b9250508190555060026000838152602001908152602001600020600080820160006101000a81549073ffffffffffffffffffffffffffffffffffffffff02191690556000820160146101000a8154906bffffffffffffffffffffffff0219169055505081600073ffffffffffffffffffffffffffffffffffffffff168273ffffffffffffffffffffffffffffffffffffffff167fddf252ad1be2c89b69c2b068fc378daa952ba7f163c4a11628f55a4df523b3ef60405160405180910390a45050565b600073ffffffffffffffffffffffffffffffffffffffff168273ffffffffffffffffffffffffffffffffffffffff161415611d09576040517f08c379a0000000000000000000000000000000000000000000000000000000008152600401611d0090613e89565b60405180910390fd5b611d12816116a4565b15611d52576040517f08c379a0000000000000000000000000000000000000000000000000000000008152600401611d4990613ef5565b60405180910390fd5b611d5e60008383612284565b6001600360008473ffffffffffffffffffffffffffffffffffffffff1673ffffffffffffffffffffffffffffffffffffffff1681526020019081526020016000206000828254611dae9190613d71565b92505081905550816002600083815260200190815260200160002060000160006101000a81548173ffffffffffffffffffffffffffffffffffffffff021916908373ffffffffffffffffffffffffffffffffffffffff160217905550426002600083815260200190815260200160002060000160146101000a8154816bffffffffffffffffffffffff02191690836bffffffffffffffffffffffff160217905550808273ffffffffffffffffffffffffffffffffffffffff16600073ffffffffffffffffffffffffffffffffffffffff167fddf252ad1be2c89b69c2b068fc378daa952ba7f163c4a11628f55a4df523b3ef60405160405180910390a45050565b600080611eba612196565b83604051602001611ecc929190613f8d565b60405160208183030381529060405280519060200120905080915050919050565b4281606001351015611f2b576040517f0819bdcd00000000000000000000000000000000000000000000000000000000815260040160405180910390fd5b6000600184836000016020810190611f439190613ffd565b8460200135856040013560405160008152602001604052604051611f6a9493929190614039565b6020604051602081039080840390855afa158015611f8c573d6000803e3d6000fd5b505050602060405103519050600073ffffffffffffffffffffffffffffffffffffffff168173ffffffffffffffffffffffffffffffffffffffff161480611fff57508273ffffffffffffffffffffffffffffffffffffffff168173ffffffffffffffffffffffffffffffffffffffff1614155b15612036576040517f37e8456b00000000000000000000000000000000000000000000000000000000815260040160405180910390fd5b50505050565b80600560008573ffffffffffffffffffffffffffffffffffffffff1673ffffffffffffffffffffffffffffffffffffffff16815260200190815260200160002060008473ffffffffffffffffffffffffffffffffffffffff1673ffffffffffffffffffffffffffffffffffffffff16815260200190815260200160002060006101000a81548160ff0219169083151502179055508173ffffffffffffffffffffffffffffffffffffffff168373ffffffffffffffffffffffffffffffffffffffff167f17307eab39ab6107e8899845ad3d59bd9653f200f220920489ca2b5937696c318360405161212d9190612ab4565b60405180910390a3505050565b6121458484846118b2565b61215184848484612355565b612190576040517f08c379a0000000000000000000000000000000000000000000000000000000008152600401612187906140f0565b60405180910390fd5b50505050565b60007f8b73c3c69bb8fe3d512ecc4cf759cc79239f7b179b0ffacaa9a75d522b39400f6121c161068b565b805190602001207fc89efdaa54c0f20c7adf612882df0950f5a951637e0307cdcb4c672f298b8bc646306040516020016121ff959493929190614110565b60405160208183030381529060405280519060200120905090565b60007f01ffc9a7000000000000000000000000000000000000000000000000000000007bffffffffffffffffffffffffffffffffffffffffffffffffffffffff1916827bffffffffffffffffffffffffffffffffffffffffffffffffffffffff1916149050919050565b61228f8383836124dd565b7f000000000000000000000000000000000000000000000000000000000000000073ffffffffffffffffffffffffffffffffffffffff166386e2947b600b54600c548487876040518663ffffffff1660e01b81526004016122f4959493929190614163565b600060405180830381600087803b15801561230e57600080fd5b505af1158015612322573d6000803e3d6000fd5b50505050505050565b83836000919061233c92919061295d565b5081816001919061234e92919061295d565b5050505050565b60006123768473ffffffffffffffffffffffffffffffffffffffff166125f1565b156124d0578373ffffffffffffffffffffffffffffffffffffffff1663150b7a0261239f611713565b8786866040518563ffffffff1660e01b81526004016123c1949392919061420b565b6020604051808303816000875af19250505080156123fd57506040513d601f19601f820116820180604052508101906123fa919061426c565b60015b612480573d806000811461242d576040519150601f19603f3d011682016040523d82523d6000602084013e612432565b606091505b50600081511415612478576040517f08c379a000000000000000000000000000000000000000000000000000000000815260040161246f906140f0565b60405180910390fd5b805181602001fd5b63150b7a0260e01b7bffffffffffffffffffffffffffffffffffffffffffffffffffffffff1916817bffffffffffffffffffffffffffffffffffffffffffffffffffffffff1916149150506124d5565b600190505b949350505050565b6124e8838383612614565b600073ffffffffffffffffffffffffffffffffffffffff168373ffffffffffffffffffffffffffffffffffffffff16141561252b5761252681612619565b61256a565b8173ffffffffffffffffffffffffffffffffffffffff168373ffffffffffffffffffffffffffffffffffffffff1614612569576125688382612662565b5b5b600073ffffffffffffffffffffffffffffffffffffffff168273ffffffffffffffffffffffffffffffffffffffff1614156125ad576125a8816127cf565b6125ec565b8273ffffffffffffffffffffffffffffffffffffffff168273ffffffffffffffffffffffffffffffffffffffff16146125eb576125ea82826128a0565b5b5b505050565b6000808273ffffffffffffffffffffffffffffffffffffffff163b119050919050565b505050565b6008805490506009600083815260200190815260200160002081905550600881908060018154018082558091505060019003906000526020600020016000909190919091505550565b6000600161266f84610d88565b6126799190613d3d565b905060006007600084815260200190815260200160002054905081811461275e576000600660008673ffffffffffffffffffffffffffffffffffffffff1673ffffffffffffffffffffffffffffffffffffffff168152602001908152602001600020600084815260200190815260200160002054905080600660008773ffffffffffffffffffffffffffffffffffffffff1673ffffffffffffffffffffffffffffffffffffffff168152602001908152602001600020600084815260200190815260200160002081905550816007600083815260200190815260200160002081905550505b6007600084815260200190815260200160002060009055600660008573ffffffffffffffffffffffffffffffffffffffff1673ffffffffffffffffffffffffffffffffffffffff16815260200190815260200160002060008381526020019081526020016000206000905550505050565b600060016008805490506127e39190613d3d565b905060006009600084815260200190815260200160002054905060006008838154811061281357612812613692565b5b90600052602060002001549050806008838154811061283557612834613692565b5b90600052602060002001819055508160096000838152602001908152602001600020819055506009600085815260200190815260200160002060009055600880548061288457612883614299565b5b6001900381819060005260206000200160009055905550505050565b60006128ab83610d88565b905081600660008573ffffffffffffffffffffffffffffffffffffffff1673ffffffffffffffffffffffffffffffffffffffff168152602001908152602001600020600083815260200190815260200160002081905550806007600084815260200190815260200160002081905550505050565b6040518060400160405280600073ffffffffffffffffffffffffffffffffffffffff16815260200160006bffffffffffffffffffffffff1681525090565b828054612969906132f4565b90600052602060002090601f01602090048101928261298b57600085556129d2565b82601f106129a457803560ff19168380011785556129d2565b828001600101855582156129d2579182015b828111156129d15782358255916020019190600101906129b6565b5b5090506129df91906129e3565b5090565b5b808211156129fc5760008160009055506001016129e4565b5090565b6000604051905090565b600080fd5b600080fd5b60007fffffffff0000000000000000000000000000000000000000000000000000000082169050919050565b612a4981612a14565b8114612a5457600080fd5b50565b600081359050612a6681612a40565b92915050565b600060208284031215612a8257612a81612a0a565b5b6000612a9084828501612a57565b91505092915050565b60008115159050919050565b612aae81612a99565b82525050565b6000602082019050612ac96000830184612aa5565b92915050565b600081519050919050565b600082825260208201905092915050565b60005b83811015612b09578082015181840152602081019050612aee565b83811115612b18576000848401525b50505050565b6000601f19601f8301169050919050565b6000612b3a82612acf565b612b448185612ada565b9350612b54818560208601612aeb565b612b5d81612b1e565b840191505092915050565b60006020820190508181036000830152612b828184612b2f565b905092915050565b6000819050919050565b612b9d81612b8a565b8114612ba857600080fd5b50565b600081359050612bba81612b94565b92915050565b600060208284031215612bd657612bd5612a0a565b5b6000612be484828501612bab565b91505092915050565b600073ffffffffffffffffffffffffffffffffffffffff82169050919050565b6000612c1882612bed565b9050919050565b612c2881612c0d565b82525050565b6000602082019050612c436000830184612c1f565b92915050565b612c5281612c0d565b8114612c5d57600080fd5b50565b600081359050612c6f81612c49565b92915050565b60008060408385031215612c8c57612c8b612a0a565b5b6000612c9a85828601612c60565b9250506020612cab85828601612bab565b9150509250929050565b612cbe81612b8a565b82525050565b6000602082019050612cd96000830184612cb5565b92915050565b600080600060608486031215612cf857612cf7612a0a565b5b6000612d0686828701612c60565b9350506020612d1786828701612c60565b9250506040612d2886828701612bab565b9150509250925092565b6000604082019050612d476000830185612cb5565b612d546020830184612cb5565b9392505050565b600080fd5b600080fd5b600080fd5b60008083601f840112612d8057612d7f612d5b565b5b8235905067ffffffffffffffff811115612d9d57612d9c612d60565b5b602083019150836001820283011115612db957612db8612d65565b5b9250929050565b60008060008060008060808789031215612ddd57612ddc612a0a565b5b6000612deb89828a01612bab565b9650506020612dfc89828a01612bab565b955050604087013567ffffffffffffffff811115612e1d57612e1c612a0f565b5b612e2989828a01612d6a565b9450945050606087013567ffffffffffffffff811115612e4c57612e4b612a0f565b5b612e5889828a01612d6a565b92509250509295509295509295565b600060208284031215612e7d57612e7c612a0a565b5b6000612e8b84828501612c60565b91505092915050565b600080fd5b600060808284031215612eaf57612eae612e94565b5b81905092915050565b600080600060c08486031215612ed157612ed0612a0a565b5b6000612edf86828701612c60565b9350506020612ef086828701612bab565b9250506040612f0186828701612e99565b9150509250925092565b612f1481612a99565b8114612f1f57600080fd5b50565b600081359050612f3181612f0b565b92915050565b60008060008060e08587031215612f5157612f50612a0a565b5b6000612f5f87828801612c60565b9450506020612f7087828801612c60565b9350506040612f8187828801612f22565b9250506060612f9287828801612e99565b91505092959194509250565b60008060408385031215612fb557612fb4612a0a565b5b6000612fc385828601612c60565b9250506020612fd485828601612f22565b9150509250929050565b600080fd5b7f4e487b7100000000000000000000000000000000000000000000000000000000600052604160045260246000fd5b61301b82612b1e565b810181811067ffffffffffffffff8211171561303a57613039612fe3565b5b80604052505050565b600061304d612a00565b90506130598282613012565b919050565b600067ffffffffffffffff82111561307957613078612fe3565b5b61308282612b1e565b9050602081019050919050565b82818337600083830152505050565b60006130b16130ac8461305e565b613043565b9050828152602081018484840111156130cd576130cc612fde565b5b6130d884828561308f565b509392505050565b600082601f8301126130f5576130f4612d5b565b5b813561310584826020860161309e565b91505092915050565b6000806000806080858703121561312857613127612a0a565b5b600061313687828801612c60565b945050602061314787828801612c60565b935050604061315887828801612bab565b925050606085013567ffffffffffffffff81111561317957613178612a0f565b5b613185878288016130e0565b91505092959194509250565b61319a81612c0d565b82525050565b60006bffffffffffffffffffffffff82169050919050565b6131c1816131a0565b82525050565b6040820160008201516131dd6000850182613191565b5060208201516131f060208501826131b8565b50505050565b600060408201905061320b60008301846131c7565b92915050565b60008060a0838503121561322857613227612a0a565b5b600061323685828601612bab565b925050602061324785828601612e99565b9150509250929050565b6000806040838503121561326857613267612a0a565b5b600061327685828601612c60565b925050602061328785828601612c60565b9150509250929050565b6000819050919050565b6132a481613291565b82525050565b60006020820190506132bf600083018461329b565b92915050565b7f4e487b7100000000000000000000000000000000000000000000000000000000600052602260045260246000fd5b6000600282049050600182168061330c57607f821691505b602082108114156133205761331f6132c5565b5b50919050565b7f4552433732313a20617070726f76656420717565727920666f72206e6f6e657860008201527f697374656e7420746f6b656e0000000000000000000000000000000000000000602082015250565b6000613382602c83612ada565b915061338d82613326565b604082019050919050565b600060208201905081810360008301526133b181613375565b9050919050565b7f4552433732313a20617070726f76616c20746f2063757272656e74206f776e6560008201527f7200000000000000000000000000000000000000000000000000000000000000602082015250565b6000613414602183612ada565b915061341f826133b8565b604082019050919050565b6000602082019050818103600083015261344381613407565b9050919050565b7f4552433732313a20617070726f76652063616c6c6572206973206e6f74206f7760008201527f6e6572206e6f7220617070726f76656420666f7220616c6c0000000000000000602082015250565b60006134a6603883612ada565b91506134b18261344a565b604082019050919050565b600060208201905081810360008301526134d581613499565b9050919050565b7f4552433732313a207472616e736665722063616c6c6572206973206e6f74206f60008201527f776e6572206e6f7220617070726f766564000000000000000000000000000000602082015250565b6000613538603183612ada565b9150613543826134dc565b604082019050919050565b600060208201905081810360008301526135678161352b565b9050919050565b7f455243373231456e756d657261626c653a206f776e657220696e646578206f7560008201527f74206f6620626f756e6473000000000000000000000000000000000000000000602082015250565b60006135ca602b83612ada565b91506135d58261356e565b604082019050919050565b600060208201905081810360008301526135f9816135bd565b9050919050565b7f455243373231456e756d657261626c653a20676c6f62616c20696e646578206f60008201527f7574206f6620626f756e64730000000000000000000000000000000000000000602082015250565b600061365c602c83612ada565b915061366782613600565b604082019050919050565b6000602082019050818103600083015261368b8161364f565b9050919050565b7f4e487b7100000000000000000000000000000000000000000000000000000000600052603260045260246000fd5b7f4552433732313a206d696e742074696d657374616d7020717565727920666f7260008201527f206e6f6e6578697374656e7420746f6b656e0000000000000000000000000000602082015250565b600061371d603283612ada565b9150613728826136c1565b604082019050919050565b6000602082019050818103600083015261374c81613710565b9050919050565b7f4552433732313a206f776e657220717565727920666f72206e6f6e657869737460008201527f656e7420746f6b656e0000000000000000000000000000000000000000000000602082015250565b60006137af602983612ada565b91506137ba82613753565b604082019050919050565b600060208201905081810360008301526137de816137a2565b9050919050565b7f4552433732313a2062616c616e636520717565727920666f7220746865207a6560008201527f726f206164647265737300000000000000000000000000000000000000000000602082015250565b6000613841602a83612ada565b915061384c826137e5565b604082019050919050565b6000602082019050818103600083015261387081613834565b9050919050565b600060a08201905061388c600083018861329b565b6138996020830187612c1f565b6138a66040830186612cb5565b6138b36060830185612cb5565b6138c06080830184612cb5565b9695505050505050565b600060c0820190506138df600083018961329b565b6138ec6020830188612c1f565b6138f96040830187612c1f565b6139066060830186612aa5565b6139136080830185612cb5565b61392060a0830184612cb5565b979650505050505050565b7f4552433732313a20617070726f766520746f2063616c6c657200000000000000600082015250565b6000613961601983612ada565b915061396c8261392b565b602082019050919050565b6000602082019050818103600083015261399081613954565b9050919050565b7f4552433732313a20746f6b656e206461746120717565727920666f72206e6f6e60008201527f6578697374656e7420746f6b656e000000000000000000000000000000000000602082015250565b60006139f3602e83612ada565b91506139fe82613997565b604082019050919050565b60006020820190508181036000830152613a22816139e6565b9050919050565b600067ffffffffffffffff821115613a4457613a43612fe3565b5b613a4d82612b1e565b9050602081019050919050565b6000613a6d613a6884613a29565b613043565b905082815260208101848484011115613a8957613a88612fde565b5b613a94848285612aeb565b509392505050565b600082601f830112613ab157613ab0612d5b565b5b8151613ac1848260208601613a5a565b91505092915050565b600060208284031215613ae057613adf612a0a565b5b600082015167ffffffffffffffff811115613afe57613afd612a0f565b5b613b0a84828501613a9c565b91505092915050565b6000608082019050613b28600083018761329b565b613b356020830186612cb5565b613b426040830185612cb5565b613b4f6060830184612cb5565b95945050505050565b7f4552433732313a206f70657261746f7220717565727920666f72206e6f6e657860008201527f697374656e7420746f6b656e0000000000000000000000000000000000000000602082015250565b6000613bb4602c83612ada565b9150613bbf82613b58565b604082019050919050565b60006020820190508181036000830152613be381613ba7565b9050919050565b7f4552433732313a207472616e73666572206f6620746f6b656e2074686174206960008201527f73206e6f74206f776e0000000000000000000000000000000000000000000000602082015250565b6000613c46602983612ada565b9150613c5182613bea565b604082019050919050565b60006020820190508181036000830152613c7581613c39565b9050919050565b7f4552433732313a207472616e7366657220746f20746865207a65726f2061646460008201527f7265737300000000000000000000000000000000000000000000000000000000602082015250565b6000613cd8602483612ada565b9150613ce382613c7c565b604082019050919050565b60006020820190508181036000830152613d0781613ccb565b9050919050565b7f4e487b7100000000000000000000000000000000000000000000000000000000600052601160045260246000fd5b6000613d4882612b8a565b9150613d5383612b8a565b925082821015613d6657613d65613d0e565b5b828203905092915050565b6000613d7c82612b8a565b9150613d8783612b8a565b9250827fffffffffffffffffffffffffffffffffffffffffffffffffffffffffffffffff03821115613dbc57613dbb613d0e565b5b828201905092915050565b6000613dd38385612ada565b9350613de083858461308f565b613de983612b1e565b840190509392505050565b60006060820190508181036000830152613e0f818789613dc7565b90508181036020830152613e24818587613dc7565b9050613e336040830184612cb5565b9695505050505050565b7f4552433732313a206d696e7420746f20746865207a65726f2061646472657373600082015250565b6000613e73602083612ada565b9150613e7e82613e3d565b602082019050919050565b60006020820190508181036000830152613ea281613e66565b9050919050565b7f4552433732313a20746f6b656e20616c7265616479206d696e74656400000000600082015250565b6000613edf601c83612ada565b9150613eea82613ea9565b602082019050919050565b60006020820190508181036000830152613f0e81613ed2565b9050919050565b600081905092915050565b7f1901000000000000000000000000000000000000000000000000000000000000600082015250565b6000613f56600283613f15565b9150613f6182613f20565b600282019050919050565b6000819050919050565b613f87613f8282613291565b613f6c565b82525050565b6000613f9882613f49565b9150613fa48285613f76565b602082019150613fb48284613f76565b6020820191508190509392505050565b600060ff82169050919050565b613fda81613fc4565b8114613fe557600080fd5b50565b600081359050613ff781613fd1565b92915050565b60006020828403121561401357614012612a0a565b5b600061402184828501613fe8565b91505092915050565b61403381613fc4565b82525050565b600060808201905061404e600083018761329b565b61405b602083018661402a565b614068604083018561329b565b614075606083018461329b565b95945050505050565b7f4552433732313a207472616e7366657220746f206e6f6e20455243373231526560008201527f63656976657220696d706c656d656e7465720000000000000000000000000000602082015250565b60006140da603283612ada565b91506140e58261407e565b604082019050919050565b60006020820190508181036000830152614109816140cd565b9050919050565b600060a082019050614125600083018861329b565b614132602083018761329b565b61413f604083018661329b565b61414c6060830185612cb5565b6141596080830184612c1f565b9695505050505050565b600060a0820190506141786000830188612cb5565b6141856020830187612cb5565b6141926040830186612cb5565b61419f6060830185612c1f565b6141ac6080830184612c1f565b9695505050505050565b600081519050919050565b600082825260208201905092915050565b60006141dd826141b6565b6141e781856141c1565b93506141f7818560208601612aeb565b61420081612b1e565b840191505092915050565b60006080820190506142206000830187612c1f565b61422d6020830186612c1f565b61423a6040830185612cb5565b818103606083015261424c81846141d2565b905095945050505050565b60008151905061426681612a40565b92915050565b60006020828403121561428257614281612a0a565b5b600061429084828501614257565b91505092915050565b7f4e487b7100000000000000000000000000000000000000000000000000000000600052603160045260246000fdfea26469706673582212201e54ae1b33d9e29e75cf07af530ec7ff2acaacd334ce0151367802a8f6a47f3664736f6c634300080a0033",
  "immutableReferences": {
    "2348": [
      {
        "length": 32,
        "start": 3295
      },
      {
        "length": 32,
        "start": 4546
      },
      {
        "length": 32,
        "start": 5010
      },
      {
        "length": 32,
        "start": 8849
      }
    ]
  },
  "source": "// SPDX-License-Identifier: AGPL-3.0-only\n\npragma solidity 0.8.10;\n\nimport {ICollectNFT} from '../interfaces/ICollectNFT.sol';\nimport {ILensHub} from '../interfaces/ILensHub.sol';\nimport {Errors} from '../libraries/Errors.sol';\nimport {Events} from '../libraries/Events.sol';\nimport {LensNFTBase} from './base/LensNFTBase.sol';\n\n/**\n * @title CollectNFT\n * @author Lens Protocol\n *\n * @notice This is the NFT contract that is minted upon collecting a given publication. It is cloned upon\n * the first collect for a given publication, and the token URI points to the original publication's contentURI.\n */\ncontract CollectNFT is LensNFTBase, ICollectNFT {\n    address public immutable HUB;\n\n    uint256 internal _profileId;\n    uint256 internal _pubId;\n    uint256 internal _tokenIdCounter;\n\n    bool private _initialized;\n\n    // We create the CollectNFT with the pre-computed HUB address before deploying the hub proxy in order\n    // to initialize the hub proxy at construction.\n    constructor(address hub) {\n        if (hub == address(0)) revert Errors.InitParamsInvalid();\n        HUB = hub;\n        _initialized = true;\n    }\n\n    /// @inheritdoc ICollectNFT\n    function initialize(\n        uint256 profileId,\n        uint256 pubId,\n        string calldata name,\n        string calldata symbol\n    ) external override {\n        if (_initialized) revert Errors.Initialized();\n        _initialized = true;\n        _profileId = profileId;\n        _pubId = pubId;\n        super._initialize(name, symbol);\n        emit Events.CollectNFTInitialized(profileId, pubId, block.timestamp);\n    }\n\n    /// @inheritdoc ICollectNFT\n    function mint(address to) external override returns (uint256) {\n        if (msg.sender != HUB) revert Errors.NotHub();\n        unchecked {\n            uint256 tokenId = ++_tokenIdCounter;\n            _mint(to, tokenId);\n            return tokenId;\n        }\n    }\n\n    /// @inheritdoc ICollectNFT\n    function getSourcePublicationPointer() external view override returns (uint256, uint256) {\n        return (_profileId, _pubId);\n    }\n\n    function tokenURI(uint256 tokenId) public view override returns (string memory) {\n        if (!_exists(tokenId)) revert Errors.TokenDoesNotExist();\n        return ILensHub(HUB).getContentURI(_profileId, _pubId);\n    }\n\n    /**\n     * @dev Upon transfers, we emit the transfer event in the hub.\n     */\n    function _beforeTokenTransfer(\n        address from,\n        address to,\n        uint256 tokenId\n    ) internal override {\n        super._beforeTokenTransfer(from, to, tokenId);\n        ILensHub(HUB).emitCollectNFTTransferEvent(_profileId, _pubId, tokenId, from, to);\n    }\n}\n",
  "sourcePath": "/Users/korbinianabstreiter/crytoprojects/primetime/contracts/core/CollectNFT.sol",
  "compiler": {
    "name": "solc",
    "version": "0.8.10+commit.fc410830.Emscripten.clang"
  },
  "schemaVersion": "3.4.5",
  "updatedAt": "2022-04-22T14:49:53.768Z",
  "devdoc": {
    "author": "Lens Protocol",
    "kind": "dev",
    "methods": {
      "approve(address,uint256)": {
        "details": "See {IERC721-approve}."
      },
      "balanceOf(address)": {
        "details": "See {IERC721-balanceOf}."
      },
      "burn(uint256)": {
        "params": {
          "tokenId": "The token ID of the token to burn."
        }
      },
      "burnWithSig(uint256,(uint8,bytes32,bytes32,uint256))": {
        "params": {
          "sig": "The EIP712 signature struct.",
          "tokenId": "The token ID of the token to burn."
        }
      },
      "exists(uint256)": {
        "details": "See {IERC721Time-exists}"
      },
      "getApproved(uint256)": {
        "details": "See {IERC721-getApproved}."
      },
      "getDomainSeparator()": {
        "returns": {
          "_0": "bytes32 The domain separator."
        }
      },
      "getSourcePublicationPointer()": {
        "returns": {
          "_0": "tuple First the profile ID uint256, and second the pubId uint256."
        }
      },
      "initialize(uint256,uint256,string,string)": {
        "params": {
          "name": "The name to set for this NFT.",
          "profileId": "The token ID of the profile in the hub that this collectNFT points to.",
          "pubId": "The profile publication ID in the hub that this collectNFT points to.",
          "symbol": "The symbol to set for this NFT."
        }
      },
      "isApprovedForAll(address,address)": {
        "details": "See {IERC721-isApprovedForAll}."
      },
      "mint(address)": {
        "params": {
          "to": "The address to mint the NFT to."
        },
        "returns": {
          "_0": "uint256 An interger representing the minted token ID."
        }
      },
      "mintTimestampOf(uint256)": {
        "details": "See {IERC721Time-mintTimestampOf}"
      },
      "name()": {
        "details": "See {IERC721Metadata-name}."
      },
      "ownerOf(uint256)": {
        "details": "See {IERC721-ownerOf}."
      },
      "permit(address,uint256,(uint8,bytes32,bytes32,uint256))": {
        "params": {
          "sig": "The EIP712 signature struct.",
          "spender": "The NFT spender.",
          "tokenId": "The NFT token ID to approve."
        }
      },
      "permitForAll(address,address,bool,(uint8,bytes32,bytes32,uint256))": {
        "params": {
          "approved": "Whether to approve or revoke approval from the operator.",
          "operator": "The operator to approve.",
          "owner": "The owner to set operator approvals for.",
          "sig": "The EIP712 signature struct."
        }
      },
      "safeTransferFrom(address,address,uint256)": {
        "details": "See {IERC721-safeTransferFrom}."
      },
      "safeTransferFrom(address,address,uint256,bytes)": {
        "details": "See {IERC721-safeTransferFrom}."
      },
      "setApprovalForAll(address,bool)": {
        "details": "See {IERC721-setApprovalForAll}."
      },
      "supportsInterface(bytes4)": {
        "details": "See {IERC165-supportsInterface}."
      },
      "symbol()": {
        "details": "See {IERC721Metadata-symbol}."
      },
      "tokenByIndex(uint256)": {
        "details": "See {IERC721Enumerable-tokenByIndex}."
      },
      "tokenDataOf(uint256)": {
        "details": "See {IERC721Time-mintTimestampOf}"
      },
      "tokenOfOwnerByIndex(address,uint256)": {
        "details": "See {IERC721Enumerable-tokenOfOwnerByIndex}."
      },
      "tokenURI(uint256)": {
        "details": "See {IERC721Metadata-tokenURI}."
      },
      "totalSupply()": {
        "details": "See {IERC721Enumerable-totalSupply}."
      },
      "transferFrom(address,address,uint256)": {
        "details": "See {IERC721-transferFrom}."
      }
    },
    "title": "CollectNFT",
    "version": 1
  },
  "userdoc": {
    "kind": "user",
    "methods": {
      "burn(uint256)": {
        "notice": "Burns an NFT, removing it from circulation and essentially destroying it. This function can only be called by the NFT to burn's owner."
      },
      "burnWithSig(uint256,(uint8,bytes32,bytes32,uint256))": {
        "notice": "Implementation of an EIP-712 permit-style function for token burning. Allows anyone to burn a token on behalf of the owner with a signature."
      },
      "getDomainSeparator()": {
        "notice": "Returns the domain separator for this NFT contract."
      },
      "getSourcePublicationPointer()": {
        "notice": "Returns the source publication pointer mapped to this collect NFT."
      },
      "initialize(uint256,uint256,string,string)": {
        "notice": "Initializes the collect NFT, setting the feed as the privileged minter, storing the collected publication pointer and initializing the name and symbol in the LensNFTBase contract."
      },
      "mint(address)": {
        "notice": "Mints a collect NFT to the specified address. This can only be called by the hub, and is called upon collection."
      },
      "permit(address,uint256,(uint8,bytes32,bytes32,uint256))": {
        "notice": "Implementation of an EIP-712 permit function for an ERC-721 NFT. We don't need to check if the tokenId exists, since the function calls ownerOf(tokenId), which reverts if the tokenId does not exist."
      },
      "permitForAll(address,address,bool,(uint8,bytes32,bytes32,uint256))": {
        "notice": "Implementation of an EIP-712 permit-style function for ERC-721 operator approvals. Allows an operator address to control all NFTs a given owner owns."
      }
    },
    "notice": "This is the NFT contract that is minted upon collecting a given publication. It is cloned upon the first collect for a given publication, and the token URI points to the original publication's contentURI.",
    "version": 1
  }
}