{
  "contractName": "FeeCollectModule",
  "abi": [
    {
      "inputs": [
        {
          "internalType": "address",
          "name": "hub",
          "type": "address"
        },
        {
          "internalType": "address",
          "name": "moduleGlobals",
          "type": "address"
        }
      ],
      "stateMutability": "nonpayable",
      "type": "constructor"
    },
    {
      "inputs": [],
      "name": "FollowInvalid",
      "type": "error"
    },
    {
      "inputs": [],
      "name": "InitParamsInvalid",
      "type": "error"
    },
    {
      "inputs": [],
      "name": "ModuleDataMismatch",
      "type": "error"
    },
    {
      "inputs": [],
      "name": "NotHub",
      "type": "error"
    },
    {
      "inputs": [],
      "name": "HUB",
      "outputs": [
        {
          "internalType": "address",
          "name": "",
          "type": "address"
        }
      ],
      "stateMutability": "view",
      "type": "function"
    },
    {
      "inputs": [],
      "name": "MODULE_GLOBALS",
      "outputs": [
        {
          "internalType": "address",
          "name": "",
          "type": "address"
        }
      ],
      "stateMutability": "view",
      "type": "function"
    },
    {
      "inputs": [
        {
          "internalType": "uint256",
          "name": "profileId",
          "type": "uint256"
        },
        {
          "internalType": "uint256",
          "name": "pubId",
          "type": "uint256"
        },
        {
          "internalType": "bytes",
          "name": "data",
          "type": "bytes"
        }
      ],
      "name": "initializePublicationCollectModule",
      "outputs": [
        {
          "internalType": "bytes",
          "name": "",
          "type": "bytes"
        }
      ],
      "stateMutability": "nonpayable",
      "type": "function"
    },
    {
      "inputs": [
        {
          "internalType": "uint256",
          "name": "referrerProfileId",
          "type": "uint256"
        },
        {
          "internalType": "address",
          "name": "collector",
          "type": "address"
        },
        {
          "internalType": "uint256",
          "name": "profileId",
          "type": "uint256"
        },
        {
          "internalType": "uint256",
          "name": "pubId",
          "type": "uint256"
        },
        {
          "internalType": "bytes",
          "name": "data",
          "type": "bytes"
        }
      ],
      "name": "processCollect",
      "outputs": [],
      "stateMutability": "nonpayable",
      "type": "function"
    },
    {
      "inputs": [
        {
          "internalType": "uint256",
          "name": "profileId",
          "type": "uint256"
        },
        {
          "internalType": "uint256",
          "name": "pubId",
          "type": "uint256"
        }
      ],
      "name": "getPublicationData",
      "outputs": [
        {
          "components": [
            {
              "internalType": "uint256",
              "name": "amount",
              "type": "uint256"
            },
            {
              "internalType": "address",
              "name": "currency",
              "type": "address"
            },
            {
              "internalType": "address",
              "name": "recipient",
              "type": "address"
            },
            {
              "internalType": "uint16",
              "name": "referralFee",
              "type": "uint16"
            },
            {
              "internalType": "bool",
              "name": "followerOnly",
              "type": "bool"
            }
          ],
          "internalType": "struct ProfilePublicationData",
          "name": "",
          "type": "tuple"
        }
      ],
      "stateMutability": "view",
      "type": "function"
    }
  ],
  "bytecode": "0x60c06040523480156200001157600080fd5b506040516200223638038062002236833981810160405281019062000037919062000285565b8181600073ffffffffffffffffffffffffffffffffffffffff168173ffffffffffffffffffffffffffffffffffffffff161415620000a1576040517f48be0eb300000000000000000000000000000000000000000000000000000000815260040160405180910390fd5b8073ffffffffffffffffffffffffffffffffffffffff1660808173ffffffffffffffffffffffffffffffffffffffff16815250508073ffffffffffffffffffffffffffffffffffffffff167f4e84a529f4c627b5e787037d117873af1018768804cca3c7f0d47041fe2c89ed426040516200011d9190620002e7565b60405180910390a250600073ffffffffffffffffffffffffffffffffffffffff168173ffffffffffffffffffffffffffffffffffffffff1614156200018e576040517f48be0eb300000000000000000000000000000000000000000000000000000000815260040160405180910390fd5b8073ffffffffffffffffffffffffffffffffffffffff1660a08173ffffffffffffffffffffffffffffffffffffffff16815250508073ffffffffffffffffffffffffffffffffffffffff167ff1a1fa6b64aa95186f5a1285e76198d0da80d9c5a88062641d447f1d7c54e56c426040516200020a9190620002e7565b60405180910390a250505062000304565b600080fd5b600073ffffffffffffffffffffffffffffffffffffffff82169050919050565b60006200024d8262000220565b9050919050565b6200025f8162000240565b81146200026b57600080fd5b50565b6000815190506200027f8162000254565b92915050565b600080604083850312156200029f576200029e6200021b565b5b6000620002af858286016200026e565b9250506020620002c2858286016200026e565b9150509250929050565b6000819050919050565b620002e181620002cc565b82525050565b6000602082019050620002fe6000830184620002d6565b92915050565b60805160a051611ed462000362600039600081816102690152818161028f01528181610594015281816107330152818161088c01528181610a030152610db7015260008181610245015281816106900152610fd40152611ed46000f3fe608060405234801561001057600080fd5b50600436106100575760003560e01c80633f5038921461005c57806388ffe8511461008c578063a4c52b86146100aa578063c233f951146100c8578063e49c3dda146100f8575b600080fd5b6100766004803603810190610071919061140f565b610114565b604051610083919061153f565b60405180910390f35b610094610243565b6040516100a19190611569565b60405180910390f35b6100b2610267565b6040516100bf9190611569565b60405180910390f35b6100e260048036038101906100dd91906115e9565b61028b565b6040516100ef91906116f6565b60405180910390f35b610112600480360381019061010d9190611744565b610592565b005b61011c61136e565b60008084815260200190815260200160002060008381526020019081526020016000206040518060a0016040529081600082015481526020016001820160009054906101000a900473ffffffffffffffffffffffffffffffffffffffff1673ffffffffffffffffffffffffffffffffffffffff1673ffffffffffffffffffffffffffffffffffffffff1681526020016002820160009054906101000a900473ffffffffffffffffffffffffffffffffffffffff1673ffffffffffffffffffffffffffffffffffffffff1673ffffffffffffffffffffffffffffffffffffffff1681526020016002820160149054906101000a900461ffff1661ffff1661ffff1681526020016002820160169054906101000a900460ff161515151581525050905092915050565b7f000000000000000000000000000000000000000000000000000000000000000081565b7f000000000000000000000000000000000000000000000000000000000000000081565b60607f000000000000000000000000000000000000000000000000000000000000000073ffffffffffffffffffffffffffffffffffffffff163373ffffffffffffffffffffffffffffffffffffffff1614610312576040517f9de9741800000000000000000000000000000000000000000000000000000000815260040160405180910390fd5b600080600080600087878101906103299190611874565b9450945094509450945061033c8461068c565b15806103745750600073ffffffffffffffffffffffffffffffffffffffff168373ffffffffffffffffffffffffffffffffffffffff16145b80610388575061271061ffff168261ffff16115b806103935750600085145b156103ca576040517f48be0eb300000000000000000000000000000000000000000000000000000000815260040160405180910390fd5b846000808c815260200190815260200160002060008b815260200190815260200160002060000181905550836000808c815260200190815260200160002060008b815260200190815260200160002060010160006101000a81548173ffffffffffffffffffffffffffffffffffffffff021916908373ffffffffffffffffffffffffffffffffffffffff160217905550826000808c815260200190815260200160002060008b815260200190815260200160002060020160006101000a81548173ffffffffffffffffffffffffffffffffffffffff021916908373ffffffffffffffffffffffffffffffffffffffff160217905550816000808c815260200190815260200160002060008b815260200190815260200160002060020160146101000a81548161ffff021916908361ffff160217905550806000808c815260200190815260200160002060008b815260200190815260200160002060020160166101000a81548160ff02191690831515021790555087878080601f016020809104026020016040519081016040528093929190818152602001838380828437600081840152601f19601f8201169050808301925050505050505095505050505050949350505050565b7f000000000000000000000000000000000000000000000000000000000000000073ffffffffffffffffffffffffffffffffffffffff163373ffffffffffffffffffffffffffffffffffffffff1614610617576040517f9de9741800000000000000000000000000000000000000000000000000000000815260040160405180910390fd5b600080858152602001908152602001600020600084815260200190815260200160002060020160169054906101000a900460ff161561065b5761065a848661072f565b5b83861415610675576106708585858585610af1565b610684565b610683868686868686610c74565b5b505050505050565b60007f000000000000000000000000000000000000000000000000000000000000000073ffffffffffffffffffffffffffffffffffffffff166343b938c5836040518263ffffffff1660e01b81526004016106e79190611569565b602060405180830381865afa158015610704573d6000803e3d6000fd5b505050506040513d601f19601f820116820180604052508101906107289190611904565b9050919050565b60007f000000000000000000000000000000000000000000000000000000000000000073ffffffffffffffffffffffffffffffffffffffff1663d923d20c846040518263ffffffff1660e01b815260040161078a9190611940565b602060405180830381865afa1580156107a7573d6000803e3d6000fd5b505050506040513d601f19601f820116820180604052508101906107cb9190611970565b905060008073ffffffffffffffffffffffffffffffffffffffff168273ffffffffffffffffffffffffffffffffffffffff1614610888578173ffffffffffffffffffffffffffffffffffffffff1663451c3d0c858560006040518463ffffffff1660e01b8152600401610840939291906119e2565b602060405180830381865afa15801561085d573d6000803e3d6000fd5b505050506040513d601f19601f820116820180604052508101906108819190611904565b90506109e1565b60007f000000000000000000000000000000000000000000000000000000000000000073ffffffffffffffffffffffffffffffffffffffff1663a9ec6563866040518263ffffffff1660e01b81526004016108e39190611940565b602060405180830381865afa158015610900573d6000803e3d6000fd5b505050506040513d601f19601f820116820180604052508101906109249190611970565b9050600073ffffffffffffffffffffffffffffffffffffffff168173ffffffffffffffffffffffffffffffffffffffff16141580156109dd575060008173ffffffffffffffffffffffffffffffffffffffff166370a08231866040518263ffffffff1660e01b81526004016109999190611569565b602060405180830381865afa1580156109b6573d6000803e3d6000fd5b505050506040513d601f19601f820116820180604052508101906109da9190611a2e565b14155b9150505b80158015610ab457508273ffffffffffffffffffffffffffffffffffffffff167f000000000000000000000000000000000000000000000000000000000000000073ffffffffffffffffffffffffffffffffffffffff16636352211e866040518263ffffffff1660e01b8152600401610a5a9190611940565b602060405180830381865afa158015610a77573d6000803e3d6000fd5b505050506040513d601f19601f82011682018060405250810190610a9b9190611970565b73ffffffffffffffffffffffffffffffffffffffff1614155b15610aeb576040517fd325a6d600000000000000000000000000000000000000000000000000000000815260040160405180910390fd5b50505050565b600080600086815260200190815260200160002060008581526020019081526020016000206000015490506000806000878152602001908152602001600020600086815260200190815260200160002060010160009054906101000a900473ffffffffffffffffffffffffffffffffffffffff169050610b7384848385610f3f565b600080610b7e610fcf565b9150915060008060008a8152602001908152602001600020600089815260200190815260200160002060020160009054906101000a900473ffffffffffffffffffffffffffffffffffffffff169050600061271061ffff168361ffff1687610be69190611a8a565b610bf09190611b13565b905060008187610c009190611b44565b9050610c2f8c84838973ffffffffffffffffffffffffffffffffffffffff16611068909392919063ffffffff16565b6000821115610c6657610c658c86848973ffffffffffffffffffffffffffffffffffffffff16611068909392919063ffffffff16565b5b505050505050505050505050565b600080600086815260200190815260200160002060008581526020019081526020016000206000015490506000806000878152602001908152602001600020600086815260200190815260200160002060010160009054906101000a900473ffffffffffffffffffffffffffffffffffffffff169050610cf684848385610f3f565b6000806000888152602001908152602001600020600087815260200190815260200160002060020160149054906101000a900461ffff1661ffff1690506000806000610d40610fcf565b809250819450505061271061ffff168161ffff1687610d5f9190611a8a565b610d699190611b13565b91505060008186610d7a9190611b44565b905060008414610e8157600061271061ffff168583610d999190611a8a565b610da39190611b13565b90508082610db19190611b44565b915060007f000000000000000000000000000000000000000000000000000000000000000073ffffffffffffffffffffffffffffffffffffffff16636352211e8f6040518263ffffffff1660e01b8152600401610e0e9190611940565b602060405180830381865afa158015610e2b573d6000803e3d6000fd5b505050506040513d601f19601f82011682018060405250810190610e4f9190611970565b9050610e7e8d82848a73ffffffffffffffffffffffffffffffffffffffff16611068909392919063ffffffff16565b50505b60008060008c815260200190815260200160002060008b815260200190815260200160002060020160009054906101000a900473ffffffffffffffffffffffffffffffffffffffff169050610ef98c82848973ffffffffffffffffffffffffffffffffffffffff16611068909392919063ffffffff16565b6000831115610f3057610f2f8c85858973ffffffffffffffffffffffffffffffffffffffff16611068909392919063ffffffff16565b5b50505050505050505050505050565b6000808585810190610f519190611b78565b915091508281141580610f9057508373ffffffffffffffffffffffffffffffffffffffff168273ffffffffffffffffffffffffffffffffffffffff1614155b15610fc7576040517f46308bd500000000000000000000000000000000000000000000000000000000815260040160405180910390fd5b505050505050565b6000807f000000000000000000000000000000000000000000000000000000000000000073ffffffffffffffffffffffffffffffffffffffff166398f965d16040518163ffffffff1660e01b81526004016040805180830381865afa15801561103c573d6000803e3d6000fd5b505050506040513d601f19601f820116820180604052508101906110609190611bcd565b915091509091565b6110eb846323b872dd60e01b85858560405160240161108993929190611c0d565b604051602081830303815290604052907bffffffffffffffffffffffffffffffffffffffffffffffffffffffff19166020820180517bffffffffffffffffffffffffffffffffffffffffffffffffffffffff83818316178352505050506110f1565b50505050565b6000611153826040518060400160405280602081526020017f5361666545524332303a206c6f772d6c6576656c2063616c6c206661696c65648152508573ffffffffffffffffffffffffffffffffffffffff166111b89092919063ffffffff16565b90506000815111156111b357808060200190518101906111739190611904565b6111b2576040517f08c379a00000000000000000000000000000000000000000000000000000000081526004016111a990611cc7565b60405180910390fd5b5b505050565b60606111c784846000856111d0565b90509392505050565b606082471015611215576040517f08c379a000000000000000000000000000000000000000000000000000000000815260040161120c90611d59565b60405180910390fd5b61121e856112e4565b61125d576040517f08c379a000000000000000000000000000000000000000000000000000000000815260040161125490611dc5565b60405180910390fd5b6000808673ffffffffffffffffffffffffffffffffffffffff1685876040516112869190611e21565b60006040518083038185875af1925050503d80600081146112c3576040519150601f19603f3d011682016040523d82523d6000602084013e6112c8565b606091505b50915091506112d8828286611307565b92505050949350505050565b6000808273ffffffffffffffffffffffffffffffffffffffff163b119050919050565b6060831561131757829050611367565b60008351111561132a5782518084602001fd5b816040517f08c379a000000000000000000000000000000000000000000000000000000000815260040161135e9190611e7c565b60405180910390fd5b9392505050565b6040518060a0016040528060008152602001600073ffffffffffffffffffffffffffffffffffffffff168152602001600073ffffffffffffffffffffffffffffffffffffffff168152602001600061ffff1681526020016000151581525090565b600080fd5b600080fd5b6000819050919050565b6113ec816113d9565b81146113f757600080fd5b50565b600081359050611409816113e3565b92915050565b60008060408385031215611426576114256113cf565b5b6000611434858286016113fa565b9250506020611445858286016113fa565b9150509250929050565b611458816113d9565b82525050565b600073ffffffffffffffffffffffffffffffffffffffff82169050919050565b60006114898261145e565b9050919050565b6114998161147e565b82525050565b600061ffff82169050919050565b6114b68161149f565b82525050565b60008115159050919050565b6114d1816114bc565b82525050565b60a0820160008201516114ed600085018261144f565b5060208201516115006020850182611490565b5060408201516115136040850182611490565b50606082015161152660608501826114ad565b50608082015161153960808501826114c8565b50505050565b600060a08201905061155460008301846114d7565b92915050565b6115638161147e565b82525050565b600060208201905061157e600083018461155a565b92915050565b600080fd5b600080fd5b600080fd5b60008083601f8401126115a9576115a8611584565b5b8235905067ffffffffffffffff8111156115c6576115c5611589565b5b6020830191508360018202830111156115e2576115e161158e565b5b9250929050565b60008060008060608587031215611603576116026113cf565b5b6000611611878288016113fa565b9450506020611622878288016113fa565b935050604085013567ffffffffffffffff811115611643576116426113d4565b5b61164f87828801611593565b925092505092959194509250565b600081519050919050565b600082825260208201905092915050565b60005b8381101561169757808201518184015260208101905061167c565b838111156116a6576000848401525b50505050565b6000601f19601f8301169050919050565b60006116c88261165d565b6116d28185611668565b93506116e2818560208601611679565b6116eb816116ac565b840191505092915050565b6000602082019050818103600083015261171081846116bd565b905092915050565b6117218161147e565b811461172c57600080fd5b50565b60008135905061173e81611718565b92915050565b60008060008060008060a08789031215611761576117606113cf565b5b600061176f89828a016113fa565b965050602061178089828a0161172f565b955050604061179189828a016113fa565b94505060606117a289828a016113fa565b935050608087013567ffffffffffffffff8111156117c3576117c26113d4565b5b6117cf89828a01611593565b92509250509295509295509295565b60006117e98261145e565b9050919050565b6117f9816117de565b811461180457600080fd5b50565b600081359050611816816117f0565b92915050565b6118258161149f565b811461183057600080fd5b50565b6000813590506118428161181c565b92915050565b611851816114bc565b811461185c57600080fd5b50565b60008135905061186e81611848565b92915050565b600080600080600060a086880312156118905761188f6113cf565b5b600061189e888289016113fa565b95505060206118af88828901611807565b94505060406118c088828901611807565b93505060606118d188828901611833565b92505060806118e28882890161185f565b9150509295509295909350565b6000815190506118fe81611848565b92915050565b60006020828403121561191a576119196113cf565b5b6000611928848285016118ef565b91505092915050565b61193a816113d9565b82525050565b60006020820190506119556000830184611931565b92915050565b60008151905061196a81611718565b92915050565b600060208284031215611986576119856113cf565b5b60006119948482850161195b565b91505092915050565b6000819050919050565b6000819050919050565b60006119cc6119c76119c28461199d565b6119a7565b6113d9565b9050919050565b6119dc816119b1565b82525050565b60006060820190506119f76000830186611931565b611a04602083018561155a565b611a1160408301846119d3565b949350505050565b600081519050611a28816113e3565b92915050565b600060208284031215611a4457611a436113cf565b5b6000611a5284828501611a19565b91505092915050565b7f4e487b7100000000000000000000000000000000000000000000000000000000600052601160045260246000fd5b6000611a95826113d9565b9150611aa0836113d9565b9250817fffffffffffffffffffffffffffffffffffffffffffffffffffffffffffffffff0483118215151615611ad957611ad8611a5b565b5b828202905092915050565b7f4e487b7100000000000000000000000000000000000000000000000000000000600052601260045260246000fd5b6000611b1e826113d9565b9150611b29836113d9565b925082611b3957611b38611ae4565b5b828204905092915050565b6000611b4f826113d9565b9150611b5a836113d9565b925082821015611b6d57611b6c611a5b565b5b828203905092915050565b60008060408385031215611b8f57611b8e6113cf565b5b6000611b9d85828601611807565b9250506020611bae858286016113fa565b9150509250929050565b600081519050611bc78161181c565b92915050565b60008060408385031215611be457611be36113cf565b5b6000611bf28582860161195b565b9250506020611c0385828601611bb8565b9150509250929050565b6000606082019050611c22600083018661155a565b611c2f602083018561155a565b611c3c6040830184611931565b949350505050565b600082825260208201905092915050565b7f5361666545524332303a204552433230206f7065726174696f6e20646964206e60008201527f6f74207375636365656400000000000000000000000000000000000000000000602082015250565b6000611cb1602a83611c44565b9150611cbc82611c55565b604082019050919050565b60006020820190508181036000830152611ce081611ca4565b9050919050565b7f416464726573733a20696e73756666696369656e742062616c616e636520666f60008201527f722063616c6c0000000000000000000000000000000000000000000000000000602082015250565b6000611d43602683611c44565b9150611d4e82611ce7565b604082019050919050565b60006020820190508181036000830152611d7281611d36565b9050919050565b7f416464726573733a2063616c6c20746f206e6f6e2d636f6e7472616374000000600082015250565b6000611daf601d83611c44565b9150611dba82611d79565b602082019050919050565b60006020820190508181036000830152611dde81611da2565b9050919050565b600081905092915050565b6000611dfb8261165d565b611e058185611de5565b9350611e15818560208601611679565b80840191505092915050565b6000611e2d8284611df0565b915081905092915050565b600081519050919050565b6000611e4e82611e38565b611e588185611c44565b9350611e68818560208601611679565b611e71816116ac565b840191505092915050565b60006020820190508181036000830152611e968184611e43565b90509291505056fea264697066735822122068c72abf6e514be41d564bea077a0b8c9b7d09186982151fbf7c538bf4eafae864736f6c634300080a0033",
  "immutableReferences": {
    "738": [
      {
        "length": 32,
        "start": 581
      },
      {
        "length": 32,
        "start": 1680
      },
      {
        "length": 32,
        "start": 4052
      }
    ],
    "948": [
      {
        "length": 32,
        "start": 617
      },
      {
        "length": 32,
        "start": 655
      },
      {
        "length": 32,
        "start": 1428
      },
      {
        "length": 32,
        "start": 1843
      },
      {
        "length": 32,
        "start": 2188
      },
      {
        "length": 32,
        "start": 2563
      },
      {
        "length": 32,
        "start": 3511
      }
    ]
  },
  "source": "// SPDX-License-Identifier: AGPL-3.0-only\n\npragma solidity 0.8.10;\n\nimport {ICollectModule} from '../../../interfaces/ICollectModule.sol';\nimport {Errors} from '../../../libraries/Errors.sol';\nimport {FeeModuleBase} from '../FeeModuleBase.sol';\nimport {ModuleBase} from '../ModuleBase.sol';\nimport {FollowValidationModuleBase} from '../FollowValidationModuleBase.sol';\nimport {IERC20} from '@openzeppelin/contracts/token/ERC20/IERC20.sol';\nimport {SafeERC20} from '@openzeppelin/contracts/token/ERC20/utils/SafeERC20.sol';\nimport {IERC721} from '@openzeppelin/contracts/token/ERC721/IERC721.sol';\n\n/**\n * @notice A struct containing the necessary data to execute collect actions on a publication.\n *\n * @param amount The collecting cost associated with this publication.\n * @param currency The currency associated with this publication.\n * @param recipient The recipient address associated with this publication.\n * @param referralFee The referral fee associated with this publication.\n * @param followerOnly Whether only followers should be able to collect.\n */\nstruct ProfilePublicationData {\n    uint256 amount;\n    address currency;\n    address recipient;\n    uint16 referralFee;\n    bool followerOnly;\n}\n\n/**\n * @title FeeCollectModule\n * @author Lens Protocol\n *\n * @notice This is a simple Lens CollectModule implementation, inheriting from the ICollectModule interface and\n * the FeeCollectModuleBase abstract contract.\n *\n * This module works by allowing unlimited collects for a publication at a given price.\n */\ncontract FeeCollectModule is FeeModuleBase, FollowValidationModuleBase, ICollectModule {\n    using SafeERC20 for IERC20;\n\n    mapping(uint256 => mapping(uint256 => ProfilePublicationData))\n        internal _dataByPublicationByProfile;\n\n    constructor(address hub, address moduleGlobals) FeeModuleBase(moduleGlobals) ModuleBase(hub) {}\n\n    /**\n     * @notice This collect module levies a fee on collects and supports referrals. Thus, we need to decode data.\n     *\n     * @param profileId The token ID of the profile of the publisher, passed by the hub.\n     * @param pubId The publication ID of the newly created publication, passed by the hub.\n     * @param data The arbitrary data parameter, decoded into:\n     *      uint256 amount: The currency total amount to levy.\n     *      address currency: The currency address, must be internally whitelisted.\n     *      address recipient: The custom recipient address to direct earnings to.\n     *      uint16 referralFee: The referral fee to set.\n     *      bool followerOnly: Whether only followers should be able to collect.\n     *\n     * @return bytes An abi encoded bytes parameter, which is the same as the passed data parameter.\n     */\n    function initializePublicationCollectModule(\n        uint256 profileId,\n        uint256 pubId,\n        bytes calldata data\n    ) external override onlyHub returns (bytes memory) {\n        (\n            uint256 amount,\n            address currency,\n            address recipient,\n            uint16 referralFee,\n            bool followerOnly\n        ) = abi.decode(data, (uint256, address, address, uint16, bool));\n        if (\n            !_currencyWhitelisted(currency) ||\n            recipient == address(0) ||\n            referralFee > BPS_MAX ||\n            amount == 0\n        ) revert Errors.InitParamsInvalid();\n\n        _dataByPublicationByProfile[profileId][pubId].amount = amount;\n        _dataByPublicationByProfile[profileId][pubId].currency = currency;\n        _dataByPublicationByProfile[profileId][pubId].recipient = recipient;\n        _dataByPublicationByProfile[profileId][pubId].referralFee = referralFee;\n        _dataByPublicationByProfile[profileId][pubId].followerOnly = followerOnly;\n\n        return data;\n    }\n\n    /**\n     * @dev Processes a collect by:\n     *  1. Ensuring the collector is a follower\n     *  2. Charging a fee\n     */\n    function processCollect(\n        uint256 referrerProfileId,\n        address collector,\n        uint256 profileId,\n        uint256 pubId,\n        bytes calldata data\n    ) external virtual override onlyHub {\n        if (_dataByPublicationByProfile[profileId][pubId].followerOnly)\n            _checkFollowValidity(profileId, collector);\n        if (referrerProfileId == profileId) {\n            _processCollect(collector, profileId, pubId, data);\n        } else {\n            _processCollectWithReferral(referrerProfileId, collector, profileId, pubId, data);\n        }\n    }\n\n    /**\n     * @notice Returns the publication data for a given publication, or an empty struct if that publication was not\n     * initialized with this module.\n     *\n     * @param profileId The token ID of the profile mapped to the publication to query.\n     * @param pubId The publication ID of the publication to query.\n     *\n     * @return ProfilePublicationData The ProfilePublicationData struct mapped to that publication.\n     */\n    function getPublicationData(uint256 profileId, uint256 pubId)\n        external\n        view\n        returns (ProfilePublicationData memory)\n    {\n        return _dataByPublicationByProfile[profileId][pubId];\n    }\n\n    function _processCollect(\n        address collector,\n        uint256 profileId,\n        uint256 pubId,\n        bytes calldata data\n    ) internal {\n        uint256 amount = _dataByPublicationByProfile[profileId][pubId].amount;\n        address currency = _dataByPublicationByProfile[profileId][pubId].currency;\n        _validateDataIsExpected(data, currency, amount);\n\n        (address treasury, uint16 treasuryFee) = _treasuryData();\n        address recipient = _dataByPublicationByProfile[profileId][pubId].recipient;\n        uint256 treasuryAmount = (amount * treasuryFee) / BPS_MAX;\n        uint256 adjustedAmount = amount - treasuryAmount;\n\n        IERC20(currency).safeTransferFrom(collector, recipient, adjustedAmount);\n        if (treasuryAmount > 0)\n            IERC20(currency).safeTransferFrom(collector, treasury, treasuryAmount);\n    }\n\n    function _processCollectWithReferral(\n        uint256 referrerProfileId,\n        address collector,\n        uint256 profileId,\n        uint256 pubId,\n        bytes calldata data\n    ) internal {\n        uint256 amount = _dataByPublicationByProfile[profileId][pubId].amount;\n        address currency = _dataByPublicationByProfile[profileId][pubId].currency;\n        _validateDataIsExpected(data, currency, amount);\n\n        uint256 referralFee = _dataByPublicationByProfile[profileId][pubId].referralFee;\n        address treasury;\n        uint256 treasuryAmount;\n\n        // Avoids stack too deep\n        {\n            uint16 treasuryFee;\n            (treasury, treasuryFee) = _treasuryData();\n            treasuryAmount = (amount * treasuryFee) / BPS_MAX;\n        }\n\n        uint256 adjustedAmount = amount - treasuryAmount;\n\n        if (referralFee != 0) {\n            // The reason we levy the referral fee on the adjusted amount is so that referral fees\n            // don't bypass the treasury fee, in essence referrals pay their fair share to the treasury.\n            uint256 referralAmount = (adjustedAmount * referralFee) / BPS_MAX;\n            adjustedAmount = adjustedAmount - referralAmount;\n\n            address referralRecipient = IERC721(HUB).ownerOf(referrerProfileId);\n\n            IERC20(currency).safeTransferFrom(collector, referralRecipient, referralAmount);\n        }\n        address recipient = _dataByPublicationByProfile[profileId][pubId].recipient;\n\n        IERC20(currency).safeTransferFrom(collector, recipient, adjustedAmount);\n        if (treasuryAmount > 0)\n            IERC20(currency).safeTransferFrom(collector, treasury, treasuryAmount);\n    }\n}\n",
  "sourcePath": "/Users/korbinianabstreiter/crytoprojects/primetime/contracts/core/modules/collect/FeeCollectModule.sol",
  "compiler": {
    "name": "solc",
    "version": "0.8.10+commit.fc410830.Emscripten.clang"
  },
  "schemaVersion": "3.4.5",
  "updatedAt": "2022-04-22T20:17:17.172Z",
  "devdoc": {
    "author": "Lens Protocol",
    "kind": "dev",
    "methods": {
      "getPublicationData(uint256,uint256)": {
        "params": {
          "profileId": "The token ID of the profile mapped to the publication to query.",
          "pubId": "The publication ID of the publication to query."
        },
        "returns": {
          "_0": "ProfilePublicationData The ProfilePublicationData struct mapped to that publication."
        }
      },
      "initializePublicationCollectModule(uint256,uint256,bytes)": {
        "params": {
          "data": "The arbitrary data parameter, decoded into:      uint256 amount: The currency total amount to levy.      address currency: The currency address, must be internally whitelisted.      address recipient: The custom recipient address to direct earnings to.      uint16 referralFee: The referral fee to set.      bool followerOnly: Whether only followers should be able to collect.",
          "profileId": "The token ID of the profile of the publisher, passed by the hub.",
          "pubId": "The publication ID of the newly created publication, passed by the hub."
        },
        "returns": {
          "_0": "bytes An abi encoded bytes parameter, which is the same as the passed data parameter."
        }
      },
      "processCollect(uint256,address,uint256,uint256,bytes)": {
        "details": "Processes a collect by:  1. Ensuring the collector is a follower  2. Charging a fee"
      }
    },
    "title": "FeeCollectModule",
    "version": 1
  },
  "userdoc": {
    "kind": "user",
    "methods": {
      "getPublicationData(uint256,uint256)": {
        "notice": "Returns the publication data for a given publication, or an empty struct if that publication was not initialized with this module."
      },
      "initializePublicationCollectModule(uint256,uint256,bytes)": {
        "notice": "This collect module levies a fee on collects and supports referrals. Thus, we need to decode data."
      }
    },
    "notice": "This is a simple Lens CollectModule implementation, inheriting from the ICollectModule interface and the FeeCollectModuleBase abstract contract. This module works by allowing unlimited collects for a publication at a given price.",
    "version": 1
  }
}