{
  "contractName": "FeeFollowModule",
  "abi": [
    {
      "inputs": [
        {
          "internalType": "address",
          "name": "hub",
          "type": "address"
        },
        {
          "internalType": "address",
          "name": "moduleGlobals",
          "type": "address"
        }
      ],
      "stateMutability": "nonpayable",
      "type": "constructor"
    },
    {
      "inputs": [],
      "name": "InitParamsInvalid",
      "type": "error"
    },
    {
      "inputs": [],
      "name": "ModuleDataMismatch",
      "type": "error"
    },
    {
      "inputs": [],
      "name": "NotHub",
      "type": "error"
    },
    {
      "inputs": [],
      "name": "HUB",
      "outputs": [
        {
          "internalType": "address",
          "name": "",
          "type": "address"
        }
      ],
      "stateMutability": "view",
      "type": "function"
    },
    {
      "inputs": [],
      "name": "MODULE_GLOBALS",
      "outputs": [
        {
          "internalType": "address",
          "name": "",
          "type": "address"
        }
      ],
      "stateMutability": "view",
      "type": "function"
    },
    {
      "inputs": [
        {
          "internalType": "uint256",
          "name": "profileId",
          "type": "uint256"
        },
        {
          "internalType": "address",
          "name": "follower",
          "type": "address"
        },
        {
          "internalType": "uint256",
          "name": "followNFTTokenId",
          "type": "uint256"
        }
      ],
      "name": "isFollowing",
      "outputs": [
        {
          "internalType": "bool",
          "name": "",
          "type": "bool"
        }
      ],
      "stateMutability": "view",
      "type": "function"
    },
    {
      "inputs": [
        {
          "internalType": "uint256",
          "name": "profileId",
          "type": "uint256"
        },
        {
          "internalType": "bytes",
          "name": "data",
          "type": "bytes"
        }
      ],
      "name": "initializeFollowModule",
      "outputs": [
        {
          "internalType": "bytes",
          "name": "",
          "type": "bytes"
        }
      ],
      "stateMutability": "nonpayable",
      "type": "function"
    },
    {
      "inputs": [
        {
          "internalType": "address",
          "name": "follower",
          "type": "address"
        },
        {
          "internalType": "uint256",
          "name": "profileId",
          "type": "uint256"
        },
        {
          "internalType": "bytes",
          "name": "data",
          "type": "bytes"
        }
      ],
      "name": "processFollow",
      "outputs": [],
      "stateMutability": "nonpayable",
      "type": "function"
    },
    {
      "inputs": [
        {
          "internalType": "uint256",
          "name": "profileId",
          "type": "uint256"
        },
        {
          "internalType": "address",
          "name": "from",
          "type": "address"
        },
        {
          "internalType": "address",
          "name": "to",
          "type": "address"
        },
        {
          "internalType": "uint256",
          "name": "followNFTTokenId",
          "type": "uint256"
        }
      ],
      "name": "followModuleTransferHook",
      "outputs": [],
      "stateMutability": "nonpayable",
      "type": "function"
    },
    {
      "inputs": [
        {
          "internalType": "uint256",
          "name": "profileId",
          "type": "uint256"
        }
      ],
      "name": "getProfileData",
      "outputs": [
        {
          "components": [
            {
              "internalType": "address",
              "name": "currency",
              "type": "address"
            },
            {
              "internalType": "uint256",
              "name": "amount",
              "type": "uint256"
            },
            {
              "internalType": "address",
              "name": "recipient",
              "type": "address"
            }
          ],
          "internalType": "struct ProfileData",
          "name": "",
          "type": "tuple"
        }
      ],
      "stateMutability": "view",
      "type": "function"
    }
  ],
  "bytecode": "0x60c06040523480156200001157600080fd5b5060405162001bd438038062001bd4833981810160405281019062000037919062000285565b8181600073ffffffffffffffffffffffffffffffffffffffff168173ffffffffffffffffffffffffffffffffffffffff161415620000a1576040517f48be0eb300000000000000000000000000000000000000000000000000000000815260040160405180910390fd5b8073ffffffffffffffffffffffffffffffffffffffff1660808173ffffffffffffffffffffffffffffffffffffffff16815250508073ffffffffffffffffffffffffffffffffffffffff167f4e84a529f4c627b5e787037d117873af1018768804cca3c7f0d47041fe2c89ed426040516200011d9190620002e7565b60405180910390a250600073ffffffffffffffffffffffffffffffffffffffff168173ffffffffffffffffffffffffffffffffffffffff1614156200018e576040517f48be0eb300000000000000000000000000000000000000000000000000000000815260040160405180910390fd5b8073ffffffffffffffffffffffffffffffffffffffff1660a08173ffffffffffffffffffffffffffffffffffffffff16815250508073ffffffffffffffffffffffffffffffffffffffff167ff1a1fa6b64aa95186f5a1285e76198d0da80d9c5a88062641d447f1d7c54e56c426040516200020a9190620002e7565b60405180910390a250505062000304565b600080fd5b600073ffffffffffffffffffffffffffffffffffffffff82169050919050565b60006200024d8262000220565b9050919050565b6200025f8162000240565b81146200026b57600080fd5b50565b6000815190506200027f8162000254565b92915050565b600080604083850312156200029f576200029e6200021b565b5b6000620002af858286016200026e565b9250506020620002c2858286016200026e565b9150509250929050565b6000819050919050565b620002e181620002cc565b82525050565b6000602082019050620002fe6000830184620002d6565b92915050565b60805160a0516118876200034d60003960008181610188015281816103650152818161068701526108bc015260008181610661015281816109730152610a9401526118876000f3fe608060405234801561001057600080fd5b506004361061007d5760003560e01c806345b7f60a1161005b57806345b7f60a146100ea57806388ffe8511461011a5780639713958a14610138578063a4c52b86146101685761007d565b80630e096ae1146100825780633cb22cc41461009e578063451c3d0c146100ba575b600080fd5b61009c60048036038101906100979190610f00565b610186565b005b6100b860048036038101906100b39190610f74565b61035a565b005b6100d460048036038101906100cf9190610fdb565b610360565b6040516100e19190611049565b60405180910390f35b61010460048036038101906100ff9190611064565b61057d565b60405161011191906110f1565b60405180910390f35b61012261065f565b60405161012f919061111b565b60405180910390f35b610152600480360381019061014d9190611136565b610683565b60405161015f919061122f565b60405180910390f35b6101706108ba565b60405161017d919061111b565b60405180910390f35b7f000000000000000000000000000000000000000000000000000000000000000073ffffffffffffffffffffffffffffffffffffffff163373ffffffffffffffffffffffffffffffffffffffff161461020b576040517f9de9741800000000000000000000000000000000000000000000000000000000815260040160405180910390fd5b6000806000858152602001908152602001600020600101549050600080600086815260200190815260200160002060000160009054906101000a900473ffffffffffffffffffffffffffffffffffffffff16905061026b848483856108de565b60008061027661096e565b91509150600080600089815260200190815260200160002060020160009054906101000a900473ffffffffffffffffffffffffffffffffffffffff169050600061271061ffff168361ffff16876102cd9190611280565b6102d79190611309565b9050600081876102e7919061133a565b90506103168b84838973ffffffffffffffffffffffffffffffffffffffff16610a07909392919063ffffffff16565b600082111561034d5761034c8b86848973ffffffffffffffffffffffffffffffffffffffff16610a07909392919063ffffffff16565b5b5050505050505050505050565b50505050565b6000807f000000000000000000000000000000000000000000000000000000000000000073ffffffffffffffffffffffffffffffffffffffff1663a9ec6563866040518263ffffffff1660e01b81526004016103bc919061137d565b602060405180830381865afa1580156103d9573d6000803e3d6000fd5b505050506040513d601f19601f820116820180604052508101906103fd91906113ad565b9050600073ffffffffffffffffffffffffffffffffffffffff168173ffffffffffffffffffffffffffffffffffffffff16141561043e576000915050610576565b600083146104f3578373ffffffffffffffffffffffffffffffffffffffff168173ffffffffffffffffffffffffffffffffffffffff16636352211e856040518263ffffffff1660e01b8152600401610496919061137d565b602060405180830381865afa1580156104b3573d6000803e3d6000fd5b505050506040513d601f19601f820116820180604052508101906104d791906113ad565b73ffffffffffffffffffffffffffffffffffffffff1614610572565b60008173ffffffffffffffffffffffffffffffffffffffff166370a08231866040518263ffffffff1660e01b815260040161052e919061111b565b602060405180830381865afa15801561054b573d6000803e3d6000fd5b505050506040513d601f19601f8201168201806040525081019061056f91906113ef565b14155b9150505b9392505050565b610585610db0565b6000808381526020019081526020016000206040518060600160405290816000820160009054906101000a900473ffffffffffffffffffffffffffffffffffffffff1673ffffffffffffffffffffffffffffffffffffffff1673ffffffffffffffffffffffffffffffffffffffff168152602001600182015481526020016002820160009054906101000a900473ffffffffffffffffffffffffffffffffffffffff1673ffffffffffffffffffffffffffffffffffffffff1673ffffffffffffffffffffffffffffffffffffffff16815250509050919050565b7f000000000000000000000000000000000000000000000000000000000000000081565b60607f000000000000000000000000000000000000000000000000000000000000000073ffffffffffffffffffffffffffffffffffffffff163373ffffffffffffffffffffffffffffffffffffffff161461070a576040517f9de9741800000000000000000000000000000000000000000000000000000000815260040160405180910390fd5b6000806000858581019061071e919061145a565b92509250925061072d82610a90565b15806107655750600073ffffffffffffffffffffffffffffffffffffffff168173ffffffffffffffffffffffffffffffffffffffff16145b806107705750600083145b156107a7576040517f48be0eb300000000000000000000000000000000000000000000000000000000815260040160405180910390fd5b82600080898152602001908152602001600020600101819055508160008089815260200190815260200160002060000160006101000a81548173ffffffffffffffffffffffffffffffffffffffff021916908373ffffffffffffffffffffffffffffffffffffffff1602179055508060008089815260200190815260200160002060020160006101000a81548173ffffffffffffffffffffffffffffffffffffffff021916908373ffffffffffffffffffffffffffffffffffffffff16021790555085858080601f016020809104026020016040519081016040528093929190818152602001838380828437600081840152601f19601f8201169050808301925050505050505093505050509392505050565b7f000000000000000000000000000000000000000000000000000000000000000081565b60008085858101906108f091906114ad565b91509150828114158061092f57508373ffffffffffffffffffffffffffffffffffffffff168273ffffffffffffffffffffffffffffffffffffffff1614155b15610966576040517f46308bd500000000000000000000000000000000000000000000000000000000815260040160405180910390fd5b505050505050565b6000807f000000000000000000000000000000000000000000000000000000000000000073ffffffffffffffffffffffffffffffffffffffff166398f965d16040518163ffffffff1660e01b81526004016040805180830381865afa1580156109db573d6000803e3d6000fd5b505050506040513d601f19601f820116820180604052508101906109ff9190611527565b915091509091565b610a8a846323b872dd60e01b858585604051602401610a2893929190611567565b604051602081830303815290604052907bffffffffffffffffffffffffffffffffffffffffffffffffffffffff19166020820180517bffffffffffffffffffffffffffffffffffffffffffffffffffffffff8381831617835250505050610b33565b50505050565b60007f000000000000000000000000000000000000000000000000000000000000000073ffffffffffffffffffffffffffffffffffffffff166343b938c5836040518263ffffffff1660e01b8152600401610aeb919061111b565b602060405180830381865afa158015610b08573d6000803e3d6000fd5b505050506040513d601f19601f82011682018060405250810190610b2c91906115ca565b9050919050565b6000610b95826040518060400160405280602081526020017f5361666545524332303a206c6f772d6c6576656c2063616c6c206661696c65648152508573ffffffffffffffffffffffffffffffffffffffff16610bfa9092919063ffffffff16565b9050600081511115610bf55780806020019051810190610bb591906115ca565b610bf4576040517f08c379a0000000000000000000000000000000000000000000000000000000008152600401610beb9061167a565b60405180910390fd5b5b505050565b6060610c098484600085610c12565b90509392505050565b606082471015610c57576040517f08c379a0000000000000000000000000000000000000000000000000000000008152600401610c4e9061170c565b60405180910390fd5b610c6085610d26565b610c9f576040517f08c379a0000000000000000000000000000000000000000000000000000000008152600401610c9690611778565b60405180910390fd5b6000808673ffffffffffffffffffffffffffffffffffffffff168587604051610cc891906117d4565b60006040518083038185875af1925050503d8060008114610d05576040519150601f19603f3d011682016040523d82523d6000602084013e610d0a565b606091505b5091509150610d1a828286610d49565b92505050949350505050565b6000808273ffffffffffffffffffffffffffffffffffffffff163b119050919050565b60608315610d5957829050610da9565b600083511115610d6c5782518084602001fd5b816040517f08c379a0000000000000000000000000000000000000000000000000000000008152600401610da0919061182f565b60405180910390fd5b9392505050565b6040518060600160405280600073ffffffffffffffffffffffffffffffffffffffff16815260200160008152602001600073ffffffffffffffffffffffffffffffffffffffff1681525090565b600080fd5b600080fd5b600073ffffffffffffffffffffffffffffffffffffffff82169050919050565b6000610e3282610e07565b9050919050565b610e4281610e27565b8114610e4d57600080fd5b50565b600081359050610e5f81610e39565b92915050565b6000819050919050565b610e7881610e65565b8114610e8357600080fd5b50565b600081359050610e9581610e6f565b92915050565b600080fd5b600080fd5b600080fd5b60008083601f840112610ec057610ebf610e9b565b5b8235905067ffffffffffffffff811115610edd57610edc610ea0565b5b602083019150836001820283011115610ef957610ef8610ea5565b5b9250929050565b60008060008060608587031215610f1a57610f19610dfd565b5b6000610f2887828801610e50565b9450506020610f3987828801610e86565b935050604085013567ffffffffffffffff811115610f5a57610f59610e02565b5b610f6687828801610eaa565b925092505092959194509250565b60008060008060808587031215610f8e57610f8d610dfd565b5b6000610f9c87828801610e86565b9450506020610fad87828801610e50565b9350506040610fbe87828801610e50565b9250506060610fcf87828801610e86565b91505092959194509250565b600080600060608486031215610ff457610ff3610dfd565b5b600061100286828701610e86565b935050602061101386828701610e50565b925050604061102486828701610e86565b9150509250925092565b60008115159050919050565b6110438161102e565b82525050565b600060208201905061105e600083018461103a565b92915050565b60006020828403121561107a57611079610dfd565b5b600061108884828501610e86565b91505092915050565b61109a81610e27565b82525050565b6110a981610e65565b82525050565b6060820160008201516110c56000850182611091565b5060208201516110d860208501826110a0565b5060408201516110eb6040850182611091565b50505050565b600060608201905061110660008301846110af565b92915050565b61111581610e27565b82525050565b6000602082019050611130600083018461110c565b92915050565b60008060006040848603121561114f5761114e610dfd565b5b600061115d86828701610e86565b935050602084013567ffffffffffffffff81111561117e5761117d610e02565b5b61118a86828701610eaa565b92509250509250925092565b600081519050919050565b600082825260208201905092915050565b60005b838110156111d05780820151818401526020810190506111b5565b838111156111df576000848401525b50505050565b6000601f19601f8301169050919050565b600061120182611196565b61120b81856111a1565b935061121b8185602086016111b2565b611224816111e5565b840191505092915050565b6000602082019050818103600083015261124981846111f6565b905092915050565b7f4e487b7100000000000000000000000000000000000000000000000000000000600052601160045260246000fd5b600061128b82610e65565b915061129683610e65565b9250817fffffffffffffffffffffffffffffffffffffffffffffffffffffffffffffffff04831182151516156112cf576112ce611251565b5b828202905092915050565b7f4e487b7100000000000000000000000000000000000000000000000000000000600052601260045260246000fd5b600061131482610e65565b915061131f83610e65565b92508261132f5761132e6112da565b5b828204905092915050565b600061134582610e65565b915061135083610e65565b92508282101561136357611362611251565b5b828203905092915050565b61137781610e65565b82525050565b6000602082019050611392600083018461136e565b92915050565b6000815190506113a781610e39565b92915050565b6000602082840312156113c3576113c2610dfd565b5b60006113d184828501611398565b91505092915050565b6000815190506113e981610e6f565b92915050565b60006020828403121561140557611404610dfd565b5b6000611413848285016113da565b91505092915050565b600061142782610e07565b9050919050565b6114378161141c565b811461144257600080fd5b50565b6000813590506114548161142e565b92915050565b60008060006060848603121561147357611472610dfd565b5b600061148186828701610e86565b935050602061149286828701611445565b92505060406114a386828701611445565b9150509250925092565b600080604083850312156114c4576114c3610dfd565b5b60006114d285828601611445565b92505060206114e385828601610e86565b9150509250929050565b600061ffff82169050919050565b611504816114ed565b811461150f57600080fd5b50565b600081519050611521816114fb565b92915050565b6000806040838503121561153e5761153d610dfd565b5b600061154c85828601611398565b925050602061155d85828601611512565b9150509250929050565b600060608201905061157c600083018661110c565b611589602083018561110c565b611596604083018461136e565b949350505050565b6115a78161102e565b81146115b257600080fd5b50565b6000815190506115c48161159e565b92915050565b6000602082840312156115e0576115df610dfd565b5b60006115ee848285016115b5565b91505092915050565b600082825260208201905092915050565b7f5361666545524332303a204552433230206f7065726174696f6e20646964206e60008201527f6f74207375636365656400000000000000000000000000000000000000000000602082015250565b6000611664602a836115f7565b915061166f82611608565b604082019050919050565b6000602082019050818103600083015261169381611657565b9050919050565b7f416464726573733a20696e73756666696369656e742062616c616e636520666f60008201527f722063616c6c0000000000000000000000000000000000000000000000000000602082015250565b60006116f66026836115f7565b91506117018261169a565b604082019050919050565b60006020820190508181036000830152611725816116e9565b9050919050565b7f416464726573733a2063616c6c20746f206e6f6e2d636f6e7472616374000000600082015250565b6000611762601d836115f7565b915061176d8261172c565b602082019050919050565b6000602082019050818103600083015261179181611755565b9050919050565b600081905092915050565b60006117ae82611196565b6117b88185611798565b93506117c88185602086016111b2565b80840191505092915050565b60006117e082846117a3565b915081905092915050565b600081519050919050565b6000611801826117eb565b61180b81856115f7565b935061181b8185602086016111b2565b611824816111e5565b840191505092915050565b6000602082019050818103600083015261184981846117f6565b90509291505056fea264697066735822122051a5c3e65ebf5b7e3d794c321694cd2a0de1623a07027b2ad2cbf1bffc65655664736f6c634300080a0033",
  "immutableReferences": {
    "7485": [
      {
        "length": 32,
        "start": 1633
      },
      {
        "length": 32,
        "start": 2419
      },
      {
        "length": 32,
        "start": 2708
      }
    ],
    "7695": [
      {
        "length": 32,
        "start": 392
      },
      {
        "length": 32,
        "start": 869
      },
      {
        "length": 32,
        "start": 1671
      },
      {
        "length": 32,
        "start": 2236
      }
    ]
  },
  "source": "// SPDX-License-Identifier: AGPL-3.0-only\n\npragma solidity 0.8.10;\n\nimport {IFollowModule} from '../../../interfaces/IFollowModule.sol';\nimport {ILensHub} from '../../../interfaces/ILensHub.sol';\nimport {Errors} from '../../../libraries/Errors.sol';\nimport {FeeModuleBase} from '../FeeModuleBase.sol';\nimport {ModuleBase} from '../ModuleBase.sol';\nimport {FollowValidatorFollowModuleBase} from './FollowValidatorFollowModuleBase.sol';\nimport {IERC20} from '@openzeppelin/contracts/token/ERC20/IERC20.sol';\nimport {SafeERC20} from '@openzeppelin/contracts/token/ERC20/utils/SafeERC20.sol';\nimport {IERC721} from '@openzeppelin/contracts/token/ERC721/IERC721.sol';\n\n/**\n * @notice A struct containing the necessary data to execute follow actions on a given profile.\n *\n * @param currency The currency associated with this profile.\n * @param amount The following cost associated with this profile.\n * @param recipient The recipient address associated with this profile.\n */\nstruct ProfileData {\n    address currency;\n    uint256 amount;\n    address recipient;\n}\n\n/**\n * @title FeeFollowModule\n * @author Lens Protocol\n *\n * @notice This is a simple Lens FollowModule implementation, inheriting from the IFollowModule interface, but with additional\n * variables that can be controlled by governance, such as the governance & treasury addresses as well as the treasury fee.\n */\ncontract FeeFollowModule is FeeModuleBase, FollowValidatorFollowModuleBase {\n    using SafeERC20 for IERC20;\n\n    mapping(uint256 => ProfileData) internal _dataByProfile;\n\n    constructor(address hub, address moduleGlobals) FeeModuleBase(moduleGlobals) ModuleBase(hub) {}\n\n    /**\n     * @notice This follow module levies a fee on follows.\n     *\n     * @param profileId The profile ID of the profile to initialize this module for.\n     * @param data The arbitrary data parameter, decoded into:\n     *      address currency: The currency address, must be internally whitelisted.\n     *      uint256 amount: The currency total amount to levy.\n     *      address recipient: The custom recipient address to direct earnings to.\n     *\n     * @return bytes An abi encoded bytes parameter, which is the same as the passed data parameter.\n     */\n    function initializeFollowModule(uint256 profileId, bytes calldata data)\n        external\n        override\n        onlyHub\n        returns (bytes memory)\n    {\n        (uint256 amount, address currency, address recipient) = abi.decode(\n            data,\n            (uint256, address, address)\n        );\n        if (!_currencyWhitelisted(currency) || recipient == address(0) || amount == 0)\n            revert Errors.InitParamsInvalid();\n\n        _dataByProfile[profileId].amount = amount;\n        _dataByProfile[profileId].currency = currency;\n        _dataByProfile[profileId].recipient = recipient;\n        return data;\n    }\n\n    /**\n     * @dev Processes a follow by:\n     *  1. Charging a fee\n     */\n    function processFollow(\n        address follower,\n        uint256 profileId,\n        bytes calldata data\n    ) external override onlyHub {\n        uint256 amount = _dataByProfile[profileId].amount;\n        address currency = _dataByProfile[profileId].currency;\n        _validateDataIsExpected(data, currency, amount);\n\n        (address treasury, uint16 treasuryFee) = _treasuryData();\n        address recipient = _dataByProfile[profileId].recipient;\n        uint256 treasuryAmount = (amount * treasuryFee) / BPS_MAX;\n        uint256 adjustedAmount = amount - treasuryAmount;\n\n        IERC20(currency).safeTransferFrom(follower, recipient, adjustedAmount);\n        if (treasuryAmount > 0)\n            IERC20(currency).safeTransferFrom(follower, treasury, treasuryAmount);\n    }\n\n    /**\n     * @dev We don't need to execute any additional logic on transfers in this follow module.\n     */\n    function followModuleTransferHook(\n        uint256 profileId,\n        address from,\n        address to,\n        uint256 followNFTTokenId\n    ) external override {}\n\n    /**\n     * @notice Returns the profile data for a given profile, or an empty struct if that profile was not initialized\n     * with this module.\n     *\n     * @param profileId The token ID of the profile to query.\n     *\n     * @return ProfileData The ProfileData struct mapped to that profile.\n     */\n    function getProfileData(uint256 profileId) external view returns (ProfileData memory) {\n        return _dataByProfile[profileId];\n    }\n}\n",
  "sourcePath": "/Users/korbinianabstreiter/crytoprojects/primetime/contracts/core/modules/follow/FeeFollowModule.sol",
  "compiler": {
    "name": "solc",
    "version": "0.8.10+commit.fc410830.Emscripten.clang"
  },
  "schemaVersion": "3.4.5",
  "updatedAt": "2022-04-22T14:49:53.855Z",
  "devdoc": {
    "author": "Lens Protocol",
    "kind": "dev",
    "methods": {
      "followModuleTransferHook(uint256,address,address,uint256)": {
        "details": "We don't need to execute any additional logic on transfers in this follow module."
      },
      "getProfileData(uint256)": {
        "params": {
          "profileId": "The token ID of the profile to query."
        },
        "returns": {
          "_0": "ProfileData The ProfileData struct mapped to that profile."
        }
      },
      "initializeFollowModule(uint256,bytes)": {
        "params": {
          "data": "The arbitrary data parameter, decoded into:      address currency: The currency address, must be internally whitelisted.      uint256 amount: The currency total amount to levy.      address recipient: The custom recipient address to direct earnings to.",
          "profileId": "The profile ID of the profile to initialize this module for."
        },
        "returns": {
          "_0": "bytes An abi encoded bytes parameter, which is the same as the passed data parameter."
        }
      },
      "processFollow(address,uint256,bytes)": {
        "details": "Processes a follow by:  1. Charging a fee"
      }
    },
    "title": "FeeFollowModule",
    "version": 1
  },
  "userdoc": {
    "kind": "user",
    "methods": {
      "getProfileData(uint256)": {
        "notice": "Returns the profile data for a given profile, or an empty struct if that profile was not initialized with this module."
      },
      "initializeFollowModule(uint256,bytes)": {
        "notice": "This follow module levies a fee on follows."
      },
      "isFollowing(uint256,address,uint256)": {
        "notice": "Standard function to validate follow NFT ownership. This module is agnostic to follow NFT token IDs and other properties."
      }
    },
    "notice": "This is a simple Lens FollowModule implementation, inheriting from the IFollowModule interface, but with additional variables that can be controlled by governance, such as the governance & treasury addresses as well as the treasury fee.",
    "version": 1
  }
}