{
  "contractName": "FollowNFT",
  "abi": [
    {
      "inputs": [
        {
          "internalType": "address",
          "name": "hub",
          "type": "address"
        }
      ],
      "stateMutability": "nonpayable",
      "type": "constructor"
    },
    {
      "inputs": [],
      "name": "BlockNumberInvalid",
      "type": "error"
    },
    {
      "inputs": [],
      "name": "InitParamsInvalid",
      "type": "error"
    },
    {
      "inputs": [],
      "name": "Initialized",
      "type": "error"
    },
    {
      "inputs": [],
      "name": "NotHub",
      "type": "error"
    },
    {
      "inputs": [],
      "name": "NotOwnerOrApproved",
      "type": "error"
    },
    {
      "inputs": [],
      "name": "SignatureExpired",
      "type": "error"
    },
    {
      "inputs": [],
      "name": "SignatureInvalid",
      "type": "error"
    },
    {
      "inputs": [],
      "name": "TokenDoesNotExist",
      "type": "error"
    },
    {
      "inputs": [],
      "name": "ZeroSpender",
      "type": "error"
    },
    {
      "anonymous": false,
      "inputs": [
        {
          "indexed": true,
          "internalType": "address",
          "name": "owner",
          "type": "address"
        },
        {
          "indexed": true,
          "internalType": "address",
          "name": "approved",
          "type": "address"
        },
        {
          "indexed": true,
          "internalType": "uint256",
          "name": "tokenId",
          "type": "uint256"
        }
      ],
      "name": "Approval",
      "type": "event"
    },
    {
      "anonymous": false,
      "inputs": [
        {
          "indexed": true,
          "internalType": "address",
          "name": "owner",
          "type": "address"
        },
        {
          "indexed": true,
          "internalType": "address",
          "name": "operator",
          "type": "address"
        },
        {
          "indexed": false,
          "internalType": "bool",
          "name": "approved",
          "type": "bool"
        }
      ],
      "name": "ApprovalForAll",
      "type": "event"
    },
    {
      "anonymous": false,
      "inputs": [
        {
          "indexed": true,
          "internalType": "address",
          "name": "from",
          "type": "address"
        },
        {
          "indexed": true,
          "internalType": "address",
          "name": "to",
          "type": "address"
        },
        {
          "indexed": true,
          "internalType": "uint256",
          "name": "tokenId",
          "type": "uint256"
        }
      ],
      "name": "Transfer",
      "type": "event"
    },
    {
      "inputs": [],
      "name": "HUB",
      "outputs": [
        {
          "internalType": "address",
          "name": "",
          "type": "address"
        }
      ],
      "stateMutability": "view",
      "type": "function"
    },
    {
      "inputs": [
        {
          "internalType": "address",
          "name": "to",
          "type": "address"
        },
        {
          "internalType": "uint256",
          "name": "tokenId",
          "type": "uint256"
        }
      ],
      "name": "approve",
      "outputs": [],
      "stateMutability": "nonpayable",
      "type": "function"
    },
    {
      "inputs": [
        {
          "internalType": "address",
          "name": "owner",
          "type": "address"
        }
      ],
      "name": "balanceOf",
      "outputs": [
        {
          "internalType": "uint256",
          "name": "",
          "type": "uint256"
        }
      ],
      "stateMutability": "view",
      "type": "function"
    },
    {
      "inputs": [
        {
          "internalType": "uint256",
          "name": "tokenId",
          "type": "uint256"
        }
      ],
      "name": "burn",
      "outputs": [],
      "stateMutability": "nonpayable",
      "type": "function"
    },
    {
      "inputs": [
        {
          "internalType": "uint256",
          "name": "tokenId",
          "type": "uint256"
        },
        {
          "components": [
            {
              "internalType": "uint8",
              "name": "v",
              "type": "uint8"
            },
            {
              "internalType": "bytes32",
              "name": "r",
              "type": "bytes32"
            },
            {
              "internalType": "bytes32",
              "name": "s",
              "type": "bytes32"
            },
            {
              "internalType": "uint256",
              "name": "deadline",
              "type": "uint256"
            }
          ],
          "internalType": "struct DataTypes.EIP712Signature",
          "name": "sig",
          "type": "tuple"
        }
      ],
      "name": "burnWithSig",
      "outputs": [],
      "stateMutability": "nonpayable",
      "type": "function"
    },
    {
      "inputs": [
        {
          "internalType": "uint256",
          "name": "tokenId",
          "type": "uint256"
        }
      ],
      "name": "exists",
      "outputs": [
        {
          "internalType": "bool",
          "name": "",
          "type": "bool"
        }
      ],
      "stateMutability": "view",
      "type": "function"
    },
    {
      "inputs": [
        {
          "internalType": "uint256",
          "name": "tokenId",
          "type": "uint256"
        }
      ],
      "name": "getApproved",
      "outputs": [
        {
          "internalType": "address",
          "name": "",
          "type": "address"
        }
      ],
      "stateMutability": "view",
      "type": "function"
    },
    {
      "inputs": [],
      "name": "getDomainSeparator",
      "outputs": [
        {
          "internalType": "bytes32",
          "name": "",
          "type": "bytes32"
        }
      ],
      "stateMutability": "view",
      "type": "function"
    },
    {
      "inputs": [
        {
          "internalType": "address",
          "name": "owner",
          "type": "address"
        },
        {
          "internalType": "address",
          "name": "operator",
          "type": "address"
        }
      ],
      "name": "isApprovedForAll",
      "outputs": [
        {
          "internalType": "bool",
          "name": "",
          "type": "bool"
        }
      ],
      "stateMutability": "view",
      "type": "function"
    },
    {
      "inputs": [
        {
          "internalType": "uint256",
          "name": "tokenId",
          "type": "uint256"
        }
      ],
      "name": "mintTimestampOf",
      "outputs": [
        {
          "internalType": "uint256",
          "name": "",
          "type": "uint256"
        }
      ],
      "stateMutability": "view",
      "type": "function"
    },
    {
      "inputs": [
        {
          "internalType": "uint256",
          "name": "tokenId",
          "type": "uint256"
        }
      ],
      "name": "ownerOf",
      "outputs": [
        {
          "internalType": "address",
          "name": "",
          "type": "address"
        }
      ],
      "stateMutability": "view",
      "type": "function"
    },
    {
      "inputs": [
        {
          "internalType": "address",
          "name": "spender",
          "type": "address"
        },
        {
          "internalType": "uint256",
          "name": "tokenId",
          "type": "uint256"
        },
        {
          "components": [
            {
              "internalType": "uint8",
              "name": "v",
              "type": "uint8"
            },
            {
              "internalType": "bytes32",
              "name": "r",
              "type": "bytes32"
            },
            {
              "internalType": "bytes32",
              "name": "s",
              "type": "bytes32"
            },
            {
              "internalType": "uint256",
              "name": "deadline",
              "type": "uint256"
            }
          ],
          "internalType": "struct DataTypes.EIP712Signature",
          "name": "sig",
          "type": "tuple"
        }
      ],
      "name": "permit",
      "outputs": [],
      "stateMutability": "nonpayable",
      "type": "function"
    },
    {
      "inputs": [
        {
          "internalType": "address",
          "name": "owner",
          "type": "address"
        },
        {
          "internalType": "address",
          "name": "operator",
          "type": "address"
        },
        {
          "internalType": "bool",
          "name": "approved",
          "type": "bool"
        },
        {
          "components": [
            {
              "internalType": "uint8",
              "name": "v",
              "type": "uint8"
            },
            {
              "internalType": "bytes32",
              "name": "r",
              "type": "bytes32"
            },
            {
              "internalType": "bytes32",
              "name": "s",
              "type": "bytes32"
            },
            {
              "internalType": "uint256",
              "name": "deadline",
              "type": "uint256"
            }
          ],
          "internalType": "struct DataTypes.EIP712Signature",
          "name": "sig",
          "type": "tuple"
        }
      ],
      "name": "permitForAll",
      "outputs": [],
      "stateMutability": "nonpayable",
      "type": "function"
    },
    {
      "inputs": [
        {
          "internalType": "address",
          "name": "from",
          "type": "address"
        },
        {
          "internalType": "address",
          "name": "to",
          "type": "address"
        },
        {
          "internalType": "uint256",
          "name": "tokenId",
          "type": "uint256"
        }
      ],
      "name": "safeTransferFrom",
      "outputs": [],
      "stateMutability": "nonpayable",
      "type": "function"
    },
    {
      "inputs": [
        {
          "internalType": "address",
          "name": "from",
          "type": "address"
        },
        {
          "internalType": "address",
          "name": "to",
          "type": "address"
        },
        {
          "internalType": "uint256",
          "name": "tokenId",
          "type": "uint256"
        },
        {
          "internalType": "bytes",
          "name": "_data",
          "type": "bytes"
        }
      ],
      "name": "safeTransferFrom",
      "outputs": [],
      "stateMutability": "nonpayable",
      "type": "function"
    },
    {
      "inputs": [
        {
          "internalType": "address",
          "name": "operator",
          "type": "address"
        },
        {
          "internalType": "bool",
          "name": "approved",
          "type": "bool"
        }
      ],
      "name": "setApprovalForAll",
      "outputs": [],
      "stateMutability": "nonpayable",
      "type": "function"
    },
    {
      "inputs": [
        {
          "internalType": "address",
          "name": "",
          "type": "address"
        }
      ],
      "name": "sigNonces",
      "outputs": [
        {
          "internalType": "uint256",
          "name": "",
          "type": "uint256"
        }
      ],
      "stateMutability": "view",
      "type": "function"
    },
    {
      "inputs": [
        {
          "internalType": "bytes4",
          "name": "interfaceId",
          "type": "bytes4"
        }
      ],
      "name": "supportsInterface",
      "outputs": [
        {
          "internalType": "bool",
          "name": "",
          "type": "bool"
        }
      ],
      "stateMutability": "view",
      "type": "function"
    },
    {
      "inputs": [
        {
          "internalType": "uint256",
          "name": "index",
          "type": "uint256"
        }
      ],
      "name": "tokenByIndex",
      "outputs": [
        {
          "internalType": "uint256",
          "name": "",
          "type": "uint256"
        }
      ],
      "stateMutability": "view",
      "type": "function"
    },
    {
      "inputs": [
        {
          "internalType": "uint256",
          "name": "tokenId",
          "type": "uint256"
        }
      ],
      "name": "tokenDataOf",
      "outputs": [
        {
          "components": [
            {
              "internalType": "address",
              "name": "owner",
              "type": "address"
            },
            {
              "internalType": "uint96",
              "name": "mintTimestamp",
              "type": "uint96"
            }
          ],
          "internalType": "struct IERC721Time.TokenData",
          "name": "",
          "type": "tuple"
        }
      ],
      "stateMutability": "view",
      "type": "function"
    },
    {
      "inputs": [
        {
          "internalType": "address",
          "name": "owner",
          "type": "address"
        },
        {
          "internalType": "uint256",
          "name": "index",
          "type": "uint256"
        }
      ],
      "name": "tokenOfOwnerByIndex",
      "outputs": [
        {
          "internalType": "uint256",
          "name": "",
          "type": "uint256"
        }
      ],
      "stateMutability": "view",
      "type": "function"
    },
    {
      "inputs": [],
      "name": "totalSupply",
      "outputs": [
        {
          "internalType": "uint256",
          "name": "",
          "type": "uint256"
        }
      ],
      "stateMutability": "view",
      "type": "function"
    },
    {
      "inputs": [
        {
          "internalType": "address",
          "name": "from",
          "type": "address"
        },
        {
          "internalType": "address",
          "name": "to",
          "type": "address"
        },
        {
          "internalType": "uint256",
          "name": "tokenId",
          "type": "uint256"
        }
      ],
      "name": "transferFrom",
      "outputs": [],
      "stateMutability": "nonpayable",
      "type": "function"
    },
    {
      "inputs": [
        {
          "internalType": "uint256",
          "name": "profileId",
          "type": "uint256"
        }
      ],
      "name": "initialize",
      "outputs": [],
      "stateMutability": "nonpayable",
      "type": "function"
    },
    {
      "inputs": [
        {
          "internalType": "address",
          "name": "to",
          "type": "address"
        }
      ],
      "name": "mint",
      "outputs": [
        {
          "internalType": "uint256",
          "name": "",
          "type": "uint256"
        }
      ],
      "stateMutability": "nonpayable",
      "type": "function"
    },
    {
      "inputs": [
        {
          "internalType": "address",
          "name": "delegatee",
          "type": "address"
        }
      ],
      "name": "delegate",
      "outputs": [],
      "stateMutability": "nonpayable",
      "type": "function"
    },
    {
      "inputs": [
        {
          "internalType": "address",
          "name": "delegator",
          "type": "address"
        },
        {
          "internalType": "address",
          "name": "delegatee",
          "type": "address"
        },
        {
          "components": [
            {
              "internalType": "uint8",
              "name": "v",
              "type": "uint8"
            },
            {
              "internalType": "bytes32",
              "name": "r",
              "type": "bytes32"
            },
            {
              "internalType": "bytes32",
              "name": "s",
              "type": "bytes32"
            },
            {
              "internalType": "uint256",
              "name": "deadline",
              "type": "uint256"
            }
          ],
          "internalType": "struct DataTypes.EIP712Signature",
          "name": "sig",
          "type": "tuple"
        }
      ],
      "name": "delegateBySig",
      "outputs": [],
      "stateMutability": "nonpayable",
      "type": "function"
    },
    {
      "inputs": [
        {
          "internalType": "address",
          "name": "user",
          "type": "address"
        },
        {
          "internalType": "uint256",
          "name": "blockNumber",
          "type": "uint256"
        }
      ],
      "name": "getPowerByBlockNumber",
      "outputs": [
        {
          "internalType": "uint256",
          "name": "",
          "type": "uint256"
        }
      ],
      "stateMutability": "view",
      "type": "function"
    },
    {
      "inputs": [
        {
          "internalType": "uint256",
          "name": "blockNumber",
          "type": "uint256"
        }
      ],
      "name": "getDelegatedSupplyByBlockNumber",
      "outputs": [
        {
          "internalType": "uint256",
          "name": "",
          "type": "uint256"
        }
      ],
      "stateMutability": "view",
      "type": "function"
    },
    {
      "inputs": [],
      "name": "name",
      "outputs": [
        {
          "internalType": "string",
          "name": "",
          "type": "string"
        }
      ],
      "stateMutability": "view",
      "type": "function"
    },
    {
      "inputs": [],
      "name": "symbol",
      "outputs": [
        {
          "internalType": "string",
          "name": "",
          "type": "string"
        }
      ],
      "stateMutability": "view",
      "type": "function"
    },
    {
      "inputs": [
        {
          "internalType": "uint256",
          "name": "tokenId",
          "type": "uint256"
        }
      ],
      "name": "tokenURI",
      "outputs": [
        {
          "internalType": "string",
          "name": "",
          "type": "string"
        }
      ],
      "stateMutability": "view",
      "type": "function"
    }
  ],
  "bytecode": "0x60a06040523480156200001157600080fd5b50604051620055093803806200550983398181016040528101906200003791906200015f565b600073ffffffffffffffffffffffffffffffffffffffff168173ffffffffffffffffffffffffffffffffffffffff1614156200009f576040517f48be0eb300000000000000000000000000000000000000000000000000000000815260040160405180910390fd5b8073ffffffffffffffffffffffffffffffffffffffff1660808173ffffffffffffffffffffffffffffffffffffffff16815250506001601260006101000a81548160ff0219169083151502179055505062000191565b600080fd5b600073ffffffffffffffffffffffffffffffffffffffff82169050919050565b60006200012782620000fa565b9050919050565b62000139816200011a565b81146200014557600080fd5b50565b60008151905062000159816200012e565b92915050565b600060208284031215620001785762000177620000f5565b5b6000620001888482850162000148565b91505092915050565b608051615332620001d76000396000818161072b01528181610e1001528181611244015281816113df015281816115af01528181612a150152612aca01526153326000f3fe608060405234801561001057600080fd5b50600436106101f05760003560e01c806370a082311161010f578063c0da9bcd116100a2578063e985e9c511610071578063e985e9c514610611578063ed24911d14610641578063f990ccd71461065f578063fe4b84df1461068f576101f0565b8063c0da9bcd14610579578063c87b56dd146105a9578063dd69cdb1146105d9578063df8d8071146105f5576101f0565b806395d89b41116100de57806395d89b4114610505578063a22cb46514610523578063a4c52b861461053f578063b88d4fde1461055d576101f0565b806370a082311461046d5780637ef67f991461049d57806389028a13146104b95780638fca0d41146104d5576101f0565b806342842e0e1161018757806350ddf35c1161015657806350ddf35c146103c15780635c19a95c146103f15780636352211e1461040d5780636a6278421461043d576101f0565b806342842e0e1461032957806342966c68146103455780634f558e79146103615780634f6ccce714610391576101f0565b806318160ddd116101c357806318160ddd1461028f57806323b872dd146102ad5780632c994dc8146102c95780632f745c59146102f9576101f0565b806301ffc9a7146101f557806306fdde0314610225578063081812fc14610243578063095ea7b314610273575b600080fd5b61020f600480360381019061020a9190613a22565b6106ab565b60405161021c9190613a6a565b60405180910390f35b61022d610725565b60405161023a9190613b1e565b60405180910390f35b61025d60048036038101906102589190613b76565b610829565b60405161026a9190613be4565b60405180910390f35b61028d60048036038101906102889190613c2b565b6108ae565b005b6102976109c6565b6040516102a49190613c7a565b60405180910390f35b6102c760048036038101906102c29190613c95565b6109d3565b005b6102e360048036038101906102de9190613c2b565b610a33565b6040516102f09190613c7a565b60405180910390f35b610313600480360381019061030e9190613c2b565b610b19565b6040516103209190613c7a565b60405180910390f35b610343600480360381019061033e9190613c95565b610bbe565b005b61035f600480360381019061035a9190613b76565b610bde565b005b61037b60048036038101906103769190613b76565b610c2a565b6040516103889190613a6a565b60405180910390f35b6103ab60048036038101906103a69190613b76565b610c3c565b6040516103b89190613c7a565b60405180910390f35b6103db60048036038101906103d69190613b76565b610cad565b6040516103e89190613c7a565b60405180910390f35b61040b60048036038101906104069190613ce8565b610d4a565b005b61042760048036038101906104229190613b76565b610d57565b6040516104349190613be4565b60405180910390f35b61045760048036038101906104529190613ce8565b610e0c565b6040516104649190613c7a565b60405180910390f35b61048760048036038101906104829190613ce8565b610eb9565b6040516104949190613c7a565b60405180910390f35b6104b760048036038101906104b29190613d39565b610f71565b005b6104d360048036038101906104ce9190613db8565b6110a7565b005b6104ef60048036038101906104ea9190613b76565b6111d3565b6040516104fc9190613c7a565b60405180910390f35b61050d61123e565b60405161051a9190613b1e565b60405180910390f35b61053d60048036038101906105389190613e1f565b611351565b005b6105476113dd565b6040516105549190613be4565b60405180910390f35b61057760048036038101906105729190613f94565b611401565b005b610593600480360381019061058e9190613b76565b611463565b6040516105a0919061407c565b60405180910390f35b6105c360048036038101906105be9190613b76565b61156c565b6040516105d09190613b1e565b60405180910390f35b6105f360048036038101906105ee9190614097565b611655565b005b61060f600480360381019061060a91906140d7565b611720565b005b61062b6004803603810190610626919061412a565b6117e1565b6040516106389190613a6a565b60405180910390f35b610649611875565b6040516106569190614183565b60405180910390f35b61067960048036038101906106749190613ce8565b611884565b6040516106869190613c7a565b60405180910390f35b6106a960048036038101906106a49190613b76565b61189c565b005b60007f780e9d63000000000000000000000000000000000000000000000000000000007bffffffffffffffffffffffffffffffffffffffffffffffffffffffff1916827bffffffffffffffffffffffffffffffffffffffffffffffffffffffff1916148061071e575061071d82611940565b5b9050919050565b606060007f000000000000000000000000000000000000000000000000000000000000000073ffffffffffffffffffffffffffffffffffffffff1663ec81d1946010546040518263ffffffff1660e01b81526004016107849190613c7a565b600060405180830381865afa1580156107a1573d6000803e3d6000fd5b505050506040513d6000823e3d601f19601f820116820180604052508101906107ca919061423f565b9050806040518060400160405280600981526020017f2d466f6c6c6f77657200000000000000000000000000000000000000000000008152506040516020016108149291906142c4565b60405160208183030381529060405291505090565b600061083482611a22565b610873576040517f08c379a000000000000000000000000000000000000000000000000000000000815260040161086a9061435a565b60405180910390fd5b6004600083815260200190815260200160002060009054906101000a900473ffffffffffffffffffffffffffffffffffffffff169050919050565b60006108b982610d57565b90508073ffffffffffffffffffffffffffffffffffffffff168373ffffffffffffffffffffffffffffffffffffffff16141561092a576040517f08c379a0000000000000000000000000000000000000000000000000000000008152600401610921906143ec565b60405180910390fd5b8073ffffffffffffffffffffffffffffffffffffffff16610949611a91565b73ffffffffffffffffffffffffffffffffffffffff161480610978575061097781610972611a91565b6117e1565b5b6109b7576040517f08c379a00000000000000000000000000000000000000000000000000000000081526004016109ae9061447e565b60405180910390fd5b6109c18383611a99565b505050565b6000600880549050905090565b6109e46109de611a91565b82611b52565b610a23576040517f08c379a0000000000000000000000000000000000000000000000000000000008152600401610a1a90614510565b60405180910390fd5b610a2e838383611c30565b505050565b600043821115610a6f576040517f2b23a7c000000000000000000000000000000000000000000000000000000000815260040160405180910390fd5b6000600d60008573ffffffffffffffffffffffffffffffffffffffff1673ffffffffffffffffffffffffffffffffffffffff1681526020019081526020016000205490506000811415610ac6576000915050610b13565b610b0f600b60008673ffffffffffffffffffffffffffffffffffffffff1673ffffffffffffffffffffffffffffffffffffffff1681526020019081526020016000208483611e8f565b9150505b92915050565b6000610b2483610eb9565b8210610b65576040517f08c379a0000000000000000000000000000000000000000000000000000000008152600401610b5c906145a2565b60405180910390fd5b600660008473ffffffffffffffffffffffffffffffffffffffff1673ffffffffffffffffffffffffffffffffffffffff168152602001908152602001600020600083815260200190815260200160002054905092915050565b610bd983838360405180602001604052806000815250611401565b505050565b610be83382611b52565b610c1e576040517fdb1453ce00000000000000000000000000000000000000000000000000000000815260040160405180910390fd5b610c2781612127565b50565b6000610c3582611a22565b9050919050565b6000610c466109c6565b8210610c87576040517f08c379a0000000000000000000000000000000000000000000000000000000008152600401610c7e90614634565b60405180910390fd5b60088281548110610c9b57610c9a614654565b5b90600052602060002001549050919050565b6000806002600084815260200190815260200160002060000160149054906101000a90046bffffffffffffffffffffffff1690506000816bffffffffffffffffffffffff161415610d33576040517f08c379a0000000000000000000000000000000000000000000000000000000008152600401610d2a906146f5565b60405180910390fd5b806bffffffffffffffffffffffff16915050919050565b610d54338261225e565b50565b6000806002600084815260200190815260200160002060000160009054906101000a900473ffffffffffffffffffffffffffffffffffffffff169050600073ffffffffffffffffffffffffffffffffffffffff168173ffffffffffffffffffffffffffffffffffffffff161415610e03576040517f08c379a0000000000000000000000000000000000000000000000000000000008152600401610dfa90614787565b60405180910390fd5b80915050919050565b60007f000000000000000000000000000000000000000000000000000000000000000073ffffffffffffffffffffffffffffffffffffffff163373ffffffffffffffffffffffffffffffffffffffff1614610e93576040517f9de9741800000000000000000000000000000000000000000000000000000000815260040160405180910390fd5b60006011600081546001019190508190559050610eb0838261235e565b80915050919050565b60008073ffffffffffffffffffffffffffffffffffffffff168273ffffffffffffffffffffffffffffffffffffffff161415610f2a576040517f08c379a0000000000000000000000000000000000000000000000000000000008152600401610f2190614819565b60405180910390fd5b600360008373ffffffffffffffffffffffffffffffffffffffff1673ffffffffffffffffffffffffffffffffffffffff168152602001908152602001600020549050919050565b600073ffffffffffffffffffffffffffffffffffffffff168373ffffffffffffffffffffffffffffffffffffffff161415610fd8576040517f1fac5b7400000000000000000000000000000000000000000000000000000000815260040160405180910390fd5b6000610fe383610d57565b90506110976110907f49ecf333e5b8c95c40fdafc95c1ad136e8914a8fb55e9dc8bb01eaa83a2df9ad8686600a60008773ffffffffffffffffffffffffffffffffffffffff1673ffffffffffffffffffffffffffffffffffffffff1681526020019081526020016000206000815480929190600101919050558760600135604051602001611075959493929190614839565b60405160208183030381529060405280519060200120612574565b82846125b2565b6110a18484611a99565b50505050565b600073ffffffffffffffffffffffffffffffffffffffff168373ffffffffffffffffffffffffffffffffffffffff16141561110e576040517f1fac5b7400000000000000000000000000000000000000000000000000000000815260040160405180910390fd5b6111c26111bb7f47ab88482c90e4bb94b82a947ae78fa91fb25de1469ab491f4c15b9a0a2677ee868686600a60008b73ffffffffffffffffffffffffffffffffffffffff1673ffffffffffffffffffffffffffffffffffffffff16815260200190815260200160002060008154809291906001019190505587606001356040516020016111a09695949392919061488c565b60405160208183030381529060405280519060200120612574565b85836125b2565b6111cd848484612701565b50505050565b60004382111561120f576040517f2b23a7c000000000000000000000000000000000000000000000000000000000815260040160405180910390fd5b6000600f5490506000811415611229576000915050611239565b611235600e8483611e8f565b9150505b919050565b606060007f000000000000000000000000000000000000000000000000000000000000000073ffffffffffffffffffffffffffffffffffffffff1663ec81d1946010546040518263ffffffff1660e01b815260040161129d9190613c7a565b600060405180830381865afa1580156112ba573d6000803e3d6000fd5b505050506040513d6000823e3d601f19601f820116820180604052508101906112e3919061423f565b90506000816112f19061492a565b9050806040518060400160405280600381526020017f2d466c000000000000000000000000000000000000000000000000000000000081525060405160200161133b9291906149b2565b6040516020818303038152906040529250505090565b611359611a91565b73ffffffffffffffffffffffffffffffffffffffff168273ffffffffffffffffffffffffffffffffffffffff1614156113c7576040517f08c379a00000000000000000000000000000000000000000000000000000000081526004016113be90614a26565b60405180910390fd5b6113d96113d2611a91565b8383612701565b5050565b7f000000000000000000000000000000000000000000000000000000000000000081565b61141261140c611a91565b83611b52565b611451576040517f08c379a000000000000000000000000000000000000000000000000000000000815260040161144890614510565b60405180910390fd5b61145d848484846127ff565b50505050565b61146b613978565b61147482611a22565b6114b3576040517f08c379a00000000000000000000000000000000000000000000000000000000081526004016114aa90614ab8565b60405180910390fd5b600260008381526020019081526020016000206040518060400160405290816000820160009054906101000a900473ffffffffffffffffffffffffffffffffffffffff1673ffffffffffffffffffffffffffffffffffffffff1673ffffffffffffffffffffffffffffffffffffffff1681526020016000820160149054906101000a90046bffffffffffffffffffffffff166bffffffffffffffffffffffff166bffffffffffffffffffffffff16815250509050919050565b606061157782611a22565b6115ad576040517fceea21b600000000000000000000000000000000000000000000000000000000815260040160405180910390fd5b7f000000000000000000000000000000000000000000000000000000000000000073ffffffffffffffffffffffffffffffffffffffff1663374c94736010546040518263ffffffff1660e01b81526004016116089190613c7a565b600060405180830381865afa158015611625573d6000803e3d6000fd5b505050506040513d6000823e3d601f19601f8201168201806040525081019061164e919061423f565b9050919050565b600061166083610d57565b905061171261170b7f108ccda6d7331b00561a3eea66a2ae331622356585681c62731e4a01aae2261a85600a60008673ffffffffffffffffffffffffffffffffffffffff1673ffffffffffffffffffffffffffffffffffffffff16815260200190815260200160002060008154809291906001019190505586606001356040516020016116f09493929190614ad8565b60405160208183030381529060405280519060200120612574565b82846125b2565b61171b83612127565b505050565b6117d26117cb7fb8f190a57772800093f4e2b186099eb4f1df0ed7f5e2791e89a4a07678e0aeff8585600a60008973ffffffffffffffffffffffffffffffffffffffff1673ffffffffffffffffffffffffffffffffffffffff16815260200190815260200160002060008154809291906001019190505586606001356040516020016117b0959493929190614b1d565b60405160208183030381529060405280519060200120612574565b84836125b2565b6117dc838361225e565b505050565b6000600560008473ffffffffffffffffffffffffffffffffffffffff1673ffffffffffffffffffffffffffffffffffffffff16815260200190815260200160002060008373ffffffffffffffffffffffffffffffffffffffff1673ffffffffffffffffffffffffffffffffffffffff16815260200190815260200160002060009054906101000a900460ff16905092915050565b600061187f61285b565b905090565b600a6020528060005260406000206000915090505481565b601260009054906101000a900460ff16156118e3576040517f5daa87a000000000000000000000000000000000000000000000000000000000815260040160405180910390fd5b6001601260006101000a81548160ff02191690831515021790555080601081905550807faec15127df11a6b562c87d31bcb8f4cd2f0cf57fb9b663d6334abf41fea94d95426040516119359190613c7a565b60405180910390a250565b60007f80ac58cd000000000000000000000000000000000000000000000000000000007bffffffffffffffffffffffffffffffffffffffffffffffffffffffff1916827bffffffffffffffffffffffffffffffffffffffffffffffffffffffff19161480611a0b57507f5b5e139f000000000000000000000000000000000000000000000000000000007bffffffffffffffffffffffffffffffffffffffffffffffffffffffff1916827bffffffffffffffffffffffffffffffffffffffffffffffffffffffff1916145b80611a1b5750611a1a826128df565b5b9050919050565b60008073ffffffffffffffffffffffffffffffffffffffff166002600084815260200190815260200160002060000160009054906101000a900473ffffffffffffffffffffffffffffffffffffffff1673ffffffffffffffffffffffffffffffffffffffff1614159050919050565b600033905090565b816004600083815260200190815260200160002060006101000a81548173ffffffffffffffffffffffffffffffffffffffff021916908373ffffffffffffffffffffffffffffffffffffffff160217905550808273ffffffffffffffffffffffffffffffffffffffff16611b0c83610d57565b73ffffffffffffffffffffffffffffffffffffffff167f8c5be1e5ebec7d5bd14f71427d1e84f3dd0314c0f7b2291e5b200ac8c7c3b92560405160405180910390a45050565b6000611b5d82611a22565b611b9c576040517f08c379a0000000000000000000000000000000000000000000000000000000008152600401611b9390614be2565b60405180910390fd5b6000611ba783610d57565b90508073ffffffffffffffffffffffffffffffffffffffff168473ffffffffffffffffffffffffffffffffffffffff161480611c1657508373ffffffffffffffffffffffffffffffffffffffff16611bfe84610829565b73ffffffffffffffffffffffffffffffffffffffff16145b80611c275750611c2681856117e1565b5b91505092915050565b8273ffffffffffffffffffffffffffffffffffffffff16611c5082610d57565b73ffffffffffffffffffffffffffffffffffffffff1614611ca6576040517f08c379a0000000000000000000000000000000000000000000000000000000008152600401611c9d90614c74565b60405180910390fd5b600073ffffffffffffffffffffffffffffffffffffffff168273ffffffffffffffffffffffffffffffffffffffff161415611d16576040517f08c379a0000000000000000000000000000000000000000000000000000000008152600401611d0d90614d06565b60405180910390fd5b611d21838383612949565b611d2c600082611a99565b6001600360008573ffffffffffffffffffffffffffffffffffffffff1673ffffffffffffffffffffffffffffffffffffffff1681526020019081526020016000206000828254611d7c9190614d55565b925050819055506001600360008473ffffffffffffffffffffffffffffffffffffffff1673ffffffffffffffffffffffffffffffffffffffff1681526020019081526020016000206000828254611dd39190614d89565b92505081905550816002600083815260200190815260200160002060000160006101000a81548173ffffffffffffffffffffffffffffffffffffffff021916908373ffffffffffffffffffffffffffffffffffffffff160217905550808273ffffffffffffffffffffffffffffffffffffffff168473ffffffffffffffffffffffffffffffffffffffff167fddf252ad1be2c89b69c2b068fc378daa952ba7f163c4a11628f55a4df523b3ef60405160405180910390a4505050565b6000806000905060006001840390508486600083815260200190815260200160002060000160009054906101000a90046fffffffffffffffffffffffffffffffff166fffffffffffffffffffffffffffffffff1611611f355785600082815260200190815260200160002060000160109054906101000a90046fffffffffffffffffffffffffffffffff166fffffffffffffffffffffffffffffffff1692505050612120565b8486600084815260200190815260200160002060000160009054906101000a90046fffffffffffffffffffffffffffffffff166fffffffffffffffffffffffffffffffff161115611f8b57600092505050612120565b5b818111156120d7576000600283830381611fa957611fa8614ddf565b5b048203905060008760008381526020019081526020016000206040518060400160405290816000820160009054906101000a90046fffffffffffffffffffffffffffffffff166fffffffffffffffffffffffffffffffff166fffffffffffffffffffffffffffffffff1681526020016000820160109054906101000a90046fffffffffffffffffffffffffffffffff166fffffffffffffffffffffffffffffffff166fffffffffffffffffffffffffffffffff168152505090508681600001516fffffffffffffffffffffffffffffffff1614156120a35780602001516fffffffffffffffffffffffffffffffff16945050505050612120565b8681600001516fffffffffffffffffffffffffffffffff1610156120c9578193506120d0565b6001820392505b5050611f8c565b85600083815260200190815260200160002060000160109054906101000a90046fffffffffffffffffffffffffffffffff166fffffffffffffffffffffffffffffffff16925050505b9392505050565b600061213282610d57565b905061214081600084612949565b61214b600083611a99565b6001600360008373ffffffffffffffffffffffffffffffffffffffff1673ffffffffffffffffffffffffffffffffffffffff168152602001908152602001600020600082825461219b9190614d55565b9250508190555060026000838152602001908152602001600020600080820160006101000a81549073ffffffffffffffffffffffffffffffffffffffff02191690556000820160146101000a8154906bffffffffffffffffffffffff0219169055505081600073ffffffffffffffffffffffffffffffffffffffff168273ffffffffffffffffffffffffffffffffffffffff167fddf252ad1be2c89b69c2b068fc378daa952ba7f163c4a11628f55a4df523b3ef60405160405180910390a45050565b600061226983610eb9565b90506000600c60008573ffffffffffffffffffffffffffffffffffffffff1673ffffffffffffffffffffffffffffffffffffffff16815260200190815260200160002060009054906101000a900473ffffffffffffffffffffffffffffffffffffffff16905082600c60008673ffffffffffffffffffffffffffffffffffffffff1673ffffffffffffffffffffffffffffffffffffffff16815260200190815260200160002060006101000a81548173ffffffffffffffffffffffffffffffffffffffff021916908373ffffffffffffffffffffffffffffffffffffffff160217905550612358818484612c0b565b50505050565b600073ffffffffffffffffffffffffffffffffffffffff168273ffffffffffffffffffffffffffffffffffffffff1614156123ce576040517f08c379a00000000000000000000000000000000000000000000000000000000081526004016123c590614e5a565b60405180910390fd5b6123d781611a22565b15612417576040517f08c379a000000000000000000000000000000000000000000000000000000000815260040161240e90614ec6565b60405180910390fd5b61242360008383612949565b6001600360008473ffffffffffffffffffffffffffffffffffffffff1673ffffffffffffffffffffffffffffffffffffffff16815260200190815260200160002060008282546124739190614d89565b92505081905550816002600083815260200190815260200160002060000160006101000a81548173ffffffffffffffffffffffffffffffffffffffff021916908373ffffffffffffffffffffffffffffffffffffffff160217905550426002600083815260200190815260200160002060000160146101000a8154816bffffffffffffffffffffffff02191690836bffffffffffffffffffffffff160217905550808273ffffffffffffffffffffffffffffffffffffffff16600073ffffffffffffffffffffffffffffffffffffffff167fddf252ad1be2c89b69c2b068fc378daa952ba7f163c4a11628f55a4df523b3ef60405160405180910390a45050565b60008061257f61285b565b83604051602001612591929190614f53565b60405160208183030381529060405280519060200120905080915050919050565b42816060013510156125f0576040517f0819bdcd00000000000000000000000000000000000000000000000000000000815260040160405180910390fd5b60006001848360000160208101906126089190614fc3565b846020013585604001356040516000815260200160405260405161262f9493929190614fff565b6020604051602081039080840390855afa158015612651573d6000803e3d6000fd5b505050602060405103519050600073ffffffffffffffffffffffffffffffffffffffff168173ffffffffffffffffffffffffffffffffffffffff1614806126c457508273ffffffffffffffffffffffffffffffffffffffff168173ffffffffffffffffffffffffffffffffffffffff1614155b156126fb576040517f37e8456b00000000000000000000000000000000000000000000000000000000815260040160405180910390fd5b50505050565b80600560008573ffffffffffffffffffffffffffffffffffffffff1673ffffffffffffffffffffffffffffffffffffffff16815260200190815260200160002060008473ffffffffffffffffffffffffffffffffffffffff1673ffffffffffffffffffffffffffffffffffffffff16815260200190815260200160002060006101000a81548160ff0219169083151502179055508173ffffffffffffffffffffffffffffffffffffffff168373ffffffffffffffffffffffffffffffffffffffff167f17307eab39ab6107e8899845ad3d59bd9653f200f220920489ca2b5937696c31836040516127f29190613a6a565b60405180910390a3505050565b61280a848484611c30565b61281684848484612fe5565b612855576040517f08c379a000000000000000000000000000000000000000000000000000000000815260040161284c906150b6565b60405180910390fd5b50505050565b60007f8b73c3c69bb8fe3d512ecc4cf759cc79239f7b179b0ffacaa9a75d522b39400f612886610725565b805190602001207fc89efdaa54c0f20c7adf612882df0950f5a951637e0307cdcb4c672f298b8bc646306040516020016128c49594939291906150d6565b60405160208183030381529060405280519060200120905090565b60007f01ffc9a7000000000000000000000000000000000000000000000000000000007bffffffffffffffffffffffffffffffffffffffffffffffffffffffff1916827bffffffffffffffffffffffffffffffffffffffffffffffffffffffff1916149050919050565b6000600c60008573ffffffffffffffffffffffffffffffffffffffff1673ffffffffffffffffffffffffffffffffffffffff16815260200190815260200160002060009054906101000a900473ffffffffffffffffffffffffffffffffffffffff1690506000600c60008573ffffffffffffffffffffffffffffffffffffffff1673ffffffffffffffffffffffffffffffffffffffff16815260200190815260200160002060009054906101000a900473ffffffffffffffffffffffffffffffffffffffff16905060007f000000000000000000000000000000000000000000000000000000000000000073ffffffffffffffffffffffffffffffffffffffff1663d923d20c6010546040518263ffffffff1660e01b8152600401612a6e9190613c7a565b602060405180830381865afa158015612a8b573d6000803e3d6000fd5b505050506040513d601f19601f82011682018060405250810190612aaf919061513e565b9050612abd83836001612c0b565b612ac886868661316d565b7f000000000000000000000000000000000000000000000000000000000000000073ffffffffffffffffffffffffffffffffffffffff1663bdfdd4bc6010548689896040518563ffffffff1660e01b8152600401612b29949392919061516b565b600060405180830381600087803b158015612b4357600080fd5b505af1158015612b57573d6000803e3d6000fd5b50505050600073ffffffffffffffffffffffffffffffffffffffff168173ffffffffffffffffffffffffffffffffffffffff1614612c03578073ffffffffffffffffffffffffffffffffffffffff16633cb22cc46010548888886040518563ffffffff1660e01b8152600401612bd094939291906151b0565b600060405180830381600087803b158015612bea57600080fd5b505af1158015612bfe573d6000803e3d6000fd5b505050505b505050505050565b60008073ffffffffffffffffffffffffffffffffffffffff168473ffffffffffffffffffffffffffffffffffffffff1614905080612d87576000600d60008673ffffffffffffffffffffffffffffffffffffffff1673ffffffffffffffffffffffffffffffffffffffff1681526020019081526020016000205490506000600b60008773ffffffffffffffffffffffffffffffffffffffff1673ffffffffffffffffffffffffffffffffffffffff168152602001908152602001600020600060018403815260200190815260200160002060000160109054906101000a90046fffffffffffffffffffffffffffffffff166fffffffffffffffffffffffffffffffff16905060008482039050612d22878285613281565b806fffffffffffffffffffffffffffffffff168773ffffffffffffffffffffffffffffffffffffffff167fd9a6070174f4ccca76ed4896432e9a090b16e07e8fe27f275f50b33500b98e5242604051612d7b9190613c7a565b60405180910390a35050505b600073ffffffffffffffffffffffffffffffffffffffff168373ffffffffffffffffffffffffffffffffffffffff1614612f71578015612e29576000600f5490506000600e600060018403815260200190815260200160002060000160109054906101000a90046fffffffffffffffffffffffffffffffff169050600084826fffffffffffffffffffffffffffffffff16019050612e2581846134a5565b5050505b6000600d60008573ffffffffffffffffffffffffffffffffffffffff1673ffffffffffffffffffffffffffffffffffffffff1681526020019081526020016000205490506000600b60008673ffffffffffffffffffffffffffffffffffffffff1673ffffffffffffffffffffffffffffffffffffffff168152602001908152602001600020600060018403815260200190815260200160002060000160109054906101000a90046fffffffffffffffffffffffffffffffff169050600084826fffffffffffffffffffffffffffffffff16019050612f08868285613281565b806fffffffffffffffffffffffffffffffff168673ffffffffffffffffffffffffffffffffffffffff167fd9a6070174f4ccca76ed4896432e9a090b16e07e8fe27f275f50b33500b98e5242604051612f619190613c7a565b60405180910390a3505050612fdf565b80612fde576000600f5490506000600e600060018403815260200190815260200160002060000160109054906101000a90046fffffffffffffffffffffffffffffffff169050600084826fffffffffffffffffffffffffffffffff16039050612fda81846134a5565b5050505b5b50505050565b60006130068473ffffffffffffffffffffffffffffffffffffffff1661364a565b15613160578373ffffffffffffffffffffffffffffffffffffffff1663150b7a0261302f611a91565b8786866040518563ffffffff1660e01b8152600401613051949392919061523f565b6020604051808303816000875af192505050801561308d57506040513d601f19601f8201168201806040525081019061308a91906152a0565b60015b613110573d80600081146130bd576040519150601f19603f3d011682016040523d82523d6000602084013e6130c2565b606091505b50600081511415613108576040517f08c379a00000000000000000000000000000000000000000000000000000000081526004016130ff906150b6565b60405180910390fd5b805181602001fd5b63150b7a0260e01b7bffffffffffffffffffffffffffffffffffffffffffffffffffffffff1916817bffffffffffffffffffffffffffffffffffffffffffffffffffffffff191614915050613165565b600190505b949350505050565b61317883838361366d565b600073ffffffffffffffffffffffffffffffffffffffff168373ffffffffffffffffffffffffffffffffffffffff1614156131bb576131b681613672565b6131fa565b8173ffffffffffffffffffffffffffffffffffffffff168373ffffffffffffffffffffffffffffffffffffffff16146131f9576131f883826136bb565b5b5b600073ffffffffffffffffffffffffffffffffffffffff168273ffffffffffffffffffffffffffffffffffffffff16141561323d5761323881613828565b61327c565b8273ffffffffffffffffffffffffffffffffffffffff168273ffffffffffffffffffffffffffffffffffffffff161461327b5761327a82826138f9565b5b5b505050565b60004390506000600b60008673ffffffffffffffffffffffffffffffffffffffff1673ffffffffffffffffffffffffffffffffffffffff1681526020019081526020016000209050600083141580156133315750816fffffffffffffffffffffffffffffffff1681600060018603815260200190815260200160002060000160009054906101000a90046fffffffffffffffffffffffffffffffff166fffffffffffffffffffffffffffffffff16145b1561338a578381600060018603815260200190815260200160002060000160106101000a8154816fffffffffffffffffffffffffffffffff02191690836fffffffffffffffffffffffffffffffff16021790555061349e565b6040518060400160405280836fffffffffffffffffffffffffffffffff168152602001856fffffffffffffffffffffffffffffffff1681525081600085815260200190815260200160002060008201518160000160006101000a8154816fffffffffffffffffffffffffffffffff02191690836fffffffffffffffffffffffffffffffff16021790555060208201518160000160106101000a8154816fffffffffffffffffffffffffffffffff02191690836fffffffffffffffffffffffffffffffff16021790555090505060018301600d60008773ffffffffffffffffffffffffffffffffffffffff1673ffffffffffffffffffffffffffffffffffffffff168152602001908152602001600020819055505b5050505050565b6000439050600082141580156135135750806fffffffffffffffffffffffffffffffff16600e600060018503815260200190815260200160002060000160009054906101000a90046fffffffffffffffffffffffffffffffff166fffffffffffffffffffffffffffffffff16145b1561356d5782600e600060018503815260200190815260200160002060000160106101000a8154816fffffffffffffffffffffffffffffffff02191690836fffffffffffffffffffffffffffffffff160217905550613645565b6040518060400160405280826fffffffffffffffffffffffffffffffff168152602001846fffffffffffffffffffffffffffffffff16815250600e600084815260200190815260200160002060008201518160000160006101000a8154816fffffffffffffffffffffffffffffffff02191690836fffffffffffffffffffffffffffffffff16021790555060208201518160000160106101000a8154816fffffffffffffffffffffffffffffffff02191690836fffffffffffffffffffffffffffffffff16021790555090505060018201600f819055505b505050565b6000808273ffffffffffffffffffffffffffffffffffffffff163b119050919050565b505050565b6008805490506009600083815260200190815260200160002081905550600881908060018154018082558091505060019003906000526020600020016000909190919091505550565b600060016136c884610eb9565b6136d29190614d55565b90506000600760008481526020019081526020016000205490508181146137b7576000600660008673ffffffffffffffffffffffffffffffffffffffff1673ffffffffffffffffffffffffffffffffffffffff168152602001908152602001600020600084815260200190815260200160002054905080600660008773ffffffffffffffffffffffffffffffffffffffff1673ffffffffffffffffffffffffffffffffffffffff168152602001908152602001600020600084815260200190815260200160002081905550816007600083815260200190815260200160002081905550505b6007600084815260200190815260200160002060009055600660008573ffffffffffffffffffffffffffffffffffffffff1673ffffffffffffffffffffffffffffffffffffffff16815260200190815260200160002060008381526020019081526020016000206000905550505050565b6000600160088054905061383c9190614d55565b905060006009600084815260200190815260200160002054905060006008838154811061386c5761386b614654565b5b90600052602060002001549050806008838154811061388e5761388d614654565b5b9060005260206000200181905550816009600083815260200190815260200160002081905550600960008581526020019081526020016000206000905560088054806138dd576138dc6152cd565b5b6001900381819060005260206000200160009055905550505050565b600061390483610eb9565b905081600660008573ffffffffffffffffffffffffffffffffffffffff1673ffffffffffffffffffffffffffffffffffffffff168152602001908152602001600020600083815260200190815260200160002081905550806007600084815260200190815260200160002081905550505050565b6040518060400160405280600073ffffffffffffffffffffffffffffffffffffffff16815260200160006bffffffffffffffffffffffff1681525090565b6000604051905090565b600080fd5b600080fd5b60007fffffffff0000000000000000000000000000000000000000000000000000000082169050919050565b6139ff816139ca565b8114613a0a57600080fd5b50565b600081359050613a1c816139f6565b92915050565b600060208284031215613a3857613a376139c0565b5b6000613a4684828501613a0d565b91505092915050565b60008115159050919050565b613a6481613a4f565b82525050565b6000602082019050613a7f6000830184613a5b565b92915050565b600081519050919050565b600082825260208201905092915050565b60005b83811015613abf578082015181840152602081019050613aa4565b83811115613ace576000848401525b50505050565b6000601f19601f8301169050919050565b6000613af082613a85565b613afa8185613a90565b9350613b0a818560208601613aa1565b613b1381613ad4565b840191505092915050565b60006020820190508181036000830152613b388184613ae5565b905092915050565b6000819050919050565b613b5381613b40565b8114613b5e57600080fd5b50565b600081359050613b7081613b4a565b92915050565b600060208284031215613b8c57613b8b6139c0565b5b6000613b9a84828501613b61565b91505092915050565b600073ffffffffffffffffffffffffffffffffffffffff82169050919050565b6000613bce82613ba3565b9050919050565b613bde81613bc3565b82525050565b6000602082019050613bf96000830184613bd5565b92915050565b613c0881613bc3565b8114613c1357600080fd5b50565b600081359050613c2581613bff565b92915050565b60008060408385031215613c4257613c416139c0565b5b6000613c5085828601613c16565b9250506020613c6185828601613b61565b9150509250929050565b613c7481613b40565b82525050565b6000602082019050613c8f6000830184613c6b565b92915050565b600080600060608486031215613cae57613cad6139c0565b5b6000613cbc86828701613c16565b9350506020613ccd86828701613c16565b9250506040613cde86828701613b61565b9150509250925092565b600060208284031215613cfe57613cfd6139c0565b5b6000613d0c84828501613c16565b91505092915050565b600080fd5b600060808284031215613d3057613d2f613d15565b5b81905092915050565b600080600060c08486031215613d5257613d516139c0565b5b6000613d6086828701613c16565b9350506020613d7186828701613b61565b9250506040613d8286828701613d1a565b9150509250925092565b613d9581613a4f565b8114613da057600080fd5b50565b600081359050613db281613d8c565b92915050565b60008060008060e08587031215613dd257613dd16139c0565b5b6000613de087828801613c16565b9450506020613df187828801613c16565b9350506040613e0287828801613da3565b9250506060613e1387828801613d1a565b91505092959194509250565b60008060408385031215613e3657613e356139c0565b5b6000613e4485828601613c16565b9250506020613e5585828601613da3565b9150509250929050565b600080fd5b600080fd5b7f4e487b7100000000000000000000000000000000000000000000000000000000600052604160045260246000fd5b613ea182613ad4565b810181811067ffffffffffffffff82111715613ec057613ebf613e69565b5b80604052505050565b6000613ed36139b6565b9050613edf8282613e98565b919050565b600067ffffffffffffffff821115613eff57613efe613e69565b5b613f0882613ad4565b9050602081019050919050565b82818337600083830152505050565b6000613f37613f3284613ee4565b613ec9565b905082815260208101848484011115613f5357613f52613e64565b5b613f5e848285613f15565b509392505050565b600082601f830112613f7b57613f7a613e5f565b5b8135613f8b848260208601613f24565b91505092915050565b60008060008060808587031215613fae57613fad6139c0565b5b6000613fbc87828801613c16565b9450506020613fcd87828801613c16565b9350506040613fde87828801613b61565b925050606085013567ffffffffffffffff811115613fff57613ffe6139c5565b5b61400b87828801613f66565b91505092959194509250565b61402081613bc3565b82525050565b60006bffffffffffffffffffffffff82169050919050565b61404781614026565b82525050565b6040820160008201516140636000850182614017565b506020820151614076602085018261403e565b50505050565b6000604082019050614091600083018461404d565b92915050565b60008060a083850312156140ae576140ad6139c0565b5b60006140bc85828601613b61565b92505060206140cd85828601613d1a565b9150509250929050565b600080600060c084860312156140f0576140ef6139c0565b5b60006140fe86828701613c16565b935050602061410f86828701613c16565b925050604061412086828701613d1a565b9150509250925092565b60008060408385031215614141576141406139c0565b5b600061414f85828601613c16565b925050602061416085828601613c16565b9150509250929050565b6000819050919050565b61417d8161416a565b82525050565b60006020820190506141986000830184614174565b92915050565b600067ffffffffffffffff8211156141b9576141b8613e69565b5b6141c282613ad4565b9050602081019050919050565b60006141e26141dd8461419e565b613ec9565b9050828152602081018484840111156141fe576141fd613e64565b5b614209848285613aa1565b509392505050565b600082601f83011261422657614225613e5f565b5b81516142368482602086016141cf565b91505092915050565b600060208284031215614255576142546139c0565b5b600082015167ffffffffffffffff811115614273576142726139c5565b5b61427f84828501614211565b91505092915050565b600081905092915050565b600061429e82613a85565b6142a88185614288565b93506142b8818560208601613aa1565b80840191505092915050565b60006142d08285614293565b91506142dc8284614293565b91508190509392505050565b7f4552433732313a20617070726f76656420717565727920666f72206e6f6e657860008201527f697374656e7420746f6b656e0000000000000000000000000000000000000000602082015250565b6000614344602c83613a90565b915061434f826142e8565b604082019050919050565b6000602082019050818103600083015261437381614337565b9050919050565b7f4552433732313a20617070726f76616c20746f2063757272656e74206f776e6560008201527f7200000000000000000000000000000000000000000000000000000000000000602082015250565b60006143d6602183613a90565b91506143e18261437a565b604082019050919050565b60006020820190508181036000830152614405816143c9565b9050919050565b7f4552433732313a20617070726f76652063616c6c6572206973206e6f74206f7760008201527f6e6572206e6f7220617070726f76656420666f7220616c6c0000000000000000602082015250565b6000614468603883613a90565b91506144738261440c565b604082019050919050565b600060208201905081810360008301526144978161445b565b9050919050565b7f4552433732313a207472616e736665722063616c6c6572206973206e6f74206f60008201527f776e6572206e6f7220617070726f766564000000000000000000000000000000602082015250565b60006144fa603183613a90565b91506145058261449e565b604082019050919050565b60006020820190508181036000830152614529816144ed565b9050919050565b7f455243373231456e756d657261626c653a206f776e657220696e646578206f7560008201527f74206f6620626f756e6473000000000000000000000000000000000000000000602082015250565b600061458c602b83613a90565b915061459782614530565b604082019050919050565b600060208201905081810360008301526145bb8161457f565b9050919050565b7f455243373231456e756d657261626c653a20676c6f62616c20696e646578206f60008201527f7574206f6620626f756e64730000000000000000000000000000000000000000602082015250565b600061461e602c83613a90565b9150614629826145c2565b604082019050919050565b6000602082019050818103600083015261464d81614611565b9050919050565b7f4e487b7100000000000000000000000000000000000000000000000000000000600052603260045260246000fd5b7f4552433732313a206d696e742074696d657374616d7020717565727920666f7260008201527f206e6f6e6578697374656e7420746f6b656e0000000000000000000000000000602082015250565b60006146df603283613a90565b91506146ea82614683565b604082019050919050565b6000602082019050818103600083015261470e816146d2565b9050919050565b7f4552433732313a206f776e657220717565727920666f72206e6f6e657869737460008201527f656e7420746f6b656e0000000000000000000000000000000000000000000000602082015250565b6000614771602983613a90565b915061477c82614715565b604082019050919050565b600060208201905081810360008301526147a081614764565b9050919050565b7f4552433732313a2062616c616e636520717565727920666f7220746865207a6560008201527f726f206164647265737300000000000000000000000000000000000000000000602082015250565b6000614803602a83613a90565b915061480e826147a7565b604082019050919050565b60006020820190508181036000830152614832816147f6565b9050919050565b600060a08201905061484e6000830188614174565b61485b6020830187613bd5565b6148686040830186613c6b565b6148756060830185613c6b565b6148826080830184613c6b565b9695505050505050565b600060c0820190506148a16000830189614174565b6148ae6020830188613bd5565b6148bb6040830187613bd5565b6148c86060830186613a5b565b6148d56080830185613c6b565b6148e260a0830184613c6b565b979650505050505050565b600081519050919050565b6000819050602082019050919050565b600061491482516139ca565b80915050919050565b600082821b905092915050565b6000614935826148ed565b8261493f846148f8565b905061494a81614908565b9250600482101561498a576149857fffffffff000000000000000000000000000000000000000000000000000000008360040360080261491d565b831692505b5050919050565b6000819050919050565b6149ac6149a7826139ca565b614991565b82525050565b60006149be828561499b565b6004820191506149ce8284614293565b91508190509392505050565b7f4552433732313a20617070726f766520746f2063616c6c657200000000000000600082015250565b6000614a10601983613a90565b9150614a1b826149da565b602082019050919050565b60006020820190508181036000830152614a3f81614a03565b9050919050565b7f4552433732313a20746f6b656e206461746120717565727920666f72206e6f6e60008201527f6578697374656e7420746f6b656e000000000000000000000000000000000000602082015250565b6000614aa2602e83613a90565b9150614aad82614a46565b604082019050919050565b60006020820190508181036000830152614ad181614a95565b9050919050565b6000608082019050614aed6000830187614174565b614afa6020830186613c6b565b614b076040830185613c6b565b614b146060830184613c6b565b95945050505050565b600060a082019050614b326000830188614174565b614b3f6020830187613bd5565b614b4c6040830186613bd5565b614b596060830185613c6b565b614b666080830184613c6b565b9695505050505050565b7f4552433732313a206f70657261746f7220717565727920666f72206e6f6e657860008201527f697374656e7420746f6b656e0000000000000000000000000000000000000000602082015250565b6000614bcc602c83613a90565b9150614bd782614b70565b604082019050919050565b60006020820190508181036000830152614bfb81614bbf565b9050919050565b7f4552433732313a207472616e73666572206f6620746f6b656e2074686174206960008201527f73206e6f74206f776e0000000000000000000000000000000000000000000000602082015250565b6000614c5e602983613a90565b9150614c6982614c02565b604082019050919050565b60006020820190508181036000830152614c8d81614c51565b9050919050565b7f4552433732313a207472616e7366657220746f20746865207a65726f2061646460008201527f7265737300000000000000000000000000000000000000000000000000000000602082015250565b6000614cf0602483613a90565b9150614cfb82614c94565b604082019050919050565b60006020820190508181036000830152614d1f81614ce3565b9050919050565b7f4e487b7100000000000000000000000000000000000000000000000000000000600052601160045260246000fd5b6000614d6082613b40565b9150614d6b83613b40565b925082821015614d7e57614d7d614d26565b5b828203905092915050565b6000614d9482613b40565b9150614d9f83613b40565b9250827fffffffffffffffffffffffffffffffffffffffffffffffffffffffffffffffff03821115614dd457614dd3614d26565b5b828201905092915050565b7f4e487b7100000000000000000000000000000000000000000000000000000000600052601260045260246000fd5b7f4552433732313a206d696e7420746f20746865207a65726f2061646472657373600082015250565b6000614e44602083613a90565b9150614e4f82614e0e565b602082019050919050565b60006020820190508181036000830152614e7381614e37565b9050919050565b7f4552433732313a20746f6b656e20616c7265616479206d696e74656400000000600082015250565b6000614eb0601c83613a90565b9150614ebb82614e7a565b602082019050919050565b60006020820190508181036000830152614edf81614ea3565b9050919050565b7f1901000000000000000000000000000000000000000000000000000000000000600082015250565b6000614f1c600283614288565b9150614f2782614ee6565b600282019050919050565b6000819050919050565b614f4d614f488261416a565b614f32565b82525050565b6000614f5e82614f0f565b9150614f6a8285614f3c565b602082019150614f7a8284614f3c565b6020820191508190509392505050565b600060ff82169050919050565b614fa081614f8a565b8114614fab57600080fd5b50565b600081359050614fbd81614f97565b92915050565b600060208284031215614fd957614fd86139c0565b5b6000614fe784828501614fae565b91505092915050565b614ff981614f8a565b82525050565b60006080820190506150146000830187614174565b6150216020830186614ff0565b61502e6040830185614174565b61503b6060830184614174565b95945050505050565b7f4552433732313a207472616e7366657220746f206e6f6e20455243373231526560008201527f63656976657220696d706c656d656e7465720000000000000000000000000000602082015250565b60006150a0603283613a90565b91506150ab82615044565b604082019050919050565b600060208201905081810360008301526150cf81615093565b9050919050565b600060a0820190506150eb6000830188614174565b6150f86020830187614174565b6151056040830186614174565b6151126060830185613c6b565b61511f6080830184613bd5565b9695505050505050565b60008151905061513881613bff565b92915050565b600060208284031215615154576151536139c0565b5b600061516284828501615129565b91505092915050565b60006080820190506151806000830187613c6b565b61518d6020830186613c6b565b61519a6040830185613bd5565b6151a76060830184613bd5565b95945050505050565b60006080820190506151c56000830187613c6b565b6151d26020830186613bd5565b6151df6040830185613bd5565b6151ec6060830184613c6b565b95945050505050565b600082825260208201905092915050565b6000615211826148ed565b61521b81856151f5565b935061522b818560208601613aa1565b61523481613ad4565b840191505092915050565b60006080820190506152546000830187613bd5565b6152616020830186613bd5565b61526e6040830185613c6b565b81810360608301526152808184615206565b905095945050505050565b60008151905061529a816139f6565b92915050565b6000602082840312156152b6576152b56139c0565b5b60006152c48482850161528b565b91505092915050565b7f4e487b7100000000000000000000000000000000000000000000000000000000600052603160045260246000fdfea26469706673582212208567a72034937a2113a821278b7d1f4105ac37e2a5d30883fb2e2f086ba76b4264736f6c634300080a0033",
  "immutableReferences": {
    "2567": [
      {
        "length": 32,
        "start": 1835
      },
      {
        "length": 32,
        "start": 3600
      },
      {
        "length": 32,
        "start": 4676
      },
      {
        "length": 32,
        "start": 5087
      },
      {
        "length": 32,
        "start": 5551
      },
      {
        "length": 32,
        "start": 10773
      },
      {
        "length": 32,
        "start": 10954
      }
    ]
  },
  "source": "// SPDX-License-Identifier: AGPL-3.0-only\n\npragma solidity 0.8.10;\n\nimport {IFollowNFT} from '../interfaces/IFollowNFT.sol';\nimport {IFollowModule} from '../interfaces/IFollowModule.sol';\nimport {ILensHub} from '../interfaces/ILensHub.sol';\nimport {Errors} from '../libraries/Errors.sol';\nimport {Events} from '../libraries/Events.sol';\nimport {DataTypes} from '../libraries/DataTypes.sol';\nimport {Constants} from '../libraries/Constants.sol';\nimport {LensNFTBase} from './base/LensNFTBase.sol';\n\n/**\n * @title FollowNFT\n * @author Lens Protocol\n *\n * @notice This contract is the NFT that is minted upon following a given profile. It is cloned upon first follow for a\n * given profile, and includes built-in governance power and delegation mechanisms.\n *\n * NOTE: This contract assumes total NFT supply for this follow NFT will never exceed 2^128 - 1\n */\ncontract FollowNFT is LensNFTBase, IFollowNFT {\n    struct Snapshot {\n        uint128 blockNumber;\n        uint128 value;\n    }\n\n    address public immutable HUB;\n\n    bytes32 internal constant DELEGATE_BY_SIG_TYPEHASH =\n        keccak256(\n            'DelegateBySig(address delegator,address delegatee,uint256 nonce,uint256 deadline)'\n        );\n\n    mapping(address => mapping(uint256 => Snapshot)) internal _snapshots;\n    mapping(address => address) internal _delegates;\n    mapping(address => uint256) internal _snapshotCount;\n    mapping(uint256 => Snapshot) internal _delSupplySnapshots;\n    uint256 internal _delSupplySnapshotCount;\n    uint256 internal _profileId;\n    uint256 internal _tokenIdCounter;\n\n    bool private _initialized;\n\n    // We create the FollowNFT with the pre-computed HUB address before deploying the hub.\n    constructor(address hub) {\n        if (hub == address(0)) revert Errors.InitParamsInvalid();\n        HUB = hub;\n        _initialized = true;\n    }\n\n    /// @inheritdoc IFollowNFT\n    function initialize(uint256 profileId) external override {\n        if (_initialized) revert Errors.Initialized();\n        _initialized = true;\n        _profileId = profileId;\n        emit Events.FollowNFTInitialized(profileId, block.timestamp);\n    }\n\n    /// @inheritdoc IFollowNFT\n    function mint(address to) external override returns (uint256) {\n        if (msg.sender != HUB) revert Errors.NotHub();\n        unchecked {\n            uint256 tokenId = ++_tokenIdCounter;\n            _mint(to, tokenId);\n            return tokenId;\n        }\n    }\n\n    /// @inheritdoc IFollowNFT\n    function delegate(address delegatee) external override {\n        _delegate(msg.sender, delegatee);\n    }\n\n    /// @inheritdoc IFollowNFT\n    function delegateBySig(\n        address delegator,\n        address delegatee,\n        DataTypes.EIP712Signature calldata sig\n    ) external override {\n        unchecked {\n            _validateRecoveredAddress(\n                _calculateDigest(\n                    keccak256(\n                        abi.encode(\n                            DELEGATE_BY_SIG_TYPEHASH,\n                            delegator,\n                            delegatee,\n                            sigNonces[delegator]++,\n                            sig.deadline\n                        )\n                    )\n                ),\n                delegator,\n                sig\n            );\n        }\n        _delegate(delegator, delegatee);\n    }\n\n    /// @inheritdoc IFollowNFT\n    function getPowerByBlockNumber(address user, uint256 blockNumber)\n        external\n        view\n        override\n        returns (uint256)\n    {\n        if (blockNumber > block.number) revert Errors.BlockNumberInvalid();\n        uint256 snapshotCount = _snapshotCount[user];\n        if (snapshotCount == 0) return 0; // Returning zero since this means the user never delegated and has no power\n        return _getSnapshotValueByBlockNumber(_snapshots[user], blockNumber, snapshotCount);\n    }\n\n    /// @inheritdoc IFollowNFT\n    function getDelegatedSupplyByBlockNumber(uint256 blockNumber)\n        external\n        view\n        override\n        returns (uint256)\n    {\n        if (blockNumber > block.number) revert Errors.BlockNumberInvalid();\n        uint256 snapshotCount = _delSupplySnapshotCount;\n        if (snapshotCount == 0) return 0; // Returning zero since this means a delegation has never occurred\n        return _getSnapshotValueByBlockNumber(_delSupplySnapshots, blockNumber, snapshotCount);\n    }\n\n    function name() public view override returns (string memory) {\n        string memory handle = ILensHub(HUB).getHandle(_profileId);\n        return string(abi.encodePacked(handle, Constants.FOLLOW_NFT_NAME_SUFFIX));\n    }\n\n    function symbol() public view override returns (string memory) {\n        string memory handle = ILensHub(HUB).getHandle(_profileId);\n        bytes4 firstBytes = bytes4(bytes(handle));\n        return string(abi.encodePacked(firstBytes, Constants.FOLLOW_NFT_SYMBOL_SUFFIX));\n    }\n\n    function _getSnapshotValueByBlockNumber(\n        mapping(uint256 => Snapshot) storage _shots,\n        uint256 blockNumber,\n        uint256 snapshotCount\n    ) internal view returns (uint256) {\n        unchecked {\n            uint256 lower = 0;\n            uint256 upper = snapshotCount - 1;\n\n            // First check most recent snapshot\n            if (_shots[upper].blockNumber <= blockNumber) return _shots[upper].value;\n\n            // Next check implicit zero balance\n            if (_shots[lower].blockNumber > blockNumber) return 0;\n\n            while (upper > lower) {\n                uint256 center = upper - (upper - lower) / 2;\n                Snapshot memory snapshot = _shots[center];\n                if (snapshot.blockNumber == blockNumber) {\n                    return snapshot.value;\n                } else if (snapshot.blockNumber < blockNumber) {\n                    lower = center;\n                } else {\n                    upper = center - 1;\n                }\n            }\n            return _shots[lower].value;\n        }\n    }\n\n    /**\n     * @dev This returns the follow NFT URI fetched from the hub.\n     */\n    function tokenURI(uint256 tokenId) public view override returns (string memory) {\n        if (!_exists(tokenId)) revert Errors.TokenDoesNotExist();\n        return ILensHub(HUB).getFollowNFTURI(_profileId);\n    }\n\n    /**\n     * @dev Upon transfers, we move the appropriate delegations, and emit the transfer event in the hub.\n     */\n    function _beforeTokenTransfer(\n        address from,\n        address to,\n        uint256 tokenId\n    ) internal override {\n        address fromDelegatee = _delegates[from];\n        address toDelegatee = _delegates[to];\n        address followModule = ILensHub(HUB).getFollowModule(_profileId);\n\n        _moveDelegate(fromDelegatee, toDelegatee, 1);\n\n        super._beforeTokenTransfer(from, to, tokenId);\n        ILensHub(HUB).emitFollowNFTTransferEvent(_profileId, tokenId, from, to);\n        if (followModule != address(0)) {\n            IFollowModule(followModule).followModuleTransferHook(_profileId, from, to, tokenId);\n        }\n    }\n\n    function _delegate(address delegator, address delegatee) internal {\n        uint256 delegatorBalance = balanceOf(delegator);\n        address previousDelegate = _delegates[delegator];\n        _delegates[delegator] = delegatee;\n        _moveDelegate(previousDelegate, delegatee, delegatorBalance);\n    }\n\n    function _moveDelegate(\n        address from,\n        address to,\n        uint256 amount\n    ) internal {\n        unchecked {\n            bool fromZero = from == address(0);\n            if (!fromZero) {\n                uint256 fromSnapshotCount = _snapshotCount[from];\n\n                // Underflow is impossible since, if from != address(0), then a delegation must have occurred (at least 1 snapshot)\n                uint256 previous = _snapshots[from][fromSnapshotCount - 1].value;\n                uint128 newValue = uint128(previous - amount);\n\n                _writeSnapshot(from, newValue, fromSnapshotCount);\n                emit Events.FollowNFTDelegatedPowerChanged(from, newValue, block.timestamp);\n            }\n\n            if (to != address(0)) {\n                // if from == address(0) then this is an initial delegation (add amount to supply)\n                if (fromZero) {\n                    // It is expected behavior that the `previousDelSupply` underflows upon the first delegation,\n                    // returning the expected value of zero\n                    uint256 delSupplySnapshotCount = _delSupplySnapshotCount;\n                    uint128 previousDelSupply = _delSupplySnapshots[delSupplySnapshotCount - 1]\n                        .value;\n                    uint128 newDelSupply = uint128(previousDelSupply + amount);\n                    _writeSupplySnapshot(newDelSupply, delSupplySnapshotCount);\n                }\n\n                // It is expected behavior that `previous` underflows upon the first delegation to an address,\n                // returning the expected value of zero\n                uint256 toSnapshotCount = _snapshotCount[to];\n                uint128 previous = _snapshots[to][toSnapshotCount - 1].value;\n                uint128 newValue = uint128(previous + amount);\n                _writeSnapshot(to, newValue, toSnapshotCount);\n                emit Events.FollowNFTDelegatedPowerChanged(to, newValue, block.timestamp);\n            } else {\n                // If from != address(0) then this is removing a delegation, otherwise we're dealing with a\n                // non-delegated burn of tokens and don't need to take any action\n                if (!fromZero) {\n                    // Upon removing delegation (from != address(0) && to == address(0)), supply calculations cannot\n                    // underflow because if from != address(0), then a delegation must have previously occurred, so\n                    // the snapshot count must be >= 1 and the previous delegated supply must be >= amount\n                    uint256 delSupplySnapshotCount = _delSupplySnapshotCount;\n                    uint128 previousDelSupply = _delSupplySnapshots[delSupplySnapshotCount - 1]\n                        .value;\n                    uint128 newDelSupply = uint128(previousDelSupply - amount);\n                    _writeSupplySnapshot(newDelSupply, delSupplySnapshotCount);\n                }\n            }\n        }\n    }\n\n    function _writeSnapshot(\n        address owner,\n        uint128 newValue,\n        uint256 ownerSnapshotCount\n    ) internal {\n        unchecked {\n            uint128 currentBlock = uint128(block.number);\n            mapping(uint256 => Snapshot) storage ownerSnapshots = _snapshots[owner];\n\n            // Doing multiple operations in the same block\n            if (\n                ownerSnapshotCount != 0 &&\n                ownerSnapshots[ownerSnapshotCount - 1].blockNumber == currentBlock\n            ) {\n                ownerSnapshots[ownerSnapshotCount - 1].value = newValue;\n            } else {\n                ownerSnapshots[ownerSnapshotCount] = Snapshot(currentBlock, newValue);\n                _snapshotCount[owner] = ownerSnapshotCount + 1;\n            }\n        }\n    }\n\n    function _writeSupplySnapshot(uint128 newValue, uint256 supplySnapshotCount) internal {\n        unchecked {\n            uint128 currentBlock = uint128(block.number);\n\n            // Doing multiple operations in the same block\n            if (\n                supplySnapshotCount != 0 &&\n                _delSupplySnapshots[supplySnapshotCount - 1].blockNumber == currentBlock\n            ) {\n                _delSupplySnapshots[supplySnapshotCount - 1].value = newValue;\n            } else {\n                _delSupplySnapshots[supplySnapshotCount] = Snapshot(currentBlock, newValue);\n                _delSupplySnapshotCount = supplySnapshotCount + 1;\n            }\n        }\n    }\n}\n",
  "sourcePath": "/Users/korbinianabstreiter/crytoprojects/primetime/contracts/core/FollowNFT.sol",
  "compiler": {
    "name": "solc",
    "version": "0.8.10+commit.fc410830.Emscripten.clang"
  },
  "schemaVersion": "3.4.5",
  "updatedAt": "2022-04-22T14:49:53.774Z",
  "devdoc": {
    "author": "Lens Protocol",
    "kind": "dev",
    "methods": {
      "approve(address,uint256)": {
        "details": "See {IERC721-approve}."
      },
      "balanceOf(address)": {
        "details": "See {IERC721-balanceOf}."
      },
      "burn(uint256)": {
        "params": {
          "tokenId": "The token ID of the token to burn."
        }
      },
      "burnWithSig(uint256,(uint8,bytes32,bytes32,uint256))": {
        "params": {
          "sig": "The EIP712 signature struct.",
          "tokenId": "The token ID of the token to burn."
        }
      },
      "delegate(address)": {
        "params": {
          "delegatee": "The delegatee address to delegate governance power to."
        }
      },
      "delegateBySig(address,address,(uint8,bytes32,bytes32,uint256))": {
        "params": {
          "delegatee": "The delegatee address, who is receiving the governance power delegation.",
          "delegator": "The delegator address, who is the signer.",
          "sig": "The EIP712Signature struct containing the necessary parameters to recover the delegator's signature."
        }
      },
      "exists(uint256)": {
        "details": "See {IERC721Time-exists}"
      },
      "getApproved(uint256)": {
        "details": "See {IERC721-getApproved}."
      },
      "getDelegatedSupplyByBlockNumber(uint256)": {
        "params": {
          "blockNumber": "The block number to query the delegated supply at."
        },
        "returns": {
          "_0": "uint256 The delegated supply at the given block number."
        }
      },
      "getDomainSeparator()": {
        "returns": {
          "_0": "bytes32 The domain separator."
        }
      },
      "getPowerByBlockNumber(address,uint256)": {
        "params": {
          "blockNumber": "The block number to query the user's governance power at.",
          "user": "The user to query governance power for."
        },
        "returns": {
          "_0": "uint256 The power of the given user at the given block number."
        }
      },
      "initialize(uint256)": {
        "params": {
          "profileId": "The token ID of the profile in the hub associated with this followNFT, used for transfer hooks."
        }
      },
      "isApprovedForAll(address,address)": {
        "details": "See {IERC721-isApprovedForAll}."
      },
      "mint(address)": {
        "params": {
          "to": "The address to mint the NFT to."
        },
        "returns": {
          "_0": "uint256 An interger representing the minted token ID."
        }
      },
      "mintTimestampOf(uint256)": {
        "details": "See {IERC721Time-mintTimestampOf}"
      },
      "name()": {
        "details": "See {IERC721Metadata-name}."
      },
      "ownerOf(uint256)": {
        "details": "See {IERC721-ownerOf}."
      },
      "permit(address,uint256,(uint8,bytes32,bytes32,uint256))": {
        "params": {
          "sig": "The EIP712 signature struct.",
          "spender": "The NFT spender.",
          "tokenId": "The NFT token ID to approve."
        }
      },
      "permitForAll(address,address,bool,(uint8,bytes32,bytes32,uint256))": {
        "params": {
          "approved": "Whether to approve or revoke approval from the operator.",
          "operator": "The operator to approve.",
          "owner": "The owner to set operator approvals for.",
          "sig": "The EIP712 signature struct."
        }
      },
      "safeTransferFrom(address,address,uint256)": {
        "details": "See {IERC721-safeTransferFrom}."
      },
      "safeTransferFrom(address,address,uint256,bytes)": {
        "details": "See {IERC721-safeTransferFrom}."
      },
      "setApprovalForAll(address,bool)": {
        "details": "See {IERC721-setApprovalForAll}."
      },
      "supportsInterface(bytes4)": {
        "details": "See {IERC165-supportsInterface}."
      },
      "symbol()": {
        "details": "See {IERC721Metadata-symbol}."
      },
      "tokenByIndex(uint256)": {
        "details": "See {IERC721Enumerable-tokenByIndex}."
      },
      "tokenDataOf(uint256)": {
        "details": "See {IERC721Time-mintTimestampOf}"
      },
      "tokenOfOwnerByIndex(address,uint256)": {
        "details": "See {IERC721Enumerable-tokenOfOwnerByIndex}."
      },
      "tokenURI(uint256)": {
        "details": "This returns the follow NFT URI fetched from the hub."
      },
      "totalSupply()": {
        "details": "See {IERC721Enumerable-totalSupply}."
      },
      "transferFrom(address,address,uint256)": {
        "details": "See {IERC721-transferFrom}."
      }
    },
    "title": "FollowNFT",
    "version": 1
  },
  "userdoc": {
    "kind": "user",
    "methods": {
      "burn(uint256)": {
        "notice": "Burns an NFT, removing it from circulation and essentially destroying it. This function can only be called by the NFT to burn's owner."
      },
      "burnWithSig(uint256,(uint8,bytes32,bytes32,uint256))": {
        "notice": "Implementation of an EIP-712 permit-style function for token burning. Allows anyone to burn a token on behalf of the owner with a signature."
      },
      "delegate(address)": {
        "notice": "Delegates the caller's governance power to the given delegatee address."
      },
      "delegateBySig(address,address,(uint8,bytes32,bytes32,uint256))": {
        "notice": "Delegates the delegator's governance power via meta-tx to the given delegatee address."
      },
      "getDelegatedSupplyByBlockNumber(uint256)": {
        "notice": "Returns the total delegated supply at a specified block number. This is the sum of all current available voting power at a given block."
      },
      "getDomainSeparator()": {
        "notice": "Returns the domain separator for this NFT contract."
      },
      "getPowerByBlockNumber(address,uint256)": {
        "notice": "Returns the governance power for a given user at a specified block number."
      },
      "initialize(uint256)": {
        "notice": "Initializes the follow NFT, setting the hub as the privileged minter and storing the associated profile ID."
      },
      "mint(address)": {
        "notice": "Mints a follow NFT to the specified address. This can only be called by the hub, and is called upon follow."
      },
      "permit(address,uint256,(uint8,bytes32,bytes32,uint256))": {
        "notice": "Implementation of an EIP-712 permit function for an ERC-721 NFT. We don't need to check if the tokenId exists, since the function calls ownerOf(tokenId), which reverts if the tokenId does not exist."
      },
      "permitForAll(address,address,bool,(uint8,bytes32,bytes32,uint256))": {
        "notice": "Implementation of an EIP-712 permit-style function for ERC-721 operator approvals. Allows an operator address to control all NFTs a given owner owns."
      }
    },
    "notice": "This contract is the NFT that is minted upon following a given profile. It is cloned upon first follow for a given profile, and includes built-in governance power and delegation mechanisms. NOTE: This contract assumes total NFT supply for this follow NFT will never exceed 2^128 - 1",
    "version": 1
  }
}