{
  "contractName": "FollowerOnlyReferenceModule",
  "abi": [
    {
      "inputs": [
        {
          "internalType": "address",
          "name": "hub",
          "type": "address"
        }
      ],
      "stateMutability": "nonpayable",
      "type": "constructor"
    },
    {
      "inputs": [],
      "name": "FollowInvalid",
      "type": "error"
    },
    {
      "inputs": [],
      "name": "InitParamsInvalid",
      "type": "error"
    },
    {
      "inputs": [],
      "name": "HUB",
      "outputs": [
        {
          "internalType": "address",
          "name": "",
          "type": "address"
        }
      ],
      "stateMutability": "view",
      "type": "function"
    },
    {
      "inputs": [
        {
          "internalType": "uint256",
          "name": "profileId",
          "type": "uint256"
        },
        {
          "internalType": "uint256",
          "name": "pubId",
          "type": "uint256"
        },
        {
          "internalType": "bytes",
          "name": "data",
          "type": "bytes"
        }
      ],
      "name": "initializeReferenceModule",
      "outputs": [
        {
          "internalType": "bytes",
          "name": "",
          "type": "bytes"
        }
      ],
      "stateMutability": "pure",
      "type": "function"
    },
    {
      "inputs": [
        {
          "internalType": "uint256",
          "name": "profileId",
          "type": "uint256"
        },
        {
          "internalType": "uint256",
          "name": "profileIdPointed",
          "type": "uint256"
        },
        {
          "internalType": "uint256",
          "name": "pubIdPointed",
          "type": "uint256"
        },
        {
          "internalType": "bytes",
          "name": "data",
          "type": "bytes"
        }
      ],
      "name": "processComment",
      "outputs": [],
      "stateMutability": "view",
      "type": "function"
    },
    {
      "inputs": [
        {
          "internalType": "uint256",
          "name": "profileId",
          "type": "uint256"
        },
        {
          "internalType": "uint256",
          "name": "profileIdPointed",
          "type": "uint256"
        },
        {
          "internalType": "uint256",
          "name": "pubIdPointed",
          "type": "uint256"
        },
        {
          "internalType": "bytes",
          "name": "data",
          "type": "bytes"
        }
      ],
      "name": "processMirror",
      "outputs": [],
      "stateMutability": "view",
      "type": "function"
    }
  ],
  "bytecode": "0x60a06040523480156200001157600080fd5b5060405162000d7938038062000d79833981810160405281019062000037919062000196565b80600073ffffffffffffffffffffffffffffffffffffffff168173ffffffffffffffffffffffffffffffffffffffff161415620000a0576040517f48be0eb300000000000000000000000000000000000000000000000000000000815260040160405180910390fd5b8073ffffffffffffffffffffffffffffffffffffffff1660808173ffffffffffffffffffffffffffffffffffffffff16815250508073ffffffffffffffffffffffffffffffffffffffff167ff1a1fa6b64aa95186f5a1285e76198d0da80d9c5a88062641d447f1d7c54e56c426040516200011c9190620001e3565b60405180910390a2505062000200565b600080fd5b600073ffffffffffffffffffffffffffffffffffffffff82169050919050565b60006200015e8262000131565b9050919050565b620001708162000151565b81146200017c57600080fd5b50565b600081519050620001908162000165565b92915050565b600060208284031215620001af57620001ae6200012c565b5b6000620001bf848285016200017f565b91505092915050565b6000819050919050565b620001dd81620001c8565b82525050565b6000602082019050620001fa6000830184620001d2565b92915050565b608051610b3a6200023f60003960008181610135015281816101e501528181610293015281816102b90152818161041201526105890152610b3a6000f3fe608060405234801561001057600080fd5b506004361061004c5760003560e01c806356014afa1461005157806357ba558414610081578063a2830b2e1461009d578063a4c52b86146100b9575b600080fd5b61006b6004803603810190610066919061071c565b6100d7565b6040516100789190610829565b60405180910390f35b61009b6004803603810190610096919061084b565b610131565b005b6100b760048036038101906100b2919061084b565b6101e1565b005b6100c1610291565b6040516100ce9190610914565b60405180910390f35b6060600067ffffffffffffffff8111156100f4576100f361092f565b5b6040519080825280601f01601f1916602001820160405280156101265781602001600182028036833780820191505090505b509050949350505050565b60007f000000000000000000000000000000000000000000000000000000000000000073ffffffffffffffffffffffffffffffffffffffff16636352211e876040518263ffffffff1660e01b815260040161018c919061096d565b602060405180830381865afa1580156101a9573d6000803e3d6000fd5b505050506040513d601f19601f820116820180604052508101906101cd91906109b4565b90506101d985826102b5565b505050505050565b60007f000000000000000000000000000000000000000000000000000000000000000073ffffffffffffffffffffffffffffffffffffffff16636352211e876040518263ffffffff1660e01b815260040161023c919061096d565b602060405180830381865afa158015610259573d6000803e3d6000fd5b505050506040513d601f19601f8201168201806040525081019061027d91906109b4565b905061028985826102b5565b505050505050565b7f000000000000000000000000000000000000000000000000000000000000000081565b60007f000000000000000000000000000000000000000000000000000000000000000073ffffffffffffffffffffffffffffffffffffffff1663d923d20c846040518263ffffffff1660e01b8152600401610310919061096d565b602060405180830381865afa15801561032d573d6000803e3d6000fd5b505050506040513d601f19601f8201168201806040525081019061035191906109b4565b905060008073ffffffffffffffffffffffffffffffffffffffff168273ffffffffffffffffffffffffffffffffffffffff161461040e578173ffffffffffffffffffffffffffffffffffffffff1663451c3d0c858560006040518463ffffffff1660e01b81526004016103c693929190610a26565b602060405180830381865afa1580156103e3573d6000803e3d6000fd5b505050506040513d601f19601f820116820180604052508101906104079190610a95565b9050610567565b60007f000000000000000000000000000000000000000000000000000000000000000073ffffffffffffffffffffffffffffffffffffffff1663a9ec6563866040518263ffffffff1660e01b8152600401610469919061096d565b602060405180830381865afa158015610486573d6000803e3d6000fd5b505050506040513d601f19601f820116820180604052508101906104aa91906109b4565b9050600073ffffffffffffffffffffffffffffffffffffffff168173ffffffffffffffffffffffffffffffffffffffff1614158015610563575060008173ffffffffffffffffffffffffffffffffffffffff166370a08231866040518263ffffffff1660e01b815260040161051f9190610914565b602060405180830381865afa15801561053c573d6000803e3d6000fd5b505050506040513d601f19601f820116820180604052508101906105609190610ad7565b14155b9150505b8015801561063a57508273ffffffffffffffffffffffffffffffffffffffff167f000000000000000000000000000000000000000000000000000000000000000073ffffffffffffffffffffffffffffffffffffffff16636352211e866040518263ffffffff1660e01b81526004016105e0919061096d565b602060405180830381865afa1580156105fd573d6000803e3d6000fd5b505050506040513d601f19601f8201168201806040525081019061062191906109b4565b73ffffffffffffffffffffffffffffffffffffffff1614155b15610671576040517fd325a6d600000000000000000000000000000000000000000000000000000000815260040160405180910390fd5b50505050565b600080fd5b600080fd5b6000819050919050565b61069481610681565b811461069f57600080fd5b50565b6000813590506106b18161068b565b92915050565b600080fd5b600080fd5b600080fd5b60008083601f8401126106dc576106db6106b7565b5b8235905067ffffffffffffffff8111156106f9576106f86106bc565b5b602083019150836001820283011115610715576107146106c1565b5b9250929050565b6000806000806060858703121561073657610735610677565b5b6000610744878288016106a2565b9450506020610755878288016106a2565b935050604085013567ffffffffffffffff8111156107765761077561067c565b5b610782878288016106c6565b925092505092959194509250565b600081519050919050565b600082825260208201905092915050565b60005b838110156107ca5780820151818401526020810190506107af565b838111156107d9576000848401525b50505050565b6000601f19601f8301169050919050565b60006107fb82610790565b610805818561079b565b93506108158185602086016107ac565b61081e816107df565b840191505092915050565b6000602082019050818103600083015261084381846107f0565b905092915050565b60008060008060006080868803121561086757610866610677565b5b6000610875888289016106a2565b9550506020610886888289016106a2565b9450506040610897888289016106a2565b935050606086013567ffffffffffffffff8111156108b8576108b761067c565b5b6108c4888289016106c6565b92509250509295509295909350565b600073ffffffffffffffffffffffffffffffffffffffff82169050919050565b60006108fe826108d3565b9050919050565b61090e816108f3565b82525050565b60006020820190506109296000830184610905565b92915050565b7f4e487b7100000000000000000000000000000000000000000000000000000000600052604160045260246000fd5b61096781610681565b82525050565b6000602082019050610982600083018461095e565b92915050565b610991816108f3565b811461099c57600080fd5b50565b6000815190506109ae81610988565b92915050565b6000602082840312156109ca576109c9610677565b5b60006109d88482850161099f565b91505092915050565b6000819050919050565b6000819050919050565b6000610a10610a0b610a06846109e1565b6109eb565b610681565b9050919050565b610a20816109f5565b82525050565b6000606082019050610a3b600083018661095e565b610a486020830185610905565b610a556040830184610a17565b949350505050565b60008115159050919050565b610a7281610a5d565b8114610a7d57600080fd5b50565b600081519050610a8f81610a69565b92915050565b600060208284031215610aab57610aaa610677565b5b6000610ab984828501610a80565b91505092915050565b600081519050610ad18161068b565b92915050565b600060208284031215610aed57610aec610677565b5b6000610afb84828501610ac2565b9150509291505056fea26469706673582212208f0abbb9248ae8f393679abd571ae304e70fd1138624038e7ec48ee21d3113d664736f6c634300080a0033",
  "immutableReferences": {
    "7695": [
      {
        "length": 32,
        "start": 309
      },
      {
        "length": 32,
        "start": 485
      },
      {
        "length": 32,
        "start": 659
      },
      {
        "length": 32,
        "start": 697
      },
      {
        "length": 32,
        "start": 1042
      },
      {
        "length": 32,
        "start": 1417
      }
    ]
  },
  "source": "// SPDX-License-Identifier: AGPL-3.0-only\n\npragma solidity 0.8.10;\n\nimport {IReferenceModule} from '../../../interfaces/IReferenceModule.sol';\nimport {ModuleBase} from '../ModuleBase.sol';\nimport {FollowValidationModuleBase} from '../FollowValidationModuleBase.sol';\nimport {IERC721} from '@openzeppelin/contracts/token/ERC721/IERC721.sol';\n\n/**\n * @title FollowerOnlyReferenceModule\n * @author Lens Protocol\n *\n * @notice A simple reference module that validates that comments or mirrors originate from a profile owned\n * by a follower.\n */\ncontract FollowerOnlyReferenceModule is FollowValidationModuleBase, IReferenceModule {\n    constructor(address hub) ModuleBase(hub) {}\n\n    /**\n     * @dev There is nothing needed at initialization.\n     */\n    function initializeReferenceModule(\n        uint256 profileId,\n        uint256 pubId,\n        bytes calldata data\n    ) external pure override returns (bytes memory) {\n        return new bytes(0);\n    }\n\n    /**\n     * @notice Validates that the commenting profile's owner is a follower.\n     *\n     * NOTE: We don't need to care what the pointed publication is in this context.\n     */\n    function processComment(\n        uint256 profileId,\n        uint256 profileIdPointed,\n        uint256 pubIdPointed,\n        bytes calldata data\n    ) external view override {\n        address commentCreator = IERC721(HUB).ownerOf(profileId);\n        _checkFollowValidity(profileIdPointed, commentCreator);\n    }\n\n    /**\n     * @notice Validates that the commenting profile's owner is a follower.\n     *\n     * NOTE: We don't need to care what the pointed publication is in this context.\n     */\n    function processMirror(\n        uint256 profileId,\n        uint256 profileIdPointed,\n        uint256 pubIdPointed,\n        bytes calldata data\n    ) external view override {\n        address mirrorCreator = IERC721(HUB).ownerOf(profileId);\n        _checkFollowValidity(profileIdPointed, mirrorCreator);\n    }\n}\n",
  "sourcePath": "/Users/korbinianabstreiter/crytoprojects/primetime/contracts/core/modules/reference/FollowerOnlyReferenceModule.sol",
  "compiler": {
    "name": "solc",
    "version": "0.8.10+commit.fc410830.Emscripten.clang"
  },
  "schemaVersion": "3.4.5",
  "updatedAt": "2022-04-22T14:49:53.861Z",
  "devdoc": {
    "author": "Lens Protocol",
    "kind": "dev",
    "methods": {
      "initializeReferenceModule(uint256,uint256,bytes)": {
        "details": "There is nothing needed at initialization."
      }
    },
    "title": "FollowerOnlyReferenceModule",
    "version": 1
  },
  "userdoc": {
    "kind": "user",
    "methods": {
      "processComment(uint256,uint256,uint256,bytes)": {
        "notice": "Validates that the commenting profile's owner is a follower. NOTE: We don't need to care what the pointed publication is in this context."
      },
      "processMirror(uint256,uint256,uint256,bytes)": {
        "notice": "Validates that the commenting profile's owner is a follower. NOTE: We don't need to care what the pointed publication is in this context."
      }
    },
    "notice": "A simple reference module that validates that comments or mirrors originate from a profile owned by a follower.",
    "version": 1
  }
}