{
  "contractName": "FreeCollectModule",
  "abi": [
    {
      "inputs": [
        {
          "internalType": "address",
          "name": "hub",
          "type": "address"
        }
      ],
      "stateMutability": "nonpayable",
      "type": "constructor"
    },
    {
      "inputs": [],
      "name": "FollowInvalid",
      "type": "error"
    },
    {
      "inputs": [],
      "name": "InitParamsInvalid",
      "type": "error"
    },
    {
      "inputs": [],
      "name": "NotHub",
      "type": "error"
    },
    {
      "inputs": [],
      "name": "HUB",
      "outputs": [
        {
          "internalType": "address",
          "name": "",
          "type": "address"
        }
      ],
      "stateMutability": "view",
      "type": "function"
    },
    {
      "inputs": [
        {
          "internalType": "uint256",
          "name": "profileId",
          "type": "uint256"
        },
        {
          "internalType": "uint256",
          "name": "pubId",
          "type": "uint256"
        },
        {
          "internalType": "bytes",
          "name": "data",
          "type": "bytes"
        }
      ],
      "name": "initializePublicationCollectModule",
      "outputs": [
        {
          "internalType": "bytes",
          "name": "",
          "type": "bytes"
        }
      ],
      "stateMutability": "nonpayable",
      "type": "function"
    },
    {
      "inputs": [
        {
          "internalType": "uint256",
          "name": "referrerProfileId",
          "type": "uint256"
        },
        {
          "internalType": "address",
          "name": "collector",
          "type": "address"
        },
        {
          "internalType": "uint256",
          "name": "profileId",
          "type": "uint256"
        },
        {
          "internalType": "uint256",
          "name": "pubId",
          "type": "uint256"
        },
        {
          "internalType": "bytes",
          "name": "data",
          "type": "bytes"
        }
      ],
      "name": "processCollect",
      "outputs": [],
      "stateMutability": "view",
      "type": "function"
    }
  ],
  "bytecode": "0x60a06040523480156200001157600080fd5b5060405162000d3f38038062000d3f833981810160405281019062000037919062000196565b80600073ffffffffffffffffffffffffffffffffffffffff168173ffffffffffffffffffffffffffffffffffffffff161415620000a0576040517f48be0eb300000000000000000000000000000000000000000000000000000000815260040160405180910390fd5b8073ffffffffffffffffffffffffffffffffffffffff1660808173ffffffffffffffffffffffffffffffffffffffff16815250508073ffffffffffffffffffffffffffffffffffffffff167ff1a1fa6b64aa95186f5a1285e76198d0da80d9c5a88062641d447f1d7c54e56c426040516200011c9190620001e3565b60405180910390a2505062000200565b600080fd5b600073ffffffffffffffffffffffffffffffffffffffff82169050919050565b60006200015e8262000131565b9050919050565b620001708162000151565b81146200017c57600080fd5b50565b600081519050620001908162000165565b92915050565b600060208284031215620001af57620001ae6200012c565b5b6000620001bf848285016200017f565b91505092915050565b6000819050919050565b620001dd81620001c8565b82525050565b6000602082019050620001fa6000830184620001d2565b92915050565b608051610b09620002366000396000818160b20152818160d80152818161024e015281816103a7015261051e0152610b096000f3fe608060405234801561001057600080fd5b50600436106100415760003560e01c8063a4c52b8614610046578063c233f95114610064578063e49c3dda14610094575b600080fd5b61004e6100b0565b60405161005b919061064d565b60405180910390f35b61007e6004803603810190610079919061070d565b6100d4565b60405161008b919061081a565b60405180910390f35b6100ae60048036038101906100a99190610868565b610201565b005b7f000000000000000000000000000000000000000000000000000000000000000081565b60607f000000000000000000000000000000000000000000000000000000000000000073ffffffffffffffffffffffffffffffffffffffff163373ffffffffffffffffffffffffffffffffffffffff161461015b576040517f9de9741800000000000000000000000000000000000000000000000000000000815260040160405180910390fd5b6000838381019061016c919061093a565b905080156101b1576001600080888152602001908152602001600020600087815260200190815260200160002060006101000a81548160ff0219169083151502179055505b83838080601f016020809104026020016040519081016040528093929190818152602001838380828437600081840152601f19601f82011690508083019250505050505050915050949350505050565b600080858152602001908152602001600020600084815260200190815260200160002060009054906101000a900460ff161561024257610241848661024a565b5b505050505050565b60007f000000000000000000000000000000000000000000000000000000000000000073ffffffffffffffffffffffffffffffffffffffff1663d923d20c846040518263ffffffff1660e01b81526004016102a59190610976565b602060405180830381865afa1580156102c2573d6000803e3d6000fd5b505050506040513d601f19601f820116820180604052508101906102e691906109a6565b905060008073ffffffffffffffffffffffffffffffffffffffff168273ffffffffffffffffffffffffffffffffffffffff16146103a3578173ffffffffffffffffffffffffffffffffffffffff1663451c3d0c858560006040518463ffffffff1660e01b815260040161035b93929190610a18565b602060405180830381865afa158015610378573d6000803e3d6000fd5b505050506040513d601f19601f8201168201806040525081019061039c9190610a64565b90506104fc565b60007f000000000000000000000000000000000000000000000000000000000000000073ffffffffffffffffffffffffffffffffffffffff1663a9ec6563866040518263ffffffff1660e01b81526004016103fe9190610976565b602060405180830381865afa15801561041b573d6000803e3d6000fd5b505050506040513d601f19601f8201168201806040525081019061043f91906109a6565b9050600073ffffffffffffffffffffffffffffffffffffffff168173ffffffffffffffffffffffffffffffffffffffff16141580156104f8575060008173ffffffffffffffffffffffffffffffffffffffff166370a08231866040518263ffffffff1660e01b81526004016104b4919061064d565b602060405180830381865afa1580156104d1573d6000803e3d6000fd5b505050506040513d601f19601f820116820180604052508101906104f59190610aa6565b14155b9150505b801580156105cf57508273ffffffffffffffffffffffffffffffffffffffff167f000000000000000000000000000000000000000000000000000000000000000073ffffffffffffffffffffffffffffffffffffffff16636352211e866040518263ffffffff1660e01b81526004016105759190610976565b602060405180830381865afa158015610592573d6000803e3d6000fd5b505050506040513d601f19601f820116820180604052508101906105b691906109a6565b73ffffffffffffffffffffffffffffffffffffffff1614155b15610606576040517fd325a6d600000000000000000000000000000000000000000000000000000000815260040160405180910390fd5b50505050565b600073ffffffffffffffffffffffffffffffffffffffff82169050919050565b60006106378261060c565b9050919050565b6106478161062c565b82525050565b6000602082019050610662600083018461063e565b92915050565b600080fd5b600080fd5b6000819050919050565b61068581610672565b811461069057600080fd5b50565b6000813590506106a28161067c565b92915050565b600080fd5b600080fd5b600080fd5b60008083601f8401126106cd576106cc6106a8565b5b8235905067ffffffffffffffff8111156106ea576106e96106ad565b5b602083019150836001820283011115610706576107056106b2565b5b9250929050565b6000806000806060858703121561072757610726610668565b5b600061073587828801610693565b945050602061074687828801610693565b935050604085013567ffffffffffffffff8111156107675761076661066d565b5b610773878288016106b7565b925092505092959194509250565b600081519050919050565b600082825260208201905092915050565b60005b838110156107bb5780820151818401526020810190506107a0565b838111156107ca576000848401525b50505050565b6000601f19601f8301169050919050565b60006107ec82610781565b6107f6818561078c565b935061080681856020860161079d565b61080f816107d0565b840191505092915050565b6000602082019050818103600083015261083481846107e1565b905092915050565b6108458161062c565b811461085057600080fd5b50565b6000813590506108628161083c565b92915050565b60008060008060008060a0878903121561088557610884610668565b5b600061089389828a01610693565b96505060206108a489828a01610853565b95505060406108b589828a01610693565b94505060606108c689828a01610693565b935050608087013567ffffffffffffffff8111156108e7576108e661066d565b5b6108f389828a016106b7565b92509250509295509295509295565b60008115159050919050565b61091781610902565b811461092257600080fd5b50565b6000813590506109348161090e565b92915050565b6000602082840312156109505761094f610668565b5b600061095e84828501610925565b91505092915050565b61097081610672565b82525050565b600060208201905061098b6000830184610967565b92915050565b6000815190506109a08161083c565b92915050565b6000602082840312156109bc576109bb610668565b5b60006109ca84828501610991565b91505092915050565b6000819050919050565b6000819050919050565b6000610a026109fd6109f8846109d3565b6109dd565b610672565b9050919050565b610a12816109e7565b82525050565b6000606082019050610a2d6000830186610967565b610a3a602083018561063e565b610a476040830184610a09565b949350505050565b600081519050610a5e8161090e565b92915050565b600060208284031215610a7a57610a79610668565b5b6000610a8884828501610a4f565b91505092915050565b600081519050610aa08161067c565b92915050565b600060208284031215610abc57610abb610668565b5b6000610aca84828501610a91565b9150509291505056fea2646970667358221220ab967a3e7ee6cb331911f6782674ccb2fb280358ae2bc68e20a8a91ebce0463d64736f6c634300080a0033",
  "immutableReferences": {
    "7695": [
      {
        "length": 32,
        "start": 178
      },
      {
        "length": 32,
        "start": 216
      },
      {
        "length": 32,
        "start": 590
      },
      {
        "length": 32,
        "start": 935
      },
      {
        "length": 32,
        "start": 1310
      }
    ]
  },
  "source": "// SPDX-License-Identifier: AGPL-3.0-only\n\npragma solidity 0.8.10;\n\nimport {ICollectModule} from '../../../interfaces/ICollectModule.sol';\nimport {ModuleBase} from '../ModuleBase.sol';\nimport {FollowValidationModuleBase} from '../FollowValidationModuleBase.sol';\n\n/**\n * @title FreeCollectModule\n * @author Lens Protocol\n *\n * @notice This is a simple Lens CollectModule implementation, inheriting from the ICollectModule interface.\n *\n * This module works by allowing all collects.\n */\ncontract FreeCollectModule is FollowValidationModuleBase, ICollectModule {\n    constructor(address hub) ModuleBase(hub) {}\n\n    mapping(uint256 => mapping(uint256 => bool)) internal _followerOnlyByPublicationByProfile;\n\n    /**\n     * @dev There is nothing needed at initialization.\n     */\n    function initializePublicationCollectModule(\n        uint256 profileId,\n        uint256 pubId,\n        bytes calldata data\n    ) external override onlyHub returns (bytes memory) {\n        bool followerOnly = abi.decode(data, (bool));\n        if (followerOnly) _followerOnlyByPublicationByProfile[profileId][pubId] = true;\n        return data;\n    }\n\n    /**\n     * @dev Processes a collect by:\n     *  1. Ensuring the collector is a follower, if needed\n     */\n    function processCollect(\n        uint256 referrerProfileId,\n        address collector,\n        uint256 profileId,\n        uint256 pubId,\n        bytes calldata data\n    ) external view override {\n        if (_followerOnlyByPublicationByProfile[profileId][pubId])\n            _checkFollowValidity(profileId, collector);\n    }\n}\n",
  "sourcePath": "/Users/korbinianabstreiter/crytoprojects/primetime/contracts/core/modules/collect/FreeCollectModule.sol",
  "compiler": {
    "name": "solc",
    "version": "0.8.10+commit.fc410830.Emscripten.clang"
  },
  "schemaVersion": "3.4.5",
  "updatedAt": "2022-04-22T14:49:53.831Z",
  "devdoc": {
    "author": "Lens Protocol",
    "kind": "dev",
    "methods": {
      "initializePublicationCollectModule(uint256,uint256,bytes)": {
        "details": "There is nothing needed at initialization."
      },
      "processCollect(uint256,address,uint256,uint256,bytes)": {
        "details": "Processes a collect by:  1. Ensuring the collector is a follower, if needed"
      }
    },
    "title": "FreeCollectModule",
    "version": 1
  },
  "userdoc": {
    "kind": "user",
    "methods": {},
    "notice": "This is a simple Lens CollectModule implementation, inheriting from the ICollectModule interface. This module works by allowing all collects.",
    "version": 1
  }
}