{
  "contractName": "Helper",
  "abi": [
    {
      "inputs": [],
      "name": "getBlockNumber",
      "outputs": [
        {
          "internalType": "uint256",
          "name": "",
          "type": "uint256"
        }
      ],
      "stateMutability": "view",
      "type": "function"
    },
    {
      "inputs": [
        {
          "internalType": "contract IFollowNFT",
          "name": "nft",
          "type": "address"
        },
        {
          "internalType": "address",
          "name": "first",
          "type": "address"
        },
        {
          "internalType": "address",
          "name": "second",
          "type": "address"
        }
      ],
      "name": "batchDelegate",
      "outputs": [],
      "stateMutability": "nonpayable",
      "type": "function"
    }
  ],
  "bytecode": "0x608060405234801561001057600080fd5b506102e0806100206000396000f3fe608060405234801561001057600080fd5b50600436106100365760003560e01c806342cbb15c1461003b578063ef2fbbc314610059575b600080fd5b610043610075565b6040516100509190610171565b60405180910390f35b610073600480360381019061006e919061022d565b61007d565b005b600043905090565b8273ffffffffffffffffffffffffffffffffffffffff16635c19a95c836040518263ffffffff1660e01b81526004016100b6919061028f565b600060405180830381600087803b1580156100d057600080fd5b505af11580156100e4573d6000803e3d6000fd5b505050508273ffffffffffffffffffffffffffffffffffffffff16635c19a95c826040518263ffffffff1660e01b8152600401610121919061028f565b600060405180830381600087803b15801561013b57600080fd5b505af115801561014f573d6000803e3d6000fd5b50505050505050565b6000819050919050565b61016b81610158565b82525050565b60006020820190506101866000830184610162565b92915050565b600080fd5b600073ffffffffffffffffffffffffffffffffffffffff82169050919050565b60006101bc82610191565b9050919050565b60006101ce826101b1565b9050919050565b6101de816101c3565b81146101e957600080fd5b50565b6000813590506101fb816101d5565b92915050565b61020a816101b1565b811461021557600080fd5b50565b60008135905061022781610201565b92915050565b6000806000606084860312156102465761024561018c565b5b6000610254868287016101ec565b935050602061026586828701610218565b925050604061027686828701610218565b9150509250925092565b610289816101b1565b82525050565b60006020820190506102a46000830184610280565b9291505056fea26469706673582212202536e1a336df2fac5c29296fc5d6f4130096f4069f94ca00d06faa5291f66fe864736f6c634300080a0033",
  "immutableReferences": {},
  "source": "// SPDX-License-Identifier: AGPL-3.0-only\n\npragma solidity 0.8.10;\n\nimport {IFollowNFT} from '../interfaces/IFollowNFT.sol';\n\n/**\n * @dev This is a helper contract used for internal testing.\n *\n * NOTE: This contract is not meant to be deployed and is unsafe for use.\n */\ncontract Helper {\n    /**\n     * @dev This is a helper function that exposes the block number due to the inconsistency of\n     * fetching the block number from scripts.\n     */\n    function getBlockNumber() external view returns (uint256) {\n        return block.number;\n    }\n\n    /**\n     * @dev This is a helper function to aid in testing same-block delegation in the FollowNFT contract.\n     */\n    function batchDelegate(\n        IFollowNFT nft,\n        address first,\n        address second\n    ) external {\n        nft.delegate(first);\n        nft.delegate(second);\n    }\n}\n",
  "sourcePath": "/Users/korbinianabstreiter/crytoprojects/primetime/contracts/mocks/Helper.sol",
  "compiler": {
    "name": "solc",
    "version": "0.8.10+commit.fc410830.Emscripten.clang"
  },
  "schemaVersion": "3.4.5",
  "updatedAt": "2022-04-22T14:49:53.928Z",
  "devdoc": {
    "details": "This is a helper contract used for internal testing. NOTE: This contract is not meant to be deployed and is unsafe for use.",
    "kind": "dev",
    "methods": {
      "batchDelegate(address,address,address)": {
        "details": "This is a helper function to aid in testing same-block delegation in the FollowNFT contract."
      },
      "getBlockNumber()": {
        "details": "This is a helper function that exposes the block number due to the inconsistency of fetching the block number from scripts."
      }
    },
    "version": 1
  },
  "userdoc": {
    "kind": "user",
    "methods": {},
    "version": 1
  }
}