{
  "contractName": "LensPeriphery",
  "abi": [
    {
      "inputs": [
        {
          "internalType": "contract ILensHub",
          "name": "hub",
          "type": "address"
        }
      ],
      "stateMutability": "nonpayable",
      "type": "constructor"
    },
    {
      "inputs": [],
      "name": "ArrayMismatch",
      "type": "error"
    },
    {
      "inputs": [],
      "name": "FollowInvalid",
      "type": "error"
    },
    {
      "inputs": [],
      "name": "NotProfileOwnerOrDispatcher",
      "type": "error"
    },
    {
      "inputs": [],
      "name": "SignatureExpired",
      "type": "error"
    },
    {
      "inputs": [],
      "name": "SignatureInvalid",
      "type": "error"
    },
    {
      "inputs": [],
      "name": "TokenDoesNotExist",
      "type": "error"
    },
    {
      "inputs": [],
      "name": "HUB",
      "outputs": [
        {
          "internalType": "contract ILensHub",
          "name": "",
          "type": "address"
        }
      ],
      "stateMutability": "view",
      "type": "function"
    },
    {
      "inputs": [],
      "name": "NAME",
      "outputs": [
        {
          "internalType": "string",
          "name": "",
          "type": "string"
        }
      ],
      "stateMutability": "view",
      "type": "function"
    },
    {
      "inputs": [
        {
          "internalType": "address",
          "name": "",
          "type": "address"
        }
      ],
      "name": "sigNonces",
      "outputs": [
        {
          "internalType": "uint256",
          "name": "",
          "type": "uint256"
        }
      ],
      "stateMutability": "view",
      "type": "function"
    },
    {
      "inputs": [
        {
          "internalType": "uint256",
          "name": "profileId",
          "type": "uint256"
        },
        {
          "internalType": "string",
          "name": "metadata",
          "type": "string"
        }
      ],
      "name": "setProfileMetadataURI",
      "outputs": [],
      "stateMutability": "nonpayable",
      "type": "function"
    },
    {
      "inputs": [
        {
          "components": [
            {
              "internalType": "uint256",
              "name": "profileId",
              "type": "uint256"
            },
            {
              "internalType": "string",
              "name": "metadata",
              "type": "string"
            },
            {
              "components": [
                {
                  "internalType": "uint8",
                  "name": "v",
                  "type": "uint8"
                },
                {
                  "internalType": "bytes32",
                  "name": "r",
                  "type": "bytes32"
                },
                {
                  "internalType": "bytes32",
                  "name": "s",
                  "type": "bytes32"
                },
                {
                  "internalType": "uint256",
                  "name": "deadline",
                  "type": "uint256"
                }
              ],
              "internalType": "struct DataTypes.EIP712Signature",
              "name": "sig",
              "type": "tuple"
            }
          ],
          "internalType": "struct DataTypes.SetProfileMetadataWithSigData",
          "name": "vars",
          "type": "tuple"
        }
      ],
      "name": "setProfileMetadataURIWithSig",
      "outputs": [],
      "stateMutability": "nonpayable",
      "type": "function"
    },
    {
      "inputs": [
        {
          "internalType": "uint256[]",
          "name": "profileIds",
          "type": "uint256[]"
        },
        {
          "internalType": "bool[]",
          "name": "enables",
          "type": "bool[]"
        }
      ],
      "name": "toggleFollow",
      "outputs": [],
      "stateMutability": "nonpayable",
      "type": "function"
    },
    {
      "inputs": [
        {
          "components": [
            {
              "internalType": "address",
              "name": "follower",
              "type": "address"
            },
            {
              "internalType": "uint256[]",
              "name": "profileIds",
              "type": "uint256[]"
            },
            {
              "internalType": "bool[]",
              "name": "enables",
              "type": "bool[]"
            },
            {
              "components": [
                {
                  "internalType": "uint8",
                  "name": "v",
                  "type": "uint8"
                },
                {
                  "internalType": "bytes32",
                  "name": "r",
                  "type": "bytes32"
                },
                {
                  "internalType": "bytes32",
                  "name": "s",
                  "type": "bytes32"
                },
                {
                  "internalType": "uint256",
                  "name": "deadline",
                  "type": "uint256"
                }
              ],
              "internalType": "struct DataTypes.EIP712Signature",
              "name": "sig",
              "type": "tuple"
            }
          ],
          "internalType": "struct DataTypes.ToggleFollowWithSigData",
          "name": "vars",
          "type": "tuple"
        }
      ],
      "name": "toggleFollowWithSig",
      "outputs": [],
      "stateMutability": "nonpayable",
      "type": "function"
    },
    {
      "inputs": [
        {
          "internalType": "uint256",
          "name": "profileId",
          "type": "uint256"
        }
      ],
      "name": "getProfileMetadataURI",
      "outputs": [
        {
          "internalType": "string",
          "name": "",
          "type": "string"
        }
      ],
      "stateMutability": "view",
      "type": "function"
    }
  ],
  "bytecode": "0x60a06040523480156200001157600080fd5b5060405162001fd538038062001fd58339818101604052810190620000379190620000f0565b8073ffffffffffffffffffffffffffffffffffffffff1660808173ffffffffffffffffffffffffffffffffffffffff16815250505062000122565b600080fd5b600073ffffffffffffffffffffffffffffffffffffffff82169050919050565b6000620000a48262000077565b9050919050565b6000620000b88262000097565b9050919050565b620000ca81620000ab565b8114620000d657600080fd5b50565b600081519050620000ea81620000bf565b92915050565b60006020828403121562000109576200010862000072565b5b60006200011984828501620000d9565b91505092915050565b608051611e74620001616000396000818161024201528181610432015281816108650152818161098101528181610b890152610c570152611e746000f3fe608060405234801561001057600080fd5b50600436106100885760003560e01c8063a7698ac61161005b578063a7698ac614610115578063aa72c1ad14610131578063efe4fd831461014d578063f990ccd71461016957610088565b80631bd7a4961461008d5780634f310384146100bd578063a3f4df7e146100d9578063a4c52b86146100f7575b600080fd5b6100a760048036038101906100a29190610efc565b610199565b6040516100b49190610fc2565b60405180910390f35b6100d760048036038101906100d29190611008565b61023e565b005b6100e16103f7565b6040516100ee9190610fc2565b60405180910390f35b6100ff610430565b60405161010c91906110d0565b60405180910390f35b61012f600480360381019061012a91906111a6565b610454565b005b61014b60048036038101906101469190611246565b610467565b005b610167600480360381019061016291906112e5565b6105fb565b005b610183600480360381019061017e9190611383565b610614565b60405161019091906113bf565b60405180910390f35b60606001600083815260200190815260200160002080546101b990611409565b80601f01602080910402602001604051908101604052809291908181526020018280546101e590611409565b80156102325780601f1061020757610100808354040283529160200191610232565b820191906000526020600020905b81548152906001019060200180831161021557829003601f168201915b50505050509050919050565b60007f000000000000000000000000000000000000000000000000000000000000000073ffffffffffffffffffffffffffffffffffffffff16636352211e83600001356040518263ffffffff1660e01b815260040161029d91906113bf565b602060405180830381865afa1580156102ba573d6000803e3d6000fd5b505050506040513d601f19601f820116820180604052508101906102de9190611450565b90506103d66103bc7fd46ddae52514a1aaf8b4d709742b061f33f2deaee1b2ecc97193734aa9c6e25f846000013585806020019061031c919061148c565b60405161032a92919061152e565b60405180910390206000808773ffffffffffffffffffffffffffffffffffffffff1673ffffffffffffffffffffffffffffffffffffffff168152602001908152602001600020600081548092919061038190611576565b9190505587604001606001356040516020016103a19594939291906115d8565b6040516020818303038152906040528051906020012061062c565b82846040018036038101906103d19190611788565b61066a565b6103f382600001358380602001906103ee919061148c565b6107ab565b5050565b6040518060400160405280600d81526020017f4c656e735065726970686572790000000000000000000000000000000000000081525081565b7f000000000000000000000000000000000000000000000000000000000000000081565b610461338585858561080f565b50505050565b6105bd6105917ecfb338e2b61ce79b6e570ede2bbd4588c3973904a7c46a87b69c09dfbd520983806020019061049d91906117b5565b6040516020016104ae929190611884565b604051602081830303815290604052805190602001208480604001906104d4919061189d565b6040516020016104e59291906119f5565b604051602081830303815290604052805190602001206000808760000160208101906105119190611383565b73ffffffffffffffffffffffffffffffffffffffff1673ffffffffffffffffffffffffffffffffffffffff1681526020019081526020016000206000815480929190600101919050558660600160600135604051602001610576959493929190611a0e565b6040516020818303038152906040528051906020012061062c565b8260000160208101906105a49190611383565b836060018036038101906105b89190611788565b61066a565b6105f88160000160208101906105d39190611383565b8280602001906105e391906117b5565b8480604001906105f3919061189d565b61080f565b50565b61060483610b87565b61060f8383836107ab565b505050565b60006020528060005260406000206000915090505481565b600080610637610d5d565b83604051602001610649929190611ad9565b60405160208183030381529060405280519060200120905080915050919050565b42816060015110156106a8576040517f0819bdcd00000000000000000000000000000000000000000000000000000000815260040160405180910390fd5b6000600184836000015184602001518560400151604051600081526020016040526040516106d99493929190611b1f565b6020604051602081039080840390855afa1580156106fb573d6000803e3d6000fd5b505050602060405103519050600073ffffffffffffffffffffffffffffffffffffffff168173ffffffffffffffffffffffffffffffffffffffff16148061076e57508273ffffffffffffffffffffffffffffffffffffffff168173ffffffffffffffffffffffffffffffffffffffff1614155b156107a5576040517f37e8456b00000000000000000000000000000000000000000000000000000000815260040160405180910390fd5b50505050565b81816001600086815260200190815260200160002091906107cd929190610e0f565b50827ff901a8b3832914a45999dd4c425fbe42eb4182724d394100401e633d9f0b286a83834260405161080293929190611b91565b60405180910390a2505050565b81819050848490501461084e576040517fb7c1140d00000000000000000000000000000000000000000000000000000000815260040160405180910390fd5b600084849050905060005b81811015610b285760007f000000000000000000000000000000000000000000000000000000000000000073ffffffffffffffffffffffffffffffffffffffff1663a9ec65638888858181106108b2576108b1611bc3565b5b905060200201356040518263ffffffff1660e01b81526004016108d591906113bf565b602060405180830381865afa1580156108f2573d6000803e3d6000fd5b505050506040513d601f19601f820116820180604052508101906109169190611450565b9050600073ffffffffffffffffffffffffffffffffffffffff168173ffffffffffffffffffffffffffffffffffffffff16141561097f576040517fd325a6d600000000000000000000000000000000000000000000000000000000815260040160405180910390fd5b7f000000000000000000000000000000000000000000000000000000000000000073ffffffffffffffffffffffffffffffffffffffff16634f558e798888858181106109ce576109cd611bc3565b5b905060200201356040518263ffffffff1660e01b81526004016109f191906113bf565b602060405180830381865afa158015610a0e573d6000803e3d6000fd5b505050506040513d601f19601f82011682018060405250810190610a329190611c07565b610a68576040517fceea21b600000000000000000000000000000000000000000000000000000000815260040160405180910390fd5b60008173ffffffffffffffffffffffffffffffffffffffff166370a082318a6040518263ffffffff1660e01b8152600401610aa39190611c43565b602060405180830381865afa158015610ac0573d6000803e3d6000fd5b505050506040513d601f19601f82011682018060405250810190610ae49190611c73565b1415610b1c576040517fd325a6d600000000000000000000000000000000000000000000000000000000815260040160405180910390fd5b81600101915050610859565b508573ffffffffffffffffffffffffffffffffffffffff167f5538c80c8d3bee397d87a7d153f7f085bb12adf2fe25a026c7cc4e83d8c5f1d78686868642604051610b77959493929190611da2565b60405180910390a2505050505050565b7f000000000000000000000000000000000000000000000000000000000000000073ffffffffffffffffffffffffffffffffffffffff16636352211e826040518263ffffffff1660e01b8152600401610be091906113bf565b602060405180830381865afa158015610bfd573d6000803e3d6000fd5b505050506040513d601f19601f82011682018060405250810190610c219190611450565b73ffffffffffffffffffffffffffffffffffffffff163373ffffffffffffffffffffffffffffffffffffffff161480610d1e57507f000000000000000000000000000000000000000000000000000000000000000073ffffffffffffffffffffffffffffffffffffffff1663540528b9826040518263ffffffff1660e01b8152600401610cae91906113bf565b602060405180830381865afa158015610ccb573d6000803e3d6000fd5b505050506040513d601f19601f82011682018060405250810190610cef9190611450565b73ffffffffffffffffffffffffffffffffffffffff163373ffffffffffffffffffffffffffffffffffffffff16145b15610d2857610d5a565b6040517ff33ac98f00000000000000000000000000000000000000000000000000000000815260040160405180910390fd5b50565b60007f8b73c3c69bb8fe3d512ecc4cf759cc79239f7b179b0ffacaa9a75d522b39400f6040518060400160405280600d81526020017f4c656e7350657269706865727900000000000000000000000000000000000000815250805190602001207fc89efdaa54c0f20c7adf612882df0950f5a951637e0307cdcb4c672f298b8bc64630604051602001610df4959493929190611deb565b60405160208183030381529060405280519060200120905090565b828054610e1b90611409565b90600052602060002090601f016020900481019282610e3d5760008555610e84565b82601f10610e5657803560ff1916838001178555610e84565b82800160010185558215610e84579182015b82811115610e83578235825591602001919060010190610e68565b5b509050610e919190610e95565b5090565b5b80821115610eae576000816000905550600101610e96565b5090565b6000604051905090565b600080fd5b600080fd5b6000819050919050565b610ed981610ec6565b8114610ee457600080fd5b50565b600081359050610ef681610ed0565b92915050565b600060208284031215610f1257610f11610ebc565b5b6000610f2084828501610ee7565b91505092915050565b600081519050919050565b600082825260208201905092915050565b60005b83811015610f63578082015181840152602081019050610f48565b83811115610f72576000848401525b50505050565b6000601f19601f8301169050919050565b6000610f9482610f29565b610f9e8185610f34565b9350610fae818560208601610f45565b610fb781610f78565b840191505092915050565b60006020820190508181036000830152610fdc8184610f89565b905092915050565b600080fd5b600060c08284031215610fff57610ffe610fe4565b5b81905092915050565b60006020828403121561101e5761101d610ebc565b5b600082013567ffffffffffffffff81111561103c5761103b610ec1565b5b61104884828501610fe9565b91505092915050565b600073ffffffffffffffffffffffffffffffffffffffff82169050919050565b6000819050919050565b600061109661109161108c84611051565b611071565b611051565b9050919050565b60006110a88261107b565b9050919050565b60006110ba8261109d565b9050919050565b6110ca816110af565b82525050565b60006020820190506110e560008301846110c1565b92915050565b600080fd5b600080fd5b600080fd5b60008083601f8401126111105761110f6110eb565b5b8235905067ffffffffffffffff81111561112d5761112c6110f0565b5b602083019150836020820283011115611149576111486110f5565b5b9250929050565b60008083601f840112611166576111656110eb565b5b8235905067ffffffffffffffff811115611183576111826110f0565b5b60208301915083602082028301111561119f5761119e6110f5565b5b9250929050565b600080600080604085870312156111c0576111bf610ebc565b5b600085013567ffffffffffffffff8111156111de576111dd610ec1565b5b6111ea878288016110fa565b9450945050602085013567ffffffffffffffff81111561120d5761120c610ec1565b5b61121987828801611150565b925092505092959194509250565b600060e0828403121561123d5761123c610fe4565b5b81905092915050565b60006020828403121561125c5761125b610ebc565b5b600082013567ffffffffffffffff81111561127a57611279610ec1565b5b61128684828501611227565b91505092915050565b60008083601f8401126112a5576112a46110eb565b5b8235905067ffffffffffffffff8111156112c2576112c16110f0565b5b6020830191508360018202830111156112de576112dd6110f5565b5b9250929050565b6000806000604084860312156112fe576112fd610ebc565b5b600061130c86828701610ee7565b935050602084013567ffffffffffffffff81111561132d5761132c610ec1565b5b6113398682870161128f565b92509250509250925092565b600061135082611051565b9050919050565b61136081611345565b811461136b57600080fd5b50565b60008135905061137d81611357565b92915050565b60006020828403121561139957611398610ebc565b5b60006113a78482850161136e565b91505092915050565b6113b981610ec6565b82525050565b60006020820190506113d460008301846113b0565b92915050565b7f4e487b7100000000000000000000000000000000000000000000000000000000600052602260045260246000fd5b6000600282049050600182168061142157607f821691505b60208210811415611435576114346113da565b5b50919050565b60008151905061144a81611357565b92915050565b60006020828403121561146657611465610ebc565b5b60006114748482850161143b565b91505092915050565b600080fd5b600080fd5b600080fd5b600080833560016020038436030381126114a9576114a861147d565b5b80840192508235915067ffffffffffffffff8211156114cb576114ca611482565b5b6020830192506001820236038313156114e7576114e6611487565b5b509250929050565b600081905092915050565b82818337600083830152505050565b600061151583856114ef565b93506115228385846114fa565b82840190509392505050565b600061153b828486611509565b91508190509392505050565b7f4e487b7100000000000000000000000000000000000000000000000000000000600052601160045260246000fd5b600061158182610ec6565b91507fffffffffffffffffffffffffffffffffffffffffffffffffffffffffffffffff8214156115b4576115b3611547565b5b600182019050919050565b6000819050919050565b6115d2816115bf565b82525050565b600060a0820190506115ed60008301886115c9565b6115fa60208301876113b0565b61160760408301866115c9565b61161460608301856113b0565b61162160808301846113b0565b9695505050505050565b600080fd5b7f4e487b7100000000000000000000000000000000000000000000000000000000600052604160045260246000fd5b61166882610f78565b810181811067ffffffffffffffff8211171561168757611686611630565b5b80604052505050565b600061169a610eb2565b90506116a6828261165f565b919050565b600060ff82169050919050565b6116c1816116ab565b81146116cc57600080fd5b50565b6000813590506116de816116b8565b92915050565b6116ed816115bf565b81146116f857600080fd5b50565b60008135905061170a816116e4565b92915050565b6000608082840312156117265761172561162b565b5b6117306080611690565b90506000611740848285016116cf565b6000830152506020611754848285016116fb565b6020830152506040611768848285016116fb565b604083015250606061177c84828501610ee7565b60608301525092915050565b60006080828403121561179e5761179d610ebc565b5b60006117ac84828501611710565b91505092915050565b600080833560016020038436030381126117d2576117d161147d565b5b80840192508235915067ffffffffffffffff8211156117f4576117f3611482565b5b6020830192506020820236038313156118105761180f611487565b5b509250929050565b600081905092915050565b600080fd5b60006118348385611818565b93507f07ffffffffffffffffffffffffffffffffffffffffffffffffffffffffffffff83111561186757611866611823565b5b6020830292506118788385846114fa565b82840190509392505050565b6000611891828486611828565b91508190509392505050565b600080833560016020038436030381126118ba576118b961147d565b5b80840192508235915067ffffffffffffffff8211156118dc576118db611482565b5b6020830192506020820236038313156118f8576118f7611487565b5b509250929050565b600081905092915050565b6000819050919050565b60008115159050919050565b61192a81611915565b82525050565b600061193c8383611921565b60208301905092915050565b61195181611915565b811461195c57600080fd5b50565b60008135905061196e81611948565b92915050565b6000611983602084018461195f565b905092915050565b6000602082019050919050565b60006119a48385611900565b93506119af8261190b565b8060005b858110156119e8576119c58284611974565b6119cf8882611930565b97506119da8361198b565b9250506001810190506119b3565b5085925050509392505050565b6000611a02828486611998565b91508190509392505050565b600060a082019050611a2360008301886115c9565b611a3060208301876115c9565b611a3d60408301866115c9565b611a4a60608301856113b0565b611a5760808301846113b0565b9695505050505050565b600081905092915050565b7f1901000000000000000000000000000000000000000000000000000000000000600082015250565b6000611aa2600283611a61565b9150611aad82611a6c565b600282019050919050565b6000819050919050565b611ad3611ace826115bf565b611ab8565b82525050565b6000611ae482611a95565b9150611af08285611ac2565b602082019150611b008284611ac2565b6020820191508190509392505050565b611b19816116ab565b82525050565b6000608082019050611b3460008301876115c9565b611b416020830186611b10565b611b4e60408301856115c9565b611b5b60608301846115c9565b95945050505050565b6000611b708385610f34565b9350611b7d8385846114fa565b611b8683610f78565b840190509392505050565b60006040820190508181036000830152611bac818587611b64565b9050611bbb60208301846113b0565b949350505050565b7f4e487b7100000000000000000000000000000000000000000000000000000000600052603260045260246000fd5b600081519050611c0181611948565b92915050565b600060208284031215611c1d57611c1c610ebc565b5b6000611c2b84828501611bf2565b91505092915050565b611c3d81611345565b82525050565b6000602082019050611c586000830184611c34565b92915050565b600081519050611c6d81610ed0565b92915050565b600060208284031215611c8957611c88610ebc565b5b6000611c9784828501611c5e565b91505092915050565b600082825260208201905092915050565b6000611cbd8385611ca0565b93507f07ffffffffffffffffffffffffffffffffffffffffffffffffffffffffffffff831115611cf057611cef611823565b5b602083029250611d018385846114fa565b82840190509392505050565b600082825260208201905092915050565b611d2781611915565b82525050565b6000611d398383611d1e565b60208301905092915050565b6000611d518385611d0d565b9350611d5c8261190b565b8060005b85811015611d9557611d728284611974565b611d7c8882611d2d565b9750611d878361198b565b925050600181019050611d60565b5085925050509392505050565b60006060820190508181036000830152611dbd818789611cb1565b90508181036020830152611dd2818587611d45565b9050611de160408301846113b0565b9695505050505050565b600060a082019050611e0060008301886115c9565b611e0d60208301876115c9565b611e1a60408301866115c9565b611e2760608301856113b0565b611e346080830184611c34565b969550505050505056fea2646970667358221220d4ae94dee899e3d297c51177df60aff12520ca9d415b6d558ef81bbf2436ef8164736f6c634300080a0033",
  "immutableReferences": {
    "15088": [
      {
        "length": 32,
        "start": 578
      },
      {
        "length": 32,
        "start": 1074
      },
      {
        "length": 32,
        "start": 2149
      },
      {
        "length": 32,
        "start": 2433
      },
      {
        "length": 32,
        "start": 2953
      },
      {
        "length": 32,
        "start": 3159
      }
    ]
  },
  "source": "// SPDX-License-Identifier: AGPL-3.0-only\n\npragma solidity 0.8.10;\n\nimport {IERC721Time} from '../core/base/IERC721Time.sol';\nimport {ILensHub} from '../interfaces/ILensHub.sol';\nimport {DataTypes} from '../libraries/DataTypes.sol';\nimport {Events} from '../libraries/Events.sol';\nimport {Errors} from '../libraries/Errors.sol';\n\n/**\n * @notice This is a peripheral contract that acts as a source of truth for profile metadata and allows\n * for users to emit an event demonstrating whether or not they explicitly want a follow to be shown.\n *\n * @dev This is useful because it allows clients to filter out follow NFTs that were transferred to\n * a recipient by another user (i.e. Not a mint) and not register them as \"following\" unless\n * the recipient explicitly toggles the follow here.\n */\ncontract LensPeriphery {\n    string public constant NAME = 'LensPeriphery';\n    bytes32 internal constant EIP712_REVISION_HASH = keccak256('1');\n    bytes32 internal constant EIP712_DOMAIN_TYPEHASH =\n        keccak256(\n            'EIP712Domain(string name,string version,uint256 chainId,address verifyingContract)'\n        );\n    bytes32 internal constant TOGGLE_FOLLOW_WITH_SIG_TYPEHASH =\n        keccak256(\n            'ToggleFollowWithSig(uint256[] profileIds,bool[] enables,uint256 nonce,uint256 deadline)'\n        );\n    bytes32 internal constant SET_PROFILE_METADATA_WITH_SIG_TYPEHASH =\n        keccak256(\n            'SetProfileMetadataURIWithSig(uint256 profileId,string metadata,uint256 nonce,uint256 deadline)'\n        );\n\n    ILensHub public immutable HUB;\n\n    mapping(address => uint256) public sigNonces;\n\n    mapping(uint256 => string) internal _metadataByProfile;\n\n    constructor(ILensHub hub) {\n        HUB = hub;\n    }\n\n    /**\n     * @notice Sets the profile metadata for a given profile.\n     *\n     * @param profileId The profile ID to set the metadata for.\n     * @param metadata The metadata string to set for the profile.\n     */\n    function setProfileMetadataURI(uint256 profileId, string calldata metadata) external {\n        _validateCallerIsProfileOwnerOrDispatcher(profileId);\n        _setProfileMetadataURI(profileId, metadata);\n    }\n\n    /**\n     * @notice Sets the profile metadata for a given profile via signature with the specified parameters.\n     *\n     * @param vars A SetProfileMetadataWithSigData struct containingthe regular parameters and an EIP712Signature struct.\n     */\n    function setProfileMetadataURIWithSig(DataTypes.SetProfileMetadataWithSigData calldata vars)\n        external\n    {\n        address owner = IERC721Time(address(HUB)).ownerOf(vars.profileId);\n        _validateRecoveredAddress(\n            _calculateDigest(\n                keccak256(\n                    abi.encode(\n                        SET_PROFILE_METADATA_WITH_SIG_TYPEHASH,\n                        vars.profileId,\n                        keccak256(bytes(vars.metadata)),\n                        sigNonces[owner]++,\n                        vars.sig.deadline\n                    )\n                )\n            ),\n            owner,\n            vars.sig\n        );\n        _setProfileMetadataURI(vars.profileId, vars.metadata);\n    }\n\n    /**\n     * @notice Toggle Follows on the given profiles, emiting toggle event for each FollowNFT.\n     *\n     * NOTE: `profileIds`, `followNFTIds` and `enables` arrays must be of the same length.\n     *\n     * @param profileIds The token ID array of the profiles.\n     * @param enables The array of booleans to enable/disable follows.\n     */\n    function toggleFollow(uint256[] calldata profileIds, bool[] calldata enables) external {\n        _toggleFollow(msg.sender, profileIds, enables);\n    }\n\n    /**\n     * @notice Toggle Follows a given profiles via signature with the specified parameters.\n     *\n     * @param vars A ToggleFollowWithSigData struct containing the regular parameters as well as the signing follower's address\n     * and an EIP712Signature struct.\n     */\n    function toggleFollowWithSig(DataTypes.ToggleFollowWithSigData calldata vars) external {\n        unchecked {\n            _validateRecoveredAddress(\n                _calculateDigest(\n                    keccak256(\n                        abi.encode(\n                            TOGGLE_FOLLOW_WITH_SIG_TYPEHASH,\n                            keccak256(abi.encodePacked(vars.profileIds)),\n                            keccak256(abi.encodePacked(vars.enables)),\n                            sigNonces[vars.follower]++,\n                            vars.sig.deadline\n                        )\n                    )\n                ),\n                vars.follower,\n                vars.sig\n            );\n        }\n\n        _toggleFollow(vars.follower, vars.profileIds, vars.enables);\n    }\n\n    /**\n     * @notice Returns the metadata URI of a profile.\n     *\n     * @param profileId The profile ID to query the metadata URI for.\n     *\n     * @return string The metadata associated with that profile ID, or an empty string if it is not set or the profile does not exist.\n     */\n    function getProfileMetadataURI(uint256 profileId) external view returns (string memory) {\n        return _metadataByProfile[profileId];\n    }\n\n    function _setProfileMetadataURI(uint256 profileId, string calldata metadata) internal {\n        _metadataByProfile[profileId] = metadata;\n        emit Events.ProfileMetadataSet(profileId, metadata, block.timestamp);\n    }\n\n    function _toggleFollow(\n        address follower,\n        uint256[] calldata profileIds,\n        bool[] calldata enables\n    ) internal {\n        if (profileIds.length != enables.length) revert Errors.ArrayMismatch();\n        uint256 profileIdsLength = profileIds.length;\n        for (uint256 i = 0; i < profileIdsLength; ) {\n            address followNFT = HUB.getFollowNFT(profileIds[i]);\n            if (followNFT == address(0)) revert Errors.FollowInvalid();\n            if (!IERC721Time(address(HUB)).exists(profileIds[i])) revert Errors.TokenDoesNotExist();\n            if (IERC721Time(followNFT).balanceOf(follower) == 0) revert Errors.FollowInvalid();\n            unchecked {\n                ++i;\n            }\n        }\n        emit Events.FollowsToggled(follower, profileIds, enables, block.timestamp);\n    }\n\n    function _validateCallerIsProfileOwnerOrDispatcher(uint256 profileId) internal view {\n        if (\n            msg.sender == IERC721Time(address(HUB)).ownerOf(profileId) ||\n            msg.sender == HUB.getDispatcher(profileId)\n        ) {\n            return;\n        }\n        revert Errors.NotProfileOwnerOrDispatcher();\n    }\n\n    /**\n     * @dev Wrapper for ecrecover to reduce code size, used in meta-tx specific functions.\n     */\n    function _validateRecoveredAddress(\n        bytes32 digest,\n        address expectedAddress,\n        DataTypes.EIP712Signature memory sig\n    ) internal view {\n        if (sig.deadline < block.timestamp) revert Errors.SignatureExpired();\n        address recoveredAddress = ecrecover(digest, sig.v, sig.r, sig.s);\n        if (recoveredAddress == address(0) || recoveredAddress != expectedAddress)\n            revert Errors.SignatureInvalid();\n    }\n\n    /**\n     * @dev Calculates EIP712 DOMAIN_SEPARATOR based on the current contract and chain ID.\n     */\n    function _calculateDomainSeparator() internal view returns (bytes32) {\n        return\n            keccak256(\n                abi.encode(\n                    EIP712_DOMAIN_TYPEHASH,\n                    keccak256(bytes(NAME)),\n                    EIP712_REVISION_HASH,\n                    block.chainid,\n                    address(this)\n                )\n            );\n    }\n\n    /**\n     * @dev Calculates EIP712 digest based on the current DOMAIN_SEPARATOR.\n     *\n     * @param hashedMessage The message hash from which the digest should be calculated.\n     *\n     * @return bytes32 A 32-byte output representing the EIP712 digest.\n     */\n    function _calculateDigest(bytes32 hashedMessage) internal view returns (bytes32) {\n        bytes32 digest;\n        unchecked {\n            digest = keccak256(\n                abi.encodePacked('\\x19\\x01', _calculateDomainSeparator(), hashedMessage)\n            );\n        }\n        return digest;\n    }\n}\n",
  "sourcePath": "/Users/korbinianabstreiter/crytoprojects/primetime/contracts/misc/LensPeriphery.sol",
  "compiler": {
    "name": "solc",
    "version": "0.8.10+commit.fc410830.Emscripten.clang"
  },
  "schemaVersion": "3.4.5",
  "updatedAt": "2022-04-22T14:49:53.904Z",
  "devdoc": {
    "details": "This is useful because it allows clients to filter out follow NFTs that were transferred to a recipient by another user (i.e. Not a mint) and not register them as \"following\" unless the recipient explicitly toggles the follow here.",
    "kind": "dev",
    "methods": {
      "getProfileMetadataURI(uint256)": {
        "params": {
          "profileId": "The profile ID to query the metadata URI for."
        },
        "returns": {
          "_0": "string The metadata associated with that profile ID, or an empty string if it is not set or the profile does not exist."
        }
      },
      "setProfileMetadataURI(uint256,string)": {
        "params": {
          "metadata": "The metadata string to set for the profile.",
          "profileId": "The profile ID to set the metadata for."
        }
      },
      "setProfileMetadataURIWithSig((uint256,string,(uint8,bytes32,bytes32,uint256)))": {
        "params": {
          "vars": "A SetProfileMetadataWithSigData struct containingthe regular parameters and an EIP712Signature struct."
        }
      },
      "toggleFollow(uint256[],bool[])": {
        "params": {
          "enables": "The array of booleans to enable/disable follows.",
          "profileIds": "The token ID array of the profiles."
        }
      },
      "toggleFollowWithSig((address,uint256[],bool[],(uint8,bytes32,bytes32,uint256)))": {
        "params": {
          "vars": "A ToggleFollowWithSigData struct containing the regular parameters as well as the signing follower's address and an EIP712Signature struct."
        }
      }
    },
    "version": 1
  },
  "userdoc": {
    "kind": "user",
    "methods": {
      "getProfileMetadataURI(uint256)": {
        "notice": "Returns the metadata URI of a profile."
      },
      "setProfileMetadataURI(uint256,string)": {
        "notice": "Sets the profile metadata for a given profile."
      },
      "setProfileMetadataURIWithSig((uint256,string,(uint8,bytes32,bytes32,uint256)))": {
        "notice": "Sets the profile metadata for a given profile via signature with the specified parameters."
      },
      "toggleFollow(uint256[],bool[])": {
        "notice": "Toggle Follows on the given profiles, emiting toggle event for each FollowNFT. NOTE: `profileIds`, `followNFTIds` and `enables` arrays must be of the same length."
      },
      "toggleFollowWithSig((address,uint256[],bool[],(uint8,bytes32,bytes32,uint256)))": {
        "notice": "Toggle Follows a given profiles via signature with the specified parameters."
      }
    },
    "notice": "This is a peripheral contract that acts as a source of truth for profile metadata and allows for users to emit an event demonstrating whether or not they explicitly want a follow to be shown.",
    "version": 1
  }
}