{
  "contractName": "LimitedTimedFeeCollectModule",
  "abi": [
    {
      "inputs": [
        {
          "internalType": "address",
          "name": "hub",
          "type": "address"
        },
        {
          "internalType": "address",
          "name": "moduleGlobals",
          "type": "address"
        }
      ],
      "stateMutability": "nonpayable",
      "type": "constructor"
    },
    {
      "inputs": [],
      "name": "CollectExpired",
      "type": "error"
    },
    {
      "inputs": [],
      "name": "FollowInvalid",
      "type": "error"
    },
    {
      "inputs": [],
      "name": "InitParamsInvalid",
      "type": "error"
    },
    {
      "inputs": [],
      "name": "MintLimitExceeded",
      "type": "error"
    },
    {
      "inputs": [],
      "name": "ModuleDataMismatch",
      "type": "error"
    },
    {
      "inputs": [],
      "name": "NotHub",
      "type": "error"
    },
    {
      "inputs": [],
      "name": "HUB",
      "outputs": [
        {
          "internalType": "address",
          "name": "",
          "type": "address"
        }
      ],
      "stateMutability": "view",
      "type": "function"
    },
    {
      "inputs": [],
      "name": "MODULE_GLOBALS",
      "outputs": [
        {
          "internalType": "address",
          "name": "",
          "type": "address"
        }
      ],
      "stateMutability": "view",
      "type": "function"
    },
    {
      "inputs": [
        {
          "internalType": "uint256",
          "name": "profileId",
          "type": "uint256"
        },
        {
          "internalType": "uint256",
          "name": "pubId",
          "type": "uint256"
        },
        {
          "internalType": "bytes",
          "name": "data",
          "type": "bytes"
        }
      ],
      "name": "initializePublicationCollectModule",
      "outputs": [
        {
          "internalType": "bytes",
          "name": "",
          "type": "bytes"
        }
      ],
      "stateMutability": "nonpayable",
      "type": "function"
    },
    {
      "inputs": [
        {
          "internalType": "uint256",
          "name": "referrerProfileId",
          "type": "uint256"
        },
        {
          "internalType": "address",
          "name": "collector",
          "type": "address"
        },
        {
          "internalType": "uint256",
          "name": "profileId",
          "type": "uint256"
        },
        {
          "internalType": "uint256",
          "name": "pubId",
          "type": "uint256"
        },
        {
          "internalType": "bytes",
          "name": "data",
          "type": "bytes"
        }
      ],
      "name": "processCollect",
      "outputs": [],
      "stateMutability": "nonpayable",
      "type": "function"
    },
    {
      "inputs": [
        {
          "internalType": "uint256",
          "name": "profileId",
          "type": "uint256"
        },
        {
          "internalType": "uint256",
          "name": "pubId",
          "type": "uint256"
        }
      ],
      "name": "getPublicationData",
      "outputs": [
        {
          "components": [
            {
              "internalType": "uint256",
              "name": "collectLimit",
              "type": "uint256"
            },
            {
              "internalType": "uint256",
              "name": "currentCollects",
              "type": "uint256"
            },
            {
              "internalType": "uint256",
              "name": "amount",
              "type": "uint256"
            },
            {
              "internalType": "address",
              "name": "currency",
              "type": "address"
            },
            {
              "internalType": "address",
              "name": "recipient",
              "type": "address"
            },
            {
              "internalType": "uint16",
              "name": "referralFee",
              "type": "uint16"
            },
            {
              "internalType": "bool",
              "name": "followerOnly",
              "type": "bool"
            },
            {
              "internalType": "uint40",
              "name": "endTimestamp",
              "type": "uint40"
            }
          ],
          "internalType": "struct ProfilePublicationData",
          "name": "",
          "type": "tuple"
        }
      ],
      "stateMutability": "view",
      "type": "function"
    }
  ],
  "bytecode": "0x60c06040523480156200001157600080fd5b506040516200259838038062002598833981810160405281019062000037919062000285565b8181600073ffffffffffffffffffffffffffffffffffffffff168173ffffffffffffffffffffffffffffffffffffffff161415620000a1576040517f48be0eb300000000000000000000000000000000000000000000000000000000815260040160405180910390fd5b8073ffffffffffffffffffffffffffffffffffffffff1660808173ffffffffffffffffffffffffffffffffffffffff16815250508073ffffffffffffffffffffffffffffffffffffffff167f4e84a529f4c627b5e787037d117873af1018768804cca3c7f0d47041fe2c89ed426040516200011d9190620002e7565b60405180910390a250600073ffffffffffffffffffffffffffffffffffffffff168173ffffffffffffffffffffffffffffffffffffffff1614156200018e576040517f48be0eb300000000000000000000000000000000000000000000000000000000815260040160405180910390fd5b8073ffffffffffffffffffffffffffffffffffffffff1660a08173ffffffffffffffffffffffffffffffffffffffff16815250508073ffffffffffffffffffffffffffffffffffffffff167ff1a1fa6b64aa95186f5a1285e76198d0da80d9c5a88062641d447f1d7c54e56c426040516200020a9190620002e7565b60405180910390a250505062000304565b600080fd5b600073ffffffffffffffffffffffffffffffffffffffff82169050919050565b60006200024d8262000220565b9050919050565b6200025f8162000240565b81146200026b57600080fd5b50565b6000815190506200027f8162000254565b92915050565b600080604083850312156200029f576200029e6200021b565b5b6000620002af858286016200026e565b9250506020620002c2858286016200026e565b9150509250929050565b6000819050919050565b620002e181620002cc565b82525050565b6000602082019050620002fe6000830184620002d6565b92915050565b60805160a05161223662000362600039600081816102a7015281816102cd0152818161064a0152818161092601528181610a7f01528181610bf60152610faa0152600081816102830152818161088301526111c701526122366000f3fe608060405234801561001057600080fd5b50600436106100575760003560e01c80633f5038921461005c57806388ffe8511461008c578063a4c52b86146100aa578063c233f951146100c8578063e49c3dda146100f8575b600080fd5b6100766004803603810190610071919061161f565b610114565b60405161008391906117a9565b60405180910390f35b610094610281565b6040516100a191906117d4565b60405180910390f35b6100b26102a5565b6040516100bf91906117d4565b60405180910390f35b6100e260048036038101906100dd9190611854565b6102c9565b6040516100ef9190611961565b60405180910390f35b610112600480360381019061010d91906119af565b610648565b005b61011c611561565b6000808481526020019081526020016000206000838152602001908152602001600020604051806101000160405290816000820154815260200160018201548152602001600282015481526020016003820160009054906101000a900473ffffffffffffffffffffffffffffffffffffffff1673ffffffffffffffffffffffffffffffffffffffff1673ffffffffffffffffffffffffffffffffffffffff1681526020016004820160009054906101000a900473ffffffffffffffffffffffffffffffffffffffff1673ffffffffffffffffffffffffffffffffffffffff1673ffffffffffffffffffffffffffffffffffffffff1681526020016004820160149054906101000a900461ffff1661ffff1661ffff1681526020016004820160169054906101000a900460ff161515151581526020016004820160179054906101000a900464ffffffffff1664ffffffffff1664ffffffffff1681525050905092915050565b7f000000000000000000000000000000000000000000000000000000000000000081565b7f000000000000000000000000000000000000000000000000000000000000000081565b60607f000000000000000000000000000000000000000000000000000000000000000073ffffffffffffffffffffffffffffffffffffffff163373ffffffffffffffffffffffffffffffffffffffff1614610350576040517f9de9741800000000000000000000000000000000000000000000000000000000815260040160405180910390fd5b60006201518062ffffff164201905060008060008060008089898101906103779190611adf565b955095509550955095509550600086148061039857506103968461087f565b155b806103cf5750600073ffffffffffffffffffffffffffffffffffffffff168373ffffffffffffffffffffffffffffffffffffffff16145b806103e3575061271061ffff168261ffff16115b806103ee5750600085145b15610425576040517f48be0eb300000000000000000000000000000000000000000000000000000000815260040160405180910390fd5b856000808e815260200190815260200160002060008d815260200190815260200160002060000181905550846000808e815260200190815260200160002060008d815260200190815260200160002060020181905550836000808e815260200190815260200160002060008d815260200190815260200160002060030160006101000a81548173ffffffffffffffffffffffffffffffffffffffff021916908373ffffffffffffffffffffffffffffffffffffffff160217905550826000808e815260200190815260200160002060008d815260200190815260200160002060040160006101000a81548173ffffffffffffffffffffffffffffffffffffffff021916908373ffffffffffffffffffffffffffffffffffffffff160217905550816000808e815260200190815260200160002060008d815260200190815260200160002060040160146101000a81548161ffff021916908361ffff160217905550806000808e815260200190815260200160002060008d815260200190815260200160002060040160166101000a81548160ff021916908315150217905550866000808e815260200190815260200160002060008d815260200190815260200160002060040160176101000a81548164ffffffffff021916908364ffffffffff1602179055508585858585858c6040516020016106289796959493929190611ba8565b604051602081830303815290604052975050505050505050949350505050565b7f000000000000000000000000000000000000000000000000000000000000000073ffffffffffffffffffffffffffffffffffffffff163373ffffffffffffffffffffffffffffffffffffffff16146106cd576040517f9de9741800000000000000000000000000000000000000000000000000000000815260040160405180910390fd5b600080858152602001908152602001600020600084815260200190815260200160002060040160169054906101000a900460ff1615610711576107108486610922565b5b6000806000868152602001908152602001600020600085815260200190815260200160002060040160179054906101000a900464ffffffffff1664ffffffffff1690508042111561078e576040517f99ae072000000000000000000000000000000000000000000000000000000000815260040160405180910390fd5b60008086815260200190815260200160002060008581526020019081526020016000206000015460008087815260200190815260200160002060008681526020019081526020016000206001015410610813576040517fb643bfa600000000000000000000000000000000000000000000000000000000815260040160405180910390fd5b60008086815260200190815260200160002060008581526020019081526020016000206001016000815461084690611c46565b9190508190555084871415610867576108628686868686610ce4565b610876565b610875878787878787610e67565b5b50505050505050565b60007f000000000000000000000000000000000000000000000000000000000000000073ffffffffffffffffffffffffffffffffffffffff166343b938c5836040518263ffffffff1660e01b81526004016108da91906117d4565b602060405180830381865afa1580156108f7573d6000803e3d6000fd5b505050506040513d601f19601f8201168201806040525081019061091b9190611ca4565b9050919050565b60007f000000000000000000000000000000000000000000000000000000000000000073ffffffffffffffffffffffffffffffffffffffff1663d923d20c846040518263ffffffff1660e01b815260040161097d9190611cd1565b602060405180830381865afa15801561099a573d6000803e3d6000fd5b505050506040513d601f19601f820116820180604052508101906109be9190611d01565b905060008073ffffffffffffffffffffffffffffffffffffffff168273ffffffffffffffffffffffffffffffffffffffff1614610a7b578173ffffffffffffffffffffffffffffffffffffffff1663451c3d0c858560006040518463ffffffff1660e01b8152600401610a3393929190611d73565b602060405180830381865afa158015610a50573d6000803e3d6000fd5b505050506040513d601f19601f82011682018060405250810190610a749190611ca4565b9050610bd4565b60007f000000000000000000000000000000000000000000000000000000000000000073ffffffffffffffffffffffffffffffffffffffff1663a9ec6563866040518263ffffffff1660e01b8152600401610ad69190611cd1565b602060405180830381865afa158015610af3573d6000803e3d6000fd5b505050506040513d601f19601f82011682018060405250810190610b179190611d01565b9050600073ffffffffffffffffffffffffffffffffffffffff168173ffffffffffffffffffffffffffffffffffffffff1614158015610bd0575060008173ffffffffffffffffffffffffffffffffffffffff166370a08231866040518263ffffffff1660e01b8152600401610b8c91906117d4565b602060405180830381865afa158015610ba9573d6000803e3d6000fd5b505050506040513d601f19601f82011682018060405250810190610bcd9190611dbf565b14155b9150505b80158015610ca757508273ffffffffffffffffffffffffffffffffffffffff167f000000000000000000000000000000000000000000000000000000000000000073ffffffffffffffffffffffffffffffffffffffff16636352211e866040518263ffffffff1660e01b8152600401610c4d9190611cd1565b602060405180830381865afa158015610c6a573d6000803e3d6000fd5b505050506040513d601f19601f82011682018060405250810190610c8e9190611d01565b73ffffffffffffffffffffffffffffffffffffffff1614155b15610cde576040517fd325a6d600000000000000000000000000000000000000000000000000000000815260040160405180910390fd5b50505050565b600080600086815260200190815260200160002060008581526020019081526020016000206002015490506000806000878152602001908152602001600020600086815260200190815260200160002060030160009054906101000a900473ffffffffffffffffffffffffffffffffffffffff169050610d6684848385611132565b600080610d716111c2565b9150915060008060008a8152602001908152602001600020600089815260200190815260200160002060040160009054906101000a900473ffffffffffffffffffffffffffffffffffffffff169050600061271061ffff168361ffff1687610dd99190611dec565b610de39190611e75565b905060008187610df39190611ea6565b9050610e228c84838973ffffffffffffffffffffffffffffffffffffffff1661125b909392919063ffffffff16565b6000821115610e5957610e588c86848973ffffffffffffffffffffffffffffffffffffffff1661125b909392919063ffffffff16565b5b505050505050505050505050565b600080600086815260200190815260200160002060008581526020019081526020016000206002015490506000806000878152602001908152602001600020600086815260200190815260200160002060030160009054906101000a900473ffffffffffffffffffffffffffffffffffffffff169050610ee984848385611132565b6000806000888152602001908152602001600020600087815260200190815260200160002060040160149054906101000a900461ffff1661ffff1690506000806000610f336111c2565b809250819450505061271061ffff168161ffff1687610f529190611dec565b610f5c9190611e75565b91505060008186610f6d9190611ea6565b90506000841461107457600061271061ffff168583610f8c9190611dec565b610f969190611e75565b90508082610fa49190611ea6565b915060007f000000000000000000000000000000000000000000000000000000000000000073ffffffffffffffffffffffffffffffffffffffff16636352211e8f6040518263ffffffff1660e01b81526004016110019190611cd1565b602060405180830381865afa15801561101e573d6000803e3d6000fd5b505050506040513d601f19601f820116820180604052508101906110429190611d01565b90506110718d82848a73ffffffffffffffffffffffffffffffffffffffff1661125b909392919063ffffffff16565b50505b60008060008c815260200190815260200160002060008b815260200190815260200160002060040160009054906101000a900473ffffffffffffffffffffffffffffffffffffffff1690506110ec8c82848973ffffffffffffffffffffffffffffffffffffffff1661125b909392919063ffffffff16565b6000831115611123576111228c85858973ffffffffffffffffffffffffffffffffffffffff1661125b909392919063ffffffff16565b5b50505050505050505050505050565b60008085858101906111449190611eda565b91509150828114158061118357508373ffffffffffffffffffffffffffffffffffffffff168273ffffffffffffffffffffffffffffffffffffffff1614155b156111ba576040517f46308bd500000000000000000000000000000000000000000000000000000000815260040160405180910390fd5b505050505050565b6000807f000000000000000000000000000000000000000000000000000000000000000073ffffffffffffffffffffffffffffffffffffffff166398f965d16040518163ffffffff1660e01b81526004016040805180830381865afa15801561122f573d6000803e3d6000fd5b505050506040513d601f19601f820116820180604052508101906112539190611f2f565b915091509091565b6112de846323b872dd60e01b85858560405160240161127c93929190611f6f565b604051602081830303815290604052907bffffffffffffffffffffffffffffffffffffffffffffffffffffffff19166020820180517bffffffffffffffffffffffffffffffffffffffffffffffffffffffff83818316178352505050506112e4565b50505050565b6000611346826040518060400160405280602081526020017f5361666545524332303a206c6f772d6c6576656c2063616c6c206661696c65648152508573ffffffffffffffffffffffffffffffffffffffff166113ab9092919063ffffffff16565b90506000815111156113a657808060200190518101906113669190611ca4565b6113a5576040517f08c379a000000000000000000000000000000000000000000000000000000000815260040161139c90612029565b60405180910390fd5b5b505050565b60606113ba84846000856113c3565b90509392505050565b606082471015611408576040517f08c379a00000000000000000000000000000000000000000000000000000000081526004016113ff906120bb565b60405180910390fd5b611411856114d7565b611450576040517f08c379a000000000000000000000000000000000000000000000000000000000815260040161144790612127565b60405180910390fd5b6000808673ffffffffffffffffffffffffffffffffffffffff1685876040516114799190612183565b60006040518083038185875af1925050503d80600081146114b6576040519150601f19603f3d011682016040523d82523d6000602084013e6114bb565b606091505b50915091506114cb8282866114fa565b92505050949350505050565b6000808273ffffffffffffffffffffffffffffffffffffffff163b119050919050565b6060831561150a5782905061155a565b60008351111561151d5782518084602001fd5b816040517f08c379a000000000000000000000000000000000000000000000000000000000815260040161155191906121de565b60405180910390fd5b9392505050565b604051806101000160405280600081526020016000815260200160008152602001600073ffffffffffffffffffffffffffffffffffffffff168152602001600073ffffffffffffffffffffffffffffffffffffffff168152602001600061ffff168152602001600015158152602001600064ffffffffff1681525090565b600080fd5b600080fd5b6000819050919050565b6115fc816115e9565b811461160757600080fd5b50565b600081359050611619816115f3565b92915050565b60008060408385031215611636576116356115df565b5b60006116448582860161160a565b92505060206116558582860161160a565b9150509250929050565b611668816115e9565b82525050565b600073ffffffffffffffffffffffffffffffffffffffff82169050919050565b60006116998261166e565b9050919050565b6116a98161168e565b82525050565b600061ffff82169050919050565b6116c6816116af565b82525050565b60008115159050919050565b6116e1816116cc565b82525050565b600064ffffffffff82169050919050565b611701816116e7565b82525050565b6101008201600082015161171e600085018261165f565b506020820151611731602085018261165f565b506040820151611744604085018261165f565b50606082015161175760608501826116a0565b50608082015161176a60808501826116a0565b5060a082015161177d60a08501826116bd565b5060c082015161179060c08501826116d8565b5060e08201516117a360e08501826116f8565b50505050565b6000610100820190506117bf6000830184611707565b92915050565b6117ce8161168e565b82525050565b60006020820190506117e960008301846117c5565b92915050565b600080fd5b600080fd5b600080fd5b60008083601f840112611814576118136117ef565b5b8235905067ffffffffffffffff811115611831576118306117f4565b5b60208301915083600182028301111561184d5761184c6117f9565b5b9250929050565b6000806000806060858703121561186e5761186d6115df565b5b600061187c8782880161160a565b945050602061188d8782880161160a565b935050604085013567ffffffffffffffff8111156118ae576118ad6115e4565b5b6118ba878288016117fe565b925092505092959194509250565b600081519050919050565b600082825260208201905092915050565b60005b838110156119025780820151818401526020810190506118e7565b83811115611911576000848401525b50505050565b6000601f19601f8301169050919050565b6000611933826118c8565b61193d81856118d3565b935061194d8185602086016118e4565b61195681611917565b840191505092915050565b6000602082019050818103600083015261197b8184611928565b905092915050565b61198c8161168e565b811461199757600080fd5b50565b6000813590506119a981611983565b92915050565b60008060008060008060a087890312156119cc576119cb6115df565b5b60006119da89828a0161160a565b96505060206119eb89828a0161199a565b95505060406119fc89828a0161160a565b9450506060611a0d89828a0161160a565b935050608087013567ffffffffffffffff811115611a2e57611a2d6115e4565b5b611a3a89828a016117fe565b92509250509295509295509295565b6000611a548261166e565b9050919050565b611a6481611a49565b8114611a6f57600080fd5b50565b600081359050611a8181611a5b565b92915050565b611a90816116af565b8114611a9b57600080fd5b50565b600081359050611aad81611a87565b92915050565b611abc816116cc565b8114611ac757600080fd5b50565b600081359050611ad981611ab3565b92915050565b60008060008060008060c08789031215611afc57611afb6115df565b5b6000611b0a89828a0161160a565b9650506020611b1b89828a0161160a565b9550506040611b2c89828a01611a72565b9450506060611b3d89828a01611a72565b9350506080611b4e89828a01611a9e565b92505060a0611b5f89828a01611aca565b9150509295509295509295565b611b75816115e9565b82525050565b611b84816116af565b82525050565b611b93816116cc565b82525050565b611ba2816116e7565b82525050565b600060e082019050611bbd600083018a611b6c565b611bca6020830189611b6c565b611bd760408301886117c5565b611be460608301876117c5565b611bf16080830186611b7b565b611bfe60a0830185611b8a565b611c0b60c0830184611b99565b98975050505050505050565b7f4e487b7100000000000000000000000000000000000000000000000000000000600052601160045260246000fd5b6000611c51826115e9565b91507fffffffffffffffffffffffffffffffffffffffffffffffffffffffffffffffff821415611c8457611c83611c17565b5b600182019050919050565b600081519050611c9e81611ab3565b92915050565b600060208284031215611cba57611cb96115df565b5b6000611cc884828501611c8f565b91505092915050565b6000602082019050611ce66000830184611b6c565b92915050565b600081519050611cfb81611983565b92915050565b600060208284031215611d1757611d166115df565b5b6000611d2584828501611cec565b91505092915050565b6000819050919050565b6000819050919050565b6000611d5d611d58611d5384611d2e565b611d38565b6115e9565b9050919050565b611d6d81611d42565b82525050565b6000606082019050611d886000830186611b6c565b611d9560208301856117c5565b611da26040830184611d64565b949350505050565b600081519050611db9816115f3565b92915050565b600060208284031215611dd557611dd46115df565b5b6000611de384828501611daa565b91505092915050565b6000611df7826115e9565b9150611e02836115e9565b9250817fffffffffffffffffffffffffffffffffffffffffffffffffffffffffffffffff0483118215151615611e3b57611e3a611c17565b5b828202905092915050565b7f4e487b7100000000000000000000000000000000000000000000000000000000600052601260045260246000fd5b6000611e80826115e9565b9150611e8b836115e9565b925082611e9b57611e9a611e46565b5b828204905092915050565b6000611eb1826115e9565b9150611ebc836115e9565b925082821015611ecf57611ece611c17565b5b828203905092915050565b60008060408385031215611ef157611ef06115df565b5b6000611eff85828601611a72565b9250506020611f108582860161160a565b9150509250929050565b600081519050611f2981611a87565b92915050565b60008060408385031215611f4657611f456115df565b5b6000611f5485828601611cec565b9250506020611f6585828601611f1a565b9150509250929050565b6000606082019050611f8460008301866117c5565b611f9160208301856117c5565b611f9e6040830184611b6c565b949350505050565b600082825260208201905092915050565b7f5361666545524332303a204552433230206f7065726174696f6e20646964206e60008201527f6f74207375636365656400000000000000000000000000000000000000000000602082015250565b6000612013602a83611fa6565b915061201e82611fb7565b604082019050919050565b6000602082019050818103600083015261204281612006565b9050919050565b7f416464726573733a20696e73756666696369656e742062616c616e636520666f60008201527f722063616c6c0000000000000000000000000000000000000000000000000000602082015250565b60006120a5602683611fa6565b91506120b082612049565b604082019050919050565b600060208201905081810360008301526120d481612098565b9050919050565b7f416464726573733a2063616c6c20746f206e6f6e2d636f6e7472616374000000600082015250565b6000612111601d83611fa6565b915061211c826120db565b602082019050919050565b6000602082019050818103600083015261214081612104565b9050919050565b600081905092915050565b600061215d826118c8565b6121678185612147565b93506121778185602086016118e4565b80840191505092915050565b600061218f8284612152565b915081905092915050565b600081519050919050565b60006121b08261219a565b6121ba8185611fa6565b93506121ca8185602086016118e4565b6121d381611917565b840191505092915050565b600060208201905081810360008301526121f881846121a5565b90509291505056fea26469706673582212209f97dcc0e339b5bc58a6a4925ee5df2430dc109b90effc1ea02a0a37b74e05e064736f6c634300080a0033",
  "immutableReferences": {
    "7485": [
      {
        "length": 32,
        "start": 643
      },
      {
        "length": 32,
        "start": 2179
      },
      {
        "length": 32,
        "start": 4551
      }
    ],
    "7695": [
      {
        "length": 32,
        "start": 679
      },
      {
        "length": 32,
        "start": 717
      },
      {
        "length": 32,
        "start": 1610
      },
      {
        "length": 32,
        "start": 2342
      },
      {
        "length": 32,
        "start": 2687
      },
      {
        "length": 32,
        "start": 3062
      },
      {
        "length": 32,
        "start": 4010
      }
    ]
  },
  "source": "// SPDX-License-Identifier: AGPL-3.0-only\n\npragma solidity 0.8.10;\n\nimport {ICollectModule} from '../../../interfaces/ICollectModule.sol';\nimport {Errors} from '../../../libraries/Errors.sol';\nimport {FeeModuleBase} from '../FeeModuleBase.sol';\nimport {ModuleBase} from '../ModuleBase.sol';\nimport {FollowValidationModuleBase} from '../FollowValidationModuleBase.sol';\nimport {IERC20} from '@openzeppelin/contracts/token/ERC20/IERC20.sol';\nimport {SafeERC20} from '@openzeppelin/contracts/token/ERC20/utils/SafeERC20.sol';\nimport {IERC721} from '@openzeppelin/contracts/token/ERC721/IERC721.sol';\n\n/**\n * @notice A struct containing the necessary data to execute collect actions on a publication.\n *\n * @param collectLimit The maximum number of collects for this publication.\n * @param currentCollects The current number of collects for this publication.\n * @param amount The collecting cost associated with this publication.\n * @param currency The currency associated with this publication.\n * @param recipient The recipient address associated with this publication.\n * @param referralFee The referral fee associated with this publication.\n * @param endTimestamp The end timestamp after which collecting is impossible.\n * @param followerOnly Whether only followers should be able to collect.\n */\nstruct ProfilePublicationData {\n    uint256 collectLimit;\n    uint256 currentCollects;\n    uint256 amount;\n    address currency;\n    address recipient;\n    uint16 referralFee;\n    bool followerOnly;\n    uint40 endTimestamp;\n}\n\n/**\n * @title LimitedTimedFeeCollectModule\n * @author Lens Protocol\n *\n * @notice This is a simple Lens CollectModule implementation, inheriting from the ICollectModule interface and\n * the FeeCollectModuleBase abstract contract. To optimize on gas, this module uses a constant 24 hour maximum\n * collection time.\n *\n * This module works by allowing limited collects for a publication within the allotted time with a given fee.\n */\ncontract LimitedTimedFeeCollectModule is FeeModuleBase, FollowValidationModuleBase, ICollectModule {\n    using SafeERC20 for IERC20;\n\n    uint24 internal constant ONE_DAY = 24 hours;\n\n    mapping(uint256 => mapping(uint256 => ProfilePublicationData))\n        internal _dataByPublicationByProfile;\n\n    constructor(address hub, address moduleGlobals) FeeModuleBase(moduleGlobals) ModuleBase(hub) {}\n\n    /**\n     * @notice This collect module levies a fee on collects and supports referrals. Thus, we need to decode data.\n     *\n     * @param profileId The profile ID of the publication to initialize this module for's publishing profile.\n     * @param pubId The publication ID of the publication to initialize this module for.\n     * @param data The arbitrary data parameter, decoded into:\n     *      uint256 collectLimit: The maximum amount of collects.\n     *      uint256 amount: The currency total amount to levy.\n     *      address currency: The currency address, must be internally whitelisted.\n     *      address recipient: The custom recipient address to direct earnings to.\n     *      uint16 referralFee: The referral fee to set.\n     *      bool followerOnly: Whether only followers should be able to collect.\n     *\n     * @return bytes An abi encoded bytes parameter, containing (in order): collectLimit, amount, currency, recipient, referral fee & end timestamp.\n     */\n    function initializePublicationCollectModule(\n        uint256 profileId,\n        uint256 pubId,\n        bytes calldata data\n    ) external override onlyHub returns (bytes memory) {\n        unchecked {\n            uint40 endTimestamp = uint40(block.timestamp) + ONE_DAY;\n\n            (\n                uint256 collectLimit,\n                uint256 amount,\n                address currency,\n                address recipient,\n                uint16 referralFee,\n                bool followerOnly\n            ) = abi.decode(data, (uint256, uint256, address, address, uint16, bool));\n            if (\n                collectLimit == 0 ||\n                !_currencyWhitelisted(currency) ||\n                recipient == address(0) ||\n                referralFee > BPS_MAX ||\n                amount == 0\n            ) revert Errors.InitParamsInvalid();\n\n            _dataByPublicationByProfile[profileId][pubId].collectLimit = collectLimit;\n            _dataByPublicationByProfile[profileId][pubId].amount = amount;\n            _dataByPublicationByProfile[profileId][pubId].currency = currency;\n            _dataByPublicationByProfile[profileId][pubId].recipient = recipient;\n            _dataByPublicationByProfile[profileId][pubId].referralFee = referralFee;\n            _dataByPublicationByProfile[profileId][pubId].followerOnly = followerOnly;\n            _dataByPublicationByProfile[profileId][pubId].endTimestamp = endTimestamp;\n\n            return\n                abi.encode(\n                    collectLimit,\n                    amount,\n                    currency,\n                    recipient,\n                    referralFee,\n                    followerOnly,\n                    endTimestamp\n                );\n        }\n    }\n\n    /**\n     * @dev Processes a collect by:\n     *  1. Ensuring the collector is a follower\n     *  2. Ensuring the current timestamp is less than or equal to the collect end timestamp\n     *  3. Ensuring the collect does not pass the collect limit\n     *  4. Charging a fee\n     */\n    function processCollect(\n        uint256 referrerProfileId,\n        address collector,\n        uint256 profileId,\n        uint256 pubId,\n        bytes calldata data\n    ) external override onlyHub {\n        if (_dataByPublicationByProfile[profileId][pubId].followerOnly)\n            _checkFollowValidity(profileId, collector);\n        uint256 endTimestamp = _dataByPublicationByProfile[profileId][pubId].endTimestamp;\n        if (block.timestamp > endTimestamp) revert Errors.CollectExpired();\n\n        if (\n            _dataByPublicationByProfile[profileId][pubId].currentCollects >=\n            _dataByPublicationByProfile[profileId][pubId].collectLimit\n        ) {\n            revert Errors.MintLimitExceeded();\n        } else {\n            ++_dataByPublicationByProfile[profileId][pubId].currentCollects;\n            if (referrerProfileId == profileId) {\n                _processCollect(collector, profileId, pubId, data);\n            } else {\n                _processCollectWithReferral(referrerProfileId, collector, profileId, pubId, data);\n            }\n        }\n    }\n\n    /**\n     * @notice Returns the publication data for a given publication, or an empty struct if that publication was not\n     * initialized with this module.\n     *\n     * @param profileId The token ID of the profile mapped to the publication to query.\n     * @param pubId The publication ID of the publication to query.\n     *\n     * @return ProfilepublicationData The ProfilePublicationData struct mapped to that publication.\n     */\n    function getPublicationData(uint256 profileId, uint256 pubId)\n        external\n        view\n        returns (ProfilePublicationData memory)\n    {\n        return _dataByPublicationByProfile[profileId][pubId];\n    }\n\n    function _processCollect(\n        address collector,\n        uint256 profileId,\n        uint256 pubId,\n        bytes calldata data\n    ) internal {\n        uint256 amount = _dataByPublicationByProfile[profileId][pubId].amount;\n        address currency = _dataByPublicationByProfile[profileId][pubId].currency;\n        _validateDataIsExpected(data, currency, amount);\n\n        (address treasury, uint16 treasuryFee) = _treasuryData();\n        address recipient = _dataByPublicationByProfile[profileId][pubId].recipient;\n        uint256 treasuryAmount = (amount * treasuryFee) / BPS_MAX;\n        uint256 adjustedAmount = amount - treasuryAmount;\n\n        IERC20(currency).safeTransferFrom(collector, recipient, adjustedAmount);\n        if (treasuryAmount > 0)\n            IERC20(currency).safeTransferFrom(collector, treasury, treasuryAmount);\n    }\n\n    function _processCollectWithReferral(\n        uint256 referrerProfileId,\n        address collector,\n        uint256 profileId,\n        uint256 pubId,\n        bytes calldata data\n    ) internal {\n        uint256 amount = _dataByPublicationByProfile[profileId][pubId].amount;\n        address currency = _dataByPublicationByProfile[profileId][pubId].currency;\n        _validateDataIsExpected(data, currency, amount);\n\n        uint256 referralFee = _dataByPublicationByProfile[profileId][pubId].referralFee;\n        address treasury;\n        uint256 treasuryAmount;\n\n        // Avoids stack too deep\n        {\n            uint16 treasuryFee;\n            (treasury, treasuryFee) = _treasuryData();\n            treasuryAmount = (amount * treasuryFee) / BPS_MAX;\n        }\n\n        uint256 adjustedAmount = amount - treasuryAmount;\n\n        if (referralFee != 0) {\n            // The reason we levy the referral fee on the adjusted amount is so that referral fees\n            // don't bypass the treasury fee, in essence referrals pay their fair share to the treasury.\n            uint256 referralAmount = (adjustedAmount * referralFee) / BPS_MAX;\n            adjustedAmount = adjustedAmount - referralAmount;\n\n            address referralRecipient = IERC721(HUB).ownerOf(referrerProfileId);\n\n            IERC20(currency).safeTransferFrom(collector, referralRecipient, referralAmount);\n        }\n        address recipient = _dataByPublicationByProfile[profileId][pubId].recipient;\n\n        IERC20(currency).safeTransferFrom(collector, recipient, adjustedAmount);\n        if (treasuryAmount > 0)\n            IERC20(currency).safeTransferFrom(collector, treasury, treasuryAmount);\n    }\n}\n",
  "sourcePath": "/Users/korbinianabstreiter/crytoprojects/primetime/contracts/core/modules/collect/LimitedTimedFeeCollectModule.sol",
  "compiler": {
    "name": "solc",
    "version": "0.8.10+commit.fc410830.Emscripten.clang"
  },
  "schemaVersion": "3.4.5",
  "updatedAt": "2022-04-22T14:49:53.838Z",
  "devdoc": {
    "author": "Lens Protocol",
    "kind": "dev",
    "methods": {
      "getPublicationData(uint256,uint256)": {
        "params": {
          "profileId": "The token ID of the profile mapped to the publication to query.",
          "pubId": "The publication ID of the publication to query."
        },
        "returns": {
          "_0": "ProfilepublicationData The ProfilePublicationData struct mapped to that publication."
        }
      },
      "initializePublicationCollectModule(uint256,uint256,bytes)": {
        "params": {
          "data": "The arbitrary data parameter, decoded into:      uint256 collectLimit: The maximum amount of collects.      uint256 amount: The currency total amount to levy.      address currency: The currency address, must be internally whitelisted.      address recipient: The custom recipient address to direct earnings to.      uint16 referralFee: The referral fee to set.      bool followerOnly: Whether only followers should be able to collect.",
          "profileId": "The profile ID of the publication to initialize this module for's publishing profile.",
          "pubId": "The publication ID of the publication to initialize this module for."
        },
        "returns": {
          "_0": "bytes An abi encoded bytes parameter, containing (in order): collectLimit, amount, currency, recipient, referral fee & end timestamp."
        }
      },
      "processCollect(uint256,address,uint256,uint256,bytes)": {
        "details": "Processes a collect by:  1. Ensuring the collector is a follower  2. Ensuring the current timestamp is less than or equal to the collect end timestamp  3. Ensuring the collect does not pass the collect limit  4. Charging a fee"
      }
    },
    "title": "LimitedTimedFeeCollectModule",
    "version": 1
  },
  "userdoc": {
    "kind": "user",
    "methods": {
      "getPublicationData(uint256,uint256)": {
        "notice": "Returns the publication data for a given publication, or an empty struct if that publication was not initialized with this module."
      },
      "initializePublicationCollectModule(uint256,uint256,bytes)": {
        "notice": "This collect module levies a fee on collects and supports referrals. Thus, we need to decode data."
      }
    },
    "notice": "This is a simple Lens CollectModule implementation, inheriting from the ICollectModule interface and the FeeCollectModuleBase abstract contract. To optimize on gas, this module uses a constant 24 hour maximum collection time. This module works by allowing limited collects for a publication within the allotted time with a given fee.",
    "version": 1
  }
}