{
  "contractName": "MockLensHubV2BadRevision",
  "abi": [
    {
      "inputs": [],
      "name": "CannotInitImplementation",
      "type": "error"
    },
    {
      "inputs": [],
      "name": "Initialized",
      "type": "error"
    },
    {
      "inputs": [],
      "name": "NotOwnerOrApproved",
      "type": "error"
    },
    {
      "inputs": [],
      "name": "SignatureExpired",
      "type": "error"
    },
    {
      "inputs": [],
      "name": "SignatureInvalid",
      "type": "error"
    },
    {
      "inputs": [],
      "name": "ZeroSpender",
      "type": "error"
    },
    {
      "anonymous": false,
      "inputs": [
        {
          "indexed": true,
          "internalType": "address",
          "name": "owner",
          "type": "address"
        },
        {
          "indexed": true,
          "internalType": "address",
          "name": "approved",
          "type": "address"
        },
        {
          "indexed": true,
          "internalType": "uint256",
          "name": "tokenId",
          "type": "uint256"
        }
      ],
      "name": "Approval",
      "type": "event"
    },
    {
      "anonymous": false,
      "inputs": [
        {
          "indexed": true,
          "internalType": "address",
          "name": "owner",
          "type": "address"
        },
        {
          "indexed": true,
          "internalType": "address",
          "name": "operator",
          "type": "address"
        },
        {
          "indexed": false,
          "internalType": "bool",
          "name": "approved",
          "type": "bool"
        }
      ],
      "name": "ApprovalForAll",
      "type": "event"
    },
    {
      "anonymous": false,
      "inputs": [
        {
          "indexed": true,
          "internalType": "address",
          "name": "from",
          "type": "address"
        },
        {
          "indexed": true,
          "internalType": "address",
          "name": "to",
          "type": "address"
        },
        {
          "indexed": true,
          "internalType": "uint256",
          "name": "tokenId",
          "type": "uint256"
        }
      ],
      "name": "Transfer",
      "type": "event"
    },
    {
      "inputs": [
        {
          "internalType": "address",
          "name": "to",
          "type": "address"
        },
        {
          "internalType": "uint256",
          "name": "tokenId",
          "type": "uint256"
        }
      ],
      "name": "approve",
      "outputs": [],
      "stateMutability": "nonpayable",
      "type": "function"
    },
    {
      "inputs": [
        {
          "internalType": "address",
          "name": "owner",
          "type": "address"
        }
      ],
      "name": "balanceOf",
      "outputs": [
        {
          "internalType": "uint256",
          "name": "",
          "type": "uint256"
        }
      ],
      "stateMutability": "view",
      "type": "function"
    },
    {
      "inputs": [
        {
          "internalType": "uint256",
          "name": "tokenId",
          "type": "uint256"
        }
      ],
      "name": "burn",
      "outputs": [],
      "stateMutability": "nonpayable",
      "type": "function"
    },
    {
      "inputs": [
        {
          "internalType": "uint256",
          "name": "tokenId",
          "type": "uint256"
        },
        {
          "components": [
            {
              "internalType": "uint8",
              "name": "v",
              "type": "uint8"
            },
            {
              "internalType": "bytes32",
              "name": "r",
              "type": "bytes32"
            },
            {
              "internalType": "bytes32",
              "name": "s",
              "type": "bytes32"
            },
            {
              "internalType": "uint256",
              "name": "deadline",
              "type": "uint256"
            }
          ],
          "internalType": "struct DataTypes.EIP712Signature",
          "name": "sig",
          "type": "tuple"
        }
      ],
      "name": "burnWithSig",
      "outputs": [],
      "stateMutability": "nonpayable",
      "type": "function"
    },
    {
      "inputs": [
        {
          "internalType": "uint256",
          "name": "tokenId",
          "type": "uint256"
        }
      ],
      "name": "exists",
      "outputs": [
        {
          "internalType": "bool",
          "name": "",
          "type": "bool"
        }
      ],
      "stateMutability": "view",
      "type": "function"
    },
    {
      "inputs": [
        {
          "internalType": "uint256",
          "name": "tokenId",
          "type": "uint256"
        }
      ],
      "name": "getApproved",
      "outputs": [
        {
          "internalType": "address",
          "name": "",
          "type": "address"
        }
      ],
      "stateMutability": "view",
      "type": "function"
    },
    {
      "inputs": [],
      "name": "getDomainSeparator",
      "outputs": [
        {
          "internalType": "bytes32",
          "name": "",
          "type": "bytes32"
        }
      ],
      "stateMutability": "view",
      "type": "function"
    },
    {
      "inputs": [],
      "name": "getState",
      "outputs": [
        {
          "internalType": "enum DataTypes.ProtocolState",
          "name": "",
          "type": "uint8"
        }
      ],
      "stateMutability": "view",
      "type": "function"
    },
    {
      "inputs": [
        {
          "internalType": "address",
          "name": "owner",
          "type": "address"
        },
        {
          "internalType": "address",
          "name": "operator",
          "type": "address"
        }
      ],
      "name": "isApprovedForAll",
      "outputs": [
        {
          "internalType": "bool",
          "name": "",
          "type": "bool"
        }
      ],
      "stateMutability": "view",
      "type": "function"
    },
    {
      "inputs": [
        {
          "internalType": "uint256",
          "name": "tokenId",
          "type": "uint256"
        }
      ],
      "name": "mintTimestampOf",
      "outputs": [
        {
          "internalType": "uint256",
          "name": "",
          "type": "uint256"
        }
      ],
      "stateMutability": "view",
      "type": "function"
    },
    {
      "inputs": [],
      "name": "name",
      "outputs": [
        {
          "internalType": "string",
          "name": "",
          "type": "string"
        }
      ],
      "stateMutability": "view",
      "type": "function"
    },
    {
      "inputs": [
        {
          "internalType": "uint256",
          "name": "tokenId",
          "type": "uint256"
        }
      ],
      "name": "ownerOf",
      "outputs": [
        {
          "internalType": "address",
          "name": "",
          "type": "address"
        }
      ],
      "stateMutability": "view",
      "type": "function"
    },
    {
      "inputs": [
        {
          "internalType": "address",
          "name": "spender",
          "type": "address"
        },
        {
          "internalType": "uint256",
          "name": "tokenId",
          "type": "uint256"
        },
        {
          "components": [
            {
              "internalType": "uint8",
              "name": "v",
              "type": "uint8"
            },
            {
              "internalType": "bytes32",
              "name": "r",
              "type": "bytes32"
            },
            {
              "internalType": "bytes32",
              "name": "s",
              "type": "bytes32"
            },
            {
              "internalType": "uint256",
              "name": "deadline",
              "type": "uint256"
            }
          ],
          "internalType": "struct DataTypes.EIP712Signature",
          "name": "sig",
          "type": "tuple"
        }
      ],
      "name": "permit",
      "outputs": [],
      "stateMutability": "nonpayable",
      "type": "function"
    },
    {
      "inputs": [
        {
          "internalType": "address",
          "name": "owner",
          "type": "address"
        },
        {
          "internalType": "address",
          "name": "operator",
          "type": "address"
        },
        {
          "internalType": "bool",
          "name": "approved",
          "type": "bool"
        },
        {
          "components": [
            {
              "internalType": "uint8",
              "name": "v",
              "type": "uint8"
            },
            {
              "internalType": "bytes32",
              "name": "r",
              "type": "bytes32"
            },
            {
              "internalType": "bytes32",
              "name": "s",
              "type": "bytes32"
            },
            {
              "internalType": "uint256",
              "name": "deadline",
              "type": "uint256"
            }
          ],
          "internalType": "struct DataTypes.EIP712Signature",
          "name": "sig",
          "type": "tuple"
        }
      ],
      "name": "permitForAll",
      "outputs": [],
      "stateMutability": "nonpayable",
      "type": "function"
    },
    {
      "inputs": [
        {
          "internalType": "address",
          "name": "from",
          "type": "address"
        },
        {
          "internalType": "address",
          "name": "to",
          "type": "address"
        },
        {
          "internalType": "uint256",
          "name": "tokenId",
          "type": "uint256"
        }
      ],
      "name": "safeTransferFrom",
      "outputs": [],
      "stateMutability": "nonpayable",
      "type": "function"
    },
    {
      "inputs": [
        {
          "internalType": "address",
          "name": "from",
          "type": "address"
        },
        {
          "internalType": "address",
          "name": "to",
          "type": "address"
        },
        {
          "internalType": "uint256",
          "name": "tokenId",
          "type": "uint256"
        },
        {
          "internalType": "bytes",
          "name": "_data",
          "type": "bytes"
        }
      ],
      "name": "safeTransferFrom",
      "outputs": [],
      "stateMutability": "nonpayable",
      "type": "function"
    },
    {
      "inputs": [
        {
          "internalType": "address",
          "name": "operator",
          "type": "address"
        },
        {
          "internalType": "bool",
          "name": "approved",
          "type": "bool"
        }
      ],
      "name": "setApprovalForAll",
      "outputs": [],
      "stateMutability": "nonpayable",
      "type": "function"
    },
    {
      "inputs": [
        {
          "internalType": "address",
          "name": "",
          "type": "address"
        }
      ],
      "name": "sigNonces",
      "outputs": [
        {
          "internalType": "uint256",
          "name": "",
          "type": "uint256"
        }
      ],
      "stateMutability": "view",
      "type": "function"
    },
    {
      "inputs": [
        {
          "internalType": "bytes4",
          "name": "interfaceId",
          "type": "bytes4"
        }
      ],
      "name": "supportsInterface",
      "outputs": [
        {
          "internalType": "bool",
          "name": "",
          "type": "bool"
        }
      ],
      "stateMutability": "view",
      "type": "function"
    },
    {
      "inputs": [],
      "name": "symbol",
      "outputs": [
        {
          "internalType": "string",
          "name": "",
          "type": "string"
        }
      ],
      "stateMutability": "view",
      "type": "function"
    },
    {
      "inputs": [
        {
          "internalType": "uint256",
          "name": "index",
          "type": "uint256"
        }
      ],
      "name": "tokenByIndex",
      "outputs": [
        {
          "internalType": "uint256",
          "name": "",
          "type": "uint256"
        }
      ],
      "stateMutability": "view",
      "type": "function"
    },
    {
      "inputs": [
        {
          "internalType": "uint256",
          "name": "tokenId",
          "type": "uint256"
        }
      ],
      "name": "tokenDataOf",
      "outputs": [
        {
          "components": [
            {
              "internalType": "address",
              "name": "owner",
              "type": "address"
            },
            {
              "internalType": "uint96",
              "name": "mintTimestamp",
              "type": "uint96"
            }
          ],
          "internalType": "struct IERC721Time.TokenData",
          "name": "",
          "type": "tuple"
        }
      ],
      "stateMutability": "view",
      "type": "function"
    },
    {
      "inputs": [
        {
          "internalType": "address",
          "name": "owner",
          "type": "address"
        },
        {
          "internalType": "uint256",
          "name": "index",
          "type": "uint256"
        }
      ],
      "name": "tokenOfOwnerByIndex",
      "outputs": [
        {
          "internalType": "uint256",
          "name": "",
          "type": "uint256"
        }
      ],
      "stateMutability": "view",
      "type": "function"
    },
    {
      "inputs": [
        {
          "internalType": "uint256",
          "name": "tokenId",
          "type": "uint256"
        }
      ],
      "name": "tokenURI",
      "outputs": [
        {
          "internalType": "string",
          "name": "",
          "type": "string"
        }
      ],
      "stateMutability": "view",
      "type": "function"
    },
    {
      "inputs": [],
      "name": "totalSupply",
      "outputs": [
        {
          "internalType": "uint256",
          "name": "",
          "type": "uint256"
        }
      ],
      "stateMutability": "view",
      "type": "function"
    },
    {
      "inputs": [
        {
          "internalType": "address",
          "name": "from",
          "type": "address"
        },
        {
          "internalType": "address",
          "name": "to",
          "type": "address"
        },
        {
          "internalType": "uint256",
          "name": "tokenId",
          "type": "uint256"
        }
      ],
      "name": "transferFrom",
      "outputs": [],
      "stateMutability": "nonpayable",
      "type": "function"
    },
    {
      "inputs": [
        {
          "internalType": "uint256",
          "name": "newValue",
          "type": "uint256"
        }
      ],
      "name": "initialize",
      "outputs": [],
      "stateMutability": "nonpayable",
      "type": "function"
    },
    {
      "inputs": [
        {
          "internalType": "uint256",
          "name": "newValue",
          "type": "uint256"
        }
      ],
      "name": "setAdditionalValue",
      "outputs": [],
      "stateMutability": "nonpayable",
      "type": "function"
    },
    {
      "inputs": [],
      "name": "getAdditionalValue",
      "outputs": [
        {
          "internalType": "uint256",
          "name": "",
          "type": "uint256"
        }
      ],
      "stateMutability": "view",
      "type": "function"
    }
  ],
  "bytecode": "0x60a06040526000600b5534801561001557600080fd5b503073ffffffffffffffffffffffffffffffffffffffff1660808173ffffffffffffffffffffffffffffffffffffffff1681525050608051613e4c61006560003960006114010152613e4c6000f3fe608060405234801561001057600080fd5b50600436106101cf5760003560e01c80636352211e11610104578063b88d4fde116100a2578063e985e9c511610071578063e985e9c514610562578063ed24911d14610592578063f990ccd7146105b0578063fe4b84df146105e0576101cf565b8063b88d4fde146104ca578063c0da9bcd146104e6578063c87b56dd14610516578063dd69cdb114610546576101cf565b806385e922e7116100de57806385e922e71461045657806389028a131461047457806395d89b4114610490578063a22cb465146104ae576101cf565b80636352211e146103da57806370a082311461040a5780637ef67f991461043a576101cf565b80632f745c5911610171578063493830a41161014b578063493830a41461032e5780634f558e791461034a5780634f6ccce71461037a57806350ddf35c146103aa576101cf565b80632f745c59146102c657806342842e0e146102f657806342966c6814610312576101cf565b8063095ea7b3116101ad578063095ea7b31461025257806318160ddd1461026e5780631865c57d1461028c57806323b872dd146102aa576101cf565b806301ffc9a7146101d457806306fdde0314610204578063081812fc14610222575b600080fd5b6101ee60048036038101906101e99190612722565b6105fc565b6040516101fb919061276a565b60405180910390f35b61020c610676565b604051610219919061281e565b60405180910390f35b61023c60048036038101906102379190612876565b610708565b60405161024991906128e4565b60405180910390f35b61026c6004803603810190610267919061292b565b61078d565b005b6102766108a5565b604051610283919061297a565b60405180910390f35b6102946108b2565b6040516102a19190612a0c565b60405180910390f35b6102c460048036038101906102bf9190612a27565b6108c9565b005b6102e060048036038101906102db919061292b565b610929565b6040516102ed919061297a565b60405180910390f35b610310600480360381019061030b9190612a27565b6109ce565b005b61032c60048036038101906103279190612876565b6109ee565b005b61034860048036038101906103439190612876565b610a3a565b005b610364600480360381019061035f9190612876565b610a44565b604051610371919061276a565b60405180910390f35b610394600480360381019061038f9190612876565b610a56565b6040516103a1919061297a565b60405180910390f35b6103c460048036038101906103bf9190612876565b610ac7565b6040516103d1919061297a565b60405180910390f35b6103f460048036038101906103ef9190612876565b610b64565b60405161040191906128e4565b60405180910390f35b610424600480360381019061041f9190612a7a565b610c19565b604051610431919061297a565b60405180910390f35b610454600480360381019061044f9190612acb565b610cd1565b005b61045e610e07565b60405161046b919061297a565b60405180910390f35b61048e60048036038101906104899190612b4a565b610e11565b005b610498610f3d565b6040516104a5919061281e565b60405180910390f35b6104c860048036038101906104c39190612bb1565b610fcf565b005b6104e460048036038101906104df9190612d26565b61105b565b005b61050060048036038101906104fb9190612876565b6110bd565b60405161050d9190612e0e565b60405180910390f35b610530600480360381019061052b9190612876565b6111c6565b60405161053d919061281e565b60405180910390f35b610560600480360381019061055b9190612e29565b61126d565b005b61057c60048036038101906105779190612e69565b611338565b604051610589919061276a565b60405180910390f35b61059a6113cc565b6040516105a79190612ec2565b60405180910390f35b6105ca60048036038101906105c59190612a7a565b6113db565b6040516105d7919061297a565b60405180910390f35b6105fa60048036038101906105f59190612876565b6113f3565b005b60007f780e9d63000000000000000000000000000000000000000000000000000000007bffffffffffffffffffffffffffffffffffffffffffffffffffffffff1916827bffffffffffffffffffffffffffffffffffffffffffffffffffffffff1916148061066f575061066e826114d2565b5b9050919050565b60606000805461068590612f0c565b80601f01602080910402602001604051908101604052809291908181526020018280546106b190612f0c565b80156106fe5780601f106106d3576101008083540402835291602001916106fe565b820191906000526020600020905b8154815290600101906020018083116106e157829003601f168201915b5050505050905090565b6000610713826115b4565b610752576040517f08c379a000000000000000000000000000000000000000000000000000000000815260040161074990612fb0565b60405180910390fd5b6004600083815260200190815260200160002060009054906101000a900473ffffffffffffffffffffffffffffffffffffffff169050919050565b600061079882610b64565b90508073ffffffffffffffffffffffffffffffffffffffff168373ffffffffffffffffffffffffffffffffffffffff161415610809576040517f08c379a000000000000000000000000000000000000000000000000000000000815260040161080090613042565b60405180910390fd5b8073ffffffffffffffffffffffffffffffffffffffff16610828611623565b73ffffffffffffffffffffffffffffffffffffffff161480610857575061085681610851611623565b611338565b5b610896576040517f08c379a000000000000000000000000000000000000000000000000000000000815260040161088d906130d4565b60405180910390fd5b6108a0838361162b565b505050565b6000600880549050905090565b6000600c60009054906101000a900460ff16905090565b6108da6108d4611623565b826116e4565b610919576040517f08c379a000000000000000000000000000000000000000000000000000000000815260040161091090613166565b60405180910390fd5b6109248383836117c2565b505050565b600061093483610c19565b8210610975576040517f08c379a000000000000000000000000000000000000000000000000000000000815260040161096c906131f8565b60405180910390fd5b600660008473ffffffffffffffffffffffffffffffffffffffff1673ffffffffffffffffffffffffffffffffffffffff168152602001908152602001600020600083815260200190815260200160002054905092915050565b6109e98383836040518060200160405280600081525061105b565b505050565b6109f833826116e4565b610a2e576040517fdb1453ce00000000000000000000000000000000000000000000000000000000815260040160405180910390fd5b610a3781611a21565b50565b8060188190555050565b6000610a4f826115b4565b9050919050565b6000610a606108a5565b8210610aa1576040517f08c379a0000000000000000000000000000000000000000000000000000000008152600401610a989061328a565b60405180910390fd5b60088281548110610ab557610ab46132aa565b5b90600052602060002001549050919050565b6000806002600084815260200190815260200160002060000160149054906101000a90046bffffffffffffffffffffffff1690506000816bffffffffffffffffffffffff161415610b4d576040517f08c379a0000000000000000000000000000000000000000000000000000000008152600401610b449061334b565b60405180910390fd5b806bffffffffffffffffffffffff16915050919050565b6000806002600084815260200190815260200160002060000160009054906101000a900473ffffffffffffffffffffffffffffffffffffffff169050600073ffffffffffffffffffffffffffffffffffffffff168173ffffffffffffffffffffffffffffffffffffffff161415610c10576040517f08c379a0000000000000000000000000000000000000000000000000000000008152600401610c07906133dd565b60405180910390fd5b80915050919050565b60008073ffffffffffffffffffffffffffffffffffffffff168273ffffffffffffffffffffffffffffffffffffffff161415610c8a576040517f08c379a0000000000000000000000000000000000000000000000000000000008152600401610c819061346f565b60405180910390fd5b600360008373ffffffffffffffffffffffffffffffffffffffff1673ffffffffffffffffffffffffffffffffffffffff168152602001908152602001600020549050919050565b600073ffffffffffffffffffffffffffffffffffffffff168373ffffffffffffffffffffffffffffffffffffffff161415610d38576040517f1fac5b7400000000000000000000000000000000000000000000000000000000815260040160405180910390fd5b6000610d4383610b64565b9050610df7610df07f49ecf333e5b8c95c40fdafc95c1ad136e8914a8fb55e9dc8bb01eaa83a2df9ad8686600a60008773ffffffffffffffffffffffffffffffffffffffff1673ffffffffffffffffffffffffffffffffffffffff1681526020019081526020016000206000815480929190600101919050558760600135604051602001610dd595949392919061348f565b60405160208183030381529060405280519060200120611b58565b8284611b96565b610e01848461162b565b50505050565b6000601854905090565b600073ffffffffffffffffffffffffffffffffffffffff168373ffffffffffffffffffffffffffffffffffffffff161415610e78576040517f1fac5b7400000000000000000000000000000000000000000000000000000000815260040160405180910390fd5b610f2c610f257f47ab88482c90e4bb94b82a947ae78fa91fb25de1469ab491f4c15b9a0a2677ee868686600a60008b73ffffffffffffffffffffffffffffffffffffffff1673ffffffffffffffffffffffffffffffffffffffff1681526020019081526020016000206000815480929190600101919050558760600135604051602001610f0a969594939291906134e2565b60405160208183030381529060405280519060200120611b58565b8583611b96565b610f37848484611ce5565b50505050565b606060018054610f4c90612f0c565b80601f0160208091040260200160405190810160405280929190818152602001828054610f7890612f0c565b8015610fc55780601f10610f9a57610100808354040283529160200191610fc5565b820191906000526020600020905b815481529060010190602001808311610fa857829003601f168201915b5050505050905090565b610fd7611623565b73ffffffffffffffffffffffffffffffffffffffff168273ffffffffffffffffffffffffffffffffffffffff161415611045576040517f08c379a000000000000000000000000000000000000000000000000000000000815260040161103c9061358f565b60405180910390fd5b611057611050611623565b8383611ce5565b5050565b61106c611066611623565b836116e4565b6110ab576040517f08c379a00000000000000000000000000000000000000000000000000000000081526004016110a290613166565b60405180910390fd5b6110b784848484611de3565b50505050565b6110c5612678565b6110ce826115b4565b61110d576040517f08c379a000000000000000000000000000000000000000000000000000000000815260040161110490613621565b60405180910390fd5b600260008381526020019081526020016000206040518060400160405290816000820160009054906101000a900473ffffffffffffffffffffffffffffffffffffffff1673ffffffffffffffffffffffffffffffffffffffff1673ffffffffffffffffffffffffffffffffffffffff1681526020016000820160149054906101000a90046bffffffffffffffffffffffff166bffffffffffffffffffffffff166bffffffffffffffffffffffff16815250509050919050565b60606111d1826115b4565b611210576040517f08c379a0000000000000000000000000000000000000000000000000000000008152600401611207906136b3565b60405180910390fd5b600061121a611e3f565b9050600081511161123a5760405180602001604052806000815250611265565b8061124484611e56565b60405160200161125592919061370f565b6040516020818303038152906040525b915050919050565b600061127883610b64565b905061132a6113237f108ccda6d7331b00561a3eea66a2ae331622356585681c62731e4a01aae2261a85600a60008673ffffffffffffffffffffffffffffffffffffffff1673ffffffffffffffffffffffffffffffffffffffff16815260200190815260200160002060008154809291906001019190505586606001356040516020016113089493929190613733565b60405160208183030381529060405280519060200120611b58565b8284611b96565b61133383611a21565b505050565b6000600560008473ffffffffffffffffffffffffffffffffffffffff1673ffffffffffffffffffffffffffffffffffffffff16815260200190815260200160002060008373ffffffffffffffffffffffffffffffffffffffff1673ffffffffffffffffffffffffffffffffffffffff16815260200190815260200160002060009054906101000a900460ff16905092915050565b60006113d6611fb7565b905090565b600a6020528060005260406000206000915090505481565b60006113fd61203b565b90507f000000000000000000000000000000000000000000000000000000000000000073ffffffffffffffffffffffffffffffffffffffff163073ffffffffffffffffffffffffffffffffffffffff161415611485576040517f971d041400000000000000000000000000000000000000000000000000000000815260040160405180910390fd5b600b5481116114c0576040517f5daa87a000000000000000000000000000000000000000000000000000000000815260040160405180910390fd5b80600b81905550816018819055505050565b60007f80ac58cd000000000000000000000000000000000000000000000000000000007bffffffffffffffffffffffffffffffffffffffffffffffffffffffff1916827bffffffffffffffffffffffffffffffffffffffffffffffffffffffff1916148061159d57507f5b5e139f000000000000000000000000000000000000000000000000000000007bffffffffffffffffffffffffffffffffffffffffffffffffffffffff1916827bffffffffffffffffffffffffffffffffffffffffffffffffffffffff1916145b806115ad57506115ac82612044565b5b9050919050565b60008073ffffffffffffffffffffffffffffffffffffffff166002600084815260200190815260200160002060000160009054906101000a900473ffffffffffffffffffffffffffffffffffffffff1673ffffffffffffffffffffffffffffffffffffffff1614159050919050565b600033905090565b816004600083815260200190815260200160002060006101000a81548173ffffffffffffffffffffffffffffffffffffffff021916908373ffffffffffffffffffffffffffffffffffffffff160217905550808273ffffffffffffffffffffffffffffffffffffffff1661169e83610b64565b73ffffffffffffffffffffffffffffffffffffffff167f8c5be1e5ebec7d5bd14f71427d1e84f3dd0314c0f7b2291e5b200ac8c7c3b92560405160405180910390a45050565b60006116ef826115b4565b61172e576040517f08c379a0000000000000000000000000000000000000000000000000000000008152600401611725906137ea565b60405180910390fd5b600061173983610b64565b90508073ffffffffffffffffffffffffffffffffffffffff168473ffffffffffffffffffffffffffffffffffffffff1614806117a857508373ffffffffffffffffffffffffffffffffffffffff1661179084610708565b73ffffffffffffffffffffffffffffffffffffffff16145b806117b957506117b88185611338565b5b91505092915050565b8273ffffffffffffffffffffffffffffffffffffffff166117e282610b64565b73ffffffffffffffffffffffffffffffffffffffff1614611838576040517f08c379a000000000000000000000000000000000000000000000000000000000815260040161182f9061387c565b60405180910390fd5b600073ffffffffffffffffffffffffffffffffffffffff168273ffffffffffffffffffffffffffffffffffffffff1614156118a8576040517f08c379a000000000000000000000000000000000000000000000000000000000815260040161189f9061390e565b60405180910390fd5b6118b38383836120ae565b6118be60008261162b565b6001600360008573ffffffffffffffffffffffffffffffffffffffff1673ffffffffffffffffffffffffffffffffffffffff168152602001908152602001600020600082825461190e919061395d565b925050819055506001600360008473ffffffffffffffffffffffffffffffffffffffff1673ffffffffffffffffffffffffffffffffffffffff16815260200190815260200160002060008282546119659190613991565b92505081905550816002600083815260200190815260200160002060000160006101000a81548173ffffffffffffffffffffffffffffffffffffffff021916908373ffffffffffffffffffffffffffffffffffffffff160217905550808273ffffffffffffffffffffffffffffffffffffffff168473ffffffffffffffffffffffffffffffffffffffff167fddf252ad1be2c89b69c2b068fc378daa952ba7f163c4a11628f55a4df523b3ef60405160405180910390a4505050565b6000611a2c82610b64565b9050611a3a816000846120ae565b611a4560008361162b565b6001600360008373ffffffffffffffffffffffffffffffffffffffff1673ffffffffffffffffffffffffffffffffffffffff1681526020019081526020016000206000828254611a95919061395d565b9250508190555060026000838152602001908152602001600020600080820160006101000a81549073ffffffffffffffffffffffffffffffffffffffff02191690556000820160146101000a8154906bffffffffffffffffffffffff0219169055505081600073ffffffffffffffffffffffffffffffffffffffff168273ffffffffffffffffffffffffffffffffffffffff167fddf252ad1be2c89b69c2b068fc378daa952ba7f163c4a11628f55a4df523b3ef60405160405180910390a45050565b600080611b63611fb7565b83604051602001611b75929190613a54565b60405160208183030381529060405280519060200120905080915050919050565b4281606001351015611bd4576040517f0819bdcd00000000000000000000000000000000000000000000000000000000815260040160405180910390fd5b6000600184836000016020810190611bec9190613ac4565b8460200135856040013560405160008152602001604052604051611c139493929190613b00565b6020604051602081039080840390855afa158015611c35573d6000803e3d6000fd5b505050602060405103519050600073ffffffffffffffffffffffffffffffffffffffff168173ffffffffffffffffffffffffffffffffffffffff161480611ca857508273ffffffffffffffffffffffffffffffffffffffff168173ffffffffffffffffffffffffffffffffffffffff1614155b15611cdf576040517f37e8456b00000000000000000000000000000000000000000000000000000000815260040160405180910390fd5b50505050565b80600560008573ffffffffffffffffffffffffffffffffffffffff1673ffffffffffffffffffffffffffffffffffffffff16815260200190815260200160002060008473ffffffffffffffffffffffffffffffffffffffff1673ffffffffffffffffffffffffffffffffffffffff16815260200190815260200160002060006101000a81548160ff0219169083151502179055508173ffffffffffffffffffffffffffffffffffffffff168373ffffffffffffffffffffffffffffffffffffffff167f17307eab39ab6107e8899845ad3d59bd9653f200f220920489ca2b5937696c3183604051611dd6919061276a565b60405180910390a3505050565b611dee8484846117c2565b611dfa848484846121c2565b611e39576040517f08c379a0000000000000000000000000000000000000000000000000000000008152600401611e3090613bb7565b60405180910390fd5b50505050565b606060405180602001604052806000815250905090565b60606000821415611e9e576040518060400160405280600181526020017f30000000000000000000000000000000000000000000000000000000000000008152509050611fb2565b600082905060005b60008214611ed0578080611eb990613bd7565b915050600a82611ec99190613c4f565b9150611ea6565b60008167ffffffffffffffff811115611eec57611eeb612bfb565b5b6040519080825280601f01601f191660200182016040528015611f1e5781602001600182028036833780820191505090505b5090505b60008514611fab57600182611f37919061395d565b9150600a85611f469190613c80565b6030611f529190613991565b60f81b818381518110611f6857611f676132aa565b5b60200101907effffffffffffffffffffffffffffffffffffffffffffffffffffffffffffff1916908160001a905350600a85611fa49190613c4f565b9450611f22565b8093505050505b919050565b60007f8b73c3c69bb8fe3d512ecc4cf759cc79239f7b179b0ffacaa9a75d522b39400f611fe2610676565b805190602001207fc89efdaa54c0f20c7adf612882df0950f5a951637e0307cdcb4c672f298b8bc64630604051602001612020959493929190613cb1565b60405160208183030381529060405280519060200120905090565b60006001905090565b60007f01ffc9a7000000000000000000000000000000000000000000000000000000007bffffffffffffffffffffffffffffffffffffffffffffffffffffffff1916827bffffffffffffffffffffffffffffffffffffffffffffffffffffffff1916149050919050565b6120b983838361234a565b600073ffffffffffffffffffffffffffffffffffffffff168373ffffffffffffffffffffffffffffffffffffffff1614156120fc576120f78161234f565b61213b565b8173ffffffffffffffffffffffffffffffffffffffff168373ffffffffffffffffffffffffffffffffffffffff161461213a576121398382612398565b5b5b600073ffffffffffffffffffffffffffffffffffffffff168273ffffffffffffffffffffffffffffffffffffffff16141561217e5761217981612505565b6121bd565b8273ffffffffffffffffffffffffffffffffffffffff168273ffffffffffffffffffffffffffffffffffffffff16146121bc576121bb82826125d6565b5b5b505050565b60006121e38473ffffffffffffffffffffffffffffffffffffffff16612655565b1561233d578373ffffffffffffffffffffffffffffffffffffffff1663150b7a0261220c611623565b8786866040518563ffffffff1660e01b815260040161222e9493929190613d59565b6020604051808303816000875af192505050801561226a57506040513d601f19601f820116820180604052508101906122679190613dba565b60015b6122ed573d806000811461229a576040519150601f19603f3d011682016040523d82523d6000602084013e61229f565b606091505b506000815114156122e5576040517f08c379a00000000000000000000000000000000000000000000000000000000081526004016122dc90613bb7565b60405180910390fd5b805181602001fd5b63150b7a0260e01b7bffffffffffffffffffffffffffffffffffffffffffffffffffffffff1916817bffffffffffffffffffffffffffffffffffffffffffffffffffffffff191614915050612342565b600190505b949350505050565b505050565b6008805490506009600083815260200190815260200160002081905550600881908060018154018082558091505060019003906000526020600020016000909190919091505550565b600060016123a584610c19565b6123af919061395d565b9050600060076000848152602001908152602001600020549050818114612494576000600660008673ffffffffffffffffffffffffffffffffffffffff1673ffffffffffffffffffffffffffffffffffffffff168152602001908152602001600020600084815260200190815260200160002054905080600660008773ffffffffffffffffffffffffffffffffffffffff1673ffffffffffffffffffffffffffffffffffffffff168152602001908152602001600020600084815260200190815260200160002081905550816007600083815260200190815260200160002081905550505b6007600084815260200190815260200160002060009055600660008573ffffffffffffffffffffffffffffffffffffffff1673ffffffffffffffffffffffffffffffffffffffff16815260200190815260200160002060008381526020019081526020016000206000905550505050565b60006001600880549050612519919061395d565b9050600060096000848152602001908152602001600020549050600060088381548110612549576125486132aa565b5b90600052602060002001549050806008838154811061256b5761256a6132aa565b5b9060005260206000200181905550816009600083815260200190815260200160002081905550600960008581526020019081526020016000206000905560088054806125ba576125b9613de7565b5b6001900381819060005260206000200160009055905550505050565b60006125e183610c19565b905081600660008573ffffffffffffffffffffffffffffffffffffffff1673ffffffffffffffffffffffffffffffffffffffff168152602001908152602001600020600083815260200190815260200160002081905550806007600084815260200190815260200160002081905550505050565b6000808273ffffffffffffffffffffffffffffffffffffffff163b119050919050565b6040518060400160405280600073ffffffffffffffffffffffffffffffffffffffff16815260200160006bffffffffffffffffffffffff1681525090565b6000604051905090565b600080fd5b600080fd5b60007fffffffff0000000000000000000000000000000000000000000000000000000082169050919050565b6126ff816126ca565b811461270a57600080fd5b50565b60008135905061271c816126f6565b92915050565b600060208284031215612738576127376126c0565b5b60006127468482850161270d565b91505092915050565b60008115159050919050565b6127648161274f565b82525050565b600060208201905061277f600083018461275b565b92915050565b600081519050919050565b600082825260208201905092915050565b60005b838110156127bf5780820151818401526020810190506127a4565b838111156127ce576000848401525b50505050565b6000601f19601f8301169050919050565b60006127f082612785565b6127fa8185612790565b935061280a8185602086016127a1565b612813816127d4565b840191505092915050565b6000602082019050818103600083015261283881846127e5565b905092915050565b6000819050919050565b61285381612840565b811461285e57600080fd5b50565b6000813590506128708161284a565b92915050565b60006020828403121561288c5761288b6126c0565b5b600061289a84828501612861565b91505092915050565b600073ffffffffffffffffffffffffffffffffffffffff82169050919050565b60006128ce826128a3565b9050919050565b6128de816128c3565b82525050565b60006020820190506128f960008301846128d5565b92915050565b612908816128c3565b811461291357600080fd5b50565b600081359050612925816128ff565b92915050565b60008060408385031215612942576129416126c0565b5b600061295085828601612916565b925050602061296185828601612861565b9150509250929050565b61297481612840565b82525050565b600060208201905061298f600083018461296b565b92915050565b7f4e487b7100000000000000000000000000000000000000000000000000000000600052602160045260246000fd5b600381106129d5576129d4612995565b5b50565b60008190506129e6826129c4565b919050565b60006129f6826129d8565b9050919050565b612a06816129eb565b82525050565b6000602082019050612a2160008301846129fd565b92915050565b600080600060608486031215612a4057612a3f6126c0565b5b6000612a4e86828701612916565b9350506020612a5f86828701612916565b9250506040612a7086828701612861565b9150509250925092565b600060208284031215612a9057612a8f6126c0565b5b6000612a9e84828501612916565b91505092915050565b600080fd5b600060808284031215612ac257612ac1612aa7565b5b81905092915050565b600080600060c08486031215612ae457612ae36126c0565b5b6000612af286828701612916565b9350506020612b0386828701612861565b9250506040612b1486828701612aac565b9150509250925092565b612b278161274f565b8114612b3257600080fd5b50565b600081359050612b4481612b1e565b92915050565b60008060008060e08587031215612b6457612b636126c0565b5b6000612b7287828801612916565b9450506020612b8387828801612916565b9350506040612b9487828801612b35565b9250506060612ba587828801612aac565b91505092959194509250565b60008060408385031215612bc857612bc76126c0565b5b6000612bd685828601612916565b9250506020612be785828601612b35565b9150509250929050565b600080fd5b600080fd5b7f4e487b7100000000000000000000000000000000000000000000000000000000600052604160045260246000fd5b612c33826127d4565b810181811067ffffffffffffffff82111715612c5257612c51612bfb565b5b80604052505050565b6000612c656126b6565b9050612c718282612c2a565b919050565b600067ffffffffffffffff821115612c9157612c90612bfb565b5b612c9a826127d4565b9050602081019050919050565b82818337600083830152505050565b6000612cc9612cc484612c76565b612c5b565b905082815260208101848484011115612ce557612ce4612bf6565b5b612cf0848285612ca7565b509392505050565b600082601f830112612d0d57612d0c612bf1565b5b8135612d1d848260208601612cb6565b91505092915050565b60008060008060808587031215612d4057612d3f6126c0565b5b6000612d4e87828801612916565b9450506020612d5f87828801612916565b9350506040612d7087828801612861565b925050606085013567ffffffffffffffff811115612d9157612d906126c5565b5b612d9d87828801612cf8565b91505092959194509250565b612db2816128c3565b82525050565b60006bffffffffffffffffffffffff82169050919050565b612dd981612db8565b82525050565b604082016000820151612df56000850182612da9565b506020820151612e086020850182612dd0565b50505050565b6000604082019050612e236000830184612ddf565b92915050565b60008060a08385031215612e4057612e3f6126c0565b5b6000612e4e85828601612861565b9250506020612e5f85828601612aac565b9150509250929050565b60008060408385031215612e8057612e7f6126c0565b5b6000612e8e85828601612916565b9250506020612e9f85828601612916565b9150509250929050565b6000819050919050565b612ebc81612ea9565b82525050565b6000602082019050612ed76000830184612eb3565b92915050565b7f4e487b7100000000000000000000000000000000000000000000000000000000600052602260045260246000fd5b60006002820490506001821680612f2457607f821691505b60208210811415612f3857612f37612edd565b5b50919050565b7f4552433732313a20617070726f76656420717565727920666f72206e6f6e657860008201527f697374656e7420746f6b656e0000000000000000000000000000000000000000602082015250565b6000612f9a602c83612790565b9150612fa582612f3e565b604082019050919050565b60006020820190508181036000830152612fc981612f8d565b9050919050565b7f4552433732313a20617070726f76616c20746f2063757272656e74206f776e6560008201527f7200000000000000000000000000000000000000000000000000000000000000602082015250565b600061302c602183612790565b915061303782612fd0565b604082019050919050565b6000602082019050818103600083015261305b8161301f565b9050919050565b7f4552433732313a20617070726f76652063616c6c6572206973206e6f74206f7760008201527f6e6572206e6f7220617070726f76656420666f7220616c6c0000000000000000602082015250565b60006130be603883612790565b91506130c982613062565b604082019050919050565b600060208201905081810360008301526130ed816130b1565b9050919050565b7f4552433732313a207472616e736665722063616c6c6572206973206e6f74206f60008201527f776e6572206e6f7220617070726f766564000000000000000000000000000000602082015250565b6000613150603183612790565b915061315b826130f4565b604082019050919050565b6000602082019050818103600083015261317f81613143565b9050919050565b7f455243373231456e756d657261626c653a206f776e657220696e646578206f7560008201527f74206f6620626f756e6473000000000000000000000000000000000000000000602082015250565b60006131e2602b83612790565b91506131ed82613186565b604082019050919050565b60006020820190508181036000830152613211816131d5565b9050919050565b7f455243373231456e756d657261626c653a20676c6f62616c20696e646578206f60008201527f7574206f6620626f756e64730000000000000000000000000000000000000000602082015250565b6000613274602c83612790565b915061327f82613218565b604082019050919050565b600060208201905081810360008301526132a381613267565b9050919050565b7f4e487b7100000000000000000000000000000000000000000000000000000000600052603260045260246000fd5b7f4552433732313a206d696e742074696d657374616d7020717565727920666f7260008201527f206e6f6e6578697374656e7420746f6b656e0000000000000000000000000000602082015250565b6000613335603283612790565b9150613340826132d9565b604082019050919050565b6000602082019050818103600083015261336481613328565b9050919050565b7f4552433732313a206f776e657220717565727920666f72206e6f6e657869737460008201527f656e7420746f6b656e0000000000000000000000000000000000000000000000602082015250565b60006133c7602983612790565b91506133d28261336b565b604082019050919050565b600060208201905081810360008301526133f6816133ba565b9050919050565b7f4552433732313a2062616c616e636520717565727920666f7220746865207a6560008201527f726f206164647265737300000000000000000000000000000000000000000000602082015250565b6000613459602a83612790565b9150613464826133fd565b604082019050919050565b600060208201905081810360008301526134888161344c565b9050919050565b600060a0820190506134a46000830188612eb3565b6134b160208301876128d5565b6134be604083018661296b565b6134cb606083018561296b565b6134d8608083018461296b565b9695505050505050565b600060c0820190506134f76000830189612eb3565b61350460208301886128d5565b61351160408301876128d5565b61351e606083018661275b565b61352b608083018561296b565b61353860a083018461296b565b979650505050505050565b7f4552433732313a20617070726f766520746f2063616c6c657200000000000000600082015250565b6000613579601983612790565b915061358482613543565b602082019050919050565b600060208201905081810360008301526135a88161356c565b9050919050565b7f4552433732313a20746f6b656e206461746120717565727920666f72206e6f6e60008201527f6578697374656e7420746f6b656e000000000000000000000000000000000000602082015250565b600061360b602e83612790565b9150613616826135af565b604082019050919050565b6000602082019050818103600083015261363a816135fe565b9050919050565b7f4552433732314d657461646174613a2055524920717565727920666f72206e6f60008201527f6e6578697374656e7420746f6b656e0000000000000000000000000000000000602082015250565b600061369d602f83612790565b91506136a882613641565b604082019050919050565b600060208201905081810360008301526136cc81613690565b9050919050565b600081905092915050565b60006136e982612785565b6136f381856136d3565b93506137038185602086016127a1565b80840191505092915050565b600061371b82856136de565b915061372782846136de565b91508190509392505050565b60006080820190506137486000830187612eb3565b613755602083018661296b565b613762604083018561296b565b61376f606083018461296b565b95945050505050565b7f4552433732313a206f70657261746f7220717565727920666f72206e6f6e657860008201527f697374656e7420746f6b656e0000000000000000000000000000000000000000602082015250565b60006137d4602c83612790565b91506137df82613778565b604082019050919050565b60006020820190508181036000830152613803816137c7565b9050919050565b7f4552433732313a207472616e73666572206f6620746f6b656e2074686174206960008201527f73206e6f74206f776e0000000000000000000000000000000000000000000000602082015250565b6000613866602983612790565b91506138718261380a565b604082019050919050565b6000602082019050818103600083015261389581613859565b9050919050565b7f4552433732313a207472616e7366657220746f20746865207a65726f2061646460008201527f7265737300000000000000000000000000000000000000000000000000000000602082015250565b60006138f8602483612790565b91506139038261389c565b604082019050919050565b60006020820190508181036000830152613927816138eb565b9050919050565b7f4e487b7100000000000000000000000000000000000000000000000000000000600052601160045260246000fd5b600061396882612840565b915061397383612840565b9250828210156139865761398561392e565b5b828203905092915050565b600061399c82612840565b91506139a783612840565b9250827fffffffffffffffffffffffffffffffffffffffffffffffffffffffffffffffff038211156139dc576139db61392e565b5b828201905092915050565b7f1901000000000000000000000000000000000000000000000000000000000000600082015250565b6000613a1d6002836136d3565b9150613a28826139e7565b600282019050919050565b6000819050919050565b613a4e613a4982612ea9565b613a33565b82525050565b6000613a5f82613a10565b9150613a6b8285613a3d565b602082019150613a7b8284613a3d565b6020820191508190509392505050565b600060ff82169050919050565b613aa181613a8b565b8114613aac57600080fd5b50565b600081359050613abe81613a98565b92915050565b600060208284031215613ada57613ad96126c0565b5b6000613ae884828501613aaf565b91505092915050565b613afa81613a8b565b82525050565b6000608082019050613b156000830187612eb3565b613b226020830186613af1565b613b2f6040830185612eb3565b613b3c6060830184612eb3565b95945050505050565b7f4552433732313a207472616e7366657220746f206e6f6e20455243373231526560008201527f63656976657220696d706c656d656e7465720000000000000000000000000000602082015250565b6000613ba1603283612790565b9150613bac82613b45565b604082019050919050565b60006020820190508181036000830152613bd081613b94565b9050919050565b6000613be282612840565b91507fffffffffffffffffffffffffffffffffffffffffffffffffffffffffffffffff821415613c1557613c1461392e565b5b600182019050919050565b7f4e487b7100000000000000000000000000000000000000000000000000000000600052601260045260246000fd5b6000613c5a82612840565b9150613c6583612840565b925082613c7557613c74613c20565b5b828204905092915050565b6000613c8b82612840565b9150613c9683612840565b925082613ca657613ca5613c20565b5b828206905092915050565b600060a082019050613cc66000830188612eb3565b613cd36020830187612eb3565b613ce06040830186612eb3565b613ced606083018561296b565b613cfa60808301846128d5565b9695505050505050565b600081519050919050565b600082825260208201905092915050565b6000613d2b82613d04565b613d358185613d0f565b9350613d458185602086016127a1565b613d4e816127d4565b840191505092915050565b6000608082019050613d6e60008301876128d5565b613d7b60208301866128d5565b613d88604083018561296b565b8181036060830152613d9a8184613d20565b905095945050505050565b600081519050613db4816126f6565b92915050565b600060208284031215613dd057613dcf6126c0565b5b6000613dde84828501613da5565b91505092915050565b7f4e487b7100000000000000000000000000000000000000000000000000000000600052603160045260246000fdfea2646970667358221220767388fd9e265c9a9a22f9af0d8a5a56612d4abfb84b7821df2924aaa9ec1e7964736f6c634300080a0033",
  "immutableReferences": {
    "16334": [
      {
        "length": 32,
        "start": 5121
      }
    ]
  },
  "source": "// SPDX-License-Identifier: AGPL-3.0-only\n\npragma solidity 0.8.10;\n\nimport {ILensHub} from '../interfaces/ILensHub.sol';\nimport {Events} from '../libraries/Events.sol';\nimport {Helpers} from '../libraries/Helpers.sol';\nimport {DataTypes} from '../libraries/DataTypes.sol';\nimport {Errors} from '../libraries/Errors.sol';\nimport {PublishingLogic} from '../libraries/PublishingLogic.sol';\nimport {InteractionLogic} from '../libraries/InteractionLogic.sol';\nimport {LensNFTBase} from '../core/base/LensNFTBase.sol';\nimport {LensMultiState} from '../core/base/LensMultiState.sol';\nimport {VersionedInitializable} from '../upgradeability/VersionedInitializable.sol';\nimport {MockLensHubV2Storage} from './MockLensHubV2Storage.sol';\n\n/**\n * @dev A mock upgraded LensHub contract that is used to validate that the initializer cannot be called with the same revision.\n */\ncontract MockLensHubV2BadRevision is\n    LensNFTBase,\n    VersionedInitializable,\n    LensMultiState,\n    MockLensHubV2Storage\n{\n    uint256 internal constant REVISION = 1; // Should fail the initializer check\n\n    function initialize(uint256 newValue) external initializer {\n        _additionalValue = newValue;\n    }\n\n    function setAdditionalValue(uint256 newValue) external {\n        _additionalValue = newValue;\n    }\n\n    function getAdditionalValue() external view returns (uint256) {\n        return _additionalValue;\n    }\n\n    function getRevision() internal pure virtual override returns (uint256) {\n        return REVISION;\n    }\n}\n",
  "sourcePath": "/Users/korbinianabstreiter/crytoprojects/primetime/contracts/mocks/MockLensHubV2BadRevision.sol",
  "compiler": {
    "name": "solc",
    "version": "0.8.10+commit.fc410830.Emscripten.clang"
  },
  "schemaVersion": "3.4.5",
  "updatedAt": "2022-04-22T14:49:53.935Z",
  "devdoc": {
    "details": "A mock upgraded LensHub contract that is used to validate that the initializer cannot be called with the same revision.",
    "kind": "dev",
    "methods": {
      "approve(address,uint256)": {
        "details": "See {IERC721-approve}."
      },
      "balanceOf(address)": {
        "details": "See {IERC721-balanceOf}."
      },
      "burn(uint256)": {
        "params": {
          "tokenId": "The token ID of the token to burn."
        }
      },
      "burnWithSig(uint256,(uint8,bytes32,bytes32,uint256))": {
        "params": {
          "sig": "The EIP712 signature struct.",
          "tokenId": "The token ID of the token to burn."
        }
      },
      "exists(uint256)": {
        "details": "See {IERC721Time-exists}"
      },
      "getApproved(uint256)": {
        "details": "See {IERC721-getApproved}."
      },
      "getDomainSeparator()": {
        "returns": {
          "_0": "bytes32 The domain separator."
        }
      },
      "getState()": {
        "returns": {
          "_0": "ProtocolState The Protocol state, an enum, where:      0: Unpaused      1: PublishingPaused      2: Paused"
        }
      },
      "isApprovedForAll(address,address)": {
        "details": "See {IERC721-isApprovedForAll}."
      },
      "mintTimestampOf(uint256)": {
        "details": "See {IERC721Time-mintTimestampOf}"
      },
      "name()": {
        "details": "See {IERC721Metadata-name}."
      },
      "ownerOf(uint256)": {
        "details": "See {IERC721-ownerOf}."
      },
      "permit(address,uint256,(uint8,bytes32,bytes32,uint256))": {
        "params": {
          "sig": "The EIP712 signature struct.",
          "spender": "The NFT spender.",
          "tokenId": "The NFT token ID to approve."
        }
      },
      "permitForAll(address,address,bool,(uint8,bytes32,bytes32,uint256))": {
        "params": {
          "approved": "Whether to approve or revoke approval from the operator.",
          "operator": "The operator to approve.",
          "owner": "The owner to set operator approvals for.",
          "sig": "The EIP712 signature struct."
        }
      },
      "safeTransferFrom(address,address,uint256)": {
        "details": "See {IERC721-safeTransferFrom}."
      },
      "safeTransferFrom(address,address,uint256,bytes)": {
        "details": "See {IERC721-safeTransferFrom}."
      },
      "setApprovalForAll(address,bool)": {
        "details": "See {IERC721-setApprovalForAll}."
      },
      "supportsInterface(bytes4)": {
        "details": "See {IERC165-supportsInterface}."
      },
      "symbol()": {
        "details": "See {IERC721Metadata-symbol}."
      },
      "tokenByIndex(uint256)": {
        "details": "See {IERC721Enumerable-tokenByIndex}."
      },
      "tokenDataOf(uint256)": {
        "details": "See {IERC721Time-mintTimestampOf}"
      },
      "tokenOfOwnerByIndex(address,uint256)": {
        "details": "See {IERC721Enumerable-tokenOfOwnerByIndex}."
      },
      "tokenURI(uint256)": {
        "details": "See {IERC721Metadata-tokenURI}."
      },
      "totalSupply()": {
        "details": "See {IERC721Enumerable-totalSupply}."
      },
      "transferFrom(address,address,uint256)": {
        "details": "See {IERC721-transferFrom}."
      }
    },
    "version": 1
  },
  "userdoc": {
    "kind": "user",
    "methods": {
      "burn(uint256)": {
        "notice": "Burns an NFT, removing it from circulation and essentially destroying it. This function can only be called by the NFT to burn's owner."
      },
      "burnWithSig(uint256,(uint8,bytes32,bytes32,uint256))": {
        "notice": "Implementation of an EIP-712 permit-style function for token burning. Allows anyone to burn a token on behalf of the owner with a signature."
      },
      "getDomainSeparator()": {
        "notice": "Returns the domain separator for this NFT contract."
      },
      "getState()": {
        "notice": "Returns the current protocol state."
      },
      "permit(address,uint256,(uint8,bytes32,bytes32,uint256))": {
        "notice": "Implementation of an EIP-712 permit function for an ERC-721 NFT. We don't need to check if the tokenId exists, since the function calls ownerOf(tokenId), which reverts if the tokenId does not exist."
      },
      "permitForAll(address,address,bool,(uint8,bytes32,bytes32,uint256))": {
        "notice": "Implementation of an EIP-712 permit-style function for ERC-721 operator approvals. Allows an operator address to control all NFTs a given owner owns."
      }
    },
    "version": 1
  }
}