{
  "contractName": "MockReferenceModule",
  "abi": [
    {
      "inputs": [
        {
          "internalType": "uint256",
          "name": "profileId",
          "type": "uint256"
        },
        {
          "internalType": "uint256",
          "name": "pubId",
          "type": "uint256"
        },
        {
          "internalType": "bytes",
          "name": "data",
          "type": "bytes"
        }
      ],
      "name": "initializeReferenceModule",
      "outputs": [
        {
          "internalType": "bytes",
          "name": "",
          "type": "bytes"
        }
      ],
      "stateMutability": "pure",
      "type": "function"
    },
    {
      "inputs": [
        {
          "internalType": "uint256",
          "name": "profileId",
          "type": "uint256"
        },
        {
          "internalType": "uint256",
          "name": "profileIdPointed",
          "type": "uint256"
        },
        {
          "internalType": "uint256",
          "name": "pubIdPointed",
          "type": "uint256"
        },
        {
          "internalType": "bytes",
          "name": "data",
          "type": "bytes"
        }
      ],
      "name": "processComment",
      "outputs": [],
      "stateMutability": "nonpayable",
      "type": "function"
    },
    {
      "inputs": [
        {
          "internalType": "uint256",
          "name": "profileId",
          "type": "uint256"
        },
        {
          "internalType": "uint256",
          "name": "profileIdPointed",
          "type": "uint256"
        },
        {
          "internalType": "uint256",
          "name": "pubIdPointed",
          "type": "uint256"
        },
        {
          "internalType": "bytes",
          "name": "data",
          "type": "bytes"
        }
      ],
      "name": "processMirror",
      "outputs": [],
      "stateMutability": "nonpayable",
      "type": "function"
    }
  ],
  "bytecode": "0x608060405234801561001057600080fd5b506104d8806100206000396000f3fe608060405234801561001057600080fd5b50600436106100415760003560e01c806356014afa1461004657806357ba558414610076578063a2830b2e14610092575b600080fd5b610060600480360381019061005b9190610212565b6100ae565b60405161006d919061031f565b60405180910390f35b610090600480360381019061008b9190610341565b61015f565b005b6100ac60048036038101906100a79190610341565b610166565b005b6060600083838101906100c191906103c9565b905060018114610106576040517f08c379a00000000000000000000000000000000000000000000000000000000081526004016100fd90610453565b60405180910390fd5b600067ffffffffffffffff81111561012157610120610473565b5b6040519080825280601f01601f1916602001820160405280156101535781602001600182028036833780820191505090505b50915050949350505050565b5050505050565b5050505050565b600080fd5b600080fd5b6000819050919050565b61018a81610177565b811461019557600080fd5b50565b6000813590506101a781610181565b92915050565b600080fd5b600080fd5b600080fd5b60008083601f8401126101d2576101d16101ad565b5b8235905067ffffffffffffffff8111156101ef576101ee6101b2565b5b60208301915083600182028301111561020b5761020a6101b7565b5b9250929050565b6000806000806060858703121561022c5761022b61016d565b5b600061023a87828801610198565b945050602061024b87828801610198565b935050604085013567ffffffffffffffff81111561026c5761026b610172565b5b610278878288016101bc565b925092505092959194509250565b600081519050919050565b600082825260208201905092915050565b60005b838110156102c05780820151818401526020810190506102a5565b838111156102cf576000848401525b50505050565b6000601f19601f8301169050919050565b60006102f182610286565b6102fb8185610291565b935061030b8185602086016102a2565b610314816102d5565b840191505092915050565b6000602082019050818103600083015261033981846102e6565b905092915050565b60008060008060006080868803121561035d5761035c61016d565b5b600061036b88828901610198565b955050602061037c88828901610198565b945050604061038d88828901610198565b935050606086013567ffffffffffffffff8111156103ae576103ad610172565b5b6103ba888289016101bc565b92509250509295509295909350565b6000602082840312156103df576103de61016d565b5b60006103ed84828501610198565b91505092915050565b600082825260208201905092915050565b7f4d6f636b5265666572656e63654d6f64756c653a20696e76616c696400000000600082015250565b600061043d601c836103f6565b915061044882610407565b602082019050919050565b6000602082019050818103600083015261046c81610430565b9050919050565b7f4e487b7100000000000000000000000000000000000000000000000000000000600052604160045260246000fdfea264697066735822122069d2a2a58dc7ad4fb87d3fd760bf85465b38fd3125db4ff8187018e13ca4efa464736f6c634300080a0033",
  "immutableReferences": {},
  "source": "// SPDX-License-Identifier: AGPL-3.0-only\n\npragma solidity 0.8.10;\n\nimport {IReferenceModule} from '../interfaces/IReferenceModule.sol';\n\ncontract MockReferenceModule is IReferenceModule {\n    function initializeReferenceModule(\n        uint256 profileId,\n        uint256 pubId,\n        bytes calldata data\n    ) external pure override returns (bytes memory) {\n        uint256 number = abi.decode(data, (uint256));\n        require(number == 1, 'MockReferenceModule: invalid');\n        return new bytes(0);\n    }\n\n    function processComment(\n        uint256 profileId,\n        uint256 profileIdPointed,\n        uint256 pubIdPointed,\n        bytes calldata data\n    ) external override {}\n\n    function processMirror(\n        uint256 profileId,\n        uint256 profileIdPointed,\n        uint256 pubIdPointed,\n        bytes calldata data\n    ) external override {}\n}\n",
  "sourcePath": "/Users/korbinianabstreiter/crytoprojects/primetime/contracts/mocks/MockReferenceModule.sol",
  "compiler": {
    "name": "solc",
    "version": "0.8.10+commit.fc410830.Emscripten.clang"
  },
  "schemaVersion": "3.4.5",
  "updatedAt": "2022-04-22T14:49:53.941Z",
  "devdoc": {
    "kind": "dev",
    "methods": {
      "initializeReferenceModule(uint256,uint256,bytes)": {
        "params": {
          "data": "Arbitrary data passed from the user to be decoded.",
          "profileId": "The token ID of the profile publishing the publication.",
          "pubId": "The associated publication's LensHub publication ID."
        },
        "returns": {
          "_0": "bytes An abi encoded byte array encapsulating the execution's state changes. This will be emitted by the hub alongside the collect module's address and should be consumed by front ends."
        }
      },
      "processComment(uint256,uint256,uint256,bytes)": {
        "params": {
          "data": "Arbitrary data __passed from the commenter!__ to be decoded.",
          "profileId": "The token ID of the profile associated with the publication being published.",
          "profileIdPointed": "The profile ID of the profile associated the publication being referenced.",
          "pubIdPointed": "The publication ID of the publication being referenced."
        }
      },
      "processMirror(uint256,uint256,uint256,bytes)": {
        "params": {
          "data": "Arbitrary data __passed from the mirrorer!__ to be decoded.",
          "profileId": "The token ID of the profile associated with the publication being published.",
          "profileIdPointed": "The profile ID of the profile associated the publication being referenced.",
          "pubIdPointed": "The publication ID of the publication being referenced."
        }
      }
    },
    "version": 1
  },
  "userdoc": {
    "kind": "user",
    "methods": {
      "initializeReferenceModule(uint256,uint256,bytes)": {
        "notice": "Initializes data for a given publication being published. This can only be called by the hub."
      },
      "processComment(uint256,uint256,uint256,bytes)": {
        "notice": "Processes a comment action referencing a given publication. This can only be called by the hub."
      },
      "processMirror(uint256,uint256,uint256,bytes)": {
        "notice": "Processes a mirror action referencing a given publication. This can only be called by the hub."
      }
    },
    "version": 1
  }
}