{
  "contractName": "MockProfileCreationProxy",
  "abi": [
    {
      "inputs": [
        {
          "internalType": "address",
          "name": "hub",
          "type": "address"
        }
      ],
      "stateMutability": "nonpayable",
      "type": "constructor"
    },
    {
      "inputs": [
        {
          "components": [
            {
              "internalType": "address",
              "name": "to",
              "type": "address"
            },
            {
              "internalType": "string",
              "name": "handle",
              "type": "string"
            },
            {
              "internalType": "string",
              "name": "imageURI",
              "type": "string"
            },
            {
              "internalType": "address",
              "name": "followModule",
              "type": "address"
            },
            {
              "internalType": "bytes",
              "name": "followModuleInitData",
              "type": "bytes"
            },
            {
              "internalType": "string",
              "name": "followNFTURI",
              "type": "string"
            }
          ],
          "internalType": "struct DataTypes.CreateProfileData",
          "name": "vars",
          "type": "tuple"
        }
      ],
      "name": "proxyCreateProfile",
      "outputs": [],
      "stateMutability": "nonpayable",
      "type": "function"
    }
  ],
  "bytecode": "0x60a060405234801561001057600080fd5b506040516105ff3803806105ff833981810160405281019061003291906100cf565b8073ffffffffffffffffffffffffffffffffffffffff1660808173ffffffffffffffffffffffffffffffffffffffff1681525050506100fc565b600080fd5b600073ffffffffffffffffffffffffffffffffffffffff82169050919050565b600061009c82610071565b9050919050565b6100ac81610091565b81146100b757600080fd5b50565b6000815190506100c9816100a3565b92915050565b6000602082840312156100e5576100e461006c565b5b60006100f3848285016100ba565b91505092915050565b6080516104e96101166000396000604e01526104e96000f3fe608060405234801561001057600080fd5b506004361061002b5760003560e01c806307e5f94814610030575b600080fd5b61004a6004803603810190610045919061011a565b61004c565b005b7f000000000000000000000000000000000000000000000000000000000000000073ffffffffffffffffffffffffffffffffffffffff1663ffea138e826040518263ffffffff1660e01b81526004016100a5919061042e565b6020604051808303816000875af11580156100c4573d6000803e3d6000fd5b505050506040513d601f19601f820116820180604052508101906100e89190610486565b5050565b600080fd5b600080fd5b600080fd5b600060c08284031215610111576101106100f6565b5b81905092915050565b6000602082840312156101305761012f6100ec565b5b600082013567ffffffffffffffff81111561014e5761014d6100f1565b5b61015a848285016100fb565b91505092915050565b600073ffffffffffffffffffffffffffffffffffffffff82169050919050565b600061018e82610163565b9050919050565b61019e81610183565b81146101a957600080fd5b50565b6000813590506101bb81610195565b92915050565b60006101d060208401846101ac565b905092915050565b6101e181610183565b82525050565b600080fd5b600080fd5b600080fd5b60008083356001602003843603038112610213576102126101f1565b5b83810192508235915060208301925067ffffffffffffffff82111561023b5761023a6101e7565b5b600182023603841315610251576102506101ec565b5b509250929050565b600082825260208201905092915050565b82818337600083830152505050565b6000601f19601f8301169050919050565b60006102968385610259565b93506102a383858461026a565b6102ac83610279565b840190509392505050565b600080833560016020038436030381126102d4576102d36101f1565b5b83810192508235915060208301925067ffffffffffffffff8211156102fc576102fb6101e7565b5b600182023603841315610312576103116101ec565b5b509250929050565b600082825260208201905092915050565b6000610337838561031a565b935061034483858461026a565b61034d83610279565b840190509392505050565b600060c0830161036b60008401846101c1565b61037860008601826101d8565b5061038660208401846101f6565b858303602087015261039983828461028a565b925050506103aa60408401846101f6565b85830360408701526103bd83828461028a565b925050506103ce60608401846101c1565b6103db60608601826101d8565b506103e960808401846102b7565b85830360808701526103fc83828461032b565b9250505061040d60a08401846101f6565b85830360a087015261042083828461028a565b925050508091505092915050565b600060208201905081810360008301526104488184610358565b905092915050565b6000819050919050565b61046381610450565b811461046e57600080fd5b50565b6000815190506104808161045a565b92915050565b60006020828403121561049c5761049b6100ec565b5b60006104aa84828501610471565b9150509291505056fea2646970667358221220407cab8f74e326494a4da96ee703b063d14443ae89991b259316df39438ab85d64736f6c634300080a0033",
  "immutableReferences": {
    "16019": [
      {
        "length": 32,
        "start": 78
      }
    ]
  },
  "source": "// SPDX-License-Identifier: AGPL-3.0-only\n\npragma solidity 0.8.10;\n\nimport {ILensHub} from '../interfaces/ILensHub.sol';\nimport {DataTypes} from '../libraries/DataTypes.sol';\n\n/**\n * @title MockProfileCreationProxy\n * @author Lens Protocol\n *\n * @dev This is a proxy to allow profiles to be created from any address.\n */\ncontract MockProfileCreationProxy {\n    ILensHub immutable LENS_HUB;\n\n    constructor(address hub) {\n        LENS_HUB = ILensHub(hub);\n    }\n\n    function proxyCreateProfile(DataTypes.CreateProfileData calldata vars) external {\n        LENS_HUB.createProfile(vars);\n    }\n}\n",
  "sourcePath": "/Users/korbinianabstreiter/crytoprojects/primetime/contracts/mocks/MockProfileCreationProxy.sol",
  "compiler": {
    "name": "solc",
    "version": "0.8.10+commit.fc410830.Emscripten.clang"
  },
  "schemaVersion": "3.4.5",
  "updatedAt": "2022-04-22T14:49:53.940Z",
  "devdoc": {
    "author": "Lens Protocol",
    "details": "This is a proxy to allow profiles to be created from any address.",
    "kind": "dev",
    "methods": {},
    "title": "MockProfileCreationProxy",
    "version": 1
  },
  "userdoc": {
    "kind": "user",
    "methods": {},
    "version": 1
  }
}