{
  "contractName": "MockFollowModule",
  "abi": [
    {
      "inputs": [
        {
          "internalType": "uint256",
          "name": "profileId",
          "type": "uint256"
        },
        {
          "internalType": "bytes",
          "name": "data",
          "type": "bytes"
        }
      ],
      "name": "initializeFollowModule",
      "outputs": [
        {
          "internalType": "bytes",
          "name": "",
          "type": "bytes"
        }
      ],
      "stateMutability": "pure",
      "type": "function"
    },
    {
      "inputs": [
        {
          "internalType": "address",
          "name": "follower",
          "type": "address"
        },
        {
          "internalType": "uint256",
          "name": "profileId",
          "type": "uint256"
        },
        {
          "internalType": "bytes",
          "name": "data",
          "type": "bytes"
        }
      ],
      "name": "processFollow",
      "outputs": [],
      "stateMutability": "nonpayable",
      "type": "function"
    },
    {
      "inputs": [
        {
          "internalType": "uint256",
          "name": "profileId",
          "type": "uint256"
        },
        {
          "internalType": "address",
          "name": "follower",
          "type": "address"
        },
        {
          "internalType": "uint256",
          "name": "followNFTTokenId",
          "type": "uint256"
        }
      ],
      "name": "isFollowing",
      "outputs": [
        {
          "internalType": "bool",
          "name": "",
          "type": "bool"
        }
      ],
      "stateMutability": "view",
      "type": "function"
    },
    {
      "inputs": [
        {
          "internalType": "uint256",
          "name": "profileId",
          "type": "uint256"
        },
        {
          "internalType": "address",
          "name": "from",
          "type": "address"
        },
        {
          "internalType": "address",
          "name": "to",
          "type": "address"
        },
        {
          "internalType": "uint256",
          "name": "followNFTTokenId",
          "type": "uint256"
        }
      ],
      "name": "followModuleTransferHook",
      "outputs": [],
      "stateMutability": "nonpayable",
      "type": "function"
    }
  ],
  "bytecode": "0x608060405234801561001057600080fd5b50610643806100206000396000f3fe608060405234801561001057600080fd5b506004361061004c5760003560e01c80630e096ae1146100515780633cb22cc41461006d578063451c3d0c146100895780639713958a146100b9575b600080fd5b61006b600480360381019061006691906102b5565b6100e9565b005b61008760048036038101906100829190610329565b6100ef565b005b6100a3600480360381019061009e9190610390565b6100f5565b6040516100b091906103fe565b60405180910390f35b6100d360048036038101906100ce9190610419565b610102565b6040516100e09190610512565b60405180910390f35b50505050565b50505050565b6000600190509392505050565b6060600083838101906101159190610534565b90506001811461015a576040517f08c379a0000000000000000000000000000000000000000000000000000000008152600401610151906105be565b60405180910390fd5b600067ffffffffffffffff811115610175576101746105de565b5b6040519080825280601f01601f1916602001820160405280156101a75781602001600182028036833780820191505090505b509150509392505050565b600080fd5b600080fd5b600073ffffffffffffffffffffffffffffffffffffffff82169050919050565b60006101e7826101bc565b9050919050565b6101f7816101dc565b811461020257600080fd5b50565b600081359050610214816101ee565b92915050565b6000819050919050565b61022d8161021a565b811461023857600080fd5b50565b60008135905061024a81610224565b92915050565b600080fd5b600080fd5b600080fd5b60008083601f84011261027557610274610250565b5b8235905067ffffffffffffffff81111561029257610291610255565b5b6020830191508360018202830111156102ae576102ad61025a565b5b9250929050565b600080600080606085870312156102cf576102ce6101b2565b5b60006102dd87828801610205565b94505060206102ee8782880161023b565b935050604085013567ffffffffffffffff81111561030f5761030e6101b7565b5b61031b8782880161025f565b925092505092959194509250565b60008060008060808587031215610343576103426101b2565b5b60006103518782880161023b565b945050602061036287828801610205565b935050604061037387828801610205565b92505060606103848782880161023b565b91505092959194509250565b6000806000606084860312156103a9576103a86101b2565b5b60006103b78682870161023b565b93505060206103c886828701610205565b92505060406103d98682870161023b565b9150509250925092565b60008115159050919050565b6103f8816103e3565b82525050565b600060208201905061041360008301846103ef565b92915050565b600080600060408486031215610432576104316101b2565b5b60006104408682870161023b565b935050602084013567ffffffffffffffff811115610461576104606101b7565b5b61046d8682870161025f565b92509250509250925092565b600081519050919050565b600082825260208201905092915050565b60005b838110156104b3578082015181840152602081019050610498565b838111156104c2576000848401525b50505050565b6000601f19601f8301169050919050565b60006104e482610479565b6104ee8185610484565b93506104fe818560208601610495565b610507816104c8565b840191505092915050565b6000602082019050818103600083015261052c81846104d9565b905092915050565b60006020828403121561054a576105496101b2565b5b60006105588482850161023b565b91505092915050565b600082825260208201905092915050565b7f4d6f636b466f6c6c6f774d6f64756c653a20696e76616c696400000000000000600082015250565b60006105a8601983610561565b91506105b382610572565b602082019050919050565b600060208201905081810360008301526105d78161059b565b9050919050565b7f4e487b7100000000000000000000000000000000000000000000000000000000600052604160045260246000fdfea2646970667358221220548694c0212e637175703c7ec5fed36b4d275c087e5e2e2764aeab5eea47386e64736f6c634300080a0033",
  "immutableReferences": {},
  "source": "// SPDX-License-Identifier: AGPL-3.0-only\n\npragma solidity 0.8.10;\n\nimport {IFollowModule} from '../interfaces/IFollowModule.sol';\n\ncontract MockFollowModule is IFollowModule {\n    function initializeFollowModule(uint256 profileId, bytes calldata data)\n        external\n        pure\n        override\n        returns (bytes memory)\n    {\n        uint256 number = abi.decode(data, (uint256));\n        require(number == 1, 'MockFollowModule: invalid');\n        return new bytes(0);\n    }\n\n    function processFollow(\n        address follower,\n        uint256 profileId,\n        bytes calldata data\n    ) external override {}\n\n    function isFollowing(\n        uint256 profileId,\n        address follower,\n        uint256 followNFTTokenId\n    ) external view override returns (bool) {\n        return true;\n    }\n\n    function followModuleTransferHook(\n        uint256 profileId,\n        address from,\n        address to,\n        uint256 followNFTTokenId\n    ) external override {}\n}\n",
  "sourcePath": "/Users/korbinianabstreiter/crytoprojects/primetime/contracts/mocks/MockFollowModule.sol",
  "compiler": {
    "name": "solc",
    "version": "0.8.10+commit.fc410830.Emscripten.clang"
  },
  "schemaVersion": "3.4.5",
  "updatedAt": "2022-04-22T14:49:53.929Z",
  "devdoc": {
    "kind": "dev",
    "methods": {
      "followModuleTransferHook(uint256,address,address,uint256)": {
        "params": {
          "followNFTTokenId": "The token ID of the follow NFT being transferred.",
          "from": "The address sending the follow NFT.",
          "profileId": "The token ID of the profile associated with the follow NFT being transferred.",
          "to": "The address receiving the follow NFT."
        }
      },
      "initializeFollowModule(uint256,bytes)": {
        "params": {
          "data": "Arbitrary data passed by the profile creator.",
          "profileId": "The token ID of the profile to initialize this follow module for."
        },
        "returns": {
          "_0": "bytes The encoded data to emit in the hub."
        }
      },
      "isFollowing(uint256,address,uint256)": {
        "params": {
          "followNFTTokenId": "The followNFT token ID to validate the follow for.",
          "follower": "The follower address to validate the follow for.",
          "profileId": "The token ID of the profile to validate the follow for."
        },
        "returns": {
          "_0": "true if the given address is following the given profile ID, false otherwise."
        }
      },
      "processFollow(address,uint256,bytes)": {
        "params": {
          "data": "Arbitrary data passed by the follower.",
          "follower": "The follower address.",
          "profileId": "The token ID of the profile being followed."
        }
      }
    },
    "version": 1
  },
  "userdoc": {
    "kind": "user",
    "methods": {
      "followModuleTransferHook(uint256,address,address,uint256)": {
        "notice": "This is a transfer hook that is called upon follow NFT transfer in `beforeTokenTransfer. This can only be called from the LensHub contract. NOTE: Special care needs to be taken here: It is possible that follow NFTs were issued before this module was initialized if the profile's follow module was previously different. This transfer hook should take this into consideration, especially when the module holds state associated with individual follow NFTs."
      },
      "initializeFollowModule(uint256,bytes)": {
        "notice": "Initializes a follow module for a given Lens profile. This can only be called by the hub contract."
      },
      "isFollowing(uint256,address,uint256)": {
        "notice": "This is a helper function that could be used in conjunction with specific collect modules. NOTE: This function IS meant to replace a check on follower NFT ownership. NOTE: It is assumed that not all collect modules are aware of the token ID to pass. In these cases, this should receive a `followNFTTokenId` of 0, which is impossible regardless. One example of a use case for this would be a subscription-based following system:      1. The collect module:          - Decodes a follower NFT token ID from user-passed data.          - Fetches the follow module from the hub.          - Calls `isFollowing` passing the profile ID, follower & follower token ID and checks it returned true.      2. The follow module:          - Validates the subscription status for that given NFT, reverting on an invalid subscription."
      },
      "processFollow(address,uint256,bytes)": {
        "notice": "Processes a given follow, this can only be called from the LensHub contract."
      }
    },
    "version": 1
  }
}