{
  "contractName": "ModuleGlobals",
  "abi": [
    {
      "inputs": [
        {
          "internalType": "address",
          "name": "governance",
          "type": "address"
        },
        {
          "internalType": "address",
          "name": "treasury",
          "type": "address"
        },
        {
          "internalType": "uint16",
          "name": "treasuryFee",
          "type": "uint16"
        }
      ],
      "stateMutability": "nonpayable",
      "type": "constructor"
    },
    {
      "inputs": [],
      "name": "InitParamsInvalid",
      "type": "error"
    },
    {
      "inputs": [],
      "name": "NotGovernance",
      "type": "error"
    },
    {
      "inputs": [
        {
          "internalType": "address",
          "name": "newGovernance",
          "type": "address"
        }
      ],
      "name": "setGovernance",
      "outputs": [],
      "stateMutability": "nonpayable",
      "type": "function"
    },
    {
      "inputs": [
        {
          "internalType": "address",
          "name": "newTreasury",
          "type": "address"
        }
      ],
      "name": "setTreasury",
      "outputs": [],
      "stateMutability": "nonpayable",
      "type": "function"
    },
    {
      "inputs": [
        {
          "internalType": "uint16",
          "name": "newTreasuryFee",
          "type": "uint16"
        }
      ],
      "name": "setTreasuryFee",
      "outputs": [],
      "stateMutability": "nonpayable",
      "type": "function"
    },
    {
      "inputs": [
        {
          "internalType": "address",
          "name": "currency",
          "type": "address"
        },
        {
          "internalType": "bool",
          "name": "toWhitelist",
          "type": "bool"
        }
      ],
      "name": "whitelistCurrency",
      "outputs": [],
      "stateMutability": "nonpayable",
      "type": "function"
    },
    {
      "inputs": [
        {
          "internalType": "address",
          "name": "currency",
          "type": "address"
        }
      ],
      "name": "isCurrencyWhitelisted",
      "outputs": [
        {
          "internalType": "bool",
          "name": "",
          "type": "bool"
        }
      ],
      "stateMutability": "view",
      "type": "function"
    },
    {
      "inputs": [],
      "name": "getGovernance",
      "outputs": [
        {
          "internalType": "address",
          "name": "",
          "type": "address"
        }
      ],
      "stateMutability": "view",
      "type": "function"
    },
    {
      "inputs": [],
      "name": "getTreasury",
      "outputs": [
        {
          "internalType": "address",
          "name": "",
          "type": "address"
        }
      ],
      "stateMutability": "view",
      "type": "function"
    },
    {
      "inputs": [],
      "name": "getTreasuryFee",
      "outputs": [
        {
          "internalType": "uint16",
          "name": "",
          "type": "uint16"
        }
      ],
      "stateMutability": "view",
      "type": "function"
    },
    {
      "inputs": [],
      "name": "getTreasuryData",
      "outputs": [
        {
          "internalType": "address",
          "name": "",
          "type": "address"
        },
        {
          "internalType": "uint16",
          "name": "",
          "type": "uint16"
        }
      ],
      "stateMutability": "view",
      "type": "function"
    }
  ],
  "bytecode": "0x60806040523480156200001157600080fd5b50604051620011e3380380620011e383398181016040528101906200003791906200045d565b62000048836200007360201b60201c565b6200005982620001ae60201b60201c565b6200006a81620002e960201b60201c565b50505062000558565b600073ffffffffffffffffffffffffffffffffffffffff168173ffffffffffffffffffffffffffffffffffffffff161415620000db576040517f48be0eb300000000000000000000000000000000000000000000000000000000815260040160405180910390fd5b6000600160009054906101000a900473ffffffffffffffffffffffffffffffffffffffff16905081600160006101000a81548173ffffffffffffffffffffffffffffffffffffffff021916908373ffffffffffffffffffffffffffffffffffffffff1602179055508173ffffffffffffffffffffffffffffffffffffffff168173ffffffffffffffffffffffffffffffffffffffff167fbf538a2c0db3d440906b8179dd0394f68a65b0b1481da70ffee24e19dccee84c42604051620001a29190620004d4565b60405180910390a35050565b600073ffffffffffffffffffffffffffffffffffffffff168173ffffffffffffffffffffffffffffffffffffffff16141562000216576040517f48be0eb300000000000000000000000000000000000000000000000000000000815260040160405180910390fd5b6000600260009054906101000a900473ffffffffffffffffffffffffffffffffffffffff16905081600260006101000a81548173ffffffffffffffffffffffffffffffffffffffff021916908373ffffffffffffffffffffffffffffffffffffffff1602179055508173ffffffffffffffffffffffffffffffffffffffff168173ffffffffffffffffffffffffffffffffffffffff167f3dfc53d6b49bfbc932b215ba515f0d0ab0e17aac17726fba48075f0c16c7ffe342604051620002dd9190620004d4565b60405180910390a35050565b6002612710620002fa919062000520565b61ffff168161ffff16106200033b576040517f48be0eb300000000000000000000000000000000000000000000000000000000815260040160405180910390fd5b6000600260149054906101000a900461ffff16905081600260146101000a81548161ffff021916908361ffff1602179055508161ffff168161ffff167fec936862e6bb897cd711a5f31825057583128c2a482f0a4c9a4e6c3fd7c023f442604051620003a89190620004d4565b60405180910390a35050565b600080fd5b600073ffffffffffffffffffffffffffffffffffffffff82169050919050565b6000620003e682620003b9565b9050919050565b620003f881620003d9565b81146200040457600080fd5b50565b6000815190506200041881620003ed565b92915050565b600061ffff82169050919050565b62000437816200041e565b81146200044357600080fd5b50565b60008151905062000457816200042c565b92915050565b600080600060608486031215620004795762000478620003b4565b5b6000620004898682870162000407565b93505060206200049c8682870162000407565b9250506040620004af8682870162000446565b9150509250925092565b6000819050919050565b620004ce81620004b9565b82525050565b6000602082019050620004eb6000830184620004c3565b92915050565b7f4e487b7100000000000000000000000000000000000000000000000000000000600052601260045260246000fd5b60006200052d826200041e565b91506200053a836200041e565b9250826200054d576200054c620004f1565b5b828204905092915050565b610c7b80620005686000396000f3fe608060405234801561001057600080fd5b50600436106100935760003560e01c80638c3bfb1c116100665780638c3bfb1c1461012257806398f965d11461013e578063a652db491461015d578063ab033ea914610179578063f0f442601461019557610093565b8063289b3c0d1461009857806329070c6d146100b65780633b19e84a146100d457806343b938c5146100f2575b600080fd5b6100a06101b1565b6040516100ad91906109dc565b60405180910390f35b6100be6101db565b6040516100cb9190610a14565b60405180910390f35b6100dc6101f3565b6040516100e991906109dc565b60405180910390f35b61010c60048036038101906101079190610a60565b61021d565b6040516101199190610aa8565b60405180910390f35b61013c60048036038101906101379190610aef565b610272565b005b610146610307565b604051610154929190610b2f565b60405180910390f35b61017760048036038101906101729190610b84565b610346565b005b610193600480360381019061018e9190610a60565b6103d9565b005b6101af60048036038101906101aa9190610a60565b61046c565b005b6000600160009054906101000a900473ffffffffffffffffffffffffffffffffffffffff16905090565b6000600260149054906101000a900461ffff16905090565b6000600260009054906101000a900473ffffffffffffffffffffffffffffffffffffffff16905090565b60008060008373ffffffffffffffffffffffffffffffffffffffff1673ffffffffffffffffffffffffffffffffffffffff16815260200190815260200160002060009054906101000a900460ff169050919050565b600160009054906101000a900473ffffffffffffffffffffffffffffffffffffffff1673ffffffffffffffffffffffffffffffffffffffff163373ffffffffffffffffffffffffffffffffffffffff16146102f9576040517fb56f932c00000000000000000000000000000000000000000000000000000000815260040160405180910390fd5b61030382826104ff565b5050565b600080600260009054906101000a900473ffffffffffffffffffffffffffffffffffffffff16600260149054906101000a900461ffff16915091509091565b600160009054906101000a900473ffffffffffffffffffffffffffffffffffffffff1673ffffffffffffffffffffffffffffffffffffffff163373ffffffffffffffffffffffffffffffffffffffff16146103cd576040517fb56f932c00000000000000000000000000000000000000000000000000000000815260040160405180910390fd5b6103d681610665565b50565b600160009054906101000a900473ffffffffffffffffffffffffffffffffffffffff1673ffffffffffffffffffffffffffffffffffffffff163373ffffffffffffffffffffffffffffffffffffffff1614610460576040517fb56f932c00000000000000000000000000000000000000000000000000000000815260040160405180910390fd5b6104698161072b565b50565b600160009054906101000a900473ffffffffffffffffffffffffffffffffffffffff1673ffffffffffffffffffffffffffffffffffffffff163373ffffffffffffffffffffffffffffffffffffffff16146104f3576040517fb56f932c00000000000000000000000000000000000000000000000000000000815260040160405180910390fd5b6104fc81610863565b50565b600073ffffffffffffffffffffffffffffffffffffffff168273ffffffffffffffffffffffffffffffffffffffff161415610566576040517f48be0eb300000000000000000000000000000000000000000000000000000000815260040160405180910390fd5b60008060008473ffffffffffffffffffffffffffffffffffffffff1673ffffffffffffffffffffffffffffffffffffffff16815260200190815260200160002060009054906101000a900460ff169050816000808573ffffffffffffffffffffffffffffffffffffffff1673ffffffffffffffffffffffffffffffffffffffff16815260200190815260200160002060006101000a81548160ff0219169083151502179055508115158115158473ffffffffffffffffffffffffffffffffffffffff167f79c3cefc851fd6040f06af202c542818d9fb39bcddcb7a7e3f563b15300a2743426040516106589190610bca565b60405180910390a4505050565b60026127106106749190610c14565b61ffff168161ffff16106106b4576040517f48be0eb300000000000000000000000000000000000000000000000000000000815260040160405180910390fd5b6000600260149054906101000a900461ffff16905081600260146101000a81548161ffff021916908361ffff1602179055508161ffff168161ffff167fec936862e6bb897cd711a5f31825057583128c2a482f0a4c9a4e6c3fd7c023f44260405161071f9190610bca565b60405180910390a35050565b600073ffffffffffffffffffffffffffffffffffffffff168173ffffffffffffffffffffffffffffffffffffffff161415610792576040517f48be0eb300000000000000000000000000000000000000000000000000000000815260040160405180910390fd5b6000600160009054906101000a900473ffffffffffffffffffffffffffffffffffffffff16905081600160006101000a81548173ffffffffffffffffffffffffffffffffffffffff021916908373ffffffffffffffffffffffffffffffffffffffff1602179055508173ffffffffffffffffffffffffffffffffffffffff168173ffffffffffffffffffffffffffffffffffffffff167fbf538a2c0db3d440906b8179dd0394f68a65b0b1481da70ffee24e19dccee84c426040516108579190610bca565b60405180910390a35050565b600073ffffffffffffffffffffffffffffffffffffffff168173ffffffffffffffffffffffffffffffffffffffff1614156108ca576040517f48be0eb300000000000000000000000000000000000000000000000000000000815260040160405180910390fd5b6000600260009054906101000a900473ffffffffffffffffffffffffffffffffffffffff16905081600260006101000a81548173ffffffffffffffffffffffffffffffffffffffff021916908373ffffffffffffffffffffffffffffffffffffffff1602179055508173ffffffffffffffffffffffffffffffffffffffff168173ffffffffffffffffffffffffffffffffffffffff167f3dfc53d6b49bfbc932b215ba515f0d0ab0e17aac17726fba48075f0c16c7ffe34260405161098f9190610bca565b60405180910390a35050565b600073ffffffffffffffffffffffffffffffffffffffff82169050919050565b60006109c68261099b565b9050919050565b6109d6816109bb565b82525050565b60006020820190506109f160008301846109cd565b92915050565b600061ffff82169050919050565b610a0e816109f7565b82525050565b6000602082019050610a296000830184610a05565b92915050565b600080fd5b610a3d816109bb565b8114610a4857600080fd5b50565b600081359050610a5a81610a34565b92915050565b600060208284031215610a7657610a75610a2f565b5b6000610a8484828501610a4b565b91505092915050565b60008115159050919050565b610aa281610a8d565b82525050565b6000602082019050610abd6000830184610a99565b92915050565b610acc81610a8d565b8114610ad757600080fd5b50565b600081359050610ae981610ac3565b92915050565b60008060408385031215610b0657610b05610a2f565b5b6000610b1485828601610a4b565b9250506020610b2585828601610ada565b9150509250929050565b6000604082019050610b4460008301856109cd565b610b516020830184610a05565b9392505050565b610b61816109f7565b8114610b6c57600080fd5b50565b600081359050610b7e81610b58565b92915050565b600060208284031215610b9a57610b99610a2f565b5b6000610ba884828501610b6f565b91505092915050565b6000819050919050565b610bc481610bb1565b82525050565b6000602082019050610bdf6000830184610bbb565b92915050565b7f4e487b7100000000000000000000000000000000000000000000000000000000600052601260045260246000fd5b6000610c1f826109f7565b9150610c2a836109f7565b925082610c3a57610c39610be5565b5b82820490509291505056fea2646970667358221220dcd43e988a98d2eb3334b31007b625ac21a356048e68094a8bf921a1a72760b864736f6c634300080a0033",
  "immutableReferences": {},
  "source": "// SPDX-License-Identifier: AGPL-3.0-only\n\npragma solidity 0.8.10;\n\nimport {Errors} from '../../libraries/Errors.sol';\nimport {Events} from '../../libraries/Events.sol';\nimport {IModuleGlobals} from '../../interfaces/IModuleGlobals.sol';\n\n/**\n * @title ModuleGlobals\n * @author Lens Protocol\n *\n * @notice This contract contains data relevant to Lens modules, such as the module governance address, treasury\n * address and treasury fee BPS.\n *\n * NOTE: The reason we have an additional governance address instead of just fetching it from the hub is to\n * allow the flexibility of using different governance executors.\n */\ncontract ModuleGlobals is IModuleGlobals {\n    uint16 internal constant BPS_MAX = 10000;\n\n    mapping(address => bool) internal _currencyWhitelisted;\n    address internal _governance;\n    address internal _treasury;\n    uint16 internal _treasuryFee;\n\n    modifier onlyGov() {\n        if (msg.sender != _governance) revert Errors.NotGovernance();\n        _;\n    }\n\n    /**\n     * @notice Initializes the governance, treasury and treasury fee amounts.\n     *\n     * @param governance The governance address which has additional control over setting certain parameters.\n     * @param treasury The treasury address to direct fees to.\n     * @param treasuryFee The treasury fee in BPS to levy on collects.\n     */\n    constructor(\n        address governance,\n        address treasury,\n        uint16 treasuryFee\n    ) {\n        _setGovernance(governance);\n        _setTreasury(treasury);\n        _setTreasuryFee(treasuryFee);\n    }\n\n    /// @inheritdoc IModuleGlobals\n    function setGovernance(address newGovernance) external override onlyGov {\n        _setGovernance(newGovernance);\n    }\n\n    /// @inheritdoc IModuleGlobals\n    function setTreasury(address newTreasury) external override onlyGov {\n        _setTreasury(newTreasury);\n    }\n\n    /// @inheritdoc IModuleGlobals\n    function setTreasuryFee(uint16 newTreasuryFee) external override onlyGov {\n        _setTreasuryFee(newTreasuryFee);\n    }\n\n    /// @inheritdoc IModuleGlobals\n    function whitelistCurrency(address currency, bool toWhitelist) external override onlyGov {\n        _whitelistCurrency(currency, toWhitelist);\n    }\n\n    /// @inheritdoc IModuleGlobals\n    function isCurrencyWhitelisted(address currency) external view override returns (bool) {\n        return _currencyWhitelisted[currency];\n    }\n\n    /// @inheritdoc IModuleGlobals\n    function getGovernance() external view override returns (address) {\n        return _governance;\n    }\n\n    /// @inheritdoc IModuleGlobals\n    function getTreasury() external view override returns (address) {\n        return _treasury;\n    }\n\n    /// @inheritdoc IModuleGlobals\n    function getTreasuryFee() external view override returns (uint16) {\n        return _treasuryFee;\n    }\n\n    //@inheritdoc IModuleGlobals\n    function getTreasuryData() external view override returns (address, uint16) {\n        return (_treasury, _treasuryFee);\n    }\n\n    function _setGovernance(address newGovernance) internal {\n        if (newGovernance == address(0)) revert Errors.InitParamsInvalid();\n        address prevGovernance = _governance;\n        _governance = newGovernance;\n        emit Events.ModuleGlobalsGovernanceSet(prevGovernance, newGovernance, block.timestamp);\n    }\n\n    function _setTreasury(address newTreasury) internal {\n        if (newTreasury == address(0)) revert Errors.InitParamsInvalid();\n        address prevTreasury = _treasury;\n        _treasury = newTreasury;\n        emit Events.ModuleGlobalsTreasurySet(prevTreasury, newTreasury, block.timestamp);\n    }\n\n    function _setTreasuryFee(uint16 newTreasuryFee) internal {\n        if (newTreasuryFee >= BPS_MAX / 2) revert Errors.InitParamsInvalid();\n        uint16 prevTreasuryFee = _treasuryFee;\n        _treasuryFee = newTreasuryFee;\n        emit Events.ModuleGlobalsTreasuryFeeSet(prevTreasuryFee, newTreasuryFee, block.timestamp);\n    }\n\n    function _whitelistCurrency(address currency, bool toWhitelist) internal {\n        if (currency == address(0)) revert Errors.InitParamsInvalid();\n        bool prevWhitelisted = _currencyWhitelisted[currency];\n        _currencyWhitelisted[currency] = toWhitelist;\n        emit Events.ModuleGlobalsCurrencyWhitelisted(\n            currency,\n            prevWhitelisted,\n            toWhitelist,\n            block.timestamp\n        );\n    }\n}\n",
  "sourcePath": "/Users/korbinianabstreiter/crytoprojects/primetime/contracts/core/modules/ModuleGlobals.sol",
  "compiler": {
    "name": "solc",
    "version": "0.8.10+commit.fc410830.Emscripten.clang"
  },
  "schemaVersion": "3.4.5",
  "updatedAt": "2022-04-22T14:49:53.824Z",
  "devdoc": {
    "author": "Lens Protocol",
    "kind": "dev",
    "methods": {
      "constructor": {
        "params": {
          "governance": "The governance address which has additional control over setting certain parameters.",
          "treasury": "The treasury address to direct fees to.",
          "treasuryFee": "The treasury fee in BPS to levy on collects."
        }
      },
      "getGovernance()": {
        "returns": {
          "_0": "address The governance address."
        }
      },
      "getTreasury()": {
        "returns": {
          "_0": "address The treasury address."
        }
      },
      "getTreasuryData()": {
        "returns": {
          "_0": "tuplee First, the treasury address, second, the treasury fee."
        }
      },
      "getTreasuryFee()": {
        "returns": {
          "_0": "uint16 The treasury fee."
        }
      },
      "isCurrencyWhitelisted(address)": {
        "params": {
          "currency": "The currency to query the whitelist for."
        },
        "returns": {
          "_0": "bool True if the queried currency is whitelisted, false otherwise."
        }
      },
      "setGovernance(address)": {
        "params": {
          "newGovernance": "The new governance address to set."
        }
      },
      "setTreasury(address)": {
        "params": {
          "newTreasury": "The new treasury address to set."
        }
      },
      "setTreasuryFee(uint16)": {
        "params": {
          "newTreasuryFee": "The new treasury fee to set."
        }
      },
      "whitelistCurrency(address,bool)": {
        "params": {
          "currency": "The currency to add or remove from the whitelist.",
          "toWhitelist": "Whether to add or remove the currency from the whitelist."
        }
      }
    },
    "title": "ModuleGlobals",
    "version": 1
  },
  "userdoc": {
    "kind": "user",
    "methods": {
      "constructor": {
        "notice": "Initializes the governance, treasury and treasury fee amounts."
      },
      "getGovernance()": {
        "notice": "Returns the governance address."
      },
      "getTreasury()": {
        "notice": "Returns the treasury address."
      },
      "getTreasuryData()": {
        "notice": "Returns the treasury address and treasury fee in a single call."
      },
      "getTreasuryFee()": {
        "notice": "Returns the treasury fee."
      },
      "isCurrencyWhitelisted(address)": {
        "notice": "Returns whether a currency is whitelisted."
      },
      "setGovernance(address)": {
        "notice": "Sets the governance address. This function can only be called by governance."
      },
      "setTreasury(address)": {
        "notice": "Sets the treasury address. This function can only be called by governance."
      },
      "setTreasuryFee(uint16)": {
        "notice": "Sets the treasury fee. This function can only be called by governance."
      },
      "whitelistCurrency(address,bool)": {
        "notice": "Adds or removes a currency from the whitelist. This function can only be called by governance."
      }
    },
    "notice": "This contract contains data relevant to Lens modules, such as the module governance address, treasury address and treasury fee BPS. NOTE: The reason we have an additional governance address instead of just fetching it from the hub is to allow the flexibility of using different governance executors.",
    "version": 1
  }
}