{
  "contractName": "PrimetimeCollectModule",
  "abi": [
    {
      "inputs": [
        {
          "internalType": "address",
          "name": "hub",
          "type": "address"
        },
        {
          "internalType": "address",
          "name": "moduleGlobals",
          "type": "address"
        }
      ],
      "stateMutability": "nonpayable",
      "type": "constructor"
    },
    {
      "inputs": [],
      "name": "InitParamsInvalid",
      "type": "error"
    },
    {
      "inputs": [],
      "name": "NotHub",
      "type": "error"
    },
    {
      "inputs": [],
      "name": "HUB",
      "outputs": [
        {
          "internalType": "address",
          "name": "",
          "type": "address"
        }
      ],
      "stateMutability": "view",
      "type": "function"
    },
    {
      "inputs": [],
      "name": "MODULE_GLOBALS",
      "outputs": [
        {
          "internalType": "address",
          "name": "",
          "type": "address"
        }
      ],
      "stateMutability": "view",
      "type": "function"
    },
    {
      "inputs": [
        {
          "internalType": "uint256",
          "name": "profileId",
          "type": "uint256"
        },
        {
          "internalType": "uint256",
          "name": "pubId",
          "type": "uint256"
        },
        {
          "internalType": "bytes",
          "name": "data",
          "type": "bytes"
        }
      ],
      "name": "initializePublicationCollectModule",
      "outputs": [
        {
          "internalType": "bytes",
          "name": "",
          "type": "bytes"
        }
      ],
      "stateMutability": "nonpayable",
      "type": "function"
    },
    {
      "inputs": [
        {
          "internalType": "uint256",
          "name": "referrerProfileId",
          "type": "uint256"
        },
        {
          "internalType": "address",
          "name": "collector",
          "type": "address"
        },
        {
          "internalType": "uint256",
          "name": "profileId",
          "type": "uint256"
        },
        {
          "internalType": "uint256",
          "name": "pubId",
          "type": "uint256"
        },
        {
          "internalType": "bytes",
          "name": "data",
          "type": "bytes"
        }
      ],
      "name": "processCollect",
      "outputs": [],
      "stateMutability": "nonpayable",
      "type": "function"
    },
    {
      "inputs": [
        {
          "internalType": "uint256",
          "name": "profileId",
          "type": "uint256"
        },
        {
          "internalType": "uint256",
          "name": "pubId",
          "type": "uint256"
        }
      ],
      "name": "getPublicationData",
      "outputs": [
        {
          "components": [
            {
              "internalType": "uint256",
              "name": "stakingAmount",
              "type": "uint256"
            },
            {
              "internalType": "uint256",
              "name": "meetingTime",
              "type": "uint256"
            },
            {
              "internalType": "uint256",
              "name": "maxLateTime",
              "type": "uint256"
            },
            {
              "internalType": "address",
              "name": "currency",
              "type": "address"
            },
            {
              "internalType": "address[]",
              "name": "participants",
              "type": "address[]"
            },
            {
              "internalType": "bool",
              "name": "hasBeenDistributed",
              "type": "bool"
            }
          ],
          "internalType": "struct CustomProfilePublicationData",
          "name": "",
          "type": "tuple"
        }
      ],
      "stateMutability": "view",
      "type": "function"
    },
    {
      "inputs": [
        {
          "internalType": "uint256",
          "name": "profileId",
          "type": "uint256"
        },
        {
          "internalType": "uint256",
          "name": "pubId",
          "type": "uint256"
        }
      ],
      "name": "checkin",
      "outputs": [],
      "stateMutability": "nonpayable",
      "type": "function"
    }
  ],
  "bytecode": "0x60c06040523480156200001157600080fd5b5060405162001a5438038062001a54833981810160405281019062000037919062000285565b8181600073ffffffffffffffffffffffffffffffffffffffff168173ffffffffffffffffffffffffffffffffffffffff161415620000a1576040517f48be0eb300000000000000000000000000000000000000000000000000000000815260040160405180910390fd5b8073ffffffffffffffffffffffffffffffffffffffff1660808173ffffffffffffffffffffffffffffffffffffffff16815250508073ffffffffffffffffffffffffffffffffffffffff167f4e84a529f4c627b5e787037d117873af1018768804cca3c7f0d47041fe2c89ed426040516200011d9190620002e7565b60405180910390a250600073ffffffffffffffffffffffffffffffffffffffff168173ffffffffffffffffffffffffffffffffffffffff1614156200018e576040517f48be0eb300000000000000000000000000000000000000000000000000000000815260040160405180910390fd5b8073ffffffffffffffffffffffffffffffffffffffff1660a08173ffffffffffffffffffffffffffffffffffffffff16815250508073ffffffffffffffffffffffffffffffffffffffff167ff1a1fa6b64aa95186f5a1285e76198d0da80d9c5a88062641d447f1d7c54e56c426040516200020a9190620002e7565b60405180910390a250505062000304565b600080fd5b600073ffffffffffffffffffffffffffffffffffffffff82169050919050565b60006200024d8262000220565b9050919050565b6200025f8162000240565b81146200026b57600080fd5b50565b6000815190506200027f8162000254565b92915050565b600080604083850312156200029f576200029e6200021b565b5b6000620002af858286016200026e565b9250506020620002c2858286016200026e565b9150509250929050565b6000819050919050565b620002e181620002cc565b82525050565b6000602082019050620002fe6000830184620002d6565b92915050565b60805160a05161170e6200034660003960008181610385015281816103ab0152610695015260008181610361015281816107310152610919015261170e6000f3fe608060405234801561001057600080fd5b50600436106100625760003560e01c80633f503892146100675780637c21bd5a1461009757806388ffe851146100b3578063a4c52b86146100d1578063c233f951146100ef578063e49c3dda1461011f575b600080fd5b610081600480360381019061007c9190610d41565b61013b565b60405161008e9190610f24565b60405180910390f35b6100b160048036038101906100ac9190610d41565b610296565b005b6100bb61035f565b6040516100c89190610f55565b60405180910390f35b6100d9610383565b6040516100e69190610f55565b60405180910390f35b61010960048036038101906101049190610fd5565b6103a7565b60405161011691906110e2565b60405180910390f35b61013960048036038101906101349190611130565b610693565b005b610143610cb3565b60008084815260200190815260200160002060008381526020019081526020016000206040518060c00160405290816000820154815260200160018201548152602001600282015481526020016003820160009054906101000a900473ffffffffffffffffffffffffffffffffffffffff1673ffffffffffffffffffffffffffffffffffffffff1673ffffffffffffffffffffffffffffffffffffffff1681526020016004820180548060200260200160405190810160405280929190818152602001828054801561026a57602002820191906000526020600020905b8160009054906101000a900473ffffffffffffffffffffffffffffffffffffffff1673ffffffffffffffffffffffffffffffffffffffff1681526020019060010190808311610220575b505050505081526020016005820160009054906101000a900460ff161515151581525050905092915050565b6000806000848152602001908152602001600020600083815260200190815260200160002060010154426102ca9190611203565b90507ffffffffffffffffffffffffffffffffffffffffffffffffffffffffffffffed4811261035a574260016000858152602001908152602001600020600084815260200190815260200160002060003373ffffffffffffffffffffffffffffffffffffffff1673ffffffffffffffffffffffffffffffffffffffff168152602001908152602001600020819055505b505050565b7f000000000000000000000000000000000000000000000000000000000000000081565b7f000000000000000000000000000000000000000000000000000000000000000081565b60607f000000000000000000000000000000000000000000000000000000000000000073ffffffffffffffffffffffffffffffffffffffff163373ffffffffffffffffffffffffffffffffffffffff161461042e576040517f9de9741800000000000000000000000000000000000000000000000000000000815260040160405180910390fd5b6000806000806000878781019061044591906112d5565b945094509450945094506104588461072d565b15806104905750600073ffffffffffffffffffffffffffffffffffffffff168173ffffffffffffffffffffffffffffffffffffffff16145b8061049b5750600085145b156104d2576040517f48be0eb300000000000000000000000000000000000000000000000000000000815260040160405180910390fd5b846000808c815260200190815260200160002060008b815260200190815260200160002060000181905550836000808c815260200190815260200160002060008b815260200190815260200160002060030160006101000a81548173ffffffffffffffffffffffffffffffffffffffff021916908373ffffffffffffffffffffffffffffffffffffffff160217905550826000808c815260200190815260200160002060008b815260200190815260200160002060010181905550816000808c815260200190815260200160002060008b8152602001908152602001600020600201819055506000808b815260200190815260200160002060008a8152602001908152602001600020600401819080600181540180825580915050600190039060005260206000200160009091909190916101000a81548173ffffffffffffffffffffffffffffffffffffffff021916908373ffffffffffffffffffffffffffffffffffffffff16021790555087878080601f016020809104026020016040519081016040528093929190818152602001838380828437600081840152601f19601f8201169050808301925050505050505095505050505050949350505050565b7f000000000000000000000000000000000000000000000000000000000000000073ffffffffffffffffffffffffffffffffffffffff163373ffffffffffffffffffffffffffffffffffffffff1614610718576040517f9de9741800000000000000000000000000000000000000000000000000000000815260040160405180910390fd5b61072585858585856107d0565b505050505050565b60007f000000000000000000000000000000000000000000000000000000000000000073ffffffffffffffffffffffffffffffffffffffff166343b938c5836040518263ffffffff1660e01b81526004016107889190610f55565b602060405180830381865afa1580156107a5573d6000803e3d6000fd5b505050506040513d601f19601f820116820180604052508101906107c9919061137c565b9050919050565b600080600086815260200190815260200160002060008581526020019081526020016000206000015490506000806000878152602001908152602001600020600086815260200190815260200160002060030160009054906101000a900473ffffffffffffffffffffffffffffffffffffffff169050600080610851610914565b915091506108828983868673ffffffffffffffffffffffffffffffffffffffff166109ad909392919063ffffffff16565b6000808981526020019081526020016000206000888152602001908152602001600020600401899080600181540180825580915050600190039060005260206000200160009091909190916101000a81548173ffffffffffffffffffffffffffffffffffffffff021916908373ffffffffffffffffffffffffffffffffffffffff160217905550505050505050505050565b6000807f000000000000000000000000000000000000000000000000000000000000000073ffffffffffffffffffffffffffffffffffffffff166398f965d16040518163ffffffff1660e01b81526004016040805180830381865afa158015610981573d6000803e3d6000fd5b505050506040513d601f19601f820116820180604052508101906109a591906113f8565b915091509091565b610a30846323b872dd60e01b8585856040516024016109ce93929190611447565b604051602081830303815290604052907bffffffffffffffffffffffffffffffffffffffffffffffffffffffff19166020820180517bffffffffffffffffffffffffffffffffffffffffffffffffffffffff8381831617835250505050610a36565b50505050565b6000610a98826040518060400160405280602081526020017f5361666545524332303a206c6f772d6c6576656c2063616c6c206661696c65648152508573ffffffffffffffffffffffffffffffffffffffff16610afd9092919063ffffffff16565b9050600081511115610af85780806020019051810190610ab8919061137c565b610af7576040517f08c379a0000000000000000000000000000000000000000000000000000000008152600401610aee90611501565b60405180910390fd5b5b505050565b6060610b0c8484600085610b15565b90509392505050565b606082471015610b5a576040517f08c379a0000000000000000000000000000000000000000000000000000000008152600401610b5190611593565b60405180910390fd5b610b6385610c29565b610ba2576040517f08c379a0000000000000000000000000000000000000000000000000000000008152600401610b99906115ff565b60405180910390fd5b6000808673ffffffffffffffffffffffffffffffffffffffff168587604051610bcb919061165b565b60006040518083038185875af1925050503d8060008114610c08576040519150601f19603f3d011682016040523d82523d6000602084013e610c0d565b606091505b5091509150610c1d828286610c4c565b92505050949350505050565b6000808273ffffffffffffffffffffffffffffffffffffffff163b119050919050565b60608315610c5c57829050610cac565b600083511115610c6f5782518084602001fd5b816040517f08c379a0000000000000000000000000000000000000000000000000000000008152600401610ca391906116b6565b60405180910390fd5b9392505050565b6040518060c00160405280600081526020016000815260200160008152602001600073ffffffffffffffffffffffffffffffffffffffff168152602001606081526020016000151581525090565b600080fd5b600080fd5b6000819050919050565b610d1e81610d0b565b8114610d2957600080fd5b50565b600081359050610d3b81610d15565b92915050565b60008060408385031215610d5857610d57610d01565b5b6000610d6685828601610d2c565b9250506020610d7785828601610d2c565b9150509250929050565b610d8a81610d0b565b82525050565b600073ffffffffffffffffffffffffffffffffffffffff82169050919050565b6000610dbb82610d90565b9050919050565b610dcb81610db0565b82525050565b600081519050919050565b600082825260208201905092915050565b6000819050602082019050919050565b6000610e098383610dc2565b60208301905092915050565b6000602082019050919050565b6000610e2d82610dd1565b610e378185610ddc565b9350610e4283610ded565b8060005b83811015610e73578151610e5a8882610dfd565b9750610e6583610e15565b925050600181019050610e46565b5085935050505092915050565b60008115159050919050565b610e9581610e80565b82525050565b600060c083016000830151610eb36000860182610d81565b506020830151610ec66020860182610d81565b506040830151610ed96040860182610d81565b506060830151610eec6060860182610dc2565b5060808301518482036080860152610f048282610e22565b91505060a0830151610f1960a0860182610e8c565b508091505092915050565b60006020820190508181036000830152610f3e8184610e9b565b905092915050565b610f4f81610db0565b82525050565b6000602082019050610f6a6000830184610f46565b92915050565b600080fd5b600080fd5b600080fd5b60008083601f840112610f9557610f94610f70565b5b8235905067ffffffffffffffff811115610fb257610fb1610f75565b5b602083019150836001820283011115610fce57610fcd610f7a565b5b9250929050565b60008060008060608587031215610fef57610fee610d01565b5b6000610ffd87828801610d2c565b945050602061100e87828801610d2c565b935050604085013567ffffffffffffffff81111561102f5761102e610d06565b5b61103b87828801610f7f565b925092505092959194509250565b600081519050919050565b600082825260208201905092915050565b60005b83811015611083578082015181840152602081019050611068565b83811115611092576000848401525b50505050565b6000601f19601f8301169050919050565b60006110b482611049565b6110be8185611054565b93506110ce818560208601611065565b6110d781611098565b840191505092915050565b600060208201905081810360008301526110fc81846110a9565b905092915050565b61110d81610db0565b811461111857600080fd5b50565b60008135905061112a81611104565b92915050565b60008060008060008060a0878903121561114d5761114c610d01565b5b600061115b89828a01610d2c565b965050602061116c89828a0161111b565b955050604061117d89828a01610d2c565b945050606061118e89828a01610d2c565b935050608087013567ffffffffffffffff8111156111af576111ae610d06565b5b6111bb89828a01610f7f565b92509250509295509295509295565b6000819050919050565b7f4e487b7100000000000000000000000000000000000000000000000000000000600052601160045260246000fd5b600061120e826111ca565b9150611219836111ca565b9250827f800000000000000000000000000000000000000000000000000000000000000001821260008412151615611254576112536111d4565b5b827f7fffffffffffffffffffffffffffffffffffffffffffffffffffffffffffffff01821360008412161561128c5761128b6111d4565b5b828203905092915050565b60006112a282610d90565b9050919050565b6112b281611297565b81146112bd57600080fd5b50565b6000813590506112cf816112a9565b92915050565b600080600080600060a086880312156112f1576112f0610d01565b5b60006112ff88828901610d2c565b9550506020611310888289016112c0565b945050604061132188828901610d2c565b935050606061133288828901610d2c565b9250506080611343888289016112c0565b9150509295509295909350565b61135981610e80565b811461136457600080fd5b50565b60008151905061137681611350565b92915050565b60006020828403121561139257611391610d01565b5b60006113a084828501611367565b91505092915050565b6000815190506113b881611104565b92915050565b600061ffff82169050919050565b6113d5816113be565b81146113e057600080fd5b50565b6000815190506113f2816113cc565b92915050565b6000806040838503121561140f5761140e610d01565b5b600061141d858286016113a9565b925050602061142e858286016113e3565b9150509250929050565b61144181610d0b565b82525050565b600060608201905061145c6000830186610f46565b6114696020830185610f46565b6114766040830184611438565b949350505050565b600082825260208201905092915050565b7f5361666545524332303a204552433230206f7065726174696f6e20646964206e60008201527f6f74207375636365656400000000000000000000000000000000000000000000602082015250565b60006114eb602a8361147e565b91506114f68261148f565b604082019050919050565b6000602082019050818103600083015261151a816114de565b9050919050565b7f416464726573733a20696e73756666696369656e742062616c616e636520666f60008201527f722063616c6c0000000000000000000000000000000000000000000000000000602082015250565b600061157d60268361147e565b915061158882611521565b604082019050919050565b600060208201905081810360008301526115ac81611570565b9050919050565b7f416464726573733a2063616c6c20746f206e6f6e2d636f6e7472616374000000600082015250565b60006115e9601d8361147e565b91506115f4826115b3565b602082019050919050565b60006020820190508181036000830152611618816115dc565b9050919050565b600081905092915050565b600061163582611049565b61163f818561161f565b935061164f818560208601611065565b80840191505092915050565b6000611667828461162a565b915081905092915050565b600081519050919050565b600061168882611672565b611692818561147e565b93506116a2818560208601611065565b6116ab81611098565b840191505092915050565b600060208201905081810360008301526116d0818461167d565b90509291505056fea2646970667358221220011fadf909e603d3a43c68615ad5a04ecc96246480d5ec741dadf6e69639fc7c64736f6c634300080a0033",
  "immutableReferences": {
    "738": [
      {
        "length": 32,
        "start": 865
      },
      {
        "length": 32,
        "start": 1841
      },
      {
        "length": 32,
        "start": 2329
      }
    ],
    "948": [
      {
        "length": 32,
        "start": 901
      },
      {
        "length": 32,
        "start": 939
      },
      {
        "length": 32,
        "start": 1685
      }
    ]
  },
  "source": "// SPDX-License-Identifier: AGPL-3.0-only\n\npragma solidity 0.8.10;\n\nimport {ICollectModule} from '../../../interfaces/ICollectModule.sol';\nimport {Errors} from '../../../libraries/Errors.sol';\nimport {FeeModuleBase} from '../FeeModuleBase.sol';\nimport {ModuleBase} from '../ModuleBase.sol';\nimport {FollowValidationModuleBase} from '../FollowValidationModuleBase.sol';\nimport {IERC20} from '@openzeppelin/contracts/token/ERC20/IERC20.sol';\nimport {SafeERC20} from '@openzeppelin/contracts/token/ERC20/utils/SafeERC20.sol';\nimport {IERC721} from '@openzeppelin/contracts/token/ERC721/IERC721.sol';\n\n/**\n * @notice A struct containing the necessary data to execute collect actions on a publication.\n *\n * @param amount The collecting cost associated with this publication.\n * @param currency The currency associated with this publication.\n * @param recipient The recipient address associated with this publication.\n * @param referralFee The referral fee associated with this publication.\n * @param followerOnly Whether only followers should be able to collect.\n */\n    struct CustomProfilePublicationData {\n        uint256 stakingAmount;\n        uint256 meetingTime;\n        uint256 maxLateTime;\n        address currency;\n        address[] participants;\n        //mapping(address => uint256) checkinTime;\n        bool hasBeenDistributed;\n    }\n\n/**\n * @title FeeCollectModule\n * @author Lens Protocol\n *\n * @notice This is a simple Lens CollectModule implementation, inheriting from the ICollectModule interface and\n * the FeeCollectModuleBase abstract contract.\n *\n * This module works by allowing unlimited collects for a publication at a given price.\n */\ncontract PrimetimeCollectModule is FeeModuleBase, FollowValidationModuleBase, ICollectModule {\n    using SafeERC20 for IERC20;\n\n    mapping(uint256 => mapping(uint256 => CustomProfilePublicationData)) internal _dataByPublicationByProfile;\n    mapping(uint256 => mapping(uint256 => mapping(address => uint256))) internal _checkinTime;\n\n    constructor(address hub, address moduleGlobals) FeeModuleBase(moduleGlobals) ModuleBase(hub) {}\n\n    /**\n     * @notice This collect module levies a fee on collects and supports referrals. Thus, we need to decode data.\n     *\n     * @param profileId The token ID of the profile of the publisher, passed by the hub.\n     * @param pubId The publication ID of the newly created publication, passed by the hub.\n     * @param data The arbitrary data parameter, decoded into:\n     *      uint256 amount: The currency total amount to levy.\n     *      address currency: The currency address, must be internally whitelisted.\n     *      address recipient: The custom recipient address to direct earnings to.\n     *      uint16 referralFee: The referral fee to set.\n     *      bool followerOnly: Whether only followers should be able to collect.\n     *\n     * @return bytes An abi encoded bytes parameter, which is the same as the passed data parameter.\n     */\n    function initializePublicationCollectModule(\n        uint256 profileId,\n        uint256 pubId,\n        bytes calldata data\n    ) external override onlyHub returns (bytes memory) {\n        (\n        uint256 stakingAmount,\n        address currency,\n        uint256 meetingTime,\n        uint256 maxLateTime,\n        address recipient\n        ) = abi.decode(data, (uint256, address, uint256, uint256, address));\n        if (\n            !_currencyWhitelisted(currency) ||\n        recipient == address(0) ||\n        stakingAmount == 0\n        ) revert Errors.InitParamsInvalid();\n\n        _dataByPublicationByProfile[profileId][pubId].stakingAmount = stakingAmount;\n        _dataByPublicationByProfile[profileId][pubId].currency = currency;\n        _dataByPublicationByProfile[profileId][pubId].meetingTime = meetingTime;\n        _dataByPublicationByProfile[profileId][pubId].maxLateTime = maxLateTime;\n        _dataByPublicationByProfile[profileId][pubId].participants.push(recipient);\n\n        return data;\n    }\n\n    /**\n     * @dev Processes a collect by:\n     *  1. Ensuring the collector is a follower\n     *  2. Charging a fee\n     */\n    function processCollect(\n        uint256 referrerProfileId,\n        address collector,\n        uint256 profileId,\n        uint256 pubId,\n        bytes calldata data\n    ) external virtual override onlyHub {\n        _processCollect(collector, profileId, pubId, data);\n    }\n\n    /**\n     * @notice Returns the publication data for a given publication, or an empty struct if that publication was not\n     * initialized with this module.\n     *\n     * @param profileId The token ID of the profile mapped to the publication to query.\n     * @param pubId The publication ID of the publication to query.\n     *\n     * @return CustomProfilePublicationData The CustomProfilePublicationData struct mapped to that publication.\n     */\n    function getPublicationData(uint256 profileId, uint256 pubId)\n    external\n    view\n    returns (CustomProfilePublicationData memory)\n    {\n        return _dataByPublicationByProfile[profileId][pubId];\n    }\n\n    function _processCollect(\n        address collector,\n        uint256 profileId,\n        uint256 pubId,\n        bytes calldata data\n    ) internal {\n        // staking happens here\n        // transfer stakingAmount to treasury\n        uint256 stakingAmount = _dataByPublicationByProfile[profileId][pubId].stakingAmount;\n        address currency = _dataByPublicationByProfile[profileId][pubId].currency;\n        //_validateDataIsExpected(data, currency, amount);\n\n        (address treasury, uint16 treasuryFee) = _treasuryData();\n        //address recipient = _dataByPublicationByProfile[profileId][pubId].recipient;\n        //uint256 treasuryAmount = (amount * treasuryFee) / BPS_MAX;\n        //uint256 adjustedAmount = amount - treasuryAmount;\n\n        //IERC20(currency).safeTransferFrom(collector, recipient, adjustedAmount);\n        //if (treasuryAmount > 0)\n        IERC20(currency).safeTransferFrom(collector, treasury, stakingAmount);\n        _dataByPublicationByProfile[profileId][pubId].participants.push(collector);\n    }\n\n    function checkin(\n        uint256 profileId,\n        uint256 pubId\n    ) external {\n        int256 timeSinceMeetingStart = int256(block.timestamp) - int256(_dataByPublicationByProfile[profileId][pubId].meetingTime);\n        if (timeSinceMeetingStart >= - 5 minutes) {\n            _checkinTime[profileId][pubId][msg.sender] = block.timestamp;\n        }\n    }\n\n    function distributeStake(\n        uint256 profileId,\n        uint256 pubId\n    ) internal {\n        CustomProfilePublicationData memory meeting = _dataByPublicationByProfile[profileId][pubId];\n        if (block.timestamp >= meeting.meetingTime + meeting.maxLateTime && !meeting.hasBeenDistributed) {\n            uint256 stakedAmount = meeting.participants.length * meeting.stakingAmount;\n            uint256 treasuryAmount = stakedAmount / 100;\n            int256 adjustedAmount = int256(stakedAmount - treasuryAmount);\n\n            int256 totalLateTime = 0;\n            for (uint256 i = 0; i < meeting.participants.length; i++) {\n                int256 lateTime = int256(_checkinTime[profileId][pubId][meeting.participants[i]]) - int256(meeting.meetingTime);\n                if (_checkinTime[profileId][pubId][meeting.participants[i]] == 0) {\n                    lateTime = int256(meeting.maxLateTime);\n                }\n                if (lateTime < 0) {\n                    lateTime = 0;\n                }\n                totalLateTime += lateTime;\n            }\n\n            for (uint256 i = 0; i < meeting.participants.length; i++) {\n                int256 lateTime = int256(_checkinTime[profileId][pubId][meeting.participants[i]]) - int256(meeting.meetingTime);\n                if (_checkinTime[profileId][pubId][meeting.participants[i]] == 0) {\n                    lateTime = int256(meeting.maxLateTime);\n                }\n                if (lateTime < 0) {\n                    lateTime = 0;\n                }\n\n                int256 reward = adjustedAmount - adjustedAmount * lateTime / int256(meeting.maxLateTime) * int256(meeting.participants.length) / int256(meeting.participants.length - 1);\n                reward += adjustedAmount * totalLateTime / int256(meeting.maxLateTime) / int256(meeting.participants.length - 1);\n                if (reward > 0) {\n                    //IERC20(meeting.currency).safeTransferFrom(collector, treasury, stakingAmount);\n                    (bool sent, bytes memory data) = payable(meeting.participants[i]).call{value : uint256(reward)}(\"\");\n                }\n            }\n\n            meeting.hasBeenDistributed = true;\n        }\n    }\n\n}\n\n",
  "sourcePath": "/Users/korbinianabstreiter/crytoprojects/primetime/contracts/core/modules/collect/PrimetimeModule.sol",
  "compiler": {
    "name": "solc",
    "version": "0.8.10+commit.fc410830.Emscripten.clang"
  },
  "schemaVersion": "3.4.5",
  "updatedAt": "2022-04-22T20:17:17.176Z",
  "devdoc": {
    "author": "Lens Protocol",
    "kind": "dev",
    "methods": {
      "getPublicationData(uint256,uint256)": {
        "params": {
          "profileId": "The token ID of the profile mapped to the publication to query.",
          "pubId": "The publication ID of the publication to query."
        },
        "returns": {
          "_0": "CustomProfilePublicationData The CustomProfilePublicationData struct mapped to that publication."
        }
      },
      "initializePublicationCollectModule(uint256,uint256,bytes)": {
        "params": {
          "data": "The arbitrary data parameter, decoded into:      uint256 amount: The currency total amount to levy.      address currency: The currency address, must be internally whitelisted.      address recipient: The custom recipient address to direct earnings to.      uint16 referralFee: The referral fee to set.      bool followerOnly: Whether only followers should be able to collect.",
          "profileId": "The token ID of the profile of the publisher, passed by the hub.",
          "pubId": "The publication ID of the newly created publication, passed by the hub."
        },
        "returns": {
          "_0": "bytes An abi encoded bytes parameter, which is the same as the passed data parameter."
        }
      },
      "processCollect(uint256,address,uint256,uint256,bytes)": {
        "details": "Processes a collect by:  1. Ensuring the collector is a follower  2. Charging a fee"
      }
    },
    "title": "FeeCollectModule",
    "version": 1
  },
  "userdoc": {
    "kind": "user",
    "methods": {
      "getPublicationData(uint256,uint256)": {
        "notice": "Returns the publication data for a given publication, or an empty struct if that publication was not initialized with this module."
      },
      "initializePublicationCollectModule(uint256,uint256,bytes)": {
        "notice": "This collect module levies a fee on collects and supports referrals. Thus, we need to decode data."
      }
    },
    "notice": "This is a simple Lens CollectModule implementation, inheriting from the ICollectModule interface and the FeeCollectModuleBase abstract contract. This module works by allowing unlimited collects for a publication at a given price.",
    "version": 1
  }
}