{
  "contractName": "ProfileFollowModule",
  "abi": [
    {
      "inputs": [
        {
          "internalType": "address",
          "name": "hub",
          "type": "address"
        }
      ],
      "stateMutability": "nonpayable",
      "type": "constructor"
    },
    {
      "inputs": [],
      "name": "FollowInvalid",
      "type": "error"
    },
    {
      "inputs": [],
      "name": "InitParamsInvalid",
      "type": "error"
    },
    {
      "inputs": [],
      "name": "NotHub",
      "type": "error"
    },
    {
      "inputs": [],
      "name": "NotProfileOwner",
      "type": "error"
    },
    {
      "inputs": [],
      "name": "HUB",
      "outputs": [
        {
          "internalType": "address",
          "name": "",
          "type": "address"
        }
      ],
      "stateMutability": "view",
      "type": "function"
    },
    {
      "inputs": [
        {
          "internalType": "uint256",
          "name": "profileId",
          "type": "uint256"
        },
        {
          "internalType": "address",
          "name": "follower",
          "type": "address"
        },
        {
          "internalType": "uint256",
          "name": "followNFTTokenId",
          "type": "uint256"
        }
      ],
      "name": "isFollowing",
      "outputs": [
        {
          "internalType": "bool",
          "name": "",
          "type": "bool"
        }
      ],
      "stateMutability": "view",
      "type": "function"
    },
    {
      "inputs": [
        {
          "internalType": "uint256",
          "name": "profileId",
          "type": "uint256"
        },
        {
          "internalType": "bytes",
          "name": "data",
          "type": "bytes"
        }
      ],
      "name": "initializeFollowModule",
      "outputs": [
        {
          "internalType": "bytes",
          "name": "",
          "type": "bytes"
        }
      ],
      "stateMutability": "nonpayable",
      "type": "function"
    },
    {
      "inputs": [
        {
          "internalType": "address",
          "name": "follower",
          "type": "address"
        },
        {
          "internalType": "uint256",
          "name": "profileId",
          "type": "uint256"
        },
        {
          "internalType": "bytes",
          "name": "data",
          "type": "bytes"
        }
      ],
      "name": "processFollow",
      "outputs": [],
      "stateMutability": "nonpayable",
      "type": "function"
    },
    {
      "inputs": [
        {
          "internalType": "uint256",
          "name": "profileId",
          "type": "uint256"
        },
        {
          "internalType": "address",
          "name": "from",
          "type": "address"
        },
        {
          "internalType": "address",
          "name": "to",
          "type": "address"
        },
        {
          "internalType": "uint256",
          "name": "followNFTTokenId",
          "type": "uint256"
        }
      ],
      "name": "followModuleTransferHook",
      "outputs": [],
      "stateMutability": "nonpayable",
      "type": "function"
    }
  ],
  "bytecode": "0x60a06040523480156200001157600080fd5b5060405162000dc538038062000dc5833981810160405281019062000037919062000196565b80600073ffffffffffffffffffffffffffffffffffffffff168173ffffffffffffffffffffffffffffffffffffffff161415620000a0576040517f48be0eb300000000000000000000000000000000000000000000000000000000815260040160405180910390fd5b8073ffffffffffffffffffffffffffffffffffffffff1660808173ffffffffffffffffffffffffffffffffffffffff16815250508073ffffffffffffffffffffffffffffffffffffffff167ff1a1fa6b64aa95186f5a1285e76198d0da80d9c5a88062641d447f1d7c54e56c426040516200011c9190620001e3565b60405180910390a2505062000200565b600080fd5b600073ffffffffffffffffffffffffffffffffffffffff82169050919050565b60006200015e8262000131565b9050919050565b620001708162000151565b81146200017c57600080fd5b50565b600081519050620001908162000165565b92915050565b600060208284031215620001af57620001ae6200012c565b5b6000620001bf848285016200017f565b91505092915050565b6000819050919050565b620001dd81620001c8565b82525050565b6000602082019050620001fa6000830184620001d2565b92915050565b608051610b8d6200023860003960008181610114015281816101c301528181610399015281816105b501526106ae0152610b8d6000f3fe608060405234801561001057600080fd5b50600436106100575760003560e01c80630e096ae11461005c5780633cb22cc414610078578063451c3d0c146100945780639713958a146100c4578063a4c52b86146100f4575b600080fd5b610076600480360381019061007191906107d3565b610112565b005b610092600480360381019061008d9190610847565b61038e565b005b6100ae60048036038101906100a991906108ae565b610394565b6040516100bb919061091c565b60405180910390f35b6100de60048036038101906100d99190610937565b6105b1565b6040516100eb9190610a30565b60405180910390f35b6100fc6106ac565b6040516101099190610a61565b60405180910390f35b7f000000000000000000000000000000000000000000000000000000000000000073ffffffffffffffffffffffffffffffffffffffff163373ffffffffffffffffffffffffffffffffffffffff1614610197576040517f9de9741800000000000000000000000000000000000000000000000000000000815260040160405180910390fd5b600082828101906101a89190610a7c565b90508473ffffffffffffffffffffffffffffffffffffffff167f000000000000000000000000000000000000000000000000000000000000000073ffffffffffffffffffffffffffffffffffffffff16636352211e836040518263ffffffff1660e01b815260040161021a9190610ab8565b602060405180830381865afa158015610237573d6000803e3d6000fd5b505050506040513d601f19601f8201168201806040525081019061025b9190610ae8565b73ffffffffffffffffffffffffffffffffffffffff16146102a8576040517ff194fae500000000000000000000000000000000000000000000000000000000815260040160405180910390fd5b6000600160008681526020019081526020016000205490506000808681526020019081526020016000206000828152602001908152602001600020600083815260200190815260200160002060009054906101000a900460ff1615610339576040517fd325a6d600000000000000000000000000000000000000000000000000000000815260040160405180910390fd5b60016000808781526020019081526020016000206000838152602001908152602001600020600084815260200190815260200160002060006101000a81548160ff021916908315150217905550505050505050565b50505050565b6000807f000000000000000000000000000000000000000000000000000000000000000073ffffffffffffffffffffffffffffffffffffffff1663a9ec6563866040518263ffffffff1660e01b81526004016103f09190610ab8565b602060405180830381865afa15801561040d573d6000803e3d6000fd5b505050506040513d601f19601f820116820180604052508101906104319190610ae8565b9050600073ffffffffffffffffffffffffffffffffffffffff168173ffffffffffffffffffffffffffffffffffffffff1614156104725760009150506105aa565b60008314610527578373ffffffffffffffffffffffffffffffffffffffff168173ffffffffffffffffffffffffffffffffffffffff16636352211e856040518263ffffffff1660e01b81526004016104ca9190610ab8565b602060405180830381865afa1580156104e7573d6000803e3d6000fd5b505050506040513d601f19601f8201168201806040525081019061050b9190610ae8565b73ffffffffffffffffffffffffffffffffffffffff16146105a6565b60008173ffffffffffffffffffffffffffffffffffffffff166370a08231866040518263ffffffff1660e01b81526004016105629190610a61565b602060405180830381865afa15801561057f573d6000803e3d6000fd5b505050506040513d601f19601f820116820180604052508101906105a39190610b2a565b14155b9150505b9392505050565b60607f000000000000000000000000000000000000000000000000000000000000000073ffffffffffffffffffffffffffffffffffffffff163373ffffffffffffffffffffffffffffffffffffffff1614610638576040517f9de9741800000000000000000000000000000000000000000000000000000000815260040160405180910390fd5b82828101906106479190610a7c565b600160008681526020019081526020016000208190555082828080601f016020809104026020016040519081016040528093929190818152602001838380828437600081840152601f19601f8201169050808301925050505050505090509392505050565b7f000000000000000000000000000000000000000000000000000000000000000081565b600080fd5b600080fd5b600073ffffffffffffffffffffffffffffffffffffffff82169050919050565b6000610705826106da565b9050919050565b610715816106fa565b811461072057600080fd5b50565b6000813590506107328161070c565b92915050565b6000819050919050565b61074b81610738565b811461075657600080fd5b50565b60008135905061076881610742565b92915050565b600080fd5b600080fd5b600080fd5b60008083601f8401126107935761079261076e565b5b8235905067ffffffffffffffff8111156107b0576107af610773565b5b6020830191508360018202830111156107cc576107cb610778565b5b9250929050565b600080600080606085870312156107ed576107ec6106d0565b5b60006107fb87828801610723565b945050602061080c87828801610759565b935050604085013567ffffffffffffffff81111561082d5761082c6106d5565b5b6108398782880161077d565b925092505092959194509250565b60008060008060808587031215610861576108606106d0565b5b600061086f87828801610759565b945050602061088087828801610723565b935050604061089187828801610723565b92505060606108a287828801610759565b91505092959194509250565b6000806000606084860312156108c7576108c66106d0565b5b60006108d586828701610759565b93505060206108e686828701610723565b92505060406108f786828701610759565b9150509250925092565b60008115159050919050565b61091681610901565b82525050565b6000602082019050610931600083018461090d565b92915050565b6000806000604084860312156109505761094f6106d0565b5b600061095e86828701610759565b935050602084013567ffffffffffffffff81111561097f5761097e6106d5565b5b61098b8682870161077d565b92509250509250925092565b600081519050919050565b600082825260208201905092915050565b60005b838110156109d15780820151818401526020810190506109b6565b838111156109e0576000848401525b50505050565b6000601f19601f8301169050919050565b6000610a0282610997565b610a0c81856109a2565b9350610a1c8185602086016109b3565b610a25816109e6565b840191505092915050565b60006020820190508181036000830152610a4a81846109f7565b905092915050565b610a5b816106fa565b82525050565b6000602082019050610a766000830184610a52565b92915050565b600060208284031215610a9257610a916106d0565b5b6000610aa084828501610759565b91505092915050565b610ab281610738565b82525050565b6000602082019050610acd6000830184610aa9565b92915050565b600081519050610ae28161070c565b92915050565b600060208284031215610afe57610afd6106d0565b5b6000610b0c84828501610ad3565b91505092915050565b600081519050610b2481610742565b92915050565b600060208284031215610b4057610b3f6106d0565b5b6000610b4e84828501610b15565b9150509291505056fea26469706673582212200468949f829a69ba146841f5e97cad28526cf04e8f782bf42f441204db15e06764736f6c634300080a0033",
  "immutableReferences": {
    "7695": [
      {
        "length": 32,
        "start": 276
      },
      {
        "length": 32,
        "start": 451
      },
      {
        "length": 32,
        "start": 921
      },
      {
        "length": 32,
        "start": 1461
      },
      {
        "length": 32,
        "start": 1710
      }
    ]
  },
  "source": "// SPDX-License-Identifier: AGPL-3.0-only\n\npragma solidity 0.8.10;\n\nimport {IFollowModule} from '../../../interfaces/IFollowModule.sol';\nimport {Errors} from '../../../libraries/Errors.sol';\nimport {ModuleBase} from '../ModuleBase.sol';\nimport {FollowValidatorFollowModuleBase} from './FollowValidatorFollowModuleBase.sol';\nimport {IERC721} from '@openzeppelin/contracts/token/ERC721/IERC721.sol';\n\n/**\n * @title ProfileFollowModule\n * @author Lens Protocol\n *\n * @notice This follow module only allows profiles that are not already following in the current revision to follow.\n */\ncontract ProfileFollowModule is FollowValidatorFollowModuleBase {\n    mapping(uint256 => mapping(uint256 => mapping(uint256 => bool)))\n        internal _isProfileFollowingByRevisionByProfile;\n\n    mapping(uint256 => uint256) internal _revisionByProfile;\n\n    constructor(address hub) ModuleBase(hub) {}\n\n    /**\n     * @notice This follow module works on custom profile owner approvals.\n     *\n     * @param profileId The profile ID of the profile to initialize this module for.\n     * @param data The arbitrary data parameter, decoded into:\n     *      uint256 revision: The revision number to be used in this module initialization.\n     *\n     * @return bytes An abi encoded bytes parameter, which is the same as the passed data parameter.\n     */\n    function initializeFollowModule(uint256 profileId, bytes calldata data)\n        external\n        override\n        onlyHub\n        returns (bytes memory)\n    {\n        _revisionByProfile[profileId] = abi.decode(data, (uint256));\n        return data;\n    }\n\n    /**\n     * @dev Processes a follow by:\n     *  1. Validating that the follower owns the profile passed through the data param\n     *  2. Validating that the profile that is being used to execute the follow is not already following\n     *     the given profile in the current revision\n     */\n    function processFollow(\n        address follower,\n        uint256 profileId,\n        bytes calldata data\n    ) external override onlyHub {\n        uint256 followerProfileId = abi.decode(data, (uint256));\n        if (IERC721(HUB).ownerOf(followerProfileId) != follower) {\n            revert Errors.NotProfileOwner();\n        }\n        uint256 revision = _revisionByProfile[profileId];\n        if (_isProfileFollowingByRevisionByProfile[profileId][revision][followerProfileId]) {\n            revert Errors.FollowInvalid();\n        } else {\n            _isProfileFollowingByRevisionByProfile[profileId][revision][followerProfileId] = true;\n        }\n    }\n\n    /**\n     * @dev We don't need to execute any additional logic on transfers in this follow module.\n     */\n    function followModuleTransferHook(\n        uint256 profileId,\n        address from,\n        address to,\n        uint256 followNFTTokenId\n    ) external override {}\n}\n",
  "sourcePath": "/Users/korbinianabstreiter/crytoprojects/primetime/contracts/core/modules/follow/ProfileFollowModule.sol",
  "compiler": {
    "name": "solc",
    "version": "0.8.10+commit.fc410830.Emscripten.clang"
  },
  "schemaVersion": "3.4.5",
  "updatedAt": "2022-04-22T14:49:53.859Z",
  "devdoc": {
    "author": "Lens Protocol",
    "kind": "dev",
    "methods": {
      "followModuleTransferHook(uint256,address,address,uint256)": {
        "details": "We don't need to execute any additional logic on transfers in this follow module."
      },
      "initializeFollowModule(uint256,bytes)": {
        "params": {
          "data": "The arbitrary data parameter, decoded into:      uint256 revision: The revision number to be used in this module initialization.",
          "profileId": "The profile ID of the profile to initialize this module for."
        },
        "returns": {
          "_0": "bytes An abi encoded bytes parameter, which is the same as the passed data parameter."
        }
      },
      "processFollow(address,uint256,bytes)": {
        "details": "Processes a follow by:  1. Validating that the follower owns the profile passed through the data param  2. Validating that the profile that is being used to execute the follow is not already following     the given profile in the current revision"
      }
    },
    "title": "ProfileFollowModule",
    "version": 1
  },
  "userdoc": {
    "kind": "user",
    "methods": {
      "initializeFollowModule(uint256,bytes)": {
        "notice": "This follow module works on custom profile owner approvals."
      },
      "isFollowing(uint256,address,uint256)": {
        "notice": "Standard function to validate follow NFT ownership. This module is agnostic to follow NFT token IDs and other properties."
      }
    },
    "notice": "This follow module only allows profiles that are not already following in the current revision to follow.",
    "version": 1
  }
}