{
  "contractName": "RevertCollectModule",
  "abi": [
    {
      "inputs": [],
      "name": "CollectNotAllowed",
      "type": "error"
    },
    {
      "inputs": [
        {
          "internalType": "uint256",
          "name": "profileId",
          "type": "uint256"
        },
        {
          "internalType": "uint256",
          "name": "pubId",
          "type": "uint256"
        },
        {
          "internalType": "bytes",
          "name": "data",
          "type": "bytes"
        }
      ],
      "name": "initializePublicationCollectModule",
      "outputs": [
        {
          "internalType": "bytes",
          "name": "",
          "type": "bytes"
        }
      ],
      "stateMutability": "pure",
      "type": "function"
    },
    {
      "inputs": [
        {
          "internalType": "uint256",
          "name": "referrerProfileId",
          "type": "uint256"
        },
        {
          "internalType": "address",
          "name": "collector",
          "type": "address"
        },
        {
          "internalType": "uint256",
          "name": "profileId",
          "type": "uint256"
        },
        {
          "internalType": "uint256",
          "name": "pubId",
          "type": "uint256"
        },
        {
          "internalType": "bytes",
          "name": "data",
          "type": "bytes"
        }
      ],
      "name": "processCollect",
      "outputs": [],
      "stateMutability": "pure",
      "type": "function"
    }
  ],
  "bytecode": "0x608060405234801561001057600080fd5b50610444806100206000396000f3fe608060405234801561001057600080fd5b50600436106100365760003560e01c8063c233f9511461003b578063e49c3dda1461006b575b600080fd5b610055600480360381019061005091906101b8565b610087565b60405161006291906102c5565b60405180910390f35b61008560048036038101906100809190610345565b6100e1565b005b6060600067ffffffffffffffff8111156100a4576100a36103df565b5b6040519080825280601f01601f1916602001820160405280156100d65781602001600182028036833780820191505090505b509050949350505050565b6040517fad4cf0a300000000000000000000000000000000000000000000000000000000815260040160405180910390fd5b600080fd5b600080fd5b6000819050919050565b6101308161011d565b811461013b57600080fd5b50565b60008135905061014d81610127565b92915050565b600080fd5b600080fd5b600080fd5b60008083601f84011261017857610177610153565b5b8235905067ffffffffffffffff81111561019557610194610158565b5b6020830191508360018202830111156101b1576101b061015d565b5b9250929050565b600080600080606085870312156101d2576101d1610113565b5b60006101e08782880161013e565b94505060206101f18782880161013e565b935050604085013567ffffffffffffffff81111561021257610211610118565b5b61021e87828801610162565b925092505092959194509250565b600081519050919050565b600082825260208201905092915050565b60005b8381101561026657808201518184015260208101905061024b565b83811115610275576000848401525b50505050565b6000601f19601f8301169050919050565b60006102978261022c565b6102a18185610237565b93506102b1818560208601610248565b6102ba8161027b565b840191505092915050565b600060208201905081810360008301526102df818461028c565b905092915050565b600073ffffffffffffffffffffffffffffffffffffffff82169050919050565b6000610312826102e7565b9050919050565b61032281610307565b811461032d57600080fd5b50565b60008135905061033f81610319565b92915050565b60008060008060008060a0878903121561036257610361610113565b5b600061037089828a0161013e565b965050602061038189828a01610330565b955050604061039289828a0161013e565b94505060606103a389828a0161013e565b935050608087013567ffffffffffffffff8111156103c4576103c3610118565b5b6103d089828a01610162565b92509250509295509295509295565b7f4e487b7100000000000000000000000000000000000000000000000000000000600052604160045260246000fdfea2646970667358221220c6f41b269e67710f8d5cae74ea7132c1c678f44d77130301b7d7f376642dc38264736f6c634300080a0033",
  "immutableReferences": {},
  "source": "// SPDX-License-Identifier: AGPL-3.0-only\n\npragma solidity 0.8.10;\n\nimport {ICollectModule} from '../../../interfaces/ICollectModule.sol';\nimport {Errors} from '../../../libraries/Errors.sol';\n\n/**\n * @title RevertCollectModule\n * @author Lens Protocol\n *\n * @notice This is a simple Lens CollectModule implementation, inheriting from the ICollectModule interface.\n *\n * This module works by disallowing all collects.\n */\ncontract RevertCollectModule is ICollectModule {\n    /**\n     * @dev There is nothing needed at initialization.\n     */\n    function initializePublicationCollectModule(\n        uint256 profileId,\n        uint256 pubId,\n        bytes calldata data\n    ) external pure override returns (bytes memory) {\n        return new bytes(0);\n    }\n\n    /**\n     * @dev Processes a collect by:\n     *  1. Always reverting\n     */\n    function processCollect(\n        uint256 referrerProfileId,\n        address collector,\n        uint256 profileId,\n        uint256 pubId,\n        bytes calldata data\n    ) external pure override {\n        revert Errors.CollectNotAllowed();\n    }\n}\n",
  "sourcePath": "/Users/korbinianabstreiter/crytoprojects/primetime/contracts/core/modules/collect/RevertCollectModule.sol",
  "compiler": {
    "name": "solc",
    "version": "0.8.10+commit.fc410830.Emscripten.clang"
  },
  "schemaVersion": "3.4.5",
  "updatedAt": "2022-04-22T14:49:53.844Z",
  "devdoc": {
    "author": "Lens Protocol",
    "kind": "dev",
    "methods": {
      "initializePublicationCollectModule(uint256,uint256,bytes)": {
        "details": "There is nothing needed at initialization."
      },
      "processCollect(uint256,address,uint256,uint256,bytes)": {
        "details": "Processes a collect by:  1. Always reverting"
      }
    },
    "title": "RevertCollectModule",
    "version": 1
  },
  "userdoc": {
    "kind": "user",
    "methods": {},
    "notice": "This is a simple Lens CollectModule implementation, inheriting from the ICollectModule interface. This module works by disallowing all collects.",
    "version": 1
  }
}