{
  "contractName": "UIDataProvider",
  "abi": [
    {
      "inputs": [
        {
          "internalType": "contract ILensHub",
          "name": "hub",
          "type": "address"
        }
      ],
      "stateMutability": "nonpayable",
      "type": "constructor"
    },
    {
      "inputs": [
        {
          "internalType": "uint256",
          "name": "profileId",
          "type": "uint256"
        }
      ],
      "name": "getLatestDataByProfile",
      "outputs": [
        {
          "components": [
            {
              "components": [
                {
                  "internalType": "uint256",
                  "name": "pubCount",
                  "type": "uint256"
                },
                {
                  "internalType": "address",
                  "name": "followModule",
                  "type": "address"
                },
                {
                  "internalType": "address",
                  "name": "followNFT",
                  "type": "address"
                },
                {
                  "internalType": "string",
                  "name": "handle",
                  "type": "string"
                },
                {
                  "internalType": "string",
                  "name": "imageURI",
                  "type": "string"
                },
                {
                  "internalType": "string",
                  "name": "followNFTURI",
                  "type": "string"
                }
              ],
              "internalType": "struct DataTypes.ProfileStruct",
              "name": "profileStruct",
              "type": "tuple"
            },
            {
              "components": [
                {
                  "internalType": "uint256",
                  "name": "profileIdPointed",
                  "type": "uint256"
                },
                {
                  "internalType": "uint256",
                  "name": "pubIdPointed",
                  "type": "uint256"
                },
                {
                  "internalType": "string",
                  "name": "contentURI",
                  "type": "string"
                },
                {
                  "internalType": "address",
                  "name": "referenceModule",
                  "type": "address"
                },
                {
                  "internalType": "address",
                  "name": "collectModule",
                  "type": "address"
                },
                {
                  "internalType": "address",
                  "name": "collectNFT",
                  "type": "address"
                }
              ],
              "internalType": "struct DataTypes.PublicationStruct",
              "name": "publicationStruct",
              "type": "tuple"
            }
          ],
          "internalType": "struct LatestData",
          "name": "",
          "type": "tuple"
        }
      ],
      "stateMutability": "view",
      "type": "function"
    },
    {
      "inputs": [
        {
          "internalType": "string",
          "name": "handle",
          "type": "string"
        }
      ],
      "name": "getLatestDataByHandle",
      "outputs": [
        {
          "components": [
            {
              "components": [
                {
                  "internalType": "uint256",
                  "name": "pubCount",
                  "type": "uint256"
                },
                {
                  "internalType": "address",
                  "name": "followModule",
                  "type": "address"
                },
                {
                  "internalType": "address",
                  "name": "followNFT",
                  "type": "address"
                },
                {
                  "internalType": "string",
                  "name": "handle",
                  "type": "string"
                },
                {
                  "internalType": "string",
                  "name": "imageURI",
                  "type": "string"
                },
                {
                  "internalType": "string",
                  "name": "followNFTURI",
                  "type": "string"
                }
              ],
              "internalType": "struct DataTypes.ProfileStruct",
              "name": "profileStruct",
              "type": "tuple"
            },
            {
              "components": [
                {
                  "internalType": "uint256",
                  "name": "profileIdPointed",
                  "type": "uint256"
                },
                {
                  "internalType": "uint256",
                  "name": "pubIdPointed",
                  "type": "uint256"
                },
                {
                  "internalType": "string",
                  "name": "contentURI",
                  "type": "string"
                },
                {
                  "internalType": "address",
                  "name": "referenceModule",
                  "type": "address"
                },
                {
                  "internalType": "address",
                  "name": "collectModule",
                  "type": "address"
                },
                {
                  "internalType": "address",
                  "name": "collectNFT",
                  "type": "address"
                }
              ],
              "internalType": "struct DataTypes.PublicationStruct",
              "name": "publicationStruct",
              "type": "tuple"
            }
          ],
          "internalType": "struct LatestData",
          "name": "",
          "type": "tuple"
        }
      ],
      "stateMutability": "view",
      "type": "function"
    }
  ],
  "bytecode": "0x60a060405234801561001057600080fd5b5060405162000ee838038062000ee8833981810160405281019061003491906100e3565b8073ffffffffffffffffffffffffffffffffffffffff1660808173ffffffffffffffffffffffffffffffffffffffff168152505050610110565b600080fd5b600073ffffffffffffffffffffffffffffffffffffffff82169050919050565b600061009e82610073565b9050919050565b60006100b082610093565b9050919050565b6100c0816100a5565b81146100cb57600080fd5b50565b6000815190506100dd816100b7565b92915050565b6000602082840312156100f9576100f861006e565b5b6000610107848285016100ce565b91505092915050565b608051610da1620001476000396000818160a70152818161014501528181610200015281816102b801526103730152610da16000f3fe608060405234801561001057600080fd5b50600436106100365760003560e01c80639d933d401461003b578063ed88bde41461006b575b600080fd5b61005560048036038101906100509190610678565b61009b565b6040516100629190610907565b60405180910390f35b61008560048036038101906100809190610955565b6102ac565b6040516100929190610907565b60405180910390f35b6100a361041e565b60007f000000000000000000000000000000000000000000000000000000000000000073ffffffffffffffffffffffffffffffffffffffff166320fa728a846040518263ffffffff1660e01b81526004016100fe91906109cc565b602060405180830381865afa15801561011b573d6000803e3d6000fd5b505050506040513d601f19601f8201168201806040525081019061013f9190610a03565b905060007f000000000000000000000000000000000000000000000000000000000000000073ffffffffffffffffffffffffffffffffffffffff1663f08f4f64836040518263ffffffff1660e01b815260040161019c9190610a3f565b600060405180830381865afa1580156101b9573d6000803e3d6000fd5b505050506040513d6000823e3d601f19601f820116820180604052508101906101e29190610bf4565b905060008160000151905060405180604001604052808381526020017f000000000000000000000000000000000000000000000000000000000000000073ffffffffffffffffffffffffffffffffffffffff1663c736c99086856040518363ffffffff1660e01b8152600401610259929190610c3d565b600060405180830381865afa158015610276573d6000803e3d6000fd5b505050506040513d6000823e3d601f19601f8201168201806040525081019061029f9190610d22565b8152509350505050919050565b6102b461041e565b60007f000000000000000000000000000000000000000000000000000000000000000073ffffffffffffffffffffffffffffffffffffffff1663f08f4f64846040518263ffffffff1660e01b815260040161030f9190610a3f565b600060405180830381865afa15801561032c573d6000803e3d6000fd5b505050506040513d6000823e3d601f19601f820116820180604052508101906103559190610bf4565b905060008160000151905060405180604001604052808381526020017f000000000000000000000000000000000000000000000000000000000000000073ffffffffffffffffffffffffffffffffffffffff1663c736c99087856040518363ffffffff1660e01b81526004016103cc929190610c3d565b600060405180830381865afa1580156103e9573d6000803e3d6000fd5b505050506040513d6000823e3d601f19601f820116820180604052508101906104129190610d22565b81525092505050919050565b6040518060400160405280610431610444565b815260200161043e6104a6565b81525090565b6040518060c0016040528060008152602001600073ffffffffffffffffffffffffffffffffffffffff168152602001600073ffffffffffffffffffffffffffffffffffffffff1681526020016060815260200160608152602001606081525090565b6040518060c00160405280600081526020016000815260200160608152602001600073ffffffffffffffffffffffffffffffffffffffff168152602001600073ffffffffffffffffffffffffffffffffffffffff168152602001600073ffffffffffffffffffffffffffffffffffffffff1681525090565b6000604051905090565b600080fd5b600080fd5b600080fd5b600080fd5b6000601f19601f8301169050919050565b7f4e487b7100000000000000000000000000000000000000000000000000000000600052604160045260246000fd5b6105858261053c565b810181811067ffffffffffffffff821117156105a4576105a361054d565b5b80604052505050565b60006105b761051e565b90506105c3828261057c565b919050565b600067ffffffffffffffff8211156105e3576105e261054d565b5b6105ec8261053c565b9050602081019050919050565b82818337600083830152505050565b600061061b610616846105c8565b6105ad565b90508281526020810184848401111561063757610636610537565b5b6106428482856105f9565b509392505050565b600082601f83011261065f5761065e610532565b5b813561066f848260208601610608565b91505092915050565b60006020828403121561068e5761068d610528565b5b600082013567ffffffffffffffff8111156106ac576106ab61052d565b5b6106b88482850161064a565b91505092915050565b6000819050919050565b6106d4816106c1565b82525050565b600073ffffffffffffffffffffffffffffffffffffffff82169050919050565b6000610705826106da565b9050919050565b610715816106fa565b82525050565b600081519050919050565b600082825260208201905092915050565b60005b8381101561075557808201518184015260208101905061073a565b83811115610764576000848401525b50505050565b60006107758261071b565b61077f8185610726565b935061078f818560208601610737565b6107988161053c565b840191505092915050565b600060c0830160008301516107bb60008601826106cb565b5060208301516107ce602086018261070c565b5060408301516107e1604086018261070c565b50606083015184820360608601526107f9828261076a565b91505060808301518482036080860152610813828261076a565b91505060a083015184820360a086015261082d828261076a565b9150508091505092915050565b600060c08301600083015161085260008601826106cb565b50602083015161086560208601826106cb565b506040830151848203604086015261087d828261076a565b9150506060830151610892606086018261070c565b5060808301516108a5608086018261070c565b5060a08301516108b860a086018261070c565b508091505092915050565b600060408301600083015184820360008601526108e082826107a3565b915050602083015184820360208601526108fa828261083a565b9150508091505092915050565b6000602082019050818103600083015261092181846108c3565b905092915050565b610932816106c1565b811461093d57600080fd5b50565b60008135905061094f81610929565b92915050565b60006020828403121561096b5761096a610528565b5b600061097984828501610940565b91505092915050565b600082825260208201905092915050565b600061099e8261071b565b6109a88185610982565b93506109b8818560208601610737565b6109c18161053c565b840191505092915050565b600060208201905081810360008301526109e68184610993565b905092915050565b6000815190506109fd81610929565b92915050565b600060208284031215610a1957610a18610528565b5b6000610a27848285016109ee565b91505092915050565b610a39816106c1565b82525050565b6000602082019050610a546000830184610a30565b92915050565b600080fd5b600080fd5b610a6d816106fa565b8114610a7857600080fd5b50565b600081519050610a8a81610a64565b92915050565b6000610aa3610a9e846105c8565b6105ad565b905082815260208101848484011115610abf57610abe610537565b5b610aca848285610737565b509392505050565b600082601f830112610ae757610ae6610532565b5b8151610af7848260208601610a90565b91505092915050565b600060c08284031215610b1657610b15610a5a565b5b610b2060c06105ad565b90506000610b30848285016109ee565b6000830152506020610b4484828501610a7b565b6020830152506040610b5884828501610a7b565b604083015250606082015167ffffffffffffffff811115610b7c57610b7b610a5f565b5b610b8884828501610ad2565b606083015250608082015167ffffffffffffffff811115610bac57610bab610a5f565b5b610bb884828501610ad2565b60808301525060a082015167ffffffffffffffff811115610bdc57610bdb610a5f565b5b610be884828501610ad2565b60a08301525092915050565b600060208284031215610c0a57610c09610528565b5b600082015167ffffffffffffffff811115610c2857610c2761052d565b5b610c3484828501610b00565b91505092915050565b6000604082019050610c526000830185610a30565b610c5f6020830184610a30565b9392505050565b600060c08284031215610c7c57610c7b610a5a565b5b610c8660c06105ad565b90506000610c96848285016109ee565b6000830152506020610caa848285016109ee565b602083015250604082015167ffffffffffffffff811115610cce57610ccd610a5f565b5b610cda84828501610ad2565b6040830152506060610cee84828501610a7b565b6060830152506080610d0284828501610a7b565b60808301525060a0610d1684828501610a7b565b60a08301525092915050565b600060208284031215610d3857610d37610528565b5b600082015167ffffffffffffffff811115610d5657610d5561052d565b5b610d6284828501610c66565b9150509291505056fea2646970667358221220b314680398ac9e6748524fd52a89b6c38460abdd91fc24c3fffcf6c02a1f295664736f6c634300080a0033",
  "immutableReferences": {
    "15553": [
      {
        "length": 32,
        "start": 167
      },
      {
        "length": 32,
        "start": 325
      },
      {
        "length": 32,
        "start": 512
      },
      {
        "length": 32,
        "start": 696
      },
      {
        "length": 32,
        "start": 883
      }
    ]
  },
  "source": "// SPDX-License-Identifier: AGPL-3.0-only\n\npragma solidity 0.8.10;\n\nimport {ILensHub} from '../interfaces/ILensHub.sol';\nimport {DataTypes} from '../libraries/DataTypes.sol';\n\n/**\n * @dev This struct contains both a `ProfileStruct` and a `PublicationStruct`.\n *\n * @param profileStruct A standard profile struct.\n * @param publicationStruct A standard publicationStruct.\n */\nstruct LatestData {\n    DataTypes.ProfileStruct profileStruct;\n    DataTypes.PublicationStruct publicationStruct;\n}\n\n/**\n * @title UIDataProvider\n * @author Lens Protocol\n *\n * @dev This is a helper contract to fetch a profile and its latest publication in a single call.\n */\ncontract UIDataProvider {\n    ILensHub immutable HUB;\n\n    constructor(ILensHub hub) {\n        HUB = hub;\n    }\n\n    /**\n     * @notice Returns the profile struct and latest publication struct associated with the passed\n     * profile ID.\n     *\n     * @param profileId The profile ID to query.\n     *\n     * @return LensData A struct containing the `ProfileStruct` and the `PublicationStruct` queried.\n     */\n    function getLatestDataByProfile(uint256 profileId) external view returns (LatestData memory) {\n        DataTypes.ProfileStruct memory profileStruct = HUB.getProfile(profileId);\n        uint256 pubCount = profileStruct.pubCount;\n        return LatestData(profileStruct, HUB.getPub(profileId, pubCount));\n    }\n\n    /**\n     * @notice Returns the profile struct and latest publication struct associated with the passed\n     * profile ID.\n     *\n     * @param handle The handle to query.\n     *\n     * @return LensData A struct containing the `ProfileStruct` and the `PublicationStruct` queried.\n     */\n    function getLatestDataByHandle(string memory handle) external view returns (LatestData memory) {\n        uint256 profileId = HUB.getProfileIdByHandle(handle);\n        DataTypes.ProfileStruct memory profileStruct = HUB.getProfile(profileId);\n        uint256 pubCount = profileStruct.pubCount;\n        return LatestData(profileStruct, HUB.getPub(profileId, pubCount));\n    }\n}\n",
  "sourcePath": "/Users/korbinianabstreiter/crytoprojects/primetime/contracts/misc/UIDataProvider.sol",
  "compiler": {
    "name": "solc",
    "version": "0.8.10+commit.fc410830.Emscripten.clang"
  },
  "schemaVersion": "3.4.5",
  "updatedAt": "2022-04-22T14:49:53.917Z",
  "devdoc": {
    "author": "Lens Protocol",
    "details": "This is a helper contract to fetch a profile and its latest publication in a single call.",
    "kind": "dev",
    "methods": {
      "getLatestDataByHandle(string)": {
        "params": {
          "handle": "The handle to query."
        },
        "returns": {
          "_0": "LensData A struct containing the `ProfileStruct` and the `PublicationStruct` queried."
        }
      },
      "getLatestDataByProfile(uint256)": {
        "params": {
          "profileId": "The profile ID to query."
        },
        "returns": {
          "_0": "LensData A struct containing the `ProfileStruct` and the `PublicationStruct` queried."
        }
      }
    },
    "title": "UIDataProvider",
    "version": 1
  },
  "userdoc": {
    "kind": "user",
    "methods": {
      "getLatestDataByHandle(string)": {
        "notice": "Returns the profile struct and latest publication struct associated with the passed profile ID."
      },
      "getLatestDataByProfile(uint256)": {
        "notice": "Returns the profile struct and latest publication struct associated with the passed profile ID."
      }
    },
    "version": 1
  }
}